:10000000FCC000002BC1000029C1000027C1000076
:1000100025C1000023C1000021C100001FC1000054
:100020001DC100001BC1000019C1000017C1000064
:1000300015C1000013C1000011C100000FC1000074
:100040000DC100000BC1000009C1000007C1000084
:1000500005C1000003C1000001C100004CC7000041
:10006000FDC000000C94C2090C94F809F7C0000010
:10007000F5C00000F3C00000F1C00000EFC00000B8
:10008000EDC00000EBC00000E9C00000E7C00000C8
:10009000E5C00000E3C00000E1C00000FEC50000B4
:1000A000DDC00000DBC00000D9C00000D7C00000E8
:1000B000D5C00000D3C00000D1C00000CFC00000F8
:1000C000CDC00000CBC00000C9C00000C7C0000008
:1000D000C5C00000C3C00000C1C00000BFC0000018
:1000E000BDC000004B084E083D0841084708850880
:1000F000520856085C08600864086A086E087208AE
:10010000850878087C08800800000A0B02090C0D9D
:100110000E080703040100000000000000000000BA
:1001200000000000000000000000000000000000CF
:10013000000000001211100000000000000000008C
:1001400000000000000000000000000000000102AC
:1001500010202008081020401020408002010201D9
:100160000804020101020408102040808040201091
:1001700008040201800402018040201008040201EA
:100180000804020101020408102040800102040852
:10019000102040800505050507050808080802022B
:1001A00002020A0A08080404040401010101010111
:1001B00001010303030303030303040707070C0CF4
:1001C0000C0C0C0C0C0C02020202060606060606BB
:1001D00006060B0B0B0B0B0B0B0B00002200250074
:1001E00028002B002E003100340002010000050120
:1001F00008010B01A803A8042A0A11241FBECFEF8F
:10020000D1E2DEBFCDBF00E00CBF12E0A0E0B2E063
:10021000E4EBF8E100E00BBF02C007900D92A636B8
:10022000B107D9F723E0A6E6B2E001C01D92AD3ECA
:10023000B207E1F711E0CAEFD1E000E006C0229773
:100240000109FE010BBF0E94400CC43FD10780E0B2
:100250000807A9F70E946E0A0C94580CD1CEFC0135
:10026000838194818130910531F0029739F4808146
:100270008068808303C0818180688183429844982C
:1002800000000000439A0000000000000000000091
:10029000429A0000000020E030E0439842980000BD
:1002A000000048B1808190E0022E02C095958795AC
:1002B0000A94E2F78170992773E0880F991F7A9565
:1002C000E1F7482B48B900000000000000000000E2
:1002D000429A000000002F5F3F4F28303105E9F6B9
:1002E00020E030E0439842980000000048B181814E
:1002F00090E0022E02C0959587950A94E2F78170EE
:10030000992763E0880F991F6A95E1F7482B48B950
:1003100000000000000000000000429A0000000001
:100320002F5F3F4F28303105E9F620E030E0439859
:1003300042980000000048B1828190E0022E02C085
:10034000959587950A94E2F78170992753E0880F75
:10035000991F5A95E1F7482B48B9000000000000AA
:1003600000000000429A000000002F5F3F4F28303D
:100370003105E9F68BE0429800000000439A000046
:100380000000000000000000429A000000008150C0
:1003900091F7449A08951F93CF93DF9326E040E0AE
:1003A00051EE60E070E080E593E00E94890B2FEF52
:1003B00081EE94E0215080409040E1F700C00000C1
:1003C00060E072E080E593E01FD710918202D09147
:1003D0008302C091840210928202109283021092D2
:1003E000840282E892E03BDF10928602109285023E
:1003F00010938202D0938302C093840287E892E034
:1004000074D260E070E08BE690E0ACD264E070E023
:100410008AE190E0A7D2C4D2C9E1D0E067E470E0FD
:1004200088E490E01CD3AA2797FDA095BA2F4091AD
:100430006602509167026091680270916902480FEC
:10044000591F6A1F7B1F4093660250936702609397
:100450006802709369022FEF81EE94E02150804092
:100460009040E1F700C000002197C1F6609166025C
:1004700070916702809168029091690229E130E0F1
:1004800040E050E00E941E0C209366023093670209
:100490004093680250936902DF91CF911F9175C517
:1004A0004F925F926F927F928F929F92AF92BF9284
:1004B000CF92DF92EF92FF92CF93DF9300D01F9203
:1004C000CDB7DEB780916E0290916F02A09170025D
:1004D000B091710280936A0290936B02A0936C02B8
:1004E000B0936D0267E470E088E490E0B8D2AA2788
:1004F00097FDA095BA2F80936E0290936F02A09300
:100500007002B093710280917A0290917B02A09167
:100510007C02B0917D028093760290937702A09343
:100520007802B093790231D52B013C0160937A02B5
:1005300070937B0280937C0290937D028091720283
:1005400090917302A0917402B091750289839A838D
:10055000AB83BC83C0906E02D0906F02E0907002BB
:10056000F09071028090660290906702A0906802FD
:10057000B0906902C701B601681979098A099B0917
:1005800024E630E040E050E00E941E0CD501C4019A
:100590000596A11DB11D8C159D05AE05BF0554F036
:1005A00095E0891A9108A108B108C814D904EA0491
:1005B000FB0484F489819A81AB81BC81820F931FF3
:1005C000A41FB51F8093720290937302A0937402CC
:1005D000B09375028091760290917702A091780293
:1005E000B0917902481A590A6A0A7B0A40927E023F
:1005F00050927F026092800270928102809172021A
:1006000090917302F3E0880F991FFA95E1F7B20118
:100610000E94E90B1092860210928502683EA3E0C8
:100620007A07B4F49B016933BFEF7B0714F429E325
:100630003FEF37FF0FC02C39EFEF3E0714F486E48D
:1006400001C080E4809382023195219531090EC06A
:1006500027EE33E0C90164E670E00E94E90B675DB4
:100660007D4FDB0111968C9180938202EAE0F0E0ED
:10067000C901BF010E94E90B9C01CB01BF010E948F
:10068000E90B875D9D4FFC01818180938302F90115
:10069000E75DFD4F81818093840282E892E0DFDD97
:1006A0008091720290917302A0917402B0917502D0
:1006B000892B8A2B8B2B81F16AE072E080E593E035
:1006C00098D58091720290917302E3E0880F991F90
:1006D000EA95E1F760917E0270917F020E94E90B3A
:1006E000AB01662757FD6095762F2AE030E080E564
:1006F00093E0F1D569E172E080E593E07AD540912D
:100700006E0250916F0260917002709171022AE046
:1007100030E080E593E026D6FFEF21EE84E0F15053
:1007200020408040E1F700C000000F900F900F9034
:100730000F90DF91CF91FF90EF90DF90CF90BF901F
:10074000AF909F908F907F906F905F904F900895A3
:10075000109286021092850287B18C6187B910923F
:100760006A0210926B0210926C0210926D0210924B
:100770006E0210926F02109270021092710210922B
:10078000720210927302109274021092750210920B
:1007900076021092770210927802109279021092EB
:1007A0007A0210927B0210927C0210927D021092CB
:1007B0007E0210927F0210928002109281020895B0
:1007C0008091B70290E02091B802821B91090895B0
:1007D0002091B8028091B702281750F4E22FF0E080
:1007E000E754FD4F808190E02F5F2093B802089579
:1007F0008FEF9FEF0895E091B8028091B702E8175C
:1008000030F4F0E0E754FD4F808190E008958FEFE1
:100810009FEF08950895CF92DF92EF92FF920F938A
:100820001F93CF93DF937C01CB018A012091930228
:10083000222389F0EB016B01C40ED51ECC15DD051A
:1008400061F06991D701ED91FC910190F081E02D6B
:10085000C7011995F3CF642FF7D1C801DF91CF916C
:100860001F910F91FF90EF90DF90CF900895CF935D
:10087000DF931F92CDB7DEB76983209193022223C5
:10088000D1F020919402203240F021E030E0FC01D0
:100890003383228380E090E014C080919502E82F9A
:1008A000F0E0EA56FD4F998190838F5F8093950227
:1008B0008093940204C061E0CE010196C5D181E02D
:1008C00090E00F90DF91CF910895FC011382128286
:1008D00048EE53E060E070E044835583668377839D
:1008E00088E392E09183808308951092B802109279
:1008F000B7021092950210929402F3C0862F4132F3
:1009000008F040E269EB72E008D11092B8028093DF
:10091000B7020895F3CF81E0809393026093B6020B
:1009200010929502109294020895F5CF0F93062F1E
:1009300021E04091940266E972E08091B60231D1E3
:100940001092950210929402109293020F910895C2
:1009500087E892E0BACFDC01ED91FC910190F08143
:10096000E02D19940F931F93CF93DF938C01EB012C
:1009700069E670E087E892E0D8DFB80187E892E0A6
:10098000EADFBE0187E892E0E6DF61E087E892E017
:10099000CDDF81E090E0DF91CF911F910F9108951D
:1009A00060E070E08AE090E0DDDF6FE070E08AE018
:1009B00090E0D8DF60E070E08AE090E0D3DF60E4B0
:1009C00070E084E290E0CEDF6CE870E085E290E0D9
:1009D000C9DF62E070E086E290E0C4DF68E870E0C2
:1009E00087E290E0BFDF6CE070E088E290E0BADF81
:1009F0006AE070E089E290E0B5DF61E870E08AE2E9
:100A000090E0B0DF61E070E084E690E0ABDF63E0AF
:100A100070E087E690E0A6DF60E870E081E090E0BB
:100A2000A1DF64E070E084E390E09CDF60E070E0D0
:100A300084E690E097DF60E070E08AE690E092DF85
:100A400061E070E084E690E08DDF60E270E08AE6CD
:100A500090E088DF63E170E084E390E083CF0F9360
:100A60001F93CF93DF938C01EB0169E670E087E879
:100A700092E05BDFB80187E892E06DDF60E087E835
:100A800092E054DF21E030E041E050E069E670E0C0
:100A900087E892E03FDF87E892E09ADE182F69E668
:100AA00070E087E892E041DFBE0187E892E053DF23
:100AB00060E087E892E03ADF21E030E041E050E09A
:100AC00069E670E087E892E025DF87E892E080DE63
:100AD000982F8827810F911DDF91CF911F910F9142
:100AE00008951092460381E08093440310924303DB
:100AF00061E084E10BD361E085E108D3E9EBF0E04C
:100B000080818E7F808380818D7F808388E4809345
:100B1000B80085E48093BC000895413208F03FC0DE
:100B2000909146039111FCCF91E09093460320935E
:100B300044032FEF2093D90210921E03240F209319
:100B40001D039093450390914503880F892B809353
:100B5000450380914303813041F410924303809117
:100B600045038093BB0085EC01C085EE8093BC00FB
:100B7000809146038130E1F380911E03841710F4C5
:100B800040911E032FE133E0FB01D9018A2F821B24
:100B9000841718F48D918193F9CF842F089580E004
:100BA00008950F93413208F046C090914603911189
:100BB000FCCF92E090934603009344039FEF909301
:100BC000D90210921E0340931D03FB016FE173E0F5
:100BD000DB019A2F961B941718F491919D93F9CFEE
:100BE0001092450390914503880F892B809345030C
:100BF00080914303813041F4109243038091450377
:100C00008093BB0085EC01C085EE8093BC0022235D
:100C100021F0809146038230E1F38091D9028F3F29
:100C200061F08091D902803251F08091D9028033F5
:100C300041F483E007C081E005C080E003C082E0AA
:100C400001C084E00F910895613298F42091460329
:100C5000243089F46093FB02FC018DEF92E0DC010B
:100C60002A2F281B261718F421912D93F9CF80E005
:100C7000089581E0089582E0089585ED8093BC0099
:100C80008091BC0084FDFCCF10924603089585EC52
:100C90008093BC001092460308951F920F920FB6E6
:100CA0000F9211240BB60F922F933F934F935F93A4
:100CB0006F937F938F939F93AF93BF93EF93FF9324
:100CC0008091B900887F803609F49CC068F588322D
:100CD00009F45BC090F4803109F454C038F48823DF
:100CE00009F4F3C0883009F44DC0F2C0883109F42A
:100CF0004CC0803209F45DC0EBC0803409F468C098
:100D000048F4803309F455C0883309F0E1C080937A
:100D1000D902A7C0803509F44FC0883509F45DC0F9
:100D2000883409F0D5C0D3C0883909F4C4C0A8F408
:100D3000883709F467C038F4883609F463C080370F
:100D400009F460C0C5C0883809F4B5C0803909F419
:100D50005FC0803809F0BCC05BC0803B09F483C031
:100D600038F4803A09F466C0883A09F47CC0B0C00F
:100D7000803C09F4A4C0883C09F4A1C0883B09F474
:100D800087C0A6C08091450310C090911E0380913A
:100D90001D03981770F5E0911E0381E08E0F80937C
:100DA0001E03F0E0E15EFC4F80818093BB0085EC88
:100DB00083C08093D9028BC0E0911E0381E08E0F27
:100DC00080931E038091BB00F0E0E15EFC4F8083C6
:100DD00090911E0380911D036BC0E0911E0381E082
:100DE0008E0F80931E038091BB00F0E0E15EFC4F0C
:100DF00080838091440381116AC081E08093430322
:100E000084EA5EC083E0809346031092DA02CFCF7B
:100E10008091DA02803208F04EC0E091DA0281E07F
:100E20008E0F8093DA028091BB00F0E0E552FD4F17
:100E30008083BDCF8091DA02803230F4E091DA0213
:100E4000F0E0E552FD4F108218DF6091DA0270E0A9
:100E5000E0913F03F09140038BED92E019951092E1
:100E6000DA0215DF35C084E0809346031092FC025D
:100E70001092FB02E0914103F09142031995809199
:100E8000FB02811105C081E08093FB021092FD02FC
:100E9000E091FC0281E08E0F8093FC02F0E0E350D1
:100EA000FD4F80818093BB009091FC028091FB02FA
:100EB000981708F47CCF85E88093BC0009C085ECC6
:100EC0008093BC001092460303C01092D902D5DE75
:100ED000FF91EF91BF91AF919F918F917F916F9112
:100EE0005F914F913F912F910F900BBE0F900FBECE
:100EF0000F901F9018951F920F920FB60F9211240A
:100F00002F933F938F939F93AF93BF938091480309
:100F100090914903A0914A03B0914B03309147034C
:100F200023E0230F2D3720F40196A11DB11D05C02C
:100F300026E8230F0296A11DB11D2093470380933D
:100F4000480390934903A0934A03B0934B038091C5
:100F50004C0390914D03A0914E03B0914F03019625
:100F6000A11DB11D80934C0390934D03A0934E039C
:100F7000B0934F03BF91AF919F918F913F912F916C
:100F80000F900FBE0F901F9018952FB7F894609197
:100F900048037091490380914A0390914B032FBFFE
:100FA0000895789484B5826084BD84B5816084BDE1
:100FB00085B5826085BD85B5816085BDEEE6F0E0D2
:100FC000808181608083E1E8F0E01082808182602E
:100FD0008083808181608083E0E8F0E080818160AF
:100FE0008083E1EBF0E0808184608083E0EBF0E0DF
:100FF000808181608083E1E9F0E08081826080838C
:10100000808181608083E0E9F0E08081816080837D
:10101000E1EAF0E08081826080838081816080836A
:10102000E0EAF0E0808181608083E1E2F1E08081AC
:1010300082608083808181608083E0E2F1E0808152
:1010400081608083EAE7F0E0808184608083808132
:1010500082608083808181608083808180688083DA
:101060001092C100089590E0FC013197E231F10542
:1010700008F04BC0EE58FF4FFDC3809180008F7782
:1010800003C0809180008F7D8093800008958091BF
:101090008000877FF9CF84B58F7702C084B58F7DBC
:1010A00084BD08958091B0008F7703C08091B00017
:1010B0008F7D8093B0000895809190008F7707C056
:1010C000809190008F7D03C080919000877F8093F6
:1010D000900008958091A0008F7707C08091A000B4
:1010E0008F7D03C08091A000877F8093A00008952A
:1010F000809120018F7707C0809120018F7D03C0F0
:1011000080912001877F8093200108950F931F9382
:10111000CF93DF931F92CDB7DEB7282F30E0F901D0
:10112000E85FFE4F8491F901E25BFE4F1491F901F3
:10113000EC56FE4F04910023C1F0882319F0698317
:1011400092DF6981E02FF0E0EE0FFF1FE652FE4FC5
:10115000A591B4919FB7F8948C91611103C010953B
:10116000812301C0812B8C939FBF0F90DF91CF9182
:101170001F910F910895CF92DF92EF92FF920F93FC
:101180001F93CF93DF936C017A01EB01E60EF71EFC
:1011900000E010E0CE15DF0561F06991D601ED9118
:1011A000FC910190F081E02DC6011995080F191FDF
:1011B000F1CFC801DF91CF911F910F91FF90EF9078
:1011C000DF90CF9008956115710581F0DB010D90DE
:1011D0000020E9F7AD0141505109461B570BDC01D6
:1011E000ED91FC910280F381E02D199480E090E074
:1011F0000895E9CFDC01ED91FC910190F081E02DA3
:10120000199464E472E0DFCF0F931F93CF93DF93C1
:10121000EC01D9DF8C01CE01F4DF800F911FDF914B
:10122000CF911F910F9108958F929F92AF92BF928D
:10123000CF92DF92EF92FF920F931F93CF93DF93A2
:10124000CDB7DEB7A1970FB6F894DEBF0FBECDBF06
:101250007C01C42EE52FCB01D22E19A221E02D1541
:1012600010F02AE0D22E8E010F5D1F4F8D2C912C95
:10127000A12CB12C6C2D7E2FA5019401BDD28C2DFB
:10128000D29E80191124015011098A3014F4805D16
:1012900001C0895CF80180832115310541055105A4
:1012A00021F0C22EE32FCA01E5CFB801C7018BDFC1
:1012B000A1960FB6F894DEBF0FBECDBFDF91CF91E0
:1012C0001F910F91FF90EF90DF90CF90BF90AF9064
:1012D0009F908F900895CF92DF92EF92FF920F939D
:1012E0001F93CF93DF93EC016A017B012115310538
:1012F00079F4E881F9810190F081E02D642FDF918C
:10130000CF911F910F91FF90EF90DF90CF901994A4
:101310002A303105D9F477FF18C06DE26BDF8C01FC
:1013200044275527BA014C195D096E097F092AE047
:10133000CE017ADF800F911FDF91CF911F910F9126
:10134000FF90EF90DF90CF9008952AE0B701A601BB
:10135000CE01DF91CF911F910F91FF90EF90DF9021
:10136000CF9062CF0F931F93CF93DF93EC01B3DF46
:101370008C01CE0146DF800F911FDF91CF911F912D
:101380000F9108951F920F920FB60F9211240BB672
:101390000F922F938F939F93EF93FF93E0916003AE
:1013A000F09161038081E0916603F091670382FD13
:1013B00012C09081809169038F5F8F7320916A03BF
:1013C000821751F0E0916903F0E0E05BFC4F958FEC
:1013D0008093690301C08081FF91EF919F918F916C
:1013E0002F910F900BBE0F900FBE0F901F9018956E
:1013F0001F920F920FB60F9211240BB60F922F93DC
:101400003F934F935F936F937F938F939F93AF938C
:10141000BF93EF93FF9380E593E0D5D0FF91EF91D9
:10142000BF91AF919F918F917F916F915F914F91FC
:101430003F912F910F900BBE0F900FBE0F901F90FA
:10144000189580E593E056D021E0892B09F420E03F
:10145000822F0895109253031092520388EE93E066
:10146000A0E0B0E08093540390935503A0935603FB
:10147000B093570389E592E0909351038093500312
:1014800085EC90E090935D0380935C0384EC90E0A6
:1014900090935F0380935E0380EC90E090936103F0
:1014A0008093600381EC90E09093630380936203E8
:1014B00082EC90E0909365038093640386EC90E067
:1014C00090936703809366031092690310926A03F6
:1014D00010926B0310926C030895089562DDFDDF96
:1014E0000E94CB01C7EADAE00E9450022097E1F3A4
:1014F0002ED0FACFFC01818D228D90E0805C9F4F31
:10150000821B91098F7399270895FC01918D828D1B
:10151000981731F0828DE80FF11D858D90E00895C8
:101520008FEF9FEF0895FC01918D828D981761F0E8
:10153000828DDF01A80FB11D5D968C91928D9F5F0A
:101540009F73928F90E008958FEF9FEF089581E24F
:101550009AE0892B39F080E090E0892B19F071DF57
:10156000811125C080E090E0892B41F080E090E07F
:10157000892B21F00E94000081111CC080E090E0C6
:10158000892B41F080E090E0892B21F00E9400003F
:10159000811113C080E090E0892BA1F080E090E001
:1015A000892B81F00E94000081110AC008950E94D9
:1015B0000000D8CF0E940000E1CF0E940000EACFD7
:1015C0000C9400000895FC01848DDF01A80FB11D6B
:1015D000A35ABF4F2C91848D90E001968F73992769
:1015E000848FA689B7892C93A089B1898C91806456
:1015F0008C93938D848D981306C00288F389E02D17
:1016000080818F7D80830895CF93DF93EC01888D57
:101610008823C1F0EA89FB89808185FD05C0A889FE
:10162000B9898C9186FD0EC00FB607FCF5CF80817D
:1016300085FFF2CFA889B9898C9185FFEDCFCE01C6
:10164000C2DFE8CFDF91CF910895CF92DF92FF9272
:101650000F931F93CF93DF931F92CDB7DEB76C012B
:1016600081E0D60158968C9358975B969C915B9736
:101670005C968C915C97981307C05096ED91FC9105
:101680005197808185FD2DC0F601038D10E00F5F1D
:101690001F4F0F731127F02EF601848DF81210C022
:1016A0000FB607FCF9CFD6015096ED91FC915197FA
:1016B000808185FFF1CFC601698385DF6981ECCF29
:1016C000838DE80FF11DE35AFF4F6083D6015B96CF
:1016D0000C935B975296ED91FC91539780818062B9
:1016E0000CC0D6015696ED91FC91579760835096A9
:1016F000ED91FC91519780818064808381E090E03E
:101700000F90DF91CF911F910F91FF90DF90CF90BD
:101710000895BF92CF92DF92EF92FF92CF93DF9323
:10172000EC016A017B01B22EE889F98982E08083AD
:10173000411581EE58076105710599F060E079E087
:101740008DE390E0A701960157D02150310941095E
:1017500051095695479537952795211580E138070A
:1017600090F0E889F989108260E874E88EE190E0F1
:10177000A701960141D021503109410951095695DF
:10178000479537952795EC85FD853083EE85FF8558
:101790002083188EEC89FD89B082EA89FB898081DB
:1017A00080618083EA89FB89808188608083EA89FF
:1017B000FB89808180688083EA89FB8980818F7DB5
:1017C0008083DF91CF91FF90EF90DF90CF90BF901B
:1017D000089597FB072E16F4009406D077FD08D0E5
:1017E00053D007FC05D03EF4909581959F4F089506
:1017F000709561957F4F0895A1E21A2EAA1BBB1B1D
:10180000FD010DC0AA1FBB1FEE1FFF1FA217B307CC
:10181000E407F50720F0A21BB30BE40BF50B661FE2
:10182000771F881F991F1A9469F7609570958095A6
:1018300090959B01AC01BD01CF010895052E97FB4A
:1018400016F400940FD057FD05D0D6DF07FC02D068
:1018500046F408C050954095309521953F4F4F4F25
:101860005F4F089590958095709561957F4F8F4F4C
:101870009F4F0895EE0FFF1F0590F491E02D1994EE
:101880000790F691E02D1994AA1BBB1B51E107C0EC
:10189000AA1FBB1FA617B70710F0A61BB70B881F00
:1018A000991F5A95A9F780959095BC01CD0108958F
:0418B000F894FFCFDA
:1018B400313233343536373839004779726F4368FB
:1018C400616E6765202020200020204779726F56C2
:1018D400616C75652020202000463F065B4F666DD5
:1018E4007D077F6F0000000037040B04E003E8036A
:1018F400FB030A040D0A006E616E00696E66006FD8
:101904007666002E0000000000250BBB087A0A93BF
:061914000A850A040B0025
:00000001FF
