:1000000006C1000035C1000033C1000031C100004D
:100010002FC100002DC100002BC1000029C100002C
:1000200027C1000025C1000023C1000021C100003C
:100030001FC100001DC100001BC1000019C100004C
:1000400017C1000015C1000013C1000011C100005C
:100050000FC100000DC100000BC100000C944C0B3F
:1000600007C100000C94550D0C948B0D01C10000CC
:10007000FFC00000FDC00000FBC00000F9C0000090
:10008000F7C00000F5C00000F3C00000F1C00000A0
:10009000EFC00000EDC00000EBC00000FFC4000096
:1000A000E7C00000E5C00000E3C00000E1C00000C0
:1000B000DFC00000DDC00000DBC00000D9C00000D0
:1000C000D7C00000D5C00000D3C00000D1C00000E0
:1000D000CFC00000CDC00000CBC00000C9C00000F0
:1000E000C7C00000120216021B0222022B023902B4
:1000F0003F0257025A0261021C0C1F0C0E0C120C1C
:10010000180C560C230C270C2D0C310C350C3B0C09
:100110003F0C430C560C490C4D0C510C00000A0BC3
:1001200002090C0D0E080703040100000000000086
:1001300000000000000000000000000000000000BF
:10014000000000000000000012111000000000007C
:10015000000000000000000000000000000000009F
:1001600000000102102020080810204010204080CC
:10017000020102010804020101020408102040806B
:1001800080402010080402018004020180402010F9
:100190000804020108040201010204081020408042
:1001A0000102040810204080050505050705080820
:1001B0000808020202020A0A0808040404040101F1
:1001C0000101010101010303030303030303040706
:1001D00007070C0C0C0C0C0C0C0C0202020206069D
:1001E0000606060606060B0B0B0B0B0B0B0B000093
:1001F0002200250028002B002E00310034000201CF
:100200000000050108010B01C401A903BD0D112463
:100210001FBECFEFD1E2DEBFCDBF00E00CBF12E0CA
:10022000A0E0B2E0ECE0F0E200E00BBF02C007901B
:100230000D92A637B107D9F724E0A6E7B2E001C0D6
:100240001D92AD3AB207E1F712E0CEE0D2E000E055
:1002500006C022970109FE010BBF0E94E00FC830C3
:10026000D10780E00807A9F70E94010E0C94041042
:10027000C7CECF93DF9326E040E051EE60E070E020
:1002800080E194E00E941C0F2FEF81EE94E021505A
:1002900080409040E1F700C0000068E272E080E139
:1002A00094E00E94CD0C82E493E0C9D587E493E00A
:1002B0001DD260E070E08BE690E055D272D2C9E1C9
:1002C000D0E067E470E088E490E0CAD2AA2797FD06
:1002D000A095BA2F409126035091270360912803DF
:1002E00070912903480F591F6A1F7B1F40932603F3
:1002F0005093270360932803709329032FEF81EE17
:1003000094E0215080409040E1F700C00000219728
:10031000C1F6609126037091270380912803909184
:10032000290329E130E040E050E00E94BE0F209315
:10033000260330932703409328035093290386E133
:1003400093E0E0D6609180004AE050E080E194E0E4
:100350000E94400D609181004AE050E080E194E00D
:100360000E94400D6091A0004AE050E080E194E0DE
:100370000E94400D6091A1004AE050E080E194E0CD
:10038000DF91CF910C94400D82E493E0B5D486E2E6
:1003900093E0C1D586E193E070D68CEF92E00E94A5
:1003A000120A8BEF92E00E94D80A64E172E089EBB6
:1003B00092E00E94130A60E072E087E792E00C94FA
:1003C000130ACF93DF9360E08BEF92E00E942C0B37
:1003D000BC0189EB92E00E94350A61E08BEF92E06C
:1003E0000E942C0BBC0187E792E00E94350A86E24E
:1003F00093E0ABD56091B7027091B8024091F902D9
:100400005091FA0280917602992787FD9095A92F45
:10041000B92F8A30910508F060C0FC01EE58FF4FFB
:100420000C94DA0F82E493E00AD55FC062E473E0D3
:1004300089EB92E004C062E473E087E792E00E94F7
:10044000CE0A53C086E293E002D640E050E082E458
:1004500093E00DD54AC026E233E086E193E007D76A
:10046000892B09F442C060E070E086E193E0D4D7C4
:100470003CC086E193E0F2D61092760236C081E06D
:1004800090E090931B0380931A0326E233E086E109
:1004900093E0EDD6EC0186E293E0D9D540E050E060
:1004A00082E493E0E4D4CD2B01F185E007C081E044
:1004B00090E009C086E293E0DAD583E0809376028B
:1004C00014C082E090E090931703809316036FEFBF
:1004D00070E086E193E0C5D608C01092760262E330
:1004E00072E080E194E00E94CD0C2FEF81EE94E069
:1004F000215080409040E1F700C0000080E194E08E
:100500000E94260E99278933910509F448C0CCF43E
:1005100084339105E1F14CF482339105A1F1ACF5FE
:10052000C19709F04BC081E047C08633910599F12E
:1005300084F18733910589F1C89709F03FC088E0BD
:100540003BC08536910589F18CF48236910549F1DD
:100550002CF48136910591F58AE02EC08336910501
:1005600011F18436910551F58DE026C0873691054D
:1005700001F1ECF088369105F1F083379105F1F443
:10058000109276021BC082E017C083E015C084E0A1
:1005900013C085E011C086E00FC087E00DC089E080
:1005A0000BC08BE009C08CE007C08EE005C08FE077
:1005B00003C080E101C081E180937602DF91CF9199
:1005C00008958091770390E020917803821B910930
:1005D00008952091780380917703281750F4E22F33
:1005E000F0E0E758FC4F808190E02F5F2093780384
:1005F00008958FEF9FEF0895E0917803809177033E
:10060000E81730F4F0E0E758FC4F808190E008955F
:100610008FEF9FEF08950895CF92DF92EF92FF92B0
:100620000F931F93CF93DF937C01CB018A0120911D
:100630005303222389F0EB016B01C40ED51ECC15A8
:10064000DD0561F06991D701ED91FC910190F08198
:10065000E02DC7011995F3CF642FF7D1C801DF91C1
:10066000CF911F910F91FF90EF90DF90CF90089561
:10067000CF93DF931F92CDB7DEB7698320915303E9
:100680002223D1F020915403203240F021E030E0C9
:10069000FC013383228380E090E014C080915503F5
:1006A000E82FF0E0EA5AFC4F998190838F5F8093A6
:1006B00055038093540304C061E0CE010196C5D177
:1006C00081E090E00F90DF91CF910895FC011382BB
:1006D000128248EE53E060E070E044835583668305
:1006E00077838EE392E0918380830895109278035C
:1006F000109277031092550310925403F3C0862F83
:10070000413208F040E269E773E008D110927803C3
:10071000809377030895F3CF81E080935303609330
:10072000760310925503109254030895F5CF0F935A
:10073000062F21E04091540366E573E08091760333
:1007400031D11092550310925403109253030F911C
:10075000089587E493E0BACFDC01ED91FC9101901C
:10076000F081E02D19940F931F93CF93DF938C01A9
:10077000EB0169E670E087E493E0D8DFB80187E435
:1007800093E0EADFBE0187E493E0E6DF61E087E41F
:1007900093E0CDDF81E090E0DF91CF911F910F9149
:1007A000089560E070E08AE090E0DDDF6FE070E0E7
:1007B0008AE090E0D8DF60E070E08AE090E0D3DF8C
:1007C00060E470E084E290E0CEDF6CE870E085E207
:1007D00090E0C9DF62E070E086E290E0C4DF68E8A4
:1007E00070E087E290E0BFDF6CE070E088E290E0CC
:1007F000BADF6AE070E089E290E0B5DF61E870E0BE
:100800008AE290E0B0DF61E070E084E690E0ABDF88
:1008100063E070E087E690E0A6DF60E870E081E0EA
:1008200090E0A1DF64E070E084E390E09CDF60E0B2
:1008300070E084E690E097DF60E070E08AE690E0A8
:1008400092DF61E070E084E690E08DDF60E270E0CE
:100850008AE690E088DF63E170E084E390E083CF94
:100860000F931F93CF93DF938C01EB0169E670E048
:1008700087E493E05BDFB80187E493E06DDF60E03D
:1008800087E493E054DF21E030E041E050E069E6A6
:1008900070E087E493E03FDF87E493E09ADE182F6F
:1008A00069E670E087E493E041DFBE0187E493E00E
:1008B00053DF60E087E493E03ADF21E030E041E09D
:1008C00050E069E670E087E493E025DF87E493E099
:1008D00080DE982F8827810F911DDF91CF911F9186
:1008E0000F9108951092060481E080930404109201
:1008F000030461E084E1DBD761E085E1D8D7E9EB6F
:10090000F0E080818E7F808380818D7F808388E48A
:100910008093B80085E48093BC000895413208F0CC
:100920003FC0909106049111FCCF91E09093060492
:10093000209304042FEF209399031092DE03240FD9
:100940002093DD039093050490910504880F892B73
:100950008093050480910304813041F410920304D4
:10096000809105048093BB0085EC01C085EE8093E7
:10097000BC00809106048130E1F38091DE0384178E
:1009800010F44091DE032FED33E0FB01D9018A2FF3
:10099000821B841718F48D918193F9CF842F0895C9
:1009A00080E008950F93413208F046C0909106040C
:1009B0009111FCCF92E090930604009304049FEF02
:1009C000909399031092DE034093DD03FB016FEDDA
:1009D00073E0DB019A2F961B941718F491919D9365
:1009E000F9CF1092050490910504880F892B80930C
:1009F000050480910304813041F410920304809136
:100A000005048093BB0085EC01C085EE8093BC009B
:100A1000222321F0809106048230E1F38091990332
:100A20008F3F61F080919903803251F0809199035A
:100A3000803341F483E007C081E005C080E003C05B
:100A400082E001C084E00F910895613298F4209112
:100A50000604243089F46093BB03FC018DEB93E022
:100A6000DC012A2F281B261718F421912D93F9CF8A
:100A700080E0089581E0089582E0089585ED8093F7
:100A8000BC008091BC0084FDFCCF10920604089548
:100A900085EC8093BC001092060408951F920F927B
:100AA0000FB60F9211240BB60F922F933F934F93D3
:100AB0005F936F937F938F939F93AF93BF93EF93C6
:100AC000FF938091B900887F803609F49CC068F557
:100AD000883209F45BC090F4803109F454C038F4D2
:100AE000882309F4F3C0883009F44DC0F2C088317E
:100AF00009F44CC0803209F45DC0EBC0803409F4C5
:100B000068C048F4803309F455C0883309F0E1C067
:100B100080939903A7C0803509F44FC0883509F444
:100B20005DC0883409F0D5C0D3C0883909F4C4C089
:100B3000A8F4883709F467C038F4883609F463C02C
:100B4000803709F460C0C5C0883809F4B5C0803961
:100B500009F45FC0803809F0BCC05BC0803B09F479
:100B600083C038F4803A09F466C0883A09F47CC03E
:100B7000B0C0803C09F4A4C0883C09F4A1C0883B03
:100B800009F487C0A6C08091050410C09091DE03CF
:100B90008091DD03981770F5E091DE0381E08E0F00
:100BA0008093DE03F0E0E152FC4F80818093BB0034
:100BB00085EC83C0809399038BC0E091DE0381E0D4
:100BC0008E0F8093DE038091BB00F0E0E152FC4F7A
:100BD00080839091DE038091DD036BC0E091DE03A2
:100BE00081E08E0F8093DE038091BB00F0E0E15244
:100BF000FC4F80838091040481116AC081E080935E
:100C0000030484EA5EC083E08093060410929A0392
:100C1000CFCF80919A03803208F04EC0E0919A03C2
:100C200081E08E0F80939A038091BB00F0E0E5563F
:100C3000FC4F8083BDCF80919A03803230F4E091E5
:100C40009A03F0E0E556FC4F108218DF60919A039A
:100C500070E0E091FF03F09100048BE993E01995B7
:100C600010929A0315DF35C084E080930604109239
:100C7000BC031092BB03E0910104F09102041995AA
:100C80008091BB03811105C081E08093BB0310926A
:100C9000BD03E091BC0381E08E0F8093BC03F0E0C4
:100CA000E354FC4F80818093BB009091BC03809102
:100CB000BB03981708F47CCF85E88093BC0009C07B
:100CC00085EC8093BC001092060403C01092990337
:100CD000D5DEFF91EF91BF91AF919F918F917F9161
:100CE0006F915F914F913F912F910F900BBE0F909D
:100CF0000FBE0F901F901895FC011482138287B1CC
:100D00008C6187B90895FC018381948181309105BC
:100D100031F0029739F480818068808303C081813B
:100D2000806881834298449800000000439A000044
:100D30000000000000000000429A0000000020E0D7
:100D400030E0439842980000000048B1808190E074
:100D5000022E02C0959587950A94E2F78170992733
:100D600073E0880F991F7A95E1F7482B48B9000086
:100D70000000000000000000429A000000002F5F09
:100D80003F4F28303105E9F620E030E043984298A3
:100D90000000000048B1818190E0022E02C09595CC
:100DA00087950A94E2F78170992763E0880F991F6D
:100DB0006A95E1F7482B48B90000000000000000E8
:100DC0000000429A000000002F5F3F4F283031059D
:100DD000E9F620E030E0439842980000000048B176
:100DE000828190E0022E02C0959587950A94E2F7E1
:100DF0008170992753E0880F991F5A95E1F7482B86
:100E000048B900000000000000000000429A000005
:100E100000002F5F3F4F28303105E9F68BE0429804
:100E200000000000439A00000000000000000000E5
:100E3000429A00000000815091F7449A0895FF9271
:100E40000F931F93CF93DF93EC01F88009811A81F0
:100E5000188219821A8257DF1C821B82F88209834A
:100E60001A83DF91CF911F910F91FF9008950F93F7
:100E70001F93CF93DF93FC0154834383683E83E049
:100E80007807DCF49B016933AFEF7A0714F429E3A8
:100E90003FEF01E010E02617370709F400E037FFC5
:100EA00010C02C39BFEF3B0714F486E401C080E486
:100EB00080833195219531090FC027EE33E001E0A1
:100EC00010E0C90164E670E00E94890F665B7D4F07
:100ED000DB0111968C918083CAE0D0E0C901BE018C
:100EE0000E94890F9C01CB01BE010E94890F865B85
:100EF0009D4FDC0111968C918183D901A65BBD4F7A
:100F000011968C918283CF01FEDEC801DF91CF91D3
:100F10001F910F910895FC01148215821682178289
:100F200010861186128613861486158616861786F5
:100F3000108A118A128A138A148A158A168A178AC5
:100F4000108E118E128E138E08954F925F926F92B3
:100F50007F928F929F92AF92BF92CF92DF92EF9249
:100F6000FF92CF93DF93EC01488559856A857B8595
:100F70004C835D836E837F8367E470E088E490E058
:100F80006FDCAC01662757FD6095762F488759873F
:100F90006A877B874C895D896E897F89488B598BED
:100FA0006A8B7B8BC3D32B013C016C8B7D8B8E8B2F
:100FB0009F8BC884D984EA84FB8488809980AA8026
:100FC000BB80C701B601681979098A099B0924E623
:100FD00030E040E050E0D2D7D501C4010596A11D14
:100FE000B11D8C159D05AE05BF0554F085E0881A2E
:100FF0009108A108B108C814D904EA04FB0464F4F8
:101000008C859D85AE85BF85820F931FA41FB51F5C
:101010008C879D87AE87BF87488959896A897B8974
:10102000441A550A660A770A488E598E6A8E7B8E54
:10103000DF91CF91FF90EF90DF90CF90BF90AF9076
:101040009F908F907F906F905F904F900895FC01DC
:101050008485958523E0880F991F2A95E1F7608D97
:10106000718D57D7882777FD8095982F0895FC01BB
:1010700014861586168617860895CF93DF93EC01A4
:10108000198218821B821A821D821C824FD36E83A2
:101090007F83888799871A861B861C861D861E86F5
:1010A0001F86E1E0F1E0808188608083808180613B
:1010B0008083259A269A8FEF90E090938700809303
:1010C000860032EA3093800029E12093810010925B
:1010D00089001092880010928B0010928A009093E1
:1010E000A7008093A6003093A0002093A100109247
:1010F000A9001092A8001092AB001092AA00DF91F4
:10110000CF910895E1E0F1E0808188608083808163
:1011100080618083259A269A8FEF90E090938700D4
:101120008093860032EA3093800029E12093810089
:10113000109289001092880010928B0010928A0001
:101140009093A7008093A6003093A0002093A10065
:101150001092A9001092A8001092AB001092AA0061
:101160000895FC01809102018860809302018FE163
:1011700093E00197F1F700C0000080910201877FA2
:1011800080930201718360836230710509F442C06B
:1011900094F46115710501F16130710509F04DC0DC
:1011A00082819381909389008093880010928B00B4
:1011B00010928A002AC063307105E9F0643071052D
:1011C000E1F5828193819093890080938800109249
:1011D0008B0010928A0028C08281938190938900AD
:1011E0008093880090938B0080938A009093A9004D
:1011F0008093A8001DC010928900109288008281FF
:10120000938190938B0080938A009093A9008093A0
:10121000A8001FC0109289001092880082819381DB
:1012200090938B0080938A001092A9001092A800DE
:101230009093AB008093AA000895109289001092B9
:10124000880010928B0010928A001092A9001092D0
:10125000A8001092AB001092AA00089560E070E020
:1012600080CFFC0173836283608171817ACFAF92FA
:10127000BF92CF92DF92EF92FF920F931F93CF9383
:10128000DF93EC015B016A0179010C811D81013062
:10129000110509F485C00230110529F00115110569
:1012A00009F0ACC018C0DADF41D20E811F81288559
:1012B0003985601B710B820B930B0A851B852C856E
:1012C0003D85601771078207930708F497C01D8258
:1012D0001C821F8693C08F85811111C082E090E02F
:1012E0009D838C8323D26E837F838887998782E353
:1012F00090E0A0E0B0E08A879B87AC87BD878F85B0
:101300008F5F8F8789E7A816B10414F1E5E6CE1642
:10131000D1043CF081E090E09983888366E570E039
:101320003CC08E8591E0980F9E8763E0E5D59923B8
:1013300029F080EC93E0A0E0B0E004C080E59BEFF2
:10134000AFEFBFEFF70184879587A687B7871AC0ED
:10135000F9E7CF16D104DCF08E8591E0980F9E87D7
:1013600063E0CAD5992329F080EB94E0A0E0B0E0D7
:10137000E9CF40E45CEF6FEF7FEFF70144875587DB
:101380006687778781E090E09D838C8339C082E017
:1013900090E09983888360E470E0CE0162DF30C022
:1013A000C90155DE6115710541F41982188260E0AA
:1013B00070E0CE0156DF1F8623C077FF0EC083E0AA
:1013C00090E099838883663FFFEF7F079CF4683D38
:1013D0007F4F6CF460E870E00FC084E090E0998388
:1013E00088836B30710534F0693271059CF766E5CE
:1013F00070E002C060E470E0CE0133DF00E010E096
:10140000C801DF91CF911F910F91FF90EF90DF9076
:10141000CF90BF90AF900895FC017583648360E026
:1014200070E09FCE0895FC01B89624E1DF011D9283
:101430002A95E9F7FC0115AE14AE17AE16AEE05CC6
:10144000FF4F11821082DB01FC012BE430E08D9113
:101450009D9191838083338322833496275E3F4F0F
:10146000253481E0380799F708950F931F93CF93A0
:10147000DF93FC018B0124AD35ADE9012196D5AF99
:10148000C4AFC9016AE070E044D54496880F991F43
:101490008E0F9F1FDC010D931C93659724F029503C
:1014A000310935AF24AF17AE16AE20E030E040E092
:1014B00050E0DF01A20FB31F98968D919C919997F0
:1014C000840F951F2E5F3F4F2431310511F0AC0181
:1014D000F0CF64AD75AD6B30710514F06AE070E06B
:1014E00018D577AF66AF80819181861797070CF486
:1014F00047C0DF0120E030E0CD91DC911197C617A5
:10150000D707B4F114964D915C9115976417750740
:101510007CF18E01061B170BD9011396AA0FBB1F76
:10152000AE0FBF1F0D90BC91A02D0A9FC0010B9F55
:10153000900D1A9F900D1124641B750BD901119603
:10154000AA0FBB1FAE0FBF1F0D90BC91A02D6A9FAD
:1015500090016B9F300D7A9F300D1124820F931FE5
:10156000BE01641B750BD5D46115710561F00DC00A
:1015700014962E5F3F4F2231310509F0BDCF03C0D5
:1015800066EF7FEF02C067EE73E0E05CFF4F7183B0
:101590006083DF91CF911F910F9108959B01805C33
:1015A0009F4FFC016081718141E050E0C9015FCC37
:1015B000809164008E7F8093640080917A008768B8
:1015C00080937A0080917C008F7780937C0080915B
:1015D0007C00806480937C0080917C008E7F80936F
:1015E0007C0080917C00826080937C0080917C00F4
:1015F0008B7F80937C0080917C00877F80937C0030
:1016000080917C008F7E80937C0080917C008F7D18
:1016100080937C0080917B008E7F80937B00809103
:101620007B008D7F80937B0080917B008B7F8093FC
:101630007B0080917A00806480937A0080917A00A8
:1016400084FFFCCF80917A00806180937A00809142
:10165000780080917900089580917C00807C80934F
:101660007C0080917C006F73682B60937C0080917C
:101670007A00806480937A0080917A0084FFFCCFA6
:1016800080917A00806180937A0080917800209127
:10169000790090E0922B08951F920F920FB60F924F
:1016A00011242F933F938F939F93AF93BF93809178
:1016B000080490910904A0910A04B0910B043091A0
:1016C000070423E0230F2D3720F40196A11DB11D3F
:1016D00005C026E8230F0296A11DB11D2093070423
:1016E0008093080490930904A0930A04B0930B0418
:1016F00080910C0490910D04A0910E04B0910F0400
:101700000196A11DB11D80930C0490930D04A0932C
:101710000E04B0930F04BF91AF919F918F913F91B1
:101720002F910F900FBE0F901F9018952FB7F89420
:10173000609108047091090480910A0490910B044F
:101740002FBF0895789484B5826084BD84B581608C
:1017500084BD85B5826085BD85B5816085BDEEE6B9
:10176000F0E0808181608083E1E8F0E01082808198
:1017700082608083808181608083E0E8F0E0808106
:1017800081608083E1EBF0E0808184608083E0EB26
:10179000F0E0808181608083E1E9F0E08081826017
:1017A0008083808181608083E0E9F0E080818160D6
:1017B0008083E1EAF0E080818260808380818160C3
:1017C0008083E0EAF0E0808181608083E1E2F1E003
:1017D000808182608083808181608083E0E2F1E0AB
:1017E000808181608083EAE7F0E08081846080838B
:1017F0008081826080838081816080838081806835
:1018000080831092C100089590E0FC013197E2318D
:10181000F10508F04BC0E458FF4FCCC38091800025
:101820008F7703C0809180008F7D80938000089522
:1018300080918000877FF9CF84B58F7702C084B50F
:101840008F7D84BD08958091B0008F7703C0809113
:10185000B0008F7D8093B0000895809190008F77C5
:1018600007C0809190008F7D03C080919000877F9A
:101870008093900008958091A0008F7707C0809199
:10188000A0008F7D03C08091A000877F8093A0007F
:101890000895809120018F7707C0809120018F7D6E
:1018A00003C080912001877F8093200108950F93CA
:1018B0001F93CF93DF931F92CDB7DEB7282F30E071
:1018C000F901E45EFE4F8491F901EE59FE4F149147
:1018D000F901E855FE4F04910023C1F0882319F067
:1018E000698392DF6981E02FF0E0EE0FFF1FE25184
:1018F000FE4FA591B4919FB7F8948C91611103C0EC
:101900001095812301C0812B8C939FBF0F90DF9195
:10191000CF911F910F910895CF92DF92EF92FF9296
:101920000F931F93CF93DF936C017A01EB01E60EC7
:10193000F71E00E010E0CE15DF0561F06991D601D9
:10194000ED91FC910190F081E02DC6011995080FF1
:10195000191FF1CFC801DF91CF911F910F91FF9017
:10196000EF90DF90CF9008956115710581F0DB0154
:101970000D900020E9F7AD0141505109461B570B6E
:10198000DC01ED91FC910280F381E02D199480E05F
:1019900090E0089565E572E0E7CF0F931F93CF9332
:1019A000DF93EC01E1DF8C01CE01F4DF800F911FAA
:1019B000DF91CF911F910F9108958F929F92AF92D7
:1019C000BF92CF92DF92EF92FF920F931F93CF932C
:1019D000DF93CDB7DEB7A1970FB6F894DEBF0FBE89
:1019E000CDBF7C01C42EE52FCB01D22E19A221E060
:1019F0002D1510F02AE0D22E8E010F5D1F4F8D2C79
:101A0000912CA12CB12C6C2D7E2FA501940194D288
:101A10008C2DD29E80191124015011098A3014F4A2
:101A2000805D01C0895CF801808321153105410585
:101A3000510521F0C22EE32FCA01E5CFB801C7013D
:101A400093DFA1960FB6F894DEBF0FBECDBFDF9136
:101A5000CF911F910F91FF90EF90DF90CF90BF90AB
:101A6000AF909F908F9008952115310541F4DC01CE
:101A7000ED91FC910190F081E02D642F19949DCFA0
:101A80000F931F93CF93DF93EC019A01462F50E001
:101A900060E070E0E9DF8C01CE017CDF800F911FF8
:101AA000DF91CF911F910F9108951F920F920FB662
:101AB0000F9211240BB60F922F938F939F93EF9356
:101AC000FF93E0912004F09121048081E0912604AD
:101AD000F091270482FD12C09081809129048F5FCC
:101AE0008F7320912A04821751F0E0912904F0E0CD
:101AF000E05FFB4F958F8093290401C08081FF91A7
:101B0000EF919F918F912F910F900BBE0F900FBE71
:101B10000F901F9018951F920F920FB60F921124DD
:101B20000BB60F922F933F934F935F936F937F93D7
:101B30008F939F93AF93BF93EF93FF9380E194E0D4
:101B4000D5D0FF91EF91BF91AF919F918F917F91F0
:101B50006F915F914F913F912F910F900BBE0F901E
:101B60000FBE0F901F90189580E194E056D021E0B1
:101B7000892B09F420E0822F08951092130410920B
:101B8000120488EE93E0A0E0B0E0809314049093F8
:101B90001504A0931604B09317048AE692E090937C
:101BA00011048093100485EC90E090931D048093C1
:101BB0001C0484EC90E090931F0480931E0480EC3E
:101BC00090E0909321048093200481EC90E0909326
:101BD00023048093220482EC90E090932504809368
:101BE000240486EC90E090932704809326041092BE
:101BF000290410922A0410922B0410922C040895A8
:101C00000895A0DDFDDF0E943901CAE3DEE00E94F5
:101C1000E1012097E1F32ED0FACFFC01818D228DD6
:101C200090E0805C9F4F821B91098F7399270895E4
:101C3000FC01918D828D981731F0828DE80FF11D96
:101C4000858D90E008958FEF9FEF0895FC01918DB1
:101C5000828D981761F0828DDF01A80FB11D5D960E
:101C60008C91928D9F5F9F73928F90E008958FEF7C
:101C70009FEF089584EB9DE0892B39F080E090E0A0
:101C8000892B19F071DF811125C080E090E0892B4C
:101C900041F080E090E0892B21F00E94000081114A
:101CA0001CC080E090E0892B41F080E090E0892B1F
:101CB00021F00E940000811113C080E090E0892B88
:101CC000A1F080E090E0892B81F00E94000081115A
:101CD0000AC008950E940000D8CF0E940000E1CF02
:101CE0000E940000EACF0C9400000895FC01848D4E
:101CF000DF01A80FB11DA35ABF4F2C91848D90E036
:101D000001968F739927848FA689B7892C93A08910
:101D1000B1898C9180648C93938D848D981306C0C7
:101D20000288F389E02D80818F7D80830895CF9391
:101D3000DF93EC01888D8823C1F0EA89FB898081DB
:101D400085FD05C0A889B9898C9186FD0EC00FB6A6
:101D500007FCF5CF808185FFF2CFA889B9898C91E6
:101D600085FFEDCFCE01C2DFE8CFDF91CF9108959F
:101D7000CF92DF92FF920F931F93CF93DF931F9227
:101D8000CDB7DEB76C0181E0D60158968C93589799
:101D90005B969C915B975C968C915C97981307C0BF
:101DA0005096ED91FC915197808185FD2DC0F601F3
:101DB000038D10E00F5F1F4F0F731127F02EF601F8
:101DC000848DF81210C00FB607FCF9CFD6015096DB
:101DD000ED91FC915197808185FFF1CFC601698318
:101DE00085DF6981ECCF838DE80FF11DE35AFF4F4A
:101DF0006083D6015B960C935B975296ED91FC91B4
:101E00005397808180620CC0D6015696ED91FC916B
:101E1000579760835096ED91FC9151978081806433
:101E2000808381E090E00F90DF91CF911F910F911F
:101E3000FF90DF90CF900895BF92CF92DF92EF9204
:101E4000FF92CF93DF93EC016A017B01B22EE88908
:101E5000F98982E08083411581EE5807610571059B
:101E600099F060E079E08DE390E0A701960164D0FD
:101E700021503109410951095695479537952795C4
:101E8000211580E1380790F0E889F989108260E82F
:101E900074E88EE190E0A70196014ED021503109FF
:101EA000410951095695479537952795EC85FD854C
:101EB0003083EE85FF852083188EEC89FD89B08202
:101EC000EA89FB89808180618083EA89FB8980813E
:101ED00088608083EA89FB89808180688083EA89C1
:101EE000FB8980818F7D8083DF91CF91FF90EF9080
:101EF000DF90CF90BF90089587FB082E062687FDC0
:101F0000819567FD619560D00EF4919507FC8195F0
:101F1000089597FB072E16F4009406D077FD08D09D
:101F20005FD007FC05D03EF4909581959F4F0895B2
:101F3000709561957F4F0895A1E21A2EAA1BBB1BD5
:101F4000FD010DC0AA1FBB1FEE1FFF1FA217B30785
:101F5000E407F50720F0A21BB30BE40BF50B661F9B
:101F6000771F881F991F1A9469F76095709580955F
:101F700090959B01AC01BD01CF010895052E97FB03
:101F800016F400940FD057FD05D0D6DF07FC02D021
:101F900046F408C050954095309521953F4F4F4FDE
:101FA0005F4F089590958095709561957F4F8F4F05
:101FB0009F4F0895EE0FFF1F0590F491E02D1994A7
:101FC0000790F691E02D1994991B79E004C0991FB0
:101FD000961708F0961B881F7A95C9F78095089583
:101FE000AA1BBB1B51E107C0AA1FBB1FA617B7073F
:101FF00010F0A61BB70B881F991F5A95A9F780955B
:0C2000009095BC01CD010895F894FFCF2D
:10200C00FA0190014E011C01FD00E200CD00B90067
:10201C00AA009E001001D900B30099008A0082002A
:10202C007D0076006F006E00313233343536373830
:10203C00390064656661756C74000000000038033B
:10204C000C03E102E902FC020B03463F065B4F6600
:10205C006D7D077F6F0D0A006E616E00696E660004
:10206C006F7666002E0000000000B80E8C0C0D0E72
:06207C00260E180E970E5F
:00000001FF
