:1000000013C1000042C1000040C100003FC1000018
:100010003CC100003AC1000038C1000036C10000F8
:1000200034C1000032C100005BC100002EC10000DD
:100030002CC100002AC1000028C1000026C1000018
:1000400024C1000022C1000020C100001EC1000028
:100050001CC100001AC1000018C100000C94040D5E
:1000600014C100000C940E0F0C94440F0EC100003C
:100070000CC100000AC1000008C1000006C1000058
:1000800004C1000002C1000000C10000FEC0000069
:10009000FCC00000FAC00000F8C0000070C60000FC
:1000A000F4C00000F2C00000F0C00000EEC000008C
:1000B000ECC00000EAC00000E8C00000E6C000009C
:1000C000E4C00000E2C00000E0C00000DEC00000AC
:1000D000DCC00000DAC00000D8C00000D6C00000BC
:1000E000D4C0000077027F028402AE028B029F021E
:1000F000B702D202D502D802090390039003850308
:100100001503210331033D034903550361036D03C7
:100110007903D40DD70DC60DCA0DD00D0E0EDB0D13
:10012000DF0DE50DE90DED0DF30DF70DFB0D0E0ED9
:10013000010E050E090E00000A0B02090C0D0E0837
:1001400007030401000000000000000000000000A0
:10015000000000000000000000000000000000009F
:10016000000012111000000000000000000000005C
:10017000000000000000000000000000010210204C
:1001800020080810204010204080020102010804CD
:100190000201010204081020408080402010080461
:1001A00002018004020180402010080402010804BA
:1001B00002010102040810204080010204081020FE
:1001C0004080050505050705080808080202020227
:1001D0000A0A0808040404040101010101010101E3
:1001E0000303030303030303040707070C0C0C0CAE
:1001F0000C0C0C0C02020202060606060606060697
:100200000B0B0B0B0B0B0B0B000022002500280027
:100210002B002E003100340002010000050108010E
:100220000B012F021805760F11241FBECFEFD1E26C
:10023000DEBFCDBF00E00CBF12E0A0E0B2E0ECE416
:10024000F3E200E00BBF02C007900D92AC38B1079B
:10025000D9F724E0ACE8B2E001C01D92AD3CB20792
:10026000E1F712E0C8E2D2E000E006C022970109FF
:10027000FE010BBF0E948C11C232D10780E008073B
:10028000A9F70E94BA0F0C94A411BACE1F920F9234
:100290000FB60F9211240BB60F922F933F934F93EB
:1002A0005F936F937F938F939F93AF93BF93EF93DE
:1002B000FF9382E992E00E94FA0CFF91EF91BF91C7
:1002C000AF919F918F917F916F915F914F913F91EE
:1002D0002F910F900BBE0F900FBE0F901F9018958F
:1002E0001F920F920FB60F9211240BB60F922F93FD
:1002F0003F934F935F936F937F938F939F93AF93AE
:10030000BF93EF93FF9382E992E00E94FF0CFF916D
:10031000EF91BF91AF919F918F917F916F915F917D
:100320004F913F912F910F900BBE0F900FBE0F90EA
:100330001F901895CF93DF9326E040E051EE60E0E8
:1003400070E080E394E00E94D5102FEF81EE94E0FE
:10035000215080409040E1F700C000006AE272E066
:1003600080E394E00E94860E82E693E0D9D687E689
:1003700093E02BD360E070E08BE690E063D380D312
:10038000C9E1D0E067E470E088E490E0D8D3AA2720
:1003900097FDA095BA2F4091460350914703609175
:1003A000480370914903480F591F6A1F7B1F4093F0
:1003B00046035093470360934803709349032FEF1C
:1003C00081EE94E0215080409040E1F700C00000B1
:1003D0002197C1F6609146037091470380914803CD
:1003E0009091490329E130E040E050E00E946A1119
:1003F00020934603309347034093480350934903A7
:1004000086E393E0EBD782E992E00E94D00C8FE381
:100410009CE90197F1F700C00000609180004AE07C
:1004200050E080E394E00E94F90E609181004AE080
:1004300050E080E394E00E94F90E6091A0004AE051
:1004400050E080E394E00E94F90E6091A1004AE040
:1004500050E080E394E0DF91CF910C94F90E82E6B6
:1004600093E0BBD586E493E0C7D686E393E071D7EB
:100470008CE193E00E948D0B8BE193E00E945B0C7A
:1004800066E172E087ED92E00E948E0B62E072E01E
:1004900083E992E00E948E0B82E992E00C94CF0CEB
:1004A00060E08BE193E00E94AF0CBC0187ED92E02D
:1004B0000E94B30B61E08BE193E00E94AF0CBC01A2
:1004C00083E992E00E94B30B86E493E0AFD680917B
:1004D0008D02992787FD9095A92FB92F8A30910514
:1004E00008F072C0FC01EE58FF4F0C94861182E6B2
:1004F00093E016D686E393E00E949A0A6DC062E606
:1005000073E087ED92E004C062E673E083E992E075
:100510000E94510C61C026E433E043E952E067EDEC
:1005200072E086E393E00E94A30A892B09F454C089
:1005300060E070E086E393E00E94870B4DC082E0AC
:1005400090E090933B0380933A0326E433E043E941
:1005500052E067ED72E086E393E0F5D786E493E03E
:10056000E8D640E050E082E693E0F2D535C06091F5
:100570009102862F90E090938900809388001092DA
:100580008B0010928A009093A9008093A80010928B
:10059000AB001092AA004AE050E080E394E00E9491
:1005A000F90E1AC082E090E005C083E090E002C03E
:1005B00084E090E0909337038093360368EC70E01A
:1005C00086E393E0BAD708C010928D0265E372E02B
:1005D00080E394E00E94860E2FEF81EE94E021509C
:1005E00080409040E1F700C0000080E394E00E946A
:1005F000DF0F20918E029927222309F4CCC0FC0141
:10060000BD97ED30F10508F08BC0E458FF4F0C9416
:100610008611809100029091010291958195910936
:100620009093010280930002089520918F023091EF
:1006300090024AE0429FC001439F900D1124019611
:100640000BC020918F02309190024AE0429FC0017E
:10065000439F900D112402969093900280938F02F5
:10066000089520918F02309190024AE0429FC0018C
:10067000439F900D11240396EFCF20918F0230916C
:1006800090024AE0429FC001439F900D11240496BE
:10069000E3CF20918F02309190024AE0429FC00147
:1006A000439F900D11240596D7CF20918F02309152
:1006B00090024AE0429FC001439F900D112406968C
:1006C000CBCF20918F02309190024AE0429FC0012F
:1006D000439F900D11240796BFCF20918F02309138
:1006E00090024AE0429FC001439F900D112408965A
:1006F000B3CF20918F02309190024AE0429FC00117
:10070000439F900D11240996A7CF20918F0230911D
:1007100090024AE0429FC001439F900D11249CCF5C
:1007200080918C028F5F80938C0284300CF4B7C070
:1007300080918F02909190022CE0289FA001299F28
:10074000500D11242091000230910102429FC001FE
:10075000439F900D529F900D1124AA2797FDA095BD
:10076000BA2F8093520390935303A0935403B093F2
:10077000550381E090E09093010280930002109273
:10078000900210928F0210928E0285E080938D026B
:1007900010928C0208958236910509F463C044F5E5
:1007A0008533910509F452C08CF48233910509F424
:1007B00047C024F4C19709F441C0089583339105DB
:1007C00009F440C0C49709F43FC0089588339105E7
:1007D00009F442C034F486339105D1F1C797D1F1C1
:1007E000089589339105D1F181369105C9F10895B4
:1007F0008736910509F440C05CF484369105B1F167
:100800009CF185369105A1F18636910599F10895FF
:100810008237910509F440C03CF48836910571F1A6
:100820008D36910599F108958337910521F0873729
:10083000910541F1089510928D02089581E01FC045
:1008400082E01DC083E01BC084E019C085E017C0B2
:1008500086E015C087E013C088E011C089E00FC0B2
:100860008AE00DC08BE00BC08CE009C08DE007C0B2
:100870008EE005C08FE003C080E101C081E180937C
:100880008D020895809191028F5F03C08091910243
:10089000815080939102089581E080938E020895A3
:1008A0008091970390E020919803821B910908950D
:1008B0002091980380919703281750F4E22FF0E0DD
:1008C000E756FC4F808190E02F5F209398030895B6
:1008D0008FEF9FEF0895E091980380919703E817B9
:1008E00030F4F0E0E756FC4F808190E008958FEF00
:1008F0009FEF08950895CF92DF92EF92FF920F93AA
:100900001F93CF93DF937C01CB018A012091730366
:10091000222389F0EB016B01C40ED51ECC15DD0539
:1009200061F06991D701ED91FC910190F081E02D8A
:10093000C7011995F3CF642FF9D1C801DF91CF9189
:100940001F910F91FF90EF90DF90CF900895CF937C
:10095000DF931F92CDB7DEB7698320917303222303
:10096000D1F020917403203240F021E030E0FC010E
:100970003383228380E090E014C080917503E82FD8
:10098000F0E0EA58FC4F998190838F5F8093750364
:100990008093740304C061E0CE010196C7D181E069
:1009A00090E00F90DF91CF910895FC0113821282A5
:1009B00048EE53E060E070E04483558366837783BC
:1009C00081E492E0918380830895109298031092BD
:1009D00097031092750310927403F3C0862F41326F
:1009E00008F040E269E973E00AD11092980380931D
:1009F00097030895F3CF81E0809373036093960388
:100A000010927503109274030895F5CF0F93062F7B
:100A100021E04091740366E773E08091960333D13F
:100A20001092750310927403109273030F9108953E
:100A300087E693E0BACFDC01ED91FC910190F08163
:100A4000E02D19940F931F93CF93DF938C01EB014B
:100A500069E670E087E693E0D8DFB80187E693E0C7
:100A6000EADFBE0187E693E0E6DF61E087E693E038
:100A7000CDDF81E090E0DF91CF911F910F9108953C
:100A800060E070E08AE090E0DDDF6FE070E08AE037
:100A900090E0D8DF60E070E08AE090E0D3DF60E4CF
:100AA00070E084E290E0CEDF6CE870E085E290E0F8
:100AB000C9DF62E070E086E290E0C4DF68E870E0E1
:100AC00087E290E0BFDF6CE070E088E290E0BADFA0
:100AD0006AE070E089E290E0B5DF61E870E08AE208
:100AE00090E0B0DF61E070E084E690E0ABDF63E0CF
:100AF00070E087E690E0A6DF60E870E081E090E0DB
:100B0000A1DF64E070E084E390E09CDF60E070E0EF
:100B100084E690E097DF60E070E08AE690E092DFA4
:100B200061E070E084E690E08DDF60E270E08AE6EC
:100B300090E088DF63E170E084E390E083CF0F937F
:100B40001F93CF93DF938C01EB0169E670E087E69A
:100B500093E05BDFB80187E693E06DDF60E087E656
:100B600093E054DF21E030E041E050E069E670E0DE
:100B700087E693E03FDF87E693E09ADE182F69E689
:100B800070E087E693E041DFBE0187E693E053DF44
:100B900060E087E693E03ADF21E030E041E050E0BA
:100BA00069E670E087E693E025DF87E693E080DE84
:100BB000982F8827810F911DDF91CF911F910F9161
:100BC00008951092260481E0809324041092230457
:100BD00061E084E10E940F0E61E085E10E940F0E4A
:100BE000E9EBF0E080818E7F808380818D7F808340
:100BF00088E48093B80085E48093BC000895413276
:100C000008F03FC0909126049111FCCF91E09093A1
:100C10002604209324042FEF2093B9031092FE039F
:100C2000240F2093FD039093250490912504880FB1
:100C3000892B8093250480912304813041F4109204
:100C40002304809125048093BB0085EC01C085EED0
:100C50008093BC00809126048130E1F38091FE03F3
:100C6000841710F44091FE032FEF33E0FB01D9010C
:100C70008A2F821B841718F48D918193F9CF842FCA
:100C8000089580E008950F93413208F046C0909196
:100C900026049111FCCF92E0909326040093240443
:100CA0009FEF9093B9031092FE034093FD03FB0165
:100CB0006FEF73E0DB019A2F961B941718F4919154
:100CC0009D93F9CF1092250490912504880F892BCC
:100CD0008093250480912304813041F410922304F1
:100CE000809125048093BB0085EC01C085EE809344
:100CF000BC00222321F0809126048230E1F3809110
:100D0000B9038F3F61F08091B903803251F0809137
:100D1000B903803341F483E007C081E005C080E07F
:100D200003C082E001C084E00F910895613298F41D
:100D300020912604243089F46093DB03FC018DEDBF
:100D400093E0DC012A2F281B261718F421912D93FC
:100D5000F9CF80E0089581E0089582E0089585ED5F
:100D60008093BC008091BC0084FDFCCF10922604CF
:100D7000089585EC8093BC001092260408951F927C
:100D80000F920FB60F9211240BB60F922F933F9331
:100D90004F935F936F937F938F939F93AF93BF9383
:100DA000EF93FF938091B900887F803609F49CC04F
:100DB00068F5883209F45BC090F4803109F454C0BE
:100DC00038F4882309F4F3C0883009F44DC0F2C028
:100DD000883109F44CC0803209F45DC0EBC0803426
:100DE00009F468C048F4803309F455C0883309F029
:100DF000E1C08093B903A7C0803509F44FC088359E
:100E000009F45DC0883409F0D5C0D3C0883909F42D
:100E1000C4C0A8F4883709F467C038F4883609F4E8
:100E200063C0803709F460C0C5C0883809F4B5C014
:100E3000803909F45FC0803809F0BCC05BC0803BDA
:100E400009F483C038F4803A09F466C0883A09F49A
:100E50007CC0B0C0803C09F4A4C0883C09F4A1C0A7
:100E6000883B09F487C0A6C08091250410C09091EA
:100E7000FE038091FD03981770F5E091FE0381E079
:100E80008E0F8093FE03F0E0E150FC4F8081809351
:100E9000BB0085EC83C08093B9038BC0E091FE0357
:100EA00081E08E0F8093FE038091BB00F0E0E15063
:100EB000FC4F80839091FE038091FD036BC0E09115
:100EC000FE0381E08E0F8093FE038091BB00F0E073
:100ED000E150FC4F80838091240481116AC081E03D
:100EE0008093230484EA5EC083E0809326041092FA
:100EF000BA03CFCF8091BA03803208F04EC0E091A0
:100F0000BA0381E08E0F8093BA038091BB00F0E0BA
:100F1000E554FC4F8083BDCF8091BA03803230F41A
:100F2000E091BA03F0E0E554FC4F108218DF6091C5
:100F3000BA0370E0E0911F04F09120048BEB93E082
:100F400019951092BA0315DF35C084E0809326040A
:100F50001092DC031092DB03E0912104F091220453
:100F600019958091DB03811105C081E08093DB033B
:100F70001092DD03E091DC0381E08E0F8093DC03AF
:100F8000F0E0E352FC4F80818093BB009091DC0342
:100F90008091DB03981708F47CCF85E88093BC0030
:100FA00009C085EC8093BC001092260403C0109207
:100FB000B903D5DEFF91EF91BF91AF919F918F91D2
:100FC0007F916F915F914F913F912F910F900BBE49
:100FD0000F900FBE0F901F901895FC011482138282
:100FE00087B18C6187B90895FC0183819481813038
:100FF000910531F0029739F480818068808303C0C5
:101000008181806881834298449800000000439A5F
:1010100000000000000000000000429A00000000F4
:1010200020E030E0439842980000000048B1808101
:1010300090E0022E02C0959587950A94E2F78170A0
:10104000992773E0880F991F7A95E1F7482B48B9E3
:1010500000000000000000000000429A00000000B4
:101060002F5F3F4F28303105E9F620E030E043980C
:1010700042980000000048B1818190E0022E02C039
:10108000959587950A94E2F78170992763E0880F18
:10109000991F6A95E1F7482B48B90000000000004D
:1010A00000000000429A000000002F5F3F4F2830F0
:1010B0003105E9F620E030E0439842980000000056
:1010C00048B1828190E0022E02C0959587950A94DE
:1010D000E2F78170992753E0880F991F5A95E1F73D
:1010E000482B48B900000000000000000000429AB0
:1010F000000000002F5F3F4F28303105E9F68BE0FC
:10110000429800000000439A000000000000000028
:101110000000429A00000000815091F7449A08951F
:10112000FF920F931F93CF93DF93EC01F880098117
:101130001A81188219821A8257DF1C821B82F88258
:1011400009831A83DF91CF911F910F91FF9008952A
:101150000F931F93CF93DF93FC0154834383683E27
:1011600083E07807DCF49B016933AFEF7A0714F46E
:1011700029E33FEF01E010E02617370709F400E00C
:1011800037FF10C02C39BFEF3B0714F486E401C0D1
:1011900080E480833195219531090FC027EE33E03B
:1011A00001E010E0C90164E670E00E943511635B64
:1011B0007D4FDB0111968C918083CAE0D0E0C9019C
:1011C000BE010E9435119C01CB01BE010E94351168
:1011D000835B9D4FDC0111968C918183D901A35BC8
:1011E000BD4F11968C918283CF01FEDEC801DF9145
:1011F000CF911F910F910895FC01148215821682E0
:101200001782108611861286138614861586168616
:101210001786108A118A128A138A148A158A168AE6
:10122000178A108E118E128E138E08954F925F9230
:101230006F927F928F929F92AF92BF92CF92DF92E6
:10124000EF92FF92CF93DF93EC01488559856A8531
:101250007B854C835D836E837F8367E470E088E4E5
:1012600090E06DDCAC01662757FD6095762F4887CE
:1012700059876A877B874C895D896E897F89488B0E
:10128000598B6A8B7B8B0AD42B013C016C8B7D8B39
:101290008E8B9F8BC884D984EA84FB848880998054
:1012A000AA80BB80C701B601681979098A099B0920
:1012B00024E630E040E050E00E946A11D501C4010C
:1012C0000596A11DB11D8C159D05AE05BF0554F0F9
:1012D00085E0881A9108A108B108C814D904EA0465
:1012E000FB0464F48C859D85AE85BF85820F931FBA
:1012F000A41FB51F8C879D87AE87BF8748895989F2
:101300006A897B89441A550A660A770A488E598E7B
:101310006A8E7B8EDF91CF91FF90EF90DF90CF9020
:10132000BF90AF909F908F907F906F905F904F9005
:101330000895FC018485958523E0880F991F2A95DF
:10134000E1F7608D718D91D7882777FD8095982F73
:101350000895CF93DF93EC01198218821B821A82C1
:101360001D821C829BD36E837F83888799871A8610
:101370001B861C861D861E861F86E1E0F1E08081AB
:1013800088608083808180618083259A269A8FEF90
:1013900090E0909387008093860032EA309380003B
:1013A00029E1209381001092890010928800109208
:1013B0008B0010928A009093A7008093A600309330
:1013C000A0002093A1001092A9001092A8001092F2
:1013D000AB001092AA00DF91CF910895E1E0F1E017
:1013E000808188608083808180618083259A269AAD
:1013F0008FEF90E0909387008093860032EA3093DD
:10140000800029E1209381001092890010928800C9
:1014100010928B0010928A009093A7008093A600F0
:101420003093A0002093A1001092A9001092A80070
:101430001092AB001092AA000895FC018091020165
:101440008860809302018FE193E00197F1F700C07B
:10145000000080910201877F809302017183608385
:101460006230710509F442C094F46115710501F10F
:101470006130710509F04DC082819381909389009C
:101480008093880010928B0010928A002AC06330EB
:101490007105E9F064307105E1F5828193819093E3
:1014A00089008093880010928B0010928A0028C0D7
:1014B00082819381909389008093880090938B0020
:1014C00080938A009093A9008093A8001DC0109279
:1014D0008900109288008281938190938B00809381
:1014E0008A009093A9008093A8001FC010928900E1
:1014F000109288008281938190938B0080938A0060
:101500001092A9001092A8009093AB008093AA00BB
:101510000895109289001092880010928B0010920A
:101520008A001092A9001092A8001092AB001092AD
:10153000AA00089560E070E080CFFC0173836283AD
:10154000608171817ACF8F929F92AF92BF92CF923A
:10155000DF92EF92FF920F931F93CF93DF93EC01F3
:1015600079010C811D810130110509F480C024F43A
:101570000115110511F1BBC00230110509F491C02C
:101580000330110509F0B3C0D5DF88D20E811F8169
:1015900028853985601B710B820B930B0A851B858F
:1015A0002C853D85601771078207930708F49FC05B
:1015B0001D821C8281E08F879AC0FA01E05CFF4F98
:1015C000A080B180FB01E05CFF4F208131818E85DE
:1015D000273E310534F1992787FD9095019622E049
:1015E000C22ED12CB60141D68E8788248394912CAB
:1015F0009982888268E970E0CE019FDF8E8597EE40
:10160000A916B104E4F0992787FD90950196B601DB
:101610002CD68E879982888268E970E0CE018DDFB2
:1016200068C08823D1F08130E9F488EC9BEFAFEFFC
:10163000BFEFF70184879587A687B78713C08823F4
:1016400061F0813079F448EC5BEF6FEF7FEFF701E9
:10165000448755876687778705C088E394E0A0E0D4
:10166000B0E0E7CF82E090E09D838C8342C0FB0135
:10167000E05CFF4FE080F180FA01E05CFF4F008109
:10168000118168E970E059DFF7E9EF16F1047CF1A8
:101690000739110564F11F86198218821D821C8288
:1016A00026C0C90146DE6115710551F41982188200
:1016B00060E070E0CE0141DF1F8601E010E019C05C
:1016C00077FF0AC083E090E099838883673F7F4F6C
:1016D00054F064E970E009C084E090E09983888365
:1016E0006A307105B4F368E970E0CE0126DF00E0EE
:1016F00010E0C801DF91CF911F910F91FF90EF9003
:10170000DF90CF90BF90AF909F908F900895FC0195
:101710007583648360E070E090CE0895FC01B89614
:1017200024E1DF011D922A95E9F7FC0115AE14AE04
:1017300017AE16AEE05CFF4F118210823296118216
:101740001082DB01FC012BE430E08D919D919183AF
:101750008083338322833496275E3F4F253481E094
:10176000380799F708950F931F93CF93DF93FC01E8
:101770008B0124AD35ADE9012196D5AFC4AFC901C8
:101780006AE070E072D54496880F991F8E0F9F1FF4
:10179000DC010D931C93DF01AE5BBF4F0D931C93D7
:1017A000659724F02950310935AF24AF17AE16AE36
:1017B00020E030E040E050E0DF01A20FB31F989638
:1017C0008D919C919997840F951F2E5F3F4F2431E7
:1017D000310511F0AC01F0CF64AD75AD6B30710522
:1017E00014F06AE070E041D577AF66AF80819181F7
:1017F000861797070CF447C0DF0120E030E0CD9159
:10180000DC911197C617D707B4F114964D915C91EE
:101810001597641775077CF18E01061B170BD9010C
:101820001396AA0FBB1FAE0FBF1F0D90BC91A02D2A
:101830000A9FC0010B9F900D1A9F900D1124641BED
:10184000750BD9011196AA0FBB1FAE0FBF1F0D90CC
:10185000BC91A02D6A9F90016B9F300D7A9F300D37
:101860001124820F931FBE01641B750BFED46115FA
:10187000710561F00DC014962E5F3F4F2231310586
:1018800009F0BDCF03C066EF7FEF02C067EE73E0E3
:10189000E05CFF4F71836083DF91CF911F910F91C7
:1018A00008959B01805C9F4FFC016081718141E044
:1018B00050E0C9014DCC809164008E7F809364001C
:1018C00080917A00876880937A0080917C008F777E
:1018D00080937C0080917C00806480937C00809168
:1018E0007C008E7F80937C0080917C00826080935E
:1018F0007C0080917C008B7F80937C0080917C00B9
:10190000877F80937C0080917C008F7E80937C0019
:1019100080917C008F7D80937C0080917B008E7F06
:1019200080937B0080917B008D7F80937B008091F2
:101930007B008B7F80937B0080917A008064809312
:101940007A0080917A0084FFFCCF80917A008061D8
:1019500080937A0080917800809179000895809139
:101960007C00807C80937C0080917C006F73682B6E
:1019700060937C0080917A00806480937A008091EB
:101980007A0084FFFCCF80917A00806180937A0096
:10199000809178002091790090E0922B089508952D
:1019A000CF93DF93F8945A9AC9E6D0E08881806299
:1019B000888368E572E080E394E0A4D168814AE01E
:1019C00050E080E394E015D284E08CBBEA9A7894EE
:1019D000E5E0F1E0808181608083ECE6F0E08081E9
:1019E00082608083E8E6F0E0808182608083DF911E
:1019F000CF9108956FE572E080E394E087C165E6DA
:101A000072E080E394E082C11F920F920FB60F92B2
:101A100011242F933F938F939F93AF93BF93809104
:101A2000280490912904A0912A04B0912B043091AC
:101A3000270423E0230F2D3720F40196A11DB11DAB
:101A400005C026E8230F0296A11DB11D209327048F
:101A50008093280490932904A0932A04B0932B0424
:101A600080912C0490912D04A0912E04B0912F040C
:101A70000196A11DB11D80932C0490932D04A09379
:101A80002E04B0932F04BF91AF919F918F913F91FE
:101A90002F910F900FBE0F901F9018952FB7F894AD
:101AA000609128047091290480912A0490912B045C
:101AB0002FBF0895789484B5826084BD84B5816019
:101AC00084BD85B5826085BD85B5816085BDEEE646
:101AD000F0E0808181608083E1E8F0E01082808125
:101AE00082608083808181608083E0E8F0E0808193
:101AF00081608083E1EBF0E0808184608083E0EBB3
:101B0000F0E0808181608083E1E9F0E080818260A3
:101B10008083808181608083E0E9F0E08081816062
:101B20008083E1EAF0E0808182608083808181604F
:101B30008083E0EAF0E0808181608083E1E2F1E08F
:101B4000808182608083808181608083E0E2F1E037
:101B5000808181608083EAE7F0E080818460808317
:101B600080818260808380818160808380818068C1
:101B700080831092C100089590E0FC013197E2311A
:101B8000F10508F04BC0E757FF4FC0C380918000BC
:101B90008F7703C0809180008F7D809380000895AF
:101BA00080918000877FF9CF84B58F7702C084B59C
:101BB0008F7D84BD08958091B0008F7703C08091A0
:101BC000B0008F7D8093B0000895809190008F7752
:101BD00007C0809190008F7D03C080919000877F27
:101BE0008093900008958091A0008F7707C0809126
:101BF000A0008F7D03C08091A000877F8093A0000C
:101C00000895809120018F7707C0809120018F7DFA
:101C100003C080912001877F8093200108950F9356
:101C20001F93CF93DF931F92CDB7DEB7282F30E0FD
:101C3000F901EA5CFE4F8491F901E458FE4F1491DA
:101C4000F901EE53FE4F04910023C1F0882319F0EF
:101C5000698392DF6981E02FF0E0EE0FFF1FE85FFC
:101C6000FD4FA591B4919FB7F8948C91611103C079
:101C70001095812301C0812B8C939FBF0F90DF9122
:101C8000CF911F910F910895CF92DF92EF92FF9223
:101C90000F931F93CF93DF936C017A01EB01E60E54
:101CA000F71E00E010E0CE15DF0561F06991D60166
:101CB000ED91FC910190F081E02DC6011995080F7E
:101CC000191FF1CFC801DF91CF911F910F91FF90A4
:101CD000EF90DF90CF9008956115710581F0DB01E1
:101CE0000D900020E9F7AD0141505109461B570BFB
:101CF000DC01ED91FC910280F381E02D199480E0EC
:101D000090E00895E9CF6BE672E0E6CF0F931F9362
:101D1000CF93DF93EC01E0DF8C01CE01F4DF800F85
:101D2000911FDF91CF911F910F9108958F929F92F4
:101D3000AF92BF92CF92DF92EF92FF920F931F93D9
:101D4000CF93DF93CDB7DEB7A1970FB6F894DEBF80
:101D50000FBECDBF7C01C42EE52FCB01D22E19A220
:101D600021E02D1510F02AE0D22E8E010F5D1F4FBD
:101D70008D2C912CA12CB12C6C2D7E2FA5019401C2
:101D800087D28C2DD29E80191124015011098A30DE
:101D900014F4805D01C0895CF80180832115310550
:101DA0004105510521F0C22EE32FCA01E5CFB8014C
:101DB000C70192DFA1960FB6F894DEBF0FBECDBF6C
:101DC000DF91CF911F910F91FF90EF90DF90CF9017
:101DD000BF90AF909F908F9008952115310541F4E9
:101DE000DC01ED91FC910190F081E02D642F1994BC
:101DF0009DCF0F931F93CF93DF93EC019A01462F52
:101E000050E060E070E0E9DF8C01CE017CDF800F04
:101E1000911FDF91CF911F910F9108951F920F9203
:101E20000FB60F9211240BB60F922F938F939F939F
:101E3000EF93FF93E0914004F09141048081E091A1
:101E40004604F091470482FD12C0908180914904BC
:101E50008F5F8F7320914A04821751F0E0914904FB
:101E6000F0E0E05DFB4F958F8093490401C08081D5
:101E7000FF91EF919F918F912F910F900BBE0F903B
:101E80000FBE0F901F9018951F920F920FB60F92D2
:101E900011240BB60F922F933F934F935F936F9341
:101EA0007F938F939F93AF93BF93EF93FF9380E3C1
:101EB00094E0D5D0FF91EF91BF91AF919F918F9119
:101EC0007F916F915F914F913F912F910F900BBE3A
:101ED0000F900FBE0F901F90189580E394E056D09E
:101EE00021E0892B09F420E0822F08951092330419
:101EF0001092320488EE93E0A0E0B0E080933404C6
:101F000090933504A0933604B093370480E892E0B0
:101F1000909331048093300485EC90E090933D04DD
:101F200080933C0484EC90E090933F0480933E04C3
:101F300080EC90E0909341048093400481EC90E029
:101F4000909343048093420482EC90E09093450484
:101F50008093440486EC90E0909347048093460479
:101F60001092490410924A0410924B0410924C04AF
:101F7000089508959FDDFDDF0E949A01C3EFDFE021
:101F80000E9450022097E1F32ED0FACFFC01818D00
:101F9000228D90E0805C9F4F821B91098F7399275F
:101FA0000895FC01918D828D981731F0828DE80F94
:101FB000F11D858D90E008958FEF9FEF0895FC014E
:101FC000918D828D981761F0828DDF01A80FB11D70
:101FD0005D968C91928D9F5F9F73928F90E0089594
:101FE0008FEF9FEF08958DE69FE0892B39F080E019
:101FF00090E0892B19F071DF811125C080E090E01D
:10200000892B41F080E090E0892B21F00E940000B4
:1020100081111CC080E090E0892B41F080E090E0CD
:10202000892B21F00E940000811113C080E090E014
:10203000892BA1F080E090E0892B81F00E940000C4
:1020400081110AC008950E940000D8CF0E940000AC
:10205000E1CF0E940000EACF0C9400000895FC013B
:10206000848DDF01A80FB11DA35ABF4F2C91848D21
:1020700090E001968F739927848FA689B7892C9356
:10208000A089B1898C9180648C93938D848D9813F1
:1020900006C00288F389E02D80818F7D80830895BA
:1020A000CF93DF93EC01888D8823C1F0EA89FB8907
:1020B000808185FD05C0A889B9898C9186FD0EC0F7
:1020C0000FB607FCF5CF808185FFF2CFA889B989CB
:1020D0008C9185FFEDCFCE01C2DFE8CFDF91CF91AC
:1020E0000895CF92DF92FF920F931F93CF93DF93C8
:1020F0001F92CDB7DEB76C0181E0D60158968C9364
:1021000058975B969C915B975C968C915C97981323
:1021100007C05096ED91FC915197808185FD2DC0AF
:10212000F601038D10E00F5F1F4F0F731127F02E84
:10213000F601848DF81210C00FB607FCF9CFD60156
:102140005096ED91FC915197808185FFF1CFC601AA
:10215000698385DF6981ECCF838DE80FF11DE35A38
:10216000FF4F6083D6015B960C935B975296ED917F
:10217000FC915397808180620CC0D6015696ED91F8
:10218000FC91579760835096ED91FC915197808117
:102190008064808381E090E00F90DF91CF911F9168
:1021A0000F91FF90DF90CF900895BF92CF92DF9272
:1021B000EF92FF92CF93DF93EC016A017B01B22E85
:1021C000E889F98982E08083411581EE580761052D
:1021D000710599F060E079E08DE390E0A701960148
:1021E00057D02150310941095109569547953795E6
:1021F0002795211580E1380790F0E889F989108248
:1022000060E874E88EE190E0A701960141D021508A
:102210003109410951095695479537952795EC8520
:10222000FD853083EE85FF852083188EEC89FD893E
:10223000B082EA89FB89808180618083EA89FB8999
:10224000808188608083EA89FB89808180688083BF
:10225000EA89FB8980818F7D8083DF91CF91FF9018
:10226000EF90DF90CF90BF90089597FB072E16F464
:10227000009406D077FD08D053D007FC05D03EF47B
:10228000909581959F4F0895709561957F4F089522
:10229000A1E21A2EAA1BBB1BFD010DC0AA1FBB1F6A
:1022A000EE1FFF1FA217B307E407F50720F0A21BDC
:1022B000B30BE40BF50B661F771F881F991F1A9449
:1022C00069F760957095809590959B01AC01BD0173
:1022D000CF010895052E97FB16F400940FD057FDFB
:1022E00005D0D6DF07FC02D046F408C050954095D3
:1022F000309521953F4F4F4F5F4F089590958095B2
:10230000709561957F4F8F4F9F4F0895EE0FFF1F80
:102310000590F491E02D19940790F691E02D199411
:10232000AA1BBB1B51E107C0AA1FBB1FA617B707FB
:1023300010F0A61BB70B881F991F5A95A9F7809517
:0C2340009095BC01CD010895F894FFCFEA
:10234C000100FA0190014E011C01FD00E200CD00DC
:10235C00B900AA009E001001D900B30099008A00B0
:10236C0082007D0076006F006E00303132333435E0
:10237C00363738390064656661756C74000000008E
:10238C0000A7047B04500458046B047A04463F06EF
:10239C005B4F666D7D077F6F45494352412000546A
:1023AC0065737431005465737432000D0A006E61EC
:1023BC006E00696E66006F7666002E0000000000ED
:0C23CC007110440EC60FDF0FD10F50102F
:00000001FF
