:1000000013C1000042C1000040C100003FC1000018
:100010003CC100003AC1000038C1000036C10000F8
:1000200034C1000032C100004EC100002EC10000EA
:100030002CC100002AC1000028C1000026C1000018
:1000400024C1000022C1000020C100001EC1000028
:100050001CC100001AC1000018C100000C94600E01
:1000600014C100000C94D5100C940B110EC10000AB
:100070000CC100000AC1000008C1000006C1000058
:1000800004C1000002C1000000C10000FEC0000069
:10009000FCC00000FAC00000F8C000007FC60000ED
:1000A000F4C00000F2C00000F0C00000EEC000008C
:1000B000ECC00000EAC00000E8C00000E6C000009C
:1000C000E4C00000E2C00000E0C00000DEC00000AC
:1000D000DCC00000DAC00000D8C00000D6C00000BC
:1000E000D4C0000084028C029102BC029802AC02CF
:1000F000C502E002E302E60218039F039F03940394
:100100002403300340034C035803640370037C034F
:100110008803300F330F220F260F2C0F6A0F370F73
:100120003B0F410F450F490F4F0F530F570F6A0FEA
:100130005D0F610F650F00000A0B02090C0D0E0820
:1001400007030401000000000000000000000000A0
:10015000000000000000000000000000000000009F
:10016000000012111000000000000000000000005C
:10017000000000000000000000000000010210204C
:1001800020080810204010204080020102010804CD
:100190000201010204081020408080402010080461
:1001A00002018004020180402010080402010804BA
:1001B00002010102040810204080010204081020FE
:1001C0004080050505050705080808080202020227
:1001D0000A0A0808040404040101010101010101E3
:1001E0000303030303030303040707070C0C0C0CAE
:1001F0000C0C0C0C02020202060606060606060697
:100200000B0B0B0B0B0B0B0B000022002500280027
:100210002B002E003100340002010000050108010E
:100220000B011C0227053D1111241FBECFEFD1E2A7
:10023000DEBFCDBF00E00CBF12E0A0E0B2E0E8EE10
:10024000F9E200E00BBF02C007900D92A63AB10799
:10025000D9F725E0A6EAB2E001C01D92A631B207A7
:10026000E1F712E0C8E2D2E000E006C022970109FF
:10027000FE010BBF0E94DA14C232D10780E00807EA
:10028000A9F70E9481110C94F214BACE1F920F921A
:100290000FB60F9211240BB60F928F939F93EF938B
:1002A000FF93E3E5F3E08081918101969183808360
:1002B000FF91EF919F918F910F900BBE0F900FBE0A
:1002C0000F901F9018951F920F920FB60F92112446
:1002D0000BB60F928F939F93EF93FF93E5E5F3E0B7
:1002E00080819181019691838083FF91EF919F910D
:1002F0008F910F900BBE0F900FBE0F901F9018950F
:10030000CF93DF9326E040E051EE60E070E089E7B4
:1003100094E00E949C122FEF81EE94E021508040E7
:100320009040E1F700C000006AE272E089E794E0E3
:100330000E94E90F8BEA93E002D780EB93E054D35D
:1003400060E070E08BE690E08CD3A9D3C9E1D0E007
:1003500067E470E088E490E001D4AA2797FDA095B7
:10036000BA2F40918F035091900360919103709147
:100370009203480F591F6A1F7B1F40938F035093AE
:10038000900360939103709392032FEF81EE94E0BA
:10039000215080409040E1F700C000002197C1F655
:1003A00060918F03709190038091910390919203DB
:1003B00029E130E040E050E00E94B81420938F0320
:1003C00030939003409391035093920383E593E01D
:1003D0000E94050A8CEA92E00E944C0D8FE39CE992
:1003E0000197F1F700C0000062E370E08BE693E054
:1003F0000E94910D609180004AE050E089E794E00E
:100400000E94C010609181004AE050E089E794E0CA
:100410000E94C0106091A0004AE050E089E794E09B
:100420000E94C0106091A1004AE050E089E794E08A
:10043000DF91CF910C94C0108BEA93E0DDD58FE86B
:1004400093E0E9D683E593E094D789E393E00E94B3
:10045000070C88E393E00E94D70C66E172E084EF1A
:1004600092E00E94080C62E072E080EB92E00E9451
:10047000080C8CEA92E00C944B0D60E088E393E06A
:100480000E942B0DBC0184EF92E00E942D0C61E0D4
:1004900088E393E00E942B0DBC0180EB92E00E9468
:1004A0002D0C8FE893E0D1D665E372E089E794E004
:1004B0000E94DE0F60915303709154034AE050E0B4
:1004C00089E794E00E94971063E472E089E794E082
:1004D0000E94DE0F60915503709156034AE050E090
:1004E00089E794E00E949E108091A702992787FDDA
:1004F0009095A92FB92F8A30910508F074C0FC019E
:10050000EE58FF4F0C94D4148BEA93E018D683E591
:1005100093E00E94140B6FC06BEA73E084EF92E0EB
:1005200004C06BEA73E080EB92E00E94CD0C63C0E4
:100530002FE833E040EB52E064EF72E083E593E0B4
:100540000E94210B892B09F456C060E070E083E51E
:1005500093E00E941B0B4FC082E090E090935C03FD
:1005600080935B032FE833E040EB52E064EF72E0EE
:1005700083E593E00E94210B8FE893E0E9D640E009
:1005800050E08BEA93E0F3D536C06091AB02862F42
:1005900090E0909389008093880010928B001092D5
:1005A0008A009093A9008093A8001092AB0010924B
:1005B000AA004AE050E089E794E00E94C0101BC006
:1005C00082E090E005C083E090E002C084E090E02B
:1005D000909358038093570368EC70E083E593E0B1
:1005E0000E94170B08C01092A70264E572E089E729
:1005F00094E00E94E90F2FEF81EE94E021508040BB
:100600009040E1F700C0000089E794E00E94A61145
:100610002091A8029927222309F4CCC0FC01BD97A0
:10062000ED30F10508F08BC0E458FF4F0C94D41462
:10063000809100029091010291958195910990938A
:1006400001028093000208952091A9023091AA022C
:100650004AE0429FC001439F900D112401960BC0B8
:100660002091A9023091AA024AE0429FC001439F13
:10067000900D112402969093AA028093A9020895E6
:100680002091A9023091AA024AE0429FC001439FF3
:10069000900D11240396EFCF2091A9023091AA0268
:1006A0004AE0429FC001439F900D11240496E3CF7E
:1006B0002091A9023091AA024AE0429FC001439FC3
:1006C000900D11240596D7CF2091A9023091AA024E
:1006D0004AE0429FC001439F900D11240696CBCF64
:1006E0002091A9023091AA024AE0429FC001439F93
:1006F000900D11240796BFCF2091A9023091AA0234
:100700004AE0429FC001439F900D11240896B3CF49
:100710002091A9023091AA024AE0429FC001439F62
:10072000900D11240996A7CF2091A9023091AA0219
:100730004AE0429FC001439F900D11249CCF8091BD
:10074000A6028F5F8093A60284300CF4B7C080911C
:10075000A9029091AA022CE0289FA001299F500D88
:1007600011242091000230910102429FC001439F59
:10077000900D529F900D1124AA2797FDA095BA2F96
:1007800080939B0390939C03A0939D03B0939E033F
:1007900081E090E090930102809300021092AA02FF
:1007A0001092A9021092A80285E08093A7021092ED
:1007B000A60208958236910509F463C044F5853395
:1007C000910509F452C08CF48233910509F447C0B5
:1007D00024F4C19709F441C008958333910509F4C5
:1007E00040C0C49709F43FC008958833910509F4C7
:1007F00042C034F486339105D1F1C797D1F1089501
:1008000089339105D1F181369105C9F10895873673
:10081000910509F440C05CF484369105B1F19CF176
:1008200085369105A1F18636910599F108958237B3
:10083000910509F440C03CF48836910571F18D367C
:10084000910599F108958337910521F08737910536
:1008500041F108951092A702089581E01FC082E03F
:100860001DC083E01BC084E019C085E017C086E08E
:1008700015C087E013C088E011C089E00FC08AE08E
:100880000DC08BE00BC08CE009C08DE007C08EE08E
:1008900005C08FE003C080E101C081E18093A70221
:1008A00008958091AB028F5F03C08091AB028150AD
:1008B0008093AB02089581E08093A802089580910F
:1008C000E00390E02091E103821B910908952091BB
:1008D000E1038091E003281750F4E22FF0E0EE519D
:1008E000FC4F808190E02F5F2093E10308958FEF0C
:1008F0009FEF0895E091E1038091E003E81730F461
:10090000F0E0EE51FC4F808190E008958FEF9FEF73
:1009100008950895CF92DF92EF92FF920F931F9365
:10092000CF93DF937C01CB018A012091BC0322236A
:1009300089F0EB016B01C40ED51ECC15DD0561F00D
:100940006991D701ED91FC910190F081E02DC701F3
:100950001995F3CF642FF9D1C801DF91CF911F9181
:100960000F91FF90EF90DF90CF900895CF93DF939A
:100970001F92CDB7DEB769832091BC032223D1F04B
:100980002091BD03203240F021E030E0FC013383B0
:10099000228380E090E014C08091BE03E82FF0E055
:1009A000E154FC4F998190838F5F8093BE038093C5
:1009B000BD0304C061E0CE010196C7D181E090E0A3
:1009C0000F90DF91CF910895FC011382128248EEBF
:1009D00053E060E070E0448355836683778380E66C
:1009E00092E09183808308951092E1031092E003D6
:1009F0001092BE031092BD03F3C0862F413208F05F
:100A000040E262EE73E00AD11092E1038093E003CA
:100A10000895F3CF81E08093BC036093DF031092CD
:100A2000BE031092BD030895F5CF0F93062F21E06A
:100A30004091BD036FEB73E08091DF0333D11092DF
:100A4000BE031092BD031092BC030F91089580EB7A
:100A500093E0BACFDC01ED91FC910190F081E02DA3
:100A600019940F931F93CF93DF938C01EB0169E6E9
:100A700070E080EB93E0D8DFB80180EB93E0EADF31
:100A8000BE0180EB93E0E6DF61E080EB93E0CDDF39
:100A900081E090E0DF91CF911F910F91089560E088
:100AA00070E08AE090E0DDDF6FE070E08AE090E0E7
:100AB000D8DF60E070E08AE090E0D3DF60E470E0CF
:100AC00084E290E0CEDF6CE870E085E290E0C9DF80
:100AD00062E070E086E290E0C4DF68E870E087E200
:100AE00090E0BFDF6CE070E088E290E0BADF6AE09F
:100AF00070E089E290E0B5DF61E870E08AE290E0C2
:100B0000B0DF61E070E084E690E0ABDF63E070E0CE
:100B100087E690E0A6DF60E870E081E090E0A1DF8A
:100B200064E070E084E390E09CDF60E070E084E6E5
:100B300090E097DF60E070E08AE690E092DF61E0AD
:100B400070E084E690E08DDF60E270E08AE690E09D
:100B500088DF63E170E084E390E083CF0F931F931D
:100B6000CF93DF938C01EB0169E670E080EB93E0BB
:100B70005BDFB80180EB93E06DDF60E080EB93E03A
:100B800054DF21E030E041E050E069E670E080EBC6
:100B900093E03FDF80EB93E09ADE182F69E670E088
:100BA00080EB93E041DFBE0180EB93E053DF60E038
:100BB00080EB93E03ADF21E030E041E050E069E68D
:100BC00070E080EB93E025DF80EB93E080DE982FF0
:100BD0008827810F911DDF91CF911F910F9108956B
:100BE00010926F0481E080936D0410926C0461E0B8
:100BF00084E10E946B0F61E085E10E946B0FE9EBDD
:100C0000F0E080818E7F808380818D7F808388E487
:100C10008093B80085E48093BC000895413208F0C9
:100C20003FC090916F049111FCCF91E090936F04BD
:100C300020936D042FEF2093020410924704240F99
:100C40002093460490936E0490916E04880F892B34
:100C500080936E0480916C04813041F410926C0496
:100C600080916E048093BB0085EC01C085EE80937B
:100C7000BC0080916F048130E1F3809147048417B8
:100C800010F44091470428E434E0FB01D9018A2F95
:100C9000821B841718F48D918193F9CF842F0895C6
:100CA00080E008950F93413208F046C090916F04A0
:100CB0009111FCCF92E090936F0400936D049FEF2D
:100CC000909302041092470440934604FB0168E4A9
:100CD00074E0DB019A2F961B941718F491919D9361
:100CE000F9CF10926E0490916E04880F892B809337
:100CF0006E0480916C04813041F410926C048091F8
:100D00006E048093BB0085EC01C085EE8093BC002F
:100D1000222321F080916F048230E1F3809102045C
:100D20008F3F61F080910204803251F08091020483
:100D3000803341F483E007C081E005C080E003C058
:100D400082E001C084E00F910895613298F420910F
:100D50006F04243089F460932404FC0186E294E05B
:100D6000DC012A2F281B261718F421912D93F9CF87
:100D700080E0089581E0089582E0089585ED8093F4
:100D8000BC008091BC0084FDFCCF10926F040895DC
:100D900085EC8093BC0010926F0408951F920F920F
:100DA0000FB60F9211240BB60F922F933F934F93D0
:100DB0005F936F937F938F939F93AF93BF93EF93C3
:100DC000FF938091B900887F803609F49CC068F554
:100DD000883209F45BC090F4803109F454C038F4CF
:100DE000882309F4F3C0883009F44DC0F2C088317B
:100DF00009F44CC0803209F45DC0EBC0803409F4C2
:100E000068C048F4803309F455C0883309F0E1C064
:100E100080930204A7C0803509F44FC0883509F4D7
:100E20005DC0883409F0D5C0D3C0883909F4C4C086
:100E3000A8F4883709F467C038F4883609F463C029
:100E4000803709F460C0C5C0883809F4B5C080395E
:100E500009F45FC0803809F0BCC05BC0803B09F476
:100E600083C038F4803A09F466C0883A09F47CC03B
:100E7000B0C0803C09F4A4C0883C09F4A1C0883B00
:100E800009F487C0A6C080916E0410C090914704F9
:100E900080914604981770F5E091470481E08E0F29
:100EA00080934704F0E0E85BFB4F80818093BB00B8
:100EB00085EC83C0809302048BC0E091470481E0FD
:100EC0008E0F809347048091BB00F0E0E85BFB4FFE
:100ED000808390914704809146046BC0E091470461
:100EE00081E08E0F809347048091BB00F0E0E85BC7
:100EF000FB4F808380916D0481116AC081E08093F3
:100F00006C0484EA5EC083E080936F041092030453
:100F1000CFCF80910304803208F04EC0E0910304EB
:100F200081E08E0F809303048091BB00F0E0EC5FC2
:100F3000FB4F8083BDCF80910304803230F4E09179
:100F40000304F0E0EC5FFB4F108218DF60910304B4
:100F500070E0E0916804F091690484E094E01995F0
:100F60001092030415DF35C084E080936F04109263
:100F7000250410922404E0916A04F0916B04199501
:100F800080912404811105C081E080932404109293
:100F90002604E091250481E08E0F80932504F0E083
:100FA000EA5DFB4F80818093BB0090912504809186
:100FB0002404981708F47CCF85E88093BC0009C00E
:100FC00085EC8093BC0010926F0403C01092020461
:100FD000D5DEFF91EF91BF91AF919F918F917F915E
:100FE0006F915F914F913F912F910F900BBE0F909A
:100FF0000FBE0F901F901895FC011482138287B1C9
:101000008C6187B90895FC018381948181309105B9
:1010100031F0029739F480818068808303C0818138
:10102000806881834298449800000000439A000041
:101030000000000000000000429A0000000020E0D4
:1010400030E0439842980000000048B1808190E071
:10105000022E02C0959587950A94E2F78170992730
:1010600073E0880F991F7A95E1F7482B48B9000083
:101070000000000000000000429A000000002F5F06
:101080003F4F28303105E9F620E030E043984298A0
:101090000000000048B1818190E0022E02C09595C9
:1010A00087950A94E2F78170992763E0880F991F6A
:1010B0006A95E1F7482B48B90000000000000000E5
:1010C0000000429A000000002F5F3F4F283031059A
:1010D000E9F620E030E0439842980000000048B173
:1010E000828190E0022E02C0959587950A94E2F7DE
:1010F0008170992753E0880F991F5A95E1F7482B83
:1011000048B900000000000000000000429A000002
:1011100000002F5F3F4F28303105E9F68BE0429801
:1011200000000000439A00000000000000000000E2
:10113000429A00000000815091F7449A0895FF926E
:101140000F931F93CF93DF93EC01F88009811A81ED
:10115000188219821A8257DF1C821B82F882098347
:101160001A83DF91CF911F910F91FF9008950F93F4
:101170001F93CF93DF93FC0154834383683E83E046
:101180007807DCF49B016933AFEF7A0714F429E3A5
:101190003FEF01E010E02617370709F400E037FFC2
:1011A00010C02C39BFEF3B0714F486E401C080E483
:1011B00080833195219531090FC027EE33E001E09E
:1011C00010E0C90164E670E00E94831464597D4F09
:1011D000DB0111968C918083CAE0D0E0C901BE0189
:1011E0000E9483149C01CB01BE010E948314845988
:1011F0009D4FDC0111968C918183D901A459BD4F7B
:1012000011968C918283CF01FEDEC801DF91CF91D0
:101210001F910F910895FC01148215821682178286
:1012200010861186128613861486158616861786F2
:10123000108A118A128A138A148A158A168A178AC2
:10124000108E118E128E138E08954F925F926F92B0
:101250007F928F929F92AF92BF92CF92DF92EF9246
:10126000FF92CF93DF93EC01488559856A857B8592
:101270004C835D836E837F8367E470E088E490E055
:101280006DDCAC01662757FD6095762F488759873E
:101290006A877B874C895D896E897F89488B598BEA
:1012A0006A8B7B8B57D52B013C016C8B7D8B8E8B96
:1012B0009F8BC884D984EA84FB8488809980AA8023
:1012C000BB80C701B601681979098A099B0924E620
:1012D00030E040E050E00E94B814D501C40105960A
:1012E000A11DB11D8C159D05AE05BF0554F085E00F
:1012F000881A9108A108B108C814D904EA04FB04AB
:1013000064F48C859D85AE85BF85820F931FA41FD5
:10131000B51F8C879D87AE87BF87488959896A89A1
:101320007B89441A550A660A770A488E598E6A8E56
:101330007B8EDF91CF91FF90EF90DF90CF90BF90A9
:10134000AF909F908F907F906F905F904F90089597
:10135000FC018485958523E0880F991F2A95E1F784
:10136000608D718D0E948314882777FD8095982F5A
:101370000895CF93DF93EC011D821C821F821E8291
:1013800019861886E7D46A877B878C879D871E8697
:101390001F86188A198A1A8A1B8A1D8A1C8A1F8A24
:1013A0001E8ACE014896A2D3E1E0F1E080818860F8
:1013B0008083808180618083259A269A8FEF90E0D8
:1013C000909387008093860032EA3093800029E171
:1013D00020938100109289001092880010928B0057
:1013E00010928A009093A7008093A6003093A000EB
:1013F0002093A1001092A9001092A8001092AB00B7
:101400001092AA00DF91CF910895AF92BF92CF9230
:10141000DF92EF92FF920F931F93CF93DF93EC0134
:10142000E1E0F1E080818860808380818061808359
:10143000259A269A8FEF90E09093870080938600FC
:1014400032EA3093800029E12093810010928900D4
:101450001092880010928B0010928A009093A7003F
:101460008093A6003093A0002093A1001092A900C1
:101470001092A8001092AB001092AA005E0188E1C1
:10148000A80EB11C8DECC82E8CECD82E8CE4E82E66
:101490008EE3F82E00E010E098014AE959E969E985
:1014A0007EE3C50124D344E150E06CEE7FEFC5013B
:1014B0003CD386E990E099AF88AFDF91CF911F913F
:1014C0000F91FF90EF90DF90CF90BF90AF90089575
:1014D000CF92DF92EF92FF920F931F93CF93DF9300
:1014E00000D01F92CDB7DEB76C01809102018860F9
:1014F000809302018FE193E00197F1F700C00000B3
:1015000080910201877F80930201F60175836483D5
:101510004081518182819381481B590BBE016F5FCD
:101520007F4FC6014896A9D3E980FA800B811C81C0
:101530004AE050E0B70189E794E0F9D567E772E047
:1015400089E794E03BD54AE050E0B80189E794E0B0
:10155000F5D5F6018481958182309105B9F174F455
:101560000097D1F0019709F042C0F0928900E09213
:10157000880010928B0010928A0023C0833091055E
:10158000C1F00497A1F5F0928900E09288001092D2
:101590008B0010928A0022C0F0928900E0928800AD
:1015A000F0928B00E0928A001093A9000093A800AB
:1015B00019C01092890010928800F0928B00E0927E
:1015C0008A001093A9000093A8001DC01092890002
:1015D00010928800F0928B00E0928A001092A9008D
:1015E0001092A8001093AB000093AA0010C01092B4
:1015F00089001092880010928B0010928A0010923D
:10160000A9001092A8001092AB001092AA000F90AF
:101610000F900F900F90DF91CF911F910F91FF903E
:10162000EF90DF90CF90089560E070E051CFFC0123
:10163000648175814DCFFC017187608760E070E047
:1016400047CF8F929F92AF92BF92CF92DF92EF924D
:10165000FF920F931F93CF93DF93EC0179010885DD
:1016600019850130110509F482C024F40115110512
:1016700011F1BDC00230110509F493C0033011050A
:1016800009F0B5C0D1DF66D30A851B852C853D8561
:10169000601B710B820B930B0E851F85288939897E
:1016A000601771078207930708F4A1C0198618868E
:1016B00081E08B8B9CC0FA01E05CFF4FA080B18081
:1016C000FB01E05CFF4F208131818A89273E310593
:1016D00044F1992787FD9095019622E0C22ED12CE6
:1016E000B6010E9483148A8B88248394912C9D8256
:1016F0008C8261E070E0CE01EBDE8A8997EEA9165C
:10170000B104ECF0992787FD90950196B6010E94EF
:1017100083148A8B9D828C8261E070E0CE01D8DEDA
:1017200068C08823D1F08130E9F488EC9BEFAFEFFB
:10173000BFEFF70184879587A687B78713C08823F3
:1017400061F0813079F448EC5BEF6FEF7FEFF701E8
:10175000448755876687778705C088E394E0A0E0D3
:10176000B0E0E7CF82E090E09987888742C0FB0134
:10177000E05CFF4FE080F180FA01E05CFF4F008108
:10178000118168E970E053DFF7E9EF16F1047CF1AD
:101790000739110564F11B8A1D821C82198618867F
:1017A00026C0C901D5DD6115710551F41D821C8269
:1017B00060E070E0CE018CDE1B8A01E010E019C011
:1017C00077FF0AC083E090E09D838C83673F7F4F63
:1017D00054F064E970E009C084E090E09D838C835C
:1017E0006A307105B4F368E970E0CE0120DF00E0F3
:1017F00010E0C801DF91CF911F910F91FF90EF9002
:10180000DF90CF90BF90AF909F908F9008950895F4
:10181000FC01B89624E1DF011D922A95E9F7FC014D
:1018200015AE14AE17AE16AEE05CFF4F11821082FB
:10183000329611821082DB01FC012BE430E08D91A5
:101840009D9191838083338322833496275E3F4F1B
:10185000253481E0380799F708950F931F93CF93AC
:10186000DF93FC018B0124AD35ADE9012196D5AFA5
:10187000C4AFC9016AE070E00E9483144496880FE7
:10188000991F8E0F9F1FDC010D931C93DF01AE5B30
:10189000BF4F0D931C93659724F02950310935AF44
:1018A00024AF17AE16AE20E030E040E050E0DF019C
:1018B000A20FB31F98968D919C919997840F951FB5
:1018C0002E5F3F4F2431310511F0AC01F0CF64ADF4
:1018D00075AD6B30710514F06AE070E00E948314FE
:1018E00077AF66AF80819181861797070CF447C068
:1018F000DF0120E030E0CD91DC911197C617D707CA
:10190000B4F114964D915C911597641775077CF1AD
:101910008E01061B170BD9011396AA0FBB1FAE0F22
:10192000BF1F0D90BC91A02D0A9FC0010B9F900D71
:101930001A9F900D1124641B750BD9011196AA0FE3
:10194000BB1FAE0FBF1F0D90BC91A02D6A9F9001D1
:101950006B9F300D7A9F300D1124820F931FBE01B3
:10196000641B750BD0D76115710561F00DC014961D
:101970002E5F3F4F2231310509F0BDCF03C066EF26
:101980007FEF02C067EE73E0E05CFF4F718360831E
:10199000DF91CF911F910F9108959B01805C9F4F24
:1019A000FC016081718141E050E0C901E0CB809190
:1019B00064008E7F8093640080917A0087688093B2
:1019C0007A0080917C008F7780937C0080917C00EE
:1019D000806480937C0080917C008E7F80937C006B
:1019E00080917C00826080937C0080917C008B7F62
:1019F00080937C0080917C00877F80937C00809125
:101A00007C008F7E80937C0080917C008F7D809312
:101A10007C0080917B008E7F80937B0080917B0097
:101A20008D7F80937B0080917B008B7F80937B00F8
:101A300080917A00806480937A0080917A0084FF9C
:101A4000FCCF80917A00806180937A008091780049
:101A500080917900089580917C00807C80937C0047
:101A600080917C006F73682B60937C0080917A007A
:101A7000806480937A0080917A0084FFFCCF80910B
:101A80007A00806180937A008091780020917900BB
:101A900090E0922B08950895CF93DF93F8945A9A8B
:101AA000C9E6D0E08881806288836DE772E089E7CB
:101AB00094E084D268814AE050E089E794E060D302
:101AC00084E08CBBEA9A7894E5E0F1E08081816063
:101AD0008083ECE6F0E0808182608083E8E6F0E0DD
:101AE000808182608083DF91CF9108950895CF92A5
:101AF000DF92EF92FF920F931F93FC01408B518B6B
:101B0000628B738B048B158B268B378BC08ED18E9B
:101B1000E28EF38E1F910F91FF90EF90DF90CF90A8
:101B20000895FC01758364830895FC0146175707E7
:101B30008CF0758764875787468782819381481721
:101B400059071CF45383428308958617970714F4AA
:101B50007383628308954F925F926F927F928F9208
:101B60009F92AF92BF92CF92DF92EF92FF920F932C
:101B70001F93CF93DF93EC015B01ECD06B017C01F1
:101B8000888199814601881A990A0C811D810A1958
:101B90001B09089D5001099DB00C189DB00C112423
:101BA0008E819F81A80EB91EBF82AE82B8018827A0
:101BB00077FD8095982FB8D5288939894A895B891E
:101BC0003FD62B013C01B501882777FD8095982FE2
:101BD000ABD52C893D894E895F8932D69B01AC01FA
:101BE000C301B2010AD52B013C018A859B8598016E
:101BF000281B390BC901B40186D6882777FD80954B
:101C0000982F92D5288D398D4A8D5B8D19D69B01E1
:101C1000AC01C301B201F1D454D57B836A831B8725
:101C20000A87D982C8824AE050E089E794E086D2E8
:101C30008E859F852A813B818217930714F49B83AD
:101C40008A838C859D852A813B812817390714F466
:101C50009B838A838A819B81DF91CF911F910F9112
:101C6000FF90EF90DF90CF90BF90AF909F908F90BC
:101C70007F906F905F904F9008950F931F93CF9335
:101C8000DF93EC018B018C8D9D8D9F8F8E8F88A1B2
:101C900099A19D8F8C8FBA01CE015DDF2C8D3D8D7A
:101CA000280F391FF801318320832C8D3D8D281B8F
:101CB000390B33832283DF91CF911F910F910895C8
:101CC0001F920F920FB60F9211242F933F938F9371
:101CD0009F93AF93BF938091710490917204A091F0
:101CE0007304B09174043091700423E0230F2D37F6
:101CF00020F40196A11DB11D05C026E8230F029610
:101D0000A11DB11D209370048093710490937204FF
:101D1000A0937304B0937404809175049091760439
:101D2000A0917704B09178040196A11DB11D809314
:101D3000750490937604A0937704B0937804BF91D0
:101D4000AF919F918F913F912F910F900FBE0F9068
:101D50001F9018952FB7F8946091710470917204D8
:101D600080917304909174042FBF0895789484B582
:101D7000826084BD84B5816084BD85B5826085BD87
:101D800085B5816085BDEEE6F0E08081816080836D
:101D9000E1E8F0E010828081826080838081816050
:101DA0008083E0E8F0E0808181608083E1EBF0E017
:101DB000808184608083E0EBF0E0808181608083BB
:101DC000E1E9F0E0808182608083808181608083AE
:101DD000E0E9F0E0808181608083E1EAF0E08081E9
:101DE00082608083808181608083E0EAF0E080818E
:101DF00081608083E1E2F1E0808182608083808184
:101E000081608083E0E2F1E0808181608083EAE7A5
:101E1000F0E0808184608083808182608083808123
:101E2000816080838081806880831092C1000895E2
:101E300090E0FC013197E231F10508F04BC0E75723
:101E4000FF4FB2C5809180008F7703C080918000E2
:101E50008F7D80938000089580918000877FF9CFE7
:101E600084B58F7702C084B58F7D84BD089580913D
:101E7000B0008F7703C08091B0008F7D8093B00059
:101E80000895809190008F7707C0809190008F7D9A
:101E900003C080919000877F809390000895809187
:101EA000A0008F7707C08091A0008F7D03C0809134
:101EB000A000877F8093A0000895809120018F77F4
:101EC00007C0809120018F7D03C080912001877F12
:101ED0008093200108950F931F93CF93DF931F9258
:101EE000CDB7DEB7282F30E0F901EA5CFE4F8491D0
:101EF000F901E458FE4F1491F901EE53FE4F04919D
:101F00000023C1F0882319F0698392DF6981E02FF3
:101F1000F0E0EE0FFF1FE85FFD4FA591B4919FB772
:101F2000F8948C91611103C01095812301C0812B1D
:101F30008C939FBF0F90DF91CF911F910F910895C8
:101F4000CF92DF92EF92FF920F931F93CF93DF9385
:101F50006C017A01EB01E60EF71E00E010E0CE15F1
:101F6000DF0561F06991D601ED91FC910190F0815E
:101F7000E02DC6011995080F191FF1CFC801DF9197
:101F8000CF911F910F91FF90EF90DF90CF90089528
:101F90006115710581F0DB010D900020E9F7AD01BD
:101FA00041505109461B570BDC01ED91FC91028019
:101FB000F381E02D199480E090E00895E9CFDC01F1
:101FC000ED91FC910190F081E02D199464E872E0AC
:101FD000DFCF0F931F93CF93DF93EC01D9DF8C01F9
:101FE000CE01F4DF800F911FDF91CF911F910F91F0
:101FF00008958F929F92AF92BF92CF92DF92EF920D
:10200000FF920F931F93CF93DF93CDB7DEB7A197C6
:102010000FB6F894DEBF0FBECDBF7C01C42EE52FF6
:10202000CB01D22E19A221E02D1510F02AE0D22EDC
:102030008E010F5D1F4F8D2C912CA12CB12C6C2D7E
:102040007E2FA501940172D48C2DD29E801911246B
:10205000015011098A3014F4805D01C0895CF801D7
:102060008083211531054105510521F0C22EE32F52
:10207000CA01E5CFB801C7018BDFA1960FB6F8946E
:10208000DEBF0FBECDBFDF91CF911F910F91FF90AB
:10209000EF90DF90CF90BF90AF909F908F9008957A
:1020A000CF92DF92EF92FF920F931F93CF93DF9324
:1020B000EC016A017B012115310579F4E881F98190
:1020C0000190F081E02D642FDF91CF911F910F914E
:1020D000FF90EF90DF90CF9019942A303105D9F41A
:1020E00077FF18C06DE26BDF8C0144275527BA01DA
:1020F0004C195D096E097F092AE0CE017ADF800F55
:10210000911FDF91CF911F910F91FF90EF90DF9082
:10211000CF9008952AE0B701A601CE01DF91CF91BB
:102120001F910F91FF90EF90DF90CF9062CF9A01B7
:10213000AB01662757FD6095762FB2CF0F931F93A3
:10214000CF93DF93EC019A01AB01662757FD6095B1
:10215000762FA6DF8C01CE0139DF800F911FDF9132
:10216000CF911F910F9108952115310541F4DC01A4
:10217000ED91FC910190F081E02D642F199439CFFD
:102180000F931F93CF93DF93EC019A01462F50E0FA
:1021900060E070E0E9DF8C01CE0118DF800F911F55
:1021A000DF91CF911F910F9108951F920F920FB65B
:1021B0000F9211240BB60F922F938F939F93EF934F
:1021C000FF93E0918904F0918A048081E0918F046B
:1021D000F091900482FD12C09081809192048F5FF3
:1021E0008F7320919304821751F0E0919204F0E0F4
:1021F000E758FB4F958F8093920401C08081FF9137
:10220000EF919F918F912F910F900BBE0F900FBE6A
:102210000F901F9018951F920F920FB60F921124D6
:102220000BB60F922F933F934F935F936F937F93D0
:102230008F939F93AF93BF93EF93FF9389E794E0BE
:10224000D5D0FF91EF91BF91AF919F918F917F91E9
:102250006F915F914F913F912F910F900BBE0F9017
:102260000FBE0F901F90189589E794E056D021E09B
:10227000892B09F420E0822F089510927C0410929B
:102280007B0488EE93E0A0E0B0E080937D0490931F
:102290007E04A0937F04B093800489E992E0909338
:1022A0007A048093790485EC90E09093860480937F
:1022B000850484EC90E0909388048093870480ECFC
:1022C00090E090938A048093890481EC90E090934D
:1022D0008C0480938B0482EC90E090938E04809326
:1022E0008D0486EC90E09093900480938F0410927C
:1022F00092041092930410929404109295040895FD
:10230000089534DDFDDF0E948001CAEBD1E10E9417
:102310003D022097E1F32ED0FACFFC01818D228D72
:1023200090E0805C9F4F821B91098F7399270895DD
:10233000FC01918D828D981731F0828DE80FF11D8F
:10234000858D90E008958FEF9FEF0895FC01918DAA
:10235000828D981761F0828DDF01A80FB11D5D9607
:102360008C91928D9F5F9F73928F90E008958FEF75
:102370009FEF089584E391E1892B39F080E090E0AC
:10238000892B19F071DF811125C080E090E0892B45
:1023900041F080E090E0892B21F00E940000811143
:1023A0001CC080E090E0892B41F080E090E0892B18
:1023B00021F00E940000811113C080E090E0892B81
:1023C000A1F080E090E0892B81F00E940000811153
:1023D0000AC008950E940000D8CF0E940000E1CFFB
:1023E0000E940000EACF0C9400000895FC01848D47
:1023F000DF01A80FB11DA35ABF4F2C91848D90E02F
:1024000001968F739927848FA689B7892C93A08909
:10241000B1898C9180648C93938D848D981306C0C0
:102420000288F389E02D80818F7D80830895CF938A
:10243000DF93EC01888D8823C1F0EA89FB898081D4
:1024400085FD05C0A889B9898C9186FD0EC00FB69F
:1024500007FCF5CF808185FFF2CFA889B9898C91DF
:1024600085FFEDCFCE01C2DFE8CFDF91CF91089598
:10247000CF92DF92FF920F931F93CF93DF931F9220
:10248000CDB7DEB76C0181E0D60158968C93589792
:102490005B969C915B975C968C915C97981307C0B8
:1024A0005096ED91FC915197808185FD2DC0F601EC
:1024B000038D10E00F5F1F4F0F731127F02EF601F1
:1024C000848DF81210C00FB607FCF9CFD6015096D4
:1024D000ED91FC915197808185FFF1CFC601698311
:1024E00085DF6981ECCF838DE80FF11DE35AFF4F43
:1024F0006083D6015B960C935B975296ED91FC91AD
:102500005397808180620CC0D6015696ED91FC9164
:10251000579760835096ED91FC915197808180642C
:10252000808381E090E00F90DF91CF911F910F9118
:10253000FF90DF90CF900895BF92CF92DF92EF92FD
:10254000FF92CF93DF93EC016A017B01B22EE88901
:10255000F98982E08083411581EE58076105710594
:1025600099F060E079E08DE390E0A7019601DED17B
:1025700021503109410951095695479537952795BD
:10258000211580E1380790F0E889F989108260E828
:1025900074E88EE190E0A7019601C8D1215031097D
:1025A000410951095695479537952795EC85FD8545
:1025B0003083EE85FF852083188EEC89FD89B082FB
:1025C000EA89FB89808180618083EA89FB89808137
:1025D00088608083EA89FB89808180688083EA89BA
:1025E000FB8980818F7D8083DF91CF91FF90EF9079
:1025F000DF90CF90BF9008955058BB27AA270ED0E8
:10260000E5C0D6D030F0DBD020F031F49F3F11F49C
:102610001EF4CBC00EF4E095E7FBC1C0E92FE7D074
:1026200080F3BA17620773078407950718F071F4EF
:102630009EF5FFC00EF4E0950B2EBA2FA02D0B01D6
:10264000B90190010C01CA01A0011124FF27591BF7
:1026500099F0593F50F4503E68F11A16F040A22FFD
:10266000232F342F4427585FF3CF4695379527956E
:10267000A795F0405395C9F77EF41F16BA0B620B6D
:10268000730B840BBAF09150A1F0FF0FBB1F661FB4
:10269000771F881FC2F70EC0BA0F621F731F841FF7
:1026A00048F4879577956795B795F7959E3F08F01D
:1026B000B3CF9395880F08F09927EE0F97958795DC
:1026C000089504D06894B111B5C0089598D088F0E9
:1026D0009F5790F0B92F9927B751A0F0D1F0660F0E
:1026E000771F881F991F1AF0BA95C9F712C0B13029
:1026F00081F09FD0B1E008959CC0672F782F882784
:10270000B85F39F0B93FCCF3869577956795B39567
:10271000D9F73EF490958095709561957F4F8F4FD6
:102720009F4F0895E89409C097FB3EF490958095DB
:10273000709561957F4F8F4F9F4F9923A9F0F92F87
:1027400096E9BB279395F695879577956795B79505
:10275000F111F8CFFAF4BB0F11F460FF1BC06F5FEB
:102760007F4F8F4F9F4F16C0882311F096E911C0FD
:10277000772321F09EE8872F762F05C0662371F01E
:1027800096E8862F70E060E02AF09A95660F771F32
:10279000881FDAF7880F9695879597F9089597F926
:1027A0009F6780E870E060E008959FEF80EC0895F7
:1027B00000240A9416161706180609060895002420
:1027C0000A9412161306140605060895092E03949A
:1027D000000C11F4882352F0BB0F40F4BF2B11F40E
:1027E00060FF04C06F5F7F4F8F4F9F4F089557FD6D
:1027F0009058440F551F59F05F3F71F04795880F6F
:1028000097FB991F61F09F3F79F087950895121605
:1028100013061406551FF2CF4695F1DF08C01616B1
:1028200017061806991FF1CF869571056105089462
:102830000895E894BB2766277727CB0197F9089579
:102840000BD0C4CFB5DF28F0BADF18F0952309F01C
:10285000A6CFABCF1124EECFCADFA0F3959FD1F363
:10286000950F50E0551F629FF001729FBB27F00D3E
:10287000B11D639FAA27F00DB11DAA1F649F662793
:10288000B00DA11D661F829F2227B00DA11D621FE2
:10289000739FB00DA11D621F839FA00D611D221F9C
:1028A000749F3327A00D611D231F849F600D211D80
:1028B000822F762F6A2F11249F5750408AF0E1F023
:1028C00088234AF0EE0FFF1FBB1F661F771F881F6C
:1028D00091505040A9F79E3F510570F060CFAACFAC
:1028E0005F3FECF3983EDCF3869577956795B79557
:1028F000F795E7959F5FC1F7FE2B880F911D969581
:10290000879597F9089597FB072E16F4009406D043
:1029100077FD08D053D007FC05D03EF49095819503
:102920009F4F0895709561957F4F0895A1E21A2EEB
:10293000AA1BBB1BFD010DC0AA1FBB1FEE1FFF1F63
:10294000A217B307E407F50720F0A21BB30BE40BB3
:10295000F50B661F771F881F991F1A9469F76095FA
:102960007095809590959B01AC01BD01CF010895B4
:10297000052E97FB16F400940FD057FD05D0D6DF37
:1029800007FC02D046F408C050954095309521953B
:102990003F4F4F4F5F4F089590958095709561958B
:1029A0007F4F8F4F9F4F0895EE0FFF1F0590F491BB
:1029B000E02D19940790F691E02D1994AA1BBB1BEA
:1029C00051E107C0AA1FBB1FA617B70710F0A61B2F
:1029D000B70B881F991F5A95A9F780959095BC0150
:0829E000CD010895F894FFCF2A
:1029E8000100FA0190014E011C01FD00E200CD003A
:1029F800B900AA009E001001D900B30099008A000E
:102A080082007D0076006F006E003031323334353D
:102A18003637383900696E74657272757074317240
:102A28003A200020202020696E74657272757074D7
:102A3800326C200064656661756C740000000000EB
:102A4800B6048A045F0467047A048904463F065B77
:102A58004F666D7D077F6F204C7C522000454943AF
:102A6800524120000D0A006E616E00696E66006FAB
:102A78007666002E00000000003812A00F8D11A607
:062A880011981117120065
:00000001FF
