:1000000013C1000042C1000040C10000B1C10000A6
:100010003CC100003AC1000038C1000036C10000F8
:1000200034C1000032C10000C0C100002EC1000078
:100030002CC100002AC1000028C1000026C1000018
:1000400024C1000022C1000020C100001EC1000028
:100050001CC100001AC1000018C100000C94730FED
:1000600014C100000C9422120C9458120EC100000E
:100070000CC100000AC1000008C1000006C1000058
:1000800004C1000002C1000000C10000FEC0000069
:10009000FCC00000FAC00000F8C0000063C7000008
:1000A000F4C00000F2C00000F0C00000EEC000008C
:1000B000ECC00000EAC00000E8C00000E6C000009C
:1000C000E4C00000E2C00000E0C00000DEC00000AC
:1000D000DCC00000DAC00000D8C00000D6C00000BC
:1000E000D4C0000032033E03430385044A036F0477
:1000F0008E04A904BF04C20401057E057E057005B7
:100100000D05180523052E05390544054F055A052B
:10011000650543104610351039103F107D104A1008
:100120004E10541058105C10621066106A107D104A
:1001300070107410781000000A0B02090C0D0E08E4
:1001400007030401000000000000000000000000A0
:10015000000000000000000000000000000000009F
:10016000000012111000000000000000000000005C
:10017000000000000000000000000000010210204C
:1001800020080810204010204080020102010804CD
:100190000201010204081020408080402010080461
:1001A00002018004020180402010080402010804BA
:1001B00002010102040810204080010204081020FE
:1001C0004080050505050705080808080202020227
:1001D0000A0A0808040404040101010101010101E3
:1001E0000303030303030303040707070C0C0C0CAE
:1001F0000C0C0C0C02020202060606060606060697
:100200000B0B0B0B0B0B0B0B000022002500280027
:100210002B002E003100340002010000050108010E
:100220000B01B202D1068A1211241FBECFEFD1E218
:10023000DEBFCDBF00E00CBF13E0A0E0B2E0EEE017
:10024000FCE200E00BBF02C007900D92A63CB10794
:10025000D9F726E0A6ECB3E001C01D92A23AB2079E
:10026000E1F712E0C8E2D2E000E006C022970109FF
:10027000FE010BBF0E94ED15C232D10780E00807D6
:10028000A9F70E94CE120C940516BACEDF92EF9217
:10029000FF920F931F93CF93DF93EC01D62E8A0129
:1002A0007C0184E6E80EF11CF70180819181809742
:1002B000F9F46CE272E085E096E00E9418136D2D6F
:1002C00085E096E00E94191367EC72E085E096E005
:1002D0000E9418134AE050E0B80185E096E0DF91F3
:1002E000CF911F910F91FF90EF90DF900C94D81356
:1002F0006DE572E085E096E00E9418136D2D85E0B3
:1003000096E00E94191367EC72E085E096E00E9487
:1003100018134AE050E0B80185E096E00E94D81337
:100320009E012E593F4FF90180819181FE01E80F16
:10033000F91FD082FC017096EE0FFF1FEC0FFD1F1E
:1003400011830083019660E270E00E949615F90126
:1003500091838083F70180819181019691838083CD
:10036000DF91CF911F910F91FF90EF90DF90089553
:100370001F920F920FB60F9211240BB60F928F930C
:100380009F93EF93FF93E2EFF3E0808191810196D9
:1003900091838083FF91EF919F918F910F900BBE7E
:1003A0000F900FBE0F901F9018951F920F920FB6CF
:1003B0000F9211240BB60F928F939F93EF93FF939D
:1003C000E4EFF3E080819181019691838083FF9136
:1003D000EF919F918F910F900BBE0F900FBE0F90DA
:1003E0001F901895CF93DF9326E040E051EE60E038
:1003F00070E085E096E00E94C2112FEF81EE94E05C
:10040000215080409040E1F700C000006AE772E0B0
:1004100085E096E00E94231387E395E00E94490A55
:100420008CE395E08BD460E070E08BE690E0CFD673
:10043000ECD6C9E1D0E067E470E088E490E044D70E
:10044000AA2797FDA095BA2F40911B0550911C0536
:1004500060911D0570911E05480F591F6A1F7B1F73
:1004600040931B0550931C0560931D0570931E055A
:100470002FEF81EE94E0215080409040E1F700C0E2
:1004800000002197C1F660911B0570911C058091B9
:100490001D0590911E0529E130E040E050E00E94EA
:1004A000CB1520931B0530931C0540931D055093DD
:1004B0001E058FEF94E00E94C00B8AEE93E00E942D
:1004C0004B0E8FE39CE90197F1F700C0000040E07C
:1004D00050E060E87FE388ED93E00E94A90E4AE9CE
:1004E00059E969E97EE388ED93E00E94AF0E6091DF
:1004F00002027091030241E080ED93E00E943B0F05
:10050000809102029091030290931205809311054D
:1005100040E050E060E070E080ED93E00E94390F31
:10052000609180004AE050E085E096E00E94FA1376
:10053000609181004AE050E085E096E00E94FA1365
:100540006091A0004AE050E085E096E00E94FA1336
:100550006091A1004AE050E085E096E0DF91CF9104
:100560000C94FA1387E395E0F1D68BE195E0FDD783
:100570008FEF94E00E94730B85EE94E00E94060DCD
:1005800084EE94E00E94D60D1092DF041092DE04F7
:100590001092E1041092E0041092E3041092E2043D
:1005A00068E172E08AE394E00E94070D64E072E083
:1005B00086EF93E00E94070D8AEE93E00E944A0EB8
:1005C000609102027091030280ED93E00C94050F9C
:1005D0009F92AF92BF92CF92DF92EF92FF920F93D2
:1005E0001F93CF93DF9300D01F92CDB7DEB760E0AB
:1005F00084EE94E00E942A0EBC018AE394E00E94FB
:100600002C0D61E084EE94E00E942A0EBC0186EF7E
:1006100093E00E942C0D8BE195E0C1D78AEE93E028
:100620000E947B0E8C018AEE93E00E947F0EBC013B
:10063000601B710B80ED93E00E94510F69837A83F8
:100640008B839C838091CB03992787FD9095A92F5D
:10065000B92F8A30910508F0A1C1FC01EE58FF4F77
:100660000C94E71587E395E014D78FEF94E00E9490
:10067000650C8AEE93E00E94750E98C167E375E001
:100680008AE394E004C067E375E086EF93E00E949C
:10069000CC0D8CC18091C703882309F474C080916C
:1006A000DE049091DF042091E0043091E104821790
:1006B000930741F486E68093CA031092C90310920F
:1006C000C80323C0FC01E258FB4F20812093CA03DA
:1006D000FC01EE0FFF1FE256FB4F2081318130936A
:1006E000C9032093C803019660E270E00E9496154A
:1006F0009093DF048093DE048091E2049091E30400
:1007000001979093E3048093E2048AEE93E00E94C1
:10071000750E8091CA03863649F48091C803909182
:10072000C903892B99F41092CB0340C1823719F584
:1007300062E070E08FEF94E00E94790C6091C80352
:100740007091C9038BE195E0BED71BC060E070E0FB
:100750008FEF94E00E94790C2091C8033091C90377
:1007600044E6429FC001439F900D112490930605DB
:100770008093050506C065E872E085E096E00E947A
:1007800023131092C7038AEEE82E83E0F82E8E0121
:100790000F5F1F4F2BE135E046EF53E06AE374E053
:1007A0008FEF94E00E947F0C8130910501F56FE995
:1007B00072E085E096E00E9418136091CA0385E01C
:1007C00096E00E94191367EC72E085E096E00E94C3
:1007D00018136091C8037091C9034AE050E085E0A6
:1007E00096E00E94D81381E08093C703DFC0019692
:1007F00009F0DCC069EC72E085E096E00E94181315
:100800006091CA0385E096E00E94191367EC72E0DC
:1008100085E096E00E9418136091C8037091C903A7
:100820004AE050E085E096E00E94D1136FED72E05F
:1008300085E096E00E94181300E2E02EF12C209152
:10084000E2043091E304121613060CF0AFC080915D
:10085000DE049091DF044091E0045091E10484179C
:100860009507D1F0FC01E258FB4FD080FC01EE0F60
:10087000FF1FE256FB4F008111810196B7010E94D4
:1008800096159093DF048093DE0421503109309354
:10089000E3042093E20404C000E010E0B6E6DB2E9F
:1008A00060E173E085E096E00E9418136D2D85E00D
:1008B00096E00E94191367EC72E085E096E00E94D2
:1008C00018134AE050E0B80185E096E00E94D11389
:1008D00065E273E085E096E00E942313B0CF82E0EA
:1008E00090E09093040580930305AAEEEA2EA3E01E
:1008F000FA2E8E010F5F1F4F2BE135E046EF53E0DC
:100900006AE374E08FEF94E0FAD78BE195E0CAD602
:1009100040E050E087E395E0D4D548C06091CF0334
:10092000862F90E0909389008093880010928B002E
:1009300010928A009093A9008093A8001092AB00B7
:100940001092AA004AE050E085E096E00E94FA1377
:100950002DC081E090E0909300058093FF04BE01DC
:100960006F5F7F4F8FEF94E0B3D78FEF99EF20E069
:10097000815090402040E1F700C0000017C083E0A4
:1009800090E002C084E090E0909300058093FF0423
:1009900068EC70E08FEF94E0A8D708C01092CB030A
:1009A00068E373E085E096E00E9423138FEF91EEF9
:1009B00024E0815090402040E1F700C00000DD2499
:1009C000D39452E7C52E64E0A62E76E6B72EEE2429
:1009D000E394F12CFAE09F2E85E096E00E94CC1083
:1009E0008C018091CC031127882309F4D0C0F80131
:1009F000BD97ED30F10508F081C0E458FF4F0C942D
:100A0000E7158091000290910102919581959109DD
:100A10009093010280930002E8C02091CD033091B1
:100A2000CE03929EC001939E900D1124019661C049
:100A30002091CD033091CE03929EC001939E900DE4
:100A40001124029656C02091CD033091CE03929E80
:100A5000C001939E900D112403964BC02091CD03AD
:100A60003091CE03929EC001939E900D1124049666
:100A700040C02091CD033091CE03929EC001939E41
:100A8000900D1124059635C02091CD033091CE03F1
:100A9000929EC001939E900D112406962AC020912B
:100AA000CD033091CE03929EC001939E900D1124F0
:100AB00007961FC02091CD033091CE03929EC001B6
:100AC000939E900D1124089614C02091CD0330916F
:100AD000CE03929EC001939E900D1124099609C0E9
:100AE0002091CD033091CE03929EC001939E900D34
:100AF00011249093CE038093CD0377C08091CD03D2
:100B00009091CE03181619060CF06FC02091C60301
:100B1000263679F0223709F5209100023091010242
:100B2000829FA001839F500D929F500D112462E778
:100B300011C020910002309101022130310519F4D9
:100B4000AC0166E607C060E473E085E096E00E94D1
:100B5000181303C08EE794E099DBF0920102E09253
:100B600000021092CE031092CD031092C603109291
:100B7000CC030636110531F002371105B1F5C092EC
:100B8000C60302C0B092C603D092CC032EC00D366D
:100B9000110531F15CF404361105C9F00636110572
:100BA00021F5D092CC03B092C6031FC003371105C4
:100BB00059F00737110581F002371105B1F4D092D1
:100BC000CC03C092C60311C01092CB030EC0A092FA
:100BD000CB03D092C70309C08091CF038F5F03C0BE
:100BE0008091CF0381508093CF038091CC038111FA
:100BF000F3CE0F900F900F900F90DF91CF911F9138
:100C00000F91FF90EF90DF90CF90BF90AF909F90AB
:100C1000089580916C0590E020916D05821B9109EB
:100C2000089520916D0580916C05281750F4E22FEE
:100C3000F0E0E259FA4F808190E02F5F20936D053C
:100C400008958FEF9FEF0895E0916D0580916C05F9
:100C5000E81730F4F0E0E259FA4F808190E008950F
:100C60008FEF9FEF08950895CF92DF92EF92FF925A
:100C70000F931F93CF93DF937C01CB018A012091C7
:100C80004805222389F0EB016B01C40ED51ECC155B
:100C9000DD0561F06991D701ED91FC910190F08142
:100CA000E02DC7011995F3CF642F33D1C801DF912F
:100CB000CF911F910F91FF90EF90DF90CF9008950B
:100CC000CF93DF931F92CDB7DEB76983209148059C
:100CD0002223D1F020914905203240F021E030E07C
:100CE000FC013383228380E090E014C080914A05A8
:100CF000E82FF0E0E55BFA4F998190838F5F809356
:100D00004A058093490504C061E0CE01019601D1F6
:100D100081E090E00F90DF91CF910895FC01138264
:100D2000128248EE53E060E070E0448355836683AE
:100D3000778385E893E091838083089510926D0511
:100D400010926C0510924A05109249052DC0862F0D
:100D5000413208F040E26EE675E044D010926D0535
:100D600080936C050895F3CF81E0809348056093EC
:100D70006B0510924A05109249050895F5CF0F931F
:100D8000062F21E0409149056BE475E080916B05E9
:100D90006DD010924A0510924905109248050F91A6
:100DA00008958CE395E0BACF1092FB0581E0809323
:100DB000F9051092F80561E084E10E947E1061E07F
:100DC00085E10E947E10E9EBF0E080818E7F8083D8
:100DD00080818D7F808388E48093B80085E4809350
:100DE000BC000895413208F03FC09091FB0591117D
:100DF000FCCF91E09093FB052093F9052FEF209312
:100E00008E051092D305240F2093D2059093FA05F6
:100E10009091FA05880F892B8093FA058091F80547
:100E2000813041F41092F8058091FA058093BB005F
:100E300085EC01C085EE8093BC008091FB0581307C
:100E4000E1F38091D305841710F44091D30524ED8C
:100E500035E0FB01D9018A2F821B841718F48D918C
:100E60008193F9CF842F089580E008950F93413244
:100E700008F046C09091FB059111FCCF92E0909351
:100E8000FB050093F9059FEF90938E051092D30513
:100E90004093D205FB0164ED75E0DB019A2F961BB0
:100EA000941718F491919D93F9CF1092FA059091AF
:100EB000FA05880F892B8093FA058091F805813017
:100EC00041F41092F8058091FA058093BB0085ECFF
:100ED00001C085EE8093BC00222321F08091FB05A8
:100EE0008230E1F380918E058F3F61F080918E0515
:100EF000803251F080918E05803341F483E007C049
:100F000081E005C080E003C082E001C084E00F9171
:100F10000895613298F42091FB05243089F46093A0
:100F2000B005FC0182EB95E0DC012A2F281B261777
:100F300018F421912D93F9CF80E0089581E0089570
:100F400082E0089585ED8093BC008091BC0084FD13
:100F5000FCCF1092FB05089585EC8093BC001092A5
:100F6000FB0508951F920F920FB60F9211240BB636
:100F70000F922F933F934F935F936F937F938F9332
:100F80009F93AF93BF93EF93FF938091B900887FB6
:100F9000803609F49CC068F5883209F45BC090F48F
:100FA000803109F454C038F4882309F4F3C0883040
:100FB00009F44DC0F2C0883109F44CC0803209F404
:100FC0005DC0EBC0803409F468C048F4803309F494
:100FD00055C0883309F0E1C080938E05A7C08035E5
:100FE00009F44FC0883509F45DC0883409F0D5C0D4
:100FF000D3C0883909F4C4C0A8F4883709F467C09D
:1010000038F4883609F463C0803709F460C0C5C07D
:10101000883809F4B5C0803909F45FC0803809F018
:10102000BCC05BC0803B09F483C038F4803A09F44B
:1010300066C0883A09F47CC0B0C0803C09F4A4C002
:10104000883C09F4A1C0883B09F487C0A6C0809100
:10105000FA0510C09091D3058091D205981770F5CC
:10106000E091D30581E08E0F8093D305F0E0EC5240
:10107000FA4F80818093BB0085EC83C080938E05FE
:101080008BC0E091D30581E08E0F8093D3058091D2
:10109000BB00F0E0EC52FA4F80839091D305809131
:1010A000D2056BC0E091D30581E08E0F8093D3050C
:1010B0008091BB00F0E0EC52FA4F80838091F905FB
:1010C00081116AC081E08093F80584EA5EC083E004
:1010D0008093FB0510928F05CFCF80918F058032D2
:1010E00008F04EC0E0918F0581E08E0F80938F0550
:1010F0008091BB00F0E0E057FA4F8083BDCF809134
:101100008F05803230F4E0918F05F0E0E057FA4F20
:10111000108218DF60918F0570E0E091F405F09186
:10112000F50580E995E0199510928F0515DF35C01A
:1011300084E08093FB051092B1051092B005E09118
:10114000F605F091F70519958091B005811105C05C
:1011500081E08093B0051092B205E091B10581E085
:101160008E0F8093B105F0E0EE54FA4F80818093AA
:10117000BB009091B1058091B005981708F47CCF21
:1011800085E88093BC0009C085EC8093BC00109278
:10119000FB0503C010928E05D5DEFF91EF91BF9144
:1011A000AF919F918F917F916F915F914F913F91FF
:1011B0002F910F900BBE0F900FBE0F901F901895A0
:1011C000DC01ED91FC910190F081E02D19940F93D9
:1011D0001F93CF93DF938C01EB0169E670E08CE302
:1011E00095E0CCDDB8018CE395E0EADFBE018CE34D
:1011F00095E0E6DF61E08CE395E0C1DD81E090E021
:10120000DF91CF911F910F91089560E070E08AE027
:1012100090E0DDDF6FE070E08AE090E0D8DF60E032
:1012200070E08AE090E0D3DF60E470E084E290E078
:10123000CEDF6CE870E085E290E0C9DF62E070E04C
:1012400086E290E0C4DF68E870E087E290E0BFDF0C
:101250006CE070E088E290E0BADF6AE070E089E27A
:1012600090E0B5DF61E870E08AE290E0B0DF61E035
:1012700070E084E690E0ABDF63E070E087E690E04A
:10128000A6DF60E870E081E090E0A1DF64E070E05C
:1012900084E390E09CDF60E070E084E690E097DF1C
:1012A00060E070E08AE690E092DF61E070E084E662
:1012B00090E08DDF60E270E08AE690E088DF63E135
:1012C00070E084E390E083CF0F931F93CF93DF937D
:1012D0008C01EB0169E670E08CE395E04FDDB8012D
:1012E0008CE395E06DDF60E08CE395E048DD21E084
:1012F00030E041E050E069E670E08CE395E033DDFA
:101300008CE395E08EDC182F69E670E08CE395E0C5
:1013100035DDBE018CE395E053DF60E08CE395E0C2
:101320002EDD21E030E041E050E069E670E08CE342
:1013300095E019DD8CE395E074DC982F8827810F08
:10134000911DDF91CF911F910F910895FC0114829F
:10135000138287B18C6187B90895FC0183819481E0
:101360008130910531F0029739F480818068808363
:1013700003C0818180688183429844980000000006
:10138000439A00000000000000000000429A0000A4
:10139000000020E030E0439842980000000048B18F
:1013A000808190E0022E02C0959587950A94E2F71D
:1013B0008170992773E0880F991F7A95E1F7482B80
:1013C00048B900000000000000000000429A000040
:1013D00000002F5F3F4F28303105E9F620E030E074
:1013E000439842980000000048B1818190E0022EAD
:1013F00002C0959587950A94E2F78170992763E07A
:10140000880F991F6A95E1F7482B48B90000000042
:10141000000000000000429A000000002F5F3F4FD4
:1014200028303105E9F620E030E04398429800008A
:10143000000048B1828190E0022E02C09595879508
:101440000A94E2F78170992753E0880F991F5A9503
:10145000E1F7482B48B90000000000000000000040
:10146000429A000000002F5F3F4F28303105E9F617
:101470008BE0429800000000439A0000000000004A
:1014800000000000429A00000000815091F7449A49
:101490000895FF920F931F93CF93DF93EC01F88091
:1014A00009811A81188219821A8257DF1C821B82D5
:1014B000F88209831A83DF91CF911F910F91FF90DA
:1014C00008950F931F93CF93DF93FC0154834383BD
:1014D000683E83E07807DCF49B016933AFEF7A075D
:1014E00014F429E33FEF01E010E02617370709F471
:1014F00000E037FF10C02C39BFEF3B0714F486E43F
:1015000001C080E480833195219531090FC027EE19
:1015100033E001E010E0C90164E670E00E94961536
:101520006F567C4FDB0111968C918083CAE0D0E02E
:10153000C901BE010E9496159C01CB01BE010E940B
:1015400096158F569C4FDC0111968C918183D901A1
:10155000AF56BC4F11968C918283CF01FEDEC8013D
:10156000DF91CF911F910F910895FC011482158294
:1015700016821782108611861286138614861586A7
:1015800016861786108A118A128A138A148A158A77
:10159000168A178A108E118E128E138E08954F920E
:1015A0005F926F927F928F929F92AF92BF92CF92F3
:1015B000DF92EF92FF92CF93DF93EC01488559853C
:1015C0006A857B854C835D836E837F8367E470E0EF
:1015D00088E490E079DEAC01662757FD6095762FB0
:1015E000488759876A877B874C895D896E897F899F
:1015F000488B598B6A8B7B8BC0D42B013C016C8B45
:101600007D8B8E8B9F8BC884D984EA84FB848880F1
:101610009980AA80BB80C701B601681979098A0937
:101620009B0924E630E040E050E00E94CB15D50154
:10163000C4010596A11DB11D8C159D05AE05BF0504
:1016400054F085E0881A9108A108B108C814D9049B
:10165000EA04FB0464F48C859D85AE85BF85820F0A
:10166000931FA41FB51F8C879D87AE87BF874889AE
:1016700059896A897B89441A550A660A770A488E0D
:10168000598E6A8E7B8EDF91CF91FF90EF90DF9025
:10169000CF90BF90AF909F908F907F906F905F9012
:1016A0004F900895FC018485958523E0880F991F4C
:1016B0002A95E1F7608D718D0E949615882777FD38
:1016C0008095982F08952CE0269FA001279F500D0C
:1016D0001124662757FD6095762FFC0144875587B6
:1016E000668777870895CF93DF93EC01198218827C
:1016F0001B821A821D821C821F821E823ED4688732
:1017000079878A879B871C861D861E861F86188A76
:10171000198A1B8A1A8A1D8A1C8A1F8A1E8AE1E07E
:10172000F1E0808188608083808180618083259A58
:10173000269A8FEF90E0909387008093860032EA9C
:101740003093800029E1209381001092890010924B
:10175000880010928B0010928A009093A7008093CB
:10176000A6003093A0002093A1001092A90010922F
:10177000A8001092AB001092AA00DF91CF910895BB
:10178000E1E0F1E0808188608083808180618083F6
:10179000259A269A8FEF90E0909387008093860099
:1017A00032EA3093800029E1209381001092890071
:1017B0001092880010928B0010928A009093A700DC
:1017C0008093A6003093A0002093A1001092A9005E
:1017D0001092A8001092AB001092AA000895FC018C
:1017E000809102018860809302018FE193E001976C
:1017F000F1F700C0000080910201877F8093020111
:1018000071836083208D318D828D938D623071055F
:10181000D1F184F461157105E1F06130710509F0D1
:1018200043C0309389002093880010928B0010925F
:101830008A0024C063307105C9F064307105A1F5D8
:10184000309389002093880010928B0010928A00B8
:1018500022C0309389002093880030938B0020931E
:101860008A009093A9008093A80019C01092890063
:101870001092880030938B0020938A009093A900E7
:101880008093A8001DC010928900109288003093A8
:101890008B0020938A001092A9001092A8009093C8
:1018A000AB008093AA0008951092890010928800DE
:1018B00010928B0010928A001092A9001092A8003A
:1018C0001092AB001092AA00089560E070E087CFFC
:1018D000FB012281338140815181FC01518F408F76
:1018E000338F228F608171817ACFFC016081718199
:1018F00076CFFC017583648360E070E070CFCF9297
:10190000DF92EF92FF920F931F93CF93DF93EC013F
:101910006901B801DDDF2C813D812130310589F17C
:101920001CF4232B59F067C022303105A1F123307C
:10193000310509F060C0CE01C8DF5DC081E090E0F4
:1019400099838883C701D7D16C01C701D8D18C0D89
:101950009D1D97FD039695958795959587952E8165
:101960003F812551310967E5689FA001699F500DAE
:10197000112481E090E0421753070CF03EC080E054
:101980003CC06CE973E085E096E05DD683E090E0D2
:101990009D838C8330C0C60185DE9B01F601848562
:1019A0009585A685B7852115310531F0BC016C5FA1
:1019B0007F4F6930710540F41982188260E070E051
:1019C000CE010DDF81E018C037FF0AC083E090E050
:1019D00099838883273F3F4F54F064E970E009C042
:1019E00084E090E0998388832A303105B4F368E974
:1019F00070E0CE017ADF80E090E0DF91CF911F911F
:101A00000F91FF90EF90DF90CF9008950895FC0123
:101A1000B89624E1DF011D922A95E9F7FC0115AE85
:101A200014AE17AE16AEE05CFF4F118210823296F4
:101A300011821082DB01FC012BE430E08D919D913D
:101A400091838083338322833496275E3F4F2534EE
:101A500081E0380799F708950F931F93CF93DF9391
:101A6000FC018B0124AD35ADE9012196D5AFC4AFA2
:101A7000C9016AE070E00E9496154496880F991F8C
:101A80008E0F9F1FDC010D931C93DF01AE5BBF4FD8
:101A90000D931C93659724F02950310935AF24AF7D
:101AA00017AE16AE20E030E040E050E0DF01A20FBC
:101AB000B31F98968D919C919997840F951F2E5FD7
:101AC0003F4F2431310511F0AC01F0CF64AD75AD5D
:101AD0006B30710514F06AE070E00E94961577AFE4
:101AE00066AF80819181861797070CF447C0DF01AC
:101AF00020E030E0CD91DC911197C617D707B4F103
:101B000014964D915C911597641775077CF18E01C1
:101B1000061B170BD9011396AA0FBB1FAE0FBF1FD1
:101B20000D90BC91A02D0A9FC0010B9F900D1A9F94
:101B3000900D1124641B750BD9011196AA0FBB1FC0
:101B4000AE0FBF1F0D90BC91A02D6A9F90016B9F9F
:101B5000300D7A9F300D1124820F931FBE01641B3C
:101B6000750BE4D76115710561F00DC014962E5FF9
:101B70003F4F2231310509F0BDCF03C066EF7FEF43
:101B800002C067EE73E0E05CFF4F71836083DF911A
:101B9000CF911F910F9108959B01805C9F4FFC0195
:101BA0006081718141E050E0C9018BCC809164007B
:101BB0008E7F8093640080917A00876880937A009A
:101BC00080917C008F7780937C0080917C00806482
:101BD00080937C0080917C008E7F80937C0080913C
:101BE0007C00826080937C0080917C008B7F80935E
:101BF0007C0080917C00877F80937C0080917C00BA
:101C00008F7E80937C0080917C008F7D80937C0010
:101C100080917B008E7F80937B0080917B008D7F05
:101C200080937B0080917B008B7F80937B008091F1
:101C30007A00806480937A0080917A0084FFFCCFE0
:101C400080917A00806180937A0080917800809101
:101C50007900089580917C00807C80937C00809145
:101C60007C006F73682B60937C0080917A008064A5
:101C700080937A0080917A0084FFFCCF80917A0073
:101C8000806180937A00809178002091790090E0C3
:101C9000922B08950895CF93DF93F8945A9AC9E64A
:101CA000D0E088818061888360EA73E085E096E017
:101CB000BFD468814AE050E085E096E09BD584E09F
:101CC0008CBBEA9A7894E5E0F1E0808181608083C2
:101CD000ECE6F0E0808182608083E8E6F0E08081DD
:101CE00082608083DF91CF910895FC011186108678
:101CF000138612860895FC01828593850895FC0160
:101D0000808591850895CF92DF92EF92FF920F9395
:101D10001F93FC0140835183628373830483158383
:101D200026833783C086D186E286F386158614869D
:101D300017861686118A108A1F910F91FF90EF90D7
:101D4000DF90CF900895FC01578746877587648799
:101D50000895FC0140835183628373830895FC01DD
:101D600044835583668377830895CF92DF92EF9201
:101D7000FF920F931F93CF93DF93EC010C851D858A
:101D8000061B170B68897989600F711F798B688B27
:101D9000882777FD8095982FDAD5288539854A855B
:101DA0005B8561D66B017C018E859F85B801681BC0
:101DB000790B882777FD8095982FC9D52C813D8197
:101DC0004E815F8150D69B01AC01C701B60128D579
:101DD0006B017C01B801882777FD8095982FB7D5D6
:101DE000288139814A815B813ED69B01AC01C701C4
:101DF000B60116D579D5CB01DF91CF911F910F9107
:101E0000FF90EF90DF90CF900895AF92BF92CF9266
:101E1000DF92EF92FF920F931F93CF93DF93EC012A
:101E20005B01198218821B821A821D821C821F820A
:101E30001E82C12CD12C76019701860140E050E032
:101E400060E07FE308965FDF19821882BB82AA8276
:101E5000BD82AC828AE090E09F838E83DF91CF9138
:101E60001F910F91FF90EF90DF90CF90BF90AF90B8
:101E70000895089668CFFC01411103C090818181CB
:101E800002C0962F872F92838383648375834423B4
:101E900019F08AE090E002C081E090E097838683A9
:101EA0000895CF93DF93EC01888199819B838A8386
:101EB0008C819D81998388838E819F818A30910551
:101EC0001CF401969F838E83CE0108964EDF9C0101
:101ED00048815981BA01621B730BCA01820F931F9B
:101EE000DF91CF9108951F920F920FB60F92112498
:101EF0002F933F938F939F93AF93BF938091FD0553
:101F00009091FE05A091FF05B09100063091FC056F
:101F100023E0230F2D3720F40196A11DB11D05C02C
:101F200026E8230F0296A11DB11D2093FC05809386
:101F3000FD059093FE05A093FF05B09300068091E8
:101F4000010690910206A0910306B0910406019645
:101F5000A11DB11D8093010690930206A093030674
:101F6000B0930406BF91AF919F918F913F912F91B4
:101F70000F900FBE0F901F9018952FB7F894609197
:101F8000FD057091FE058091FF05909100062FBF21
:101F90000895789484B5826084BD84B5816084BDE1
:101FA00085B5826085BD85B5816085BDEEE6F0E0D2
:101FB000808181608083E1E8F0E01082808182602E
:101FC0008083808181608083E0E8F0E080818160AF
:101FD0008083E1EBF0E0808184608083E0EBF0E0DF
:101FE000808181608083E1E9F0E08081826080838C
:101FF000808181608083E0E9F0E08081816080837E
:10200000E1EAF0E08081826080838081816080836A
:10201000E0EAF0E0808181608083E1E2F1E08081AC
:1020200082608083808181608083E0E2F1E0808152
:1020300081608083EAE7F0E0808184608083808132
:1020400082608083808181608083808180688083DA
:102050001092C100089590E0FC013197E231F10542
:1020600008F04BC0E757FF4FB2C5809180008F77D3
:1020700003C0809180008F7D8093800008958091BF
:102080008000877FF9CF84B58F7702C084B58F7DBC
:1020900084BD08958091B0008F7703C08091B00017
:1020A0008F7D8093B0000895809190008F7707C056
:1020B000809190008F7D03C080919000877F8093F6
:1020C000900008958091A0008F7707C08091A000B4
:1020D0008F7D03C08091A000877F8093A00008952A
:1020E000809120018F7707C0809120018F7D03C0F0
:1020F00080912001877F8093200108950F931F9383
:10210000CF93DF931F92CDB7DEB7282F30E0F901D0
:10211000EA5CFE4F8491F901E458FE4F1491F901F5
:10212000EE53FE4F04910023C1F0882319F0698318
:1021300092DF6981E02FF0E0EE0FFF1FE85FFD4FB7
:10214000A591B4919FB7F8948C91611103C010953B
:10215000812301C0812B8C939FBF0F90DF91CF9182
:102160001F910F910895FC01818D228D90E0805C7C
:102170009F4F821B91098F7399270895FC01918DC0
:10218000828D981731F0828DE80FF11D858D90E0DA
:1021900008958FEF9FEF0895FC01918D828D981720
:1021A00061F0828DDF01A80FB11D5D968C91928D3B
:1021B0009F5F9F73928F90E008958FEF9FEF089538
:1021C00081E892E1892B39F080E090E0892B19F0C9
:1021D00098D1811125C080E090E0892B41F080E00A
:1021E00090E0892B21F00E94000081111CC080E04A
:1021F00090E0892B41F080E090E0892B21F00E9453
:102200000000811113C080E090E0892BA1F080E0F4
:1022100090E0892B81F00E94000081110AC008958E
:102220000E940000D8CF0E940000E1CF0E94000071
:10223000EACF0C9400000895FC01848DDF01A80F03
:10224000B11DA35ABF4F2C91848D90E001968F73DE
:102250009927848FA689B7892C93A089B1898C91FD
:1022600080648C93938D848D981306C00288F389C3
:10227000E02D80818F7D80830895CF93DF93EC01E3
:10228000888D8823C1F0EA89FB89808185FD05C09E
:10229000A889B9898C9186FD0EC00FB607FCF5CFD1
:1022A000808185FFF2CFA889B9898C9185FFEDCF18
:1022B000CE01C2DFE8CFDF91CF910895CF92DF92B8
:1022C000FF920F931F93CF93DF931F92CDB7DEB78B
:1022D0006C0181E0D60158968C9358975B969C913F
:1022E0005B975C968C915C97981307C05096ED9124
:1022F000FC915197808185FD2DC0F601038D10E082
:102300000F5F1F4F0F731127F02EF601848DF81207
:1023100010C00FB607FCF9CFD6015096ED91FC9195
:102320005197808185FFF1CFC601698385DF69817F
:10233000ECCF838DE80FF11DE35AFF4F6083D60188
:102340005B960C935B975296ED91FC91539780812D
:1023500080620CC0D6015696ED91FC915797608330
:102360005096ED91FC91519780818064808381E04B
:1023700090E00F90DF91CF911F910F91FF90DF9030
:10238000CF900895BF92CF92DF92EF92FF92CF93BA
:10239000DF93EC016A017B01B22EE889F98982E0C2
:1023A0008083411581EE58076105710599F060E061
:1023B00079E08DE390E0A7019601CBD3215031095C
:1023C000410951095695479537952795211580E183
:1023D000380790F0E889F989108260E874E88EE1A6
:1023E00090E0A7019601B5D3215031094109510967
:1023F0005695479537952795EC85FD853083EE8575
:10240000FF852083188EEC89FD89B082EA89FB89DB
:10241000808180618083EA89FB89808188608083F4
:10242000EA89FB89808180688083EA89FB898081D1
:102430008F7D8083DF91CF91FF90EF90DF90CF90E1
:10244000BF9008951F920F920FB60F9211240BB6F2
:102450000F922F938F939F93EF93FF93E091150625
:10246000F09116068081E0911B06F0911C0682FD1A
:1024700012C0908180911E068F5F8F7320911F067E
:10248000821751F0E0911E06F0E0EB5FF94F958F57
:1024900080931E0601C08081FF91EF919F918F91E3
:1024A0002F910F900BBE0F900FBE0F901F9018959D
:1024B0001F920F920FB60F9211240BB60F922F930B
:1024C0003F934F935F936F937F938F939F93AF93BC
:1024D000BF93EF93FF9385E096E0AEDEFF91EF911F
:1024E000BF91AF919F918F917F916F915F914F912C
:1024F0003F912F910F900BBE0F900FBE0F901F902A
:10250000189585E096E02FDE21E0892B09F420E084
:10251000822F0895109208061092070688EE93E025
:10252000A0E0B0E08093090690930A06A0930B0602
:10253000B0930C068BEA93E0909306068093050611
:1025400085EC90E0909312068093110684EC90E065
:10255000909314068093130680EC90E090931606F7
:102560008093150681EC90E09093180680931706EF
:1025700082EC90E090931A068093190686EC90E026
:1025800090931C0680931B0610921E0610921F0645
:10259000109220061092210608950895FADCFDDFBE
:1025A0000E94F201C0EED0E10E94E8022097E1F320
:1025B00007DEFACFCF92DF92EF92FF920F931F9335
:1025C000CF93DF936C017A01EB01E60EF71E00E07A
:1025D00010E0CE15DF0561F06991D601ED91FC9117
:1025E0000190F081E02DC6011995080F191FF1CF58
:1025F000C801DF91CF911F910F91FF90EF90DF9075
:10260000CF9008956115710581F0DB010D900020D8
:10261000E9F7AD0141505109461B570BDC01ED9123
:10262000FC910280F381E02D199480E090E0089500
:10263000E9CFDC01ED91FC910190F081E02D19943E
:1026400067EB73E0DFCF0F931F93CF93DF93EC0122
:10265000D9DF8C01CE01F4DF800F911FDF91CF9184
:102660001F910F9108958F929F92AF92BF92CF9238
:10267000DF92EF92FF920F931F93CF93DF93CDB72B
:10268000DEB7A1970FB6F894DEBF0FBECDBF7C01B9
:10269000C42EE52FCB01D22E19A221E02D1510F06A
:1026A0002AE0D22E8E010F5D1F4F8D2C912CA12C74
:1026B000B12C6C2D7E2FA50194014BD28C2DD29E76
:1026C00080191124015011098A3014F4805D01C071
:1026D000895CF8018083211531054105510521F000
:1026E000C22EE32FCA01E5CFB801C7018BDFA19647
:1026F0000FB6F894DEBF0FBECDBFDF91CF911F9113
:102700000F91FF90EF90DF90CF90BF90AF909F9090
:102710008F900895CF92DF92EF92FF920F931F93C5
:10272000CF93DF93EC016A017B012115310579F428
:10273000E881F9810190F081E02D642FDF91CF9144
:102740001F910F91FF90EF90DF90CF9019942A3056
:102750003105D9F477FF18C06DE26BDF8C01442797
:102760005527BA014C195D096E097F092AE0CE018F
:102770007ADF800F911FDF91CF911F910F91FF9012
:10278000EF90DF90CF9008952AE0B701A601CE0127
:10279000DF91CF911F910F91FF90EF90DF90CF903D
:1027A00062CF9A01AB01662757FD6095762FB2CFB5
:1027B0000F931F93CF93DF93EC019A01AB01662730
:1027C00057FD6095762FA6DF8C01CE0139DF800F93
:1027D000911FDF91CF911F910F9108952115310520
:1027E00041F4DC01ED91FC910190F081E02D642F2A
:1027F000199439CF0F931F93CF93DF93EC019A0174
:10280000462F50E060E070E0E9DF8C01CE0118DF78
:10281000800F911FDF91CF911F910F910895505814
:10282000BB27AA270ED0E5C0D6D030F0DBD020F0F1
:1028300031F49F3F11F41EF4CBC00EF4E095E7FB9A
:10284000C1C0E92FE7D080F3BA1762077307840786
:10285000950718F071F49EF5FFC00EF4E0950B2E6D
:10286000BA2FA02D0B01B90190010C01CA01A001E2
:102870001124FF27591B99F0593F50F4503E68F13D
:102880001A16F040A22F232F342F4427585FF3CF7E
:10289000469537952795A795F0405395C9F77EF44F
:1028A0001F16BA0B620B730B840BBAF09150A1F098
:1028B000FF0FBB1F661F771F881FC2F70EC0BA0F1E
:1028C000621F731F841F48F4879577956795B795A6
:1028D000F7959E3F08F0B3CF9395880F08F099279E
:1028E000EE0F97958795089504D06894B111B5C0FF
:1028F000089598D088F09F5790F0B92F9927B75135
:10290000A0F0D1F0660F771F881F991F1AF0BA95B3
:10291000C9F712C0B13081F09FD0B1E008959CC0DA
:10292000672F782F8827B85F39F0B93FCCF38695A9
:1029300077956795B395D9F73EF490958095709506
:1029400061957F4F8F4F9F4F0895E89409C097FB83
:102950003EF490958095709561957F4F8F4F9F4F76
:102960009923A9F0F92F96E9BB279395F6958795BA
:1029700077956795B795F111F8CFFAF4BB0F11F47D
:1029800060FF1BC06F5F7F4F8F4F9F4F16C0882324
:1029900011F096E911C0772321F09EE8872F762F5A
:1029A00005C0662371F096E8862F70E060E02AF09B
:1029B0009A95660F771F881FDAF7880F9695879587
:1029C00097F9089597F99F6780E870E060E00895AF
:1029D0009FEF80EC089500240A9416161706180637
:1029E0000906089500240A94121613061406050613
:1029F0000895092E0394000C11F4882352F0BB0FA4
:102A000040F4BF2B11F460FF04C06F5F7F4F8F4F06
:102A10009F4F089557FD9058440F551F59F05F3F41
:102A200071F04795880F97FB991F61F09F3F79F0F0
:102A300087950895121613061406551FF2CF469572
:102A4000F1DF08C0161617061806991FF1CF8695F4
:102A50007105610508940895E894BB2766277727D8
:102A6000CB0197F908950BD0C4CFB5DF28F0BADFBA
:102A700018F0952309F0A6CFABCF1124EECFCADF13
:102A8000A0F3959FD1F3950F50E0551F629FF00181
:102A9000729FBB27F00DB11D639FAA27F00DB11DDA
:102AA000AA1F649F6627B00DA11D661F829F222763
:102AB000B00DA11D621F739FB00DA11D621F839FEA
:102AC000A00D611D221F749F3327A00D611D231FC0
:102AD000849F600D211D822F762F6A2F11249F570E
:102AE00050408AF0E1F088234AF0EE0FFF1FBB1F31
:102AF000661F771F881F91505040A9F79E3F5105D0
:102B000070F060CFAACF5F3FECF3983EDCF3869580
:102B100077956795B795F795E7959F5FC1F7FE2B7A
:102B2000880F911D9695879597F9089597FB072E25
:102B300016F4009406D077FD08D053D007FC05D0DA
:102B40003EF4909581959F4F0895709561957F4FC4
:102B50000895A1E21A2EAA1BBB1BFD010DC0AA1FDE
:102B6000BB1FEE1FFF1FA217B307E407F50720F0F6
:102B7000A21BB30BE40BF50B661F771F881F991F71
:102B80001A9469F760957095809590959B01AC01BA
:102B9000BD01CF010895052E97FB16F400940FD0C8
:102BA00057FD05D0D6DF07FC02D046F408C050958B
:102BB0004095309521953F4F4F4F5F4F0895909529
:102BC0008095709561957F4F8F4F9F4F0895EE0FC1
:102BD000FF1F0590F491E02D19940790F691E02DD8
:102BE0001994AA1BBB1B51E107C0AA1FBB1FA61744
:102BF000B70710F0A61BB70B881F991F5A95A9F7A6
:0E2C000080959095BC01CD010895F894FFCF0A
:102C0E0001009C00FA0190014E011C01FD00E20042
:102C1E00CD00B900AA009E001001D900B3009900A2
:102C2E008A0082007D0076006F006E00436163684B
:102C3E00652066756C6C2C2074686520666F6C6CF4
:102C4E006F77696E6720436F6D6D616E64204361AF
:102C5E006E742062652061646465643A0041646448
:102C6E0065642074686520666F6C6C6F77696E673B
:102C7E0020436F6D6D616E643A00303132333435FE
:102C8E003637383900746861742073686F756C64F8
:102C9E006E742062652068657265202E2E2E00549B
:102CAE00686520466F6C6C6F77696E6720436F6D39
:102CBE006D616E6420686173206265656E20657853
:102CCE006563757465643A200054686520437572B7
:102CDE0072656E7420436F6D6D616E643A200020D4
:102CEE0063616E7420626520636F6D706C657465D0
:102CFE00642C207468652071756575652069732074
:102D0E00626565696E672064656C657465642E0026
:102D1E005468652071756575656420436F6D6D61CE
:102D2E006E643A200020686173206265656E2064CF
:102D3E00656C657465642E0064656661756C7400FF
:102D4E00436F6D6D616E6420662063616E742068E2
:102D5E0061766520612076616C756520776974688F
:102D6E00207369676E2E2054686520436F6D6D6108
:102D7E006E64206973206E6F742061646465642EC6
:102D8E000000000000600634060906110624063312
:102D9E0006463F065B4F666D7D077F6F6C6F6C005E
:102DAE0045494352412000000000005E11DA12B383
:102DBE0010CC10BE103D110D0A006E616E00696ED2
:062DCE0066006F7666004E
:00000001FF
