:1000000013C1000042C1000040C10000B1C10000A6
:100010003CC100003AC1000038C1000036C10000F8
:1000200034C1000032C10000C0C100002EC1000078
:100030002CC100002AC1000028C1000026C1000018
:1000400024C1000022C1000020C100001EC1000028
:100050001CC100001AC1000018C100000C94470F19
:1000600014C100000C94BC110C94F2110EC10000DC
:100070000CC100000AC1000008C1000006C1000058
:1000800004C1000002C1000000C10000FEC0000069
:10009000FCC00000FAC00000F8C000000C94720818
:1000A000F4C00000F2C00000F0C00000EEC000008C
:1000B000ECC00000EAC00000E8C00000E6C000009C
:1000C000E4C00000E2C00000E0C00000DEC00000AC
:1000D000DCC00000DAC00000D8C00000D6C00000BC
:1000E000D4C000001603220328036C043003550417
:1000F00075049004A604A904EB04680568055A0574
:10010000F70402050D05180523052E0539054405DC
:100110004F0517101A1009100D10131051101E1052
:10012000221028102C10301036103A103E105110AA
:10013000441048104C1000000A0B02090C0D0E0868
:1001400007030401000000000000000000000000A0
:10015000000000000000000000000000000000009F
:10016000000012111000000000000000000000005C
:10017000000000000000000000000000010210204C
:1001800020080810204010204080020102010804CD
:100190000201010204081020408080402010080461
:1001A00002018004020180402010080402010804BA
:1001B00002010102040810204080010204081020FE
:1001C0004080050505050705080808080202020227
:1001D0000A0A0808040404040101010101010101E3
:1001E0000303030303030303040707070C0C0C0CAE
:1001F0000C0C0C0C02020202060606060606060697
:100200000B0B0B0B0B0B0B0B000022002500280027
:100210002B002E003100340002010000050108010E
:100220000B019402CB06241211241FBECFEFD1E2A2
:10023000DEBFCDBF00E00CBF13E0A0E0B2E0E8EA13
:10024000F8E200E00BBF02C007900D92A63CB10798
:10025000D9F726E0A6ECB3E001C01D92AE39B20793
:10026000E1F712E0C8E2D2E000E006C022970109FF
:10027000FE010BBF0E943A14C232D10780E008078A
:10028000A9F70E9468120C945214BACEDF92EF9232
:10029000FF920F931F93CF93DF93EC01D62E8A0129
:1002A0007C0184E6E80EF11CF70180819181809742
:1002B000F9F46CE272E081E096E00E94C5106D2DC9
:1002C00081E096E00E94C61067EC72E081E096E063
:1002D0000E94C5104AE050E0B80181E096E0DF914D
:1002E000CF911F910F91FF90EF90DF900C948511AB
:1002F0006DE572E081E096E00E94C5106D2D81E011
:1003000096E00E94C61067EC72E081E096E00E94E1
:10031000C5104AE050E0B80181E096E00E948511E6
:100320009E012E593F4FF90180819181FE01E80F16
:10033000F91FD082FC017096EE0FFF1FEC0FFD1F1E
:1003400011830083019660E270E00E94E313F901DB
:1003500091838083F70180819181019691838083CD
:10036000DF91CF911F910F91FF90EF90DF90089553
:100370001F920F920FB60F9211240BB60F928F930C
:100380009F93EF93FF93ECEEF3E0808191810196D0
:1003900091838083FF91EF919F918F910F900BBE7E
:1003A0000F900FBE0F901F9018951F920F920FB6CF
:1003B0000F9211240BB60F928F939F93EF93FF939D
:1003C000EEEEF3E080819181019691838083FF912D
:1003D000EF919F918F910F900BBE0F900FBE0F90DA
:1003E0001F901895CF93DF9326E040E051EE60E038
:1003F00070E081E096E00E9483132FEF81EE94E09D
:10040000215080409040E1F700C000006AE772E0B0
:1004100081E096E00E94D01083E395E00E94430AB9
:1004200088E395E085D460E070E08BE690E0BDD491
:10043000DAD4C9E1D0E067E470E088E490E032D536
:10044000AA2797FDA095BA2F40911705509118053E
:100450006091190570911A05480F591F6A1F7B1F7B
:1004600040931705509318056093190570931A056A
:100470002FEF81EE94E0215080409040E1F700C0E2
:1004800000002197C1F660911705709118058091C1
:10049000190590911A0529E130E040E050E00E94F2
:1004A000181420931705309318054093190550939D
:1004B0001A0589EF94E00E94BC0B84EE93E00E9441
:1004C0005C0E8FE39CE90197F1F700C0000064E641
:1004D00070E088ED93E00E94A80E65E070E088ED82
:1004E00093E00E94B00E60E270E088ED93E00E941D
:1004F000AC0E609102027091030241E080ED93E046
:100500000E940F0F809102029091030290930E05BA
:1005100080930D0540E050E060E070E080ED93E0F6
:10052000DF91CF910C940D0F83E395E009D787E11C
:1005300095E00E94AF0A89EF94E00E946D0B8FED69
:1005400094E00E94130D8EED94E00E94E70D10924E
:10055000D9041092D8041092DB041092DA0410929D
:10056000DD041092DC0468E172E084E394E00E9410
:10057000140D64E072E080EF93E00E94140D84EEAD
:1005800093E00E945B0E609102027091030280ED85
:1005900093E00C94E80E8F929F92AF92BF92CF920D
:1005A000DF92EF92FF920F931F93CF93DF9300D0D0
:1005B0001F92CDB7DEB760E08EED94E00E943B0E57
:1005C000BC0184E394E00E94390D61E08EED94E07B
:1005D0000E943B0EBC0180EF93E00E94390D87E141
:1005E00095E0D7D784EE93E00E948C0E8C0184EEC8
:1005F00093E00E94900EBC01601B710B80ED93E0B4
:100600000E94250F69837A838B839C838091CB031F
:10061000992787FD9095A92FB92F8A30910508F069
:10062000A5C1FC01EE58FF4F0C94341483E395E010
:100630002AD789EF94E00E94610C84EE93E00E9437
:10064000860E9CC141E063E375E084E394E005C05D
:1006500041E063E375E080EF93E00E94D70D8EC127
:100660008091C703882309F474C08091D8049091C5
:10067000D9042091DA043091DB048217930741F406
:1006800086E68093CA031092C9031092C80323C060
:10069000FC01E858FB4F20812093CA03FC01EE0FB8
:1006A000FF1FE856FB4F208131813093C90320930F
:1006B000C803019660E270E00E94E3139093D904AE
:1006C0008093D8048091DC049091DD04019790938D
:1006D000DD048093DC0484EE93E00E94860E87E1C3
:1006E00095E0F5D78091CA03863649F48091C80316
:1006F0009091C903892B81F41092CB033FC18237BB
:1007000001F562E070E089EF94E00E940D0D8091A8
:10071000C8039091C90310C060E070E089EF94E0D5
:100720000E940D0D2091C8033091C90344E6429FF9
:10073000C001439F900D1124909300058093FF0406
:1007400006C065E872E081E096E00E94D010109249
:10075000C70364EEE62E63E0F62E8E010F5F1F4F97
:1007600027E135E040EF53E064E374E089EF94E083
:100770000E94730C8130910501F56FE972E081E010
:1007800096E00E94C5106091CA0381E096E00E9445
:10079000C61067EC72E081E096E00E94C51060919F
:1007A000C8037091C9034AE050E081E096E00E94DE
:1007B000851181E08093C703E1C0019609F0DEC096
:1007C00069EC72E081E096E00E94C5106091CA0376
:1007D00081E096E00E94C61067EC72E081E096E04E
:1007E0000E94C5106091C8037091C9034AE050E0AF
:1007F00081E096E00E947E116FED72E081E096E06C
:100800000E94C51050E2E52EF12C2091DC043091BD
:10081000DD04121613060CF0B1C08091D80490913B
:10082000D9044091DA045091DB0484179507D1F084
:10083000FC01E858FB4FD080FC01EE0FFF1FE8568B
:10084000FB4F008111810196B7010E94E313909341
:10085000D9048093D804215031093093DD042093CA
:10086000DC0404C000E010E086E6D82E60E173E00E
:1008700081E096E00E94C5106D2D81E096E00E9417
:10088000C61067EC72E081E096E00E94C5104AE075
:1008900050E0B80181E096E00E947E1165E273E0CD
:1008A00081E096E00E94D010B0CF82E090E090937B
:1008B000FE048093FD04B4EEEB2EB3E0FB2E8E011C
:1008C0000F5F1F4F27E135E040EF53E064E374E032
:1008D00089EF94E00E94730C87E195E0DDD640E05B
:1008E00050E083E395E0E7D549C06091CF03862FC0
:1008F00090E0909389008093880010928B00109272
:100900008A009093A9008093A8001092AB001092E7
:10091000AA004AE050E081E096E00E94A7112EC0B4
:1009200081E090E09093FA048093F904BE016F5F38
:100930007F4F89EF94E0C8D78FEF99EF20E0815087
:1009400090402040E1F700C0000018C083E090E034
:1009500002C084E090E09093FA048093F90468EC7C
:1009600070E089EF94E00E94090D08C01092CB035B
:1009700068E373E081E096E00E94D0108FEF91EE83
:1009800024E0815090402040E1F700C00000DD24C9
:10099000D39456E6C52E62E7B62E72E0A72EE4E0A9
:1009A0009E2EEE24E394F12CAAE08A2E81E096E0BC
:1009B0000E948D128C018091CC031127882309F4A9
:1009C000D1C0F801BD97ED30F10508F081C0E458C1
:1009D000FF4F0C9434148091000290910102919584
:1009E000819591099093010280930002F7C02091B4
:1009F000CD033091CE03829EC001839E900D1124C1
:100A0000019661C02091CD033091CE03829EC0013A
:100A1000839E900D1124029656C02091CD033091F3
:100A2000CE03829EC001839E900D112403964BC07D
:100A30002091CD033091CE03829EC001839E900D04
:100A40001124049640C02091CD033091CE03829EA4
:100A5000C001839E900D1124059635C02091CD03D1
:100A60003091CE03829EC001839E900D1124069684
:100A70002AC02091CD033091CE03829EC001839E77
:100A8000900D112407961FC02091CD033091CE0305
:100A9000829EC001839E900D1124089614C020915F
:100AA000CD033091CE03829EC001839E900D112410
:100AB000099609C02091CD033091CE03829EC001DA
:100AC000839E900D11249093CE038093CD0386C016
:100AD0008091CD039091CE03181619060CF07EC0BC
:100AE0002091C603263679F0223709F520910002BD
:100AF00030910102829FA001839F500D929F500D63
:100B0000112462E711C020910002309101022130CE
:100B1000310519F4AC0166E607C060E473E081E0DA
:100B200096E00E94C51003C088E794E0AFDBF09226
:100B30000102E09200021092CE031092CD031092B7
:100B4000C6031092CC030636110539F002371105A1
:100B500009F044C0B092C60302C0C092C603D0924E
:100B6000CC033CC00636110581F164F40233110553
:100B700009F10436110509F10133110579F5D09217
:100B8000CB032CC00237110529F13CF40D361105B9
:100B900029F58091CF03815015C00337110539F035
:100BA00007371105D9F48091CF038F5F0BC01092E6
:100BB000CB0314C0A092CB0311C09092CB03D09270
:100BC000C7030CC08093CF0309C0D092CC03C0925E
:100BD000C60304C0D092CC03B092C6038091CC036C
:100BE0008111E4CE0F900F900F900F90DF91CF9175
:100BF0001F910F91FF90EF90DF90CF90BF90AF903B
:100C00009F908F9008958091680590E020916905EC
:100C1000821B910908952091690580916805281724
:100C200050F4E22FF0E0E659FA4F808190E02F5F18
:100C30002093690508958FEF9FEF0895E09169056E
:100C400080916805E81730F4F0E0E659FA4F8081AA
:100C500090E008958FEF9FEF08950895CF92DF926F
:100C6000EF92FF920F931F93CF93DF937C01CB0101
:100C70008A0120914405222389F0EB016B01C40E07
:100C8000D51ECC15DD0561F06991D701ED91FC9180
:100C90000190F081E02DC7011995F3CF642FF9D1B0
:100CA000C801DF91CF911F910F91FF90EF90DF90DE
:100CB000CF900895CF93DF931F92CDB7DEB76983AE
:100CC000209144052223D1F020914505203240F0A7
:100CD00021E030E0FC013383228380E090E014C007
:100CE00080914605E82FF0E0E95BFA4F9981908307
:100CF0008F5F809346058093450504C061E0CE0177
:100D00000196C7D181E090E00F90DF91CF910895D7
:100D1000FC011382128248EE53E060E070E04483ED
:100D200055836683778385E893E091838083089574
:100D300010926905109268051092460510924505BB
:100D4000F3C0862F413208F040E26AE675E00AD12E
:100D500010926905809368050895F3CF81E0809330
:100D60004405609367051092460510924505089565
:100D7000F5CF0F93062F21E04091450567E475E01C
:100D80008091670533D11092460510924505109267
:100D900044050F91089588E395E0BACFDC01ED9109
:100DA000FC910190F081E02D19940F931F93CF9344
:100DB000DF938C01EB0169E670E088E395E0D8DF12
:100DC000B80188E395E0EADFBE0188E395E0E6DF5D
:100DD00061E088E395E0CDDF81E090E0DF91CF91A5
:100DE0001F910F91089560E070E08AE090E0DDDFF0
:100DF0006FE070E08AE090E0D8DF60E070E08AE0C9
:100E000090E0D3DF60E470E084E290E0CEDF6CE855
:100E100070E085E290E0C9DF62E070E086E290E099
:100E2000C4DF68E870E087E290E0BFDF6CE070E06C
:100E300088E290E0BADF6AE070E089E290E0B5DF36
:100E400061E870E08AE290E0B0DF61E070E084E6A3
:100E500090E0ABDF63E070E087E690E0A6DF60E85B
:100E600070E081E090E0A1DF64E070E084E390E076
:100E70009CDF60E070E084E690E097DF60E070E087
:100E80008AE690E092DF61E070E084E690E08DDF3A
:100E900060E270E08AE690E088DF63E170E084E37E
:100EA00090E083CF0F931F93CF93DF938C01EB01DF
:100EB00069E670E088E395E05BDFB80188E395E0E0
:100EC0006DDF60E088E395E054DF21E030E041E051
:100ED00050E069E670E088E395E03FDF88E395E065
:100EE0009ADE182F69E670E088E395E041DFBE01E5
:100EF00088E395E053DF60E088E395E03ADF21E0A6
:100F000030E041E050E069E670E088E395E025DFFD
:100F100088E395E080DE982F8827810F911DDF916F
:100F2000CF911F910F9108951092F70581E0809362
:100F3000F5051092F40561E084E10E94521061E031
:100F400085E10E945210E9EBF0E080818E7F808382
:100F500080818D7F808388E48093B80085E48093CE
:100F6000BC000895413208F03FC09091F7059111FF
:100F7000FCCF91E09093F7052093F5052FEF209398
:100F80008A051092CF05240F2093CE059093F60585
:100F90009091F605880F892B8093F6058091F405D2
:100FA000813041F41092F4058091F6058093BB00E6
:100FB00085EC01C085EE8093BC008091F7058130FF
:100FC000E1F38091CF05841710F44091CF0520ED17
:100FD00035E0FB01D9018A2F821B841718F48D910B
:100FE0008193F9CF842F089580E008950F934132C3
:100FF00008F046C09091F7059111FCCF92E09093D4
:10100000F7050093F5059FEF90938A051092CF05A1
:101010004093CE05FB0160ED75E0DB019A2F961B36
:10102000941718F491919D93F9CF1092F605909131
:10103000F605880F892B8093F6058091F4058130A1
:1010400041F41092F4058091F6058093BB0085EC85
:1010500001C085EE8093BC00222321F08091F7052A
:101060008230E1F380918A058F3F61F080918A059B
:10107000803251F080918A05803341F483E007C0CB
:1010800081E005C080E003C082E001C084E00F91F0
:101090000895613298F42091F705243089F4609323
:1010A000AC05FC018EEA95E0DC012A2F281B2617EF
:1010B00018F421912D93F9CF80E0089581E00895EF
:1010C00082E0089585ED8093BC008091BC0084FD92
:1010D000FCCF1092F705089585EC8093BC00109228
:1010E000F70508951F920F920FB60F9211240BB6B9
:1010F0000F922F933F934F935F936F937F938F93B1
:101100009F93AF93BF93EF93FF938091B900887F34
:10111000803609F49CC068F5883209F45BC090F40D
:10112000803109F454C038F4882309F4F3C08830BE
:1011300009F44DC0F2C0883109F44CC0803209F482
:101140005DC0EBC0803409F468C048F4803309F412
:1011500055C0883309F0E1C080938A05A7C0803567
:1011600009F44FC0883509F45DC0883409F0D5C052
:10117000D3C0883909F4C4C0A8F4883709F467C01B
:1011800038F4883609F463C0803709F460C0C5C0FC
:10119000883809F4B5C0803909F45FC0803809F097
:1011A000BCC05BC0803B09F483C038F4803A09F4CA
:1011B00066C0883A09F47CC0B0C0803C09F4A4C081
:1011C000883C09F4A1C0883B09F487C0A6C080917F
:1011D000F60510C09091CF058091CE05981770F557
:1011E000E091CF0581E08E0F8093CF05F0E0E053D2
:1011F000FA4F80818093BB0085EC83C080938A0581
:101200008BC0E091CF0581E08E0F8093CF05809158
:10121000BB00F0E0E053FA4F80839091CF058091BE
:10122000CE056BC0E091CF0581E08E0F8093CF0596
:101230008091BB00F0E0E053FA4F80838091F50588
:1012400081116AC081E08093F40584EA5EC083E086
:101250008093F70510928B05CFCF80918B0580325C
:1012600008F04EC0E0918B0581E08E0F80938B05D6
:101270008091BB00F0E0E457FA4F8083BDCF8091AE
:101280008B05803230F4E0918B05F0E0E457FA4FA3
:10129000108218DF60918B0570E0E091F005F0910D
:1012A000F1058CE895E0199510928B0515DF35C096
:1012B00084E08093F7051092AD051092AC05E091A3
:1012C000F205F091F30519958091AC05811105C0E7
:1012D00081E08093AC051092AE05E091AD0581E010
:1012E0008E0F8093AD05F0E0E255FA4F8081809338
:1012F000BB009091AD058091AC05981708F47CCFA8
:1013000085E88093BC0009C085EC8093BC001092F6
:10131000F70503C010928A05D5DEFF91EF91BF91CA
:10132000AF919F918F917F916F915F914F913F917D
:101330002F910F900BBE0F900FBE0F901F9018951E
:10134000FC011482138287B18C6187B90895FC0176
:10135000838194818130910531F0029739F4808145
:101360008068808303C0818180688183429844982B
:1013700000000000439A0000000000000000000090
:10138000429A0000000020E030E0439842980000BC
:10139000000048B1808190E0022E02C095958795AB
:1013A0000A94E2F78170992773E0880F991F7A9564
:1013B000E1F7482B48B900000000000000000000E1
:1013C000429A000000002F5F3F4F28303105E9F6B8
:1013D00020E030E0439842980000000048B181814D
:1013E00090E0022E02C0959587950A94E2F78170ED
:1013F000992763E0880F991F6A95E1F7482B48B950
:1014000000000000000000000000429A0000000000
:101410002F5F3F4F28303105E9F620E030E0439858
:1014200042980000000048B1828190E0022E02C084
:10143000959587950A94E2F78170992753E0880F74
:10144000991F5A95E1F7482B48B9000000000000A9
:1014500000000000429A000000002F5F3F4F28303C
:101460003105E9F68BE0429800000000439A000045
:101470000000000000000000429A000000008150BF
:1014800091F7449A0895FF920F931F93CF93DF93A0
:10149000EC01F88009811A81188219821A8257DFBB
:1014A0001C821B82F88209831A83DF91CF911F91DE
:1014B0000F91FF9008950F931F93CF93DF93FC013B
:1014C00054834383683E83E07807DCF49B016933EF
:1014D000AFEF7A0714F429E33FEF01E010E026179D
:1014E000370709F400E037FF10C02C39BFEF3B0786
:1014F00014F486E401C080E480833195219531099C
:101500000FC027EE33E001E010E0C90164E670E0AF
:101510000E94E3136F567C4FDB0111968C91808300
:10152000CAE0D0E0C901BE010E94E3139C01CB01D7
:10153000BE010E94E3138F569C4FDC0111968C91E3
:101540008183D901AF56BC4F11968C918283CF0114
:10155000FEDEC801DF91CF911F910F910895FC012C
:1015600014821582168217821086118612861386BF
:101570001486158616861786108A118A128A138A8F
:10158000148A158A168A178A108E118E128E138E5F
:1015900008954F925F926F927F928F929F92AF9237
:1015A000BF92CF92DF92EF92FF92CF93DF93EC0145
:1015B000488559856A857B854C835D836E837F83EF
:1015C00067E470E088E490E06DDCAC01662757FDCD
:1015D0006095762F488759876A877B874C895D8914
:1015E0006E897F89488B598B6A8B7B8B9AD42B01B0
:1015F0003C016C8B7D8B8E8B9F8BC884D984EA8455
:10160000FB8488809980AA80BB80C701B6016819D5
:1016100079098A099B0924E630E040E050E00E9405
:101620001814D501C4010596A11DB11D8C159D0589
:10163000AE05BF0554F085E0881A9108A108B108ED
:10164000C814D904EA04FB0464F48C859D85AE8536
:10165000BF85820F931FA41FB51F8C879D87AE8700
:10166000BF87488959896A897B89441A550A660A5D
:10167000770A488E598E6A8E7B8EDF91CF91FF90CC
:10168000EF90DF90CF90BF90AF909F908F907F9022
:101690006F905F904F900895FC018485958523E0BD
:1016A000880F991F2A95E1F76AE070E00E94E31322
:1016B0002AE0269FC001279F900D1124608D718D17
:1016C0000E94E313882777FD8095982F0895FC01E9
:1016D00014861586168617860895CF93DF93EC013E
:1016E000198218821B821A821D821C821F821E820E
:1016F0001886198616D46A877B878C879D871E86F5
:101700001F86188A198A1A8A1B8A1D8A1C8A1F8AB0
:101710001E8A198E188EE1E0F1E080818860808356
:10172000808180618083259A269A8FEF90E0909344
:1017300087008093860032EA3093800029E120936D
:101740008100109289001092880010928B001092F4
:101750008A009093A7008093A6003093A000209366
:10176000A1001092A9001092A8001092AB00109254
:10177000AA00DF91CF910895E1E0F1E080818860D7
:101780008083808180618083259A269A8FEF90E004
:10179000909387008093860032EA3093800029E19D
:1017A00020938100109289001092880010928B0083
:1017B00010928A009093A7008093A6003093A00017
:1017C0002093A1001092A9001092A8001092AB00E3
:1017D0001092AA000895FC01809102018860809314
:1017E00002018FE193E00197F1F700C000008091C2
:1017F0000201877F8093020171836083228D338D84
:10180000848D958D62307105D1F184F46115710577
:10181000E1F06130710509F043C0309389002093F5
:10182000880010928B0010928A0024C063307105EA
:10183000C9F064307105A1F53093890020938800C8
:1018400010928B0010928A0022C03093890020935E
:10185000880030938B0020938A009093A900809396
:10186000A80019C0109289001092880030938B0054
:1018700020938A009093A9008093A8001DC0109225
:1018800089001092880030938B0020938A00109278
:10189000A9001092A8009093AB008093AA0008952D
:1018A000109289001092880010928B0010928A008A
:1018B0001092A9001092A8001092AB001092AA00FA
:1018C000089560E070E087CFFB0120813181FC0149
:1018D000338F228FFB0122813381FC01358F248FCE
:1018E0006081718178CF8F929F92AF92BF92CF9299
:1018F000DF92EF92FF920F931F93CF93DF93EC0150
:101900006B015A01B801E0DF2C813D8121303105A6
:1019100009F459C01CF4232B61F06CC0223031054E
:1019200009F45BC02330310509F064C0CE01C9DF82
:1019300061C0F601E05CFF4F00811181F501E05CC0
:10194000FF4F8080918081E090E099838883C70178
:10195000E3D16C01C701E4D15C01EE80FF80080D8A
:10196000191D17FF02C00F5F1F4F15950795C8017E
:101970000B97439708F03BC04AE050E0B80181E084
:1019800096E0C3D4C6018A0D9B1D97FD01969C016C
:10199000359527954CE2429FC001439F900D11243D
:1019A00064E670E010D7E61AF70A0E151F05FCF47E
:1019B0004AE050E0B80181E096E0A7D4CE0181DF93
:1019C0008FEF9FEF19C06CE973E081E096E0E8D3F8
:1019D00083E090E09D838C830DC08985811103C0D5
:1019E00083E090E002C084E090E09983888388855A
:1019F00090E002C080E090E0DF91CF911F910F91C5
:101A0000FF90EF90DF90CF90BF90AF909F908F901E
:101A10000895FC0160817181DECEFC0175836483D1
:101A200060E070E0D8CE0895FC01B89624E1DF01B3
:101A30001D922A95E9F7FC0115AE14AE17AE16AE4D
:101A4000E05CFF4F11821082329611821082DB011E
:101A5000FC012BE430E08D919D9191838083338351
:101A600022833496275E3F4F253481E0380799F76B
:101A700008950F931F93CF93DF93FC018B0124AD47
:101A800035ADE9012196D5AFC4AFC9016AE070E078
:101A90009AD64496880F991F8E0F9F1FDC010D93D5
:101AA0001C93DF01AE5BBF4F0D931C93659724F031
:101AB0002950310935AF24AF17AE16AE20E030E023
:101AC00040E050E0DF01A20FB31F98968D919C91EA
:101AD0009997840F951F2E5F3F4F2431310511F0E8
:101AE000AC01F0CF64AD75AD6B30710514F06AE0F8
:101AF00070E069D677AF66AF8081918186179707CE
:101B00000CF447C0DF0120E030E0CD91DC9111976B
:101B1000C617D707B4F114964D915C9115976417C9
:101B200075077CF18E01061B170BD9011396AA0FBE
:101B3000BB1FAE0FBF1F0D90BC91A02D0A9FC0010F
:101B40000B9F900D1A9F900D1124641B750BD901EA
:101B50001196AA0FBB1FAE0FBF1F0D90BC91A02DF9
:101B60006A9F90016B9F300D7A9F300D1124820F78
:101B7000931FBE01641B750B26D66115710561F0BC
:101B80000DC014962E5F3F4F2231310509F0BDCFB5
:101B900003C066EF7FEF02C067EE73E0E05CFF4FCB
:101BA00071836083DF91CF911F910F910895FC01A4
:101BB000CB01442339F0E05CFF4F6081718141E04B
:101BC00050E004C066AD77AD40E050E074CC809149
:101BD00064008E7F8093640080917A008768809390
:101BE0007A0080917C008F7780937C0080917C00CC
:101BF000806480937C0080917C008E7F80937C0049
:101C000080917C00826080937C0080917C008B7F3F
:101C100080937C0080917C00877F80937C00809102
:101C20007C008F7E80937C0080917C008F7D8093F0
:101C30007C0080917B008E7F80937B0080917B0075
:101C40008D7F80937B0080917B008B7F80937B00D6
:101C500080917A00806480937A0080917A0084FF7A
:101C6000FCCF80917A00806180937A008091780027
:101C700080917900089580917C00807C80937C0025
:101C800080917C006F73682B60937C0080917A0058
:101C9000806480937A0080917A0084FFFCCF8091E9
:101CA0007A00806180937A00809178002091790099
:101CB00090E0922B08950895CF93DF93F8945A9A69
:101CC000C9E6D0E088818061888360EA73E081E0C2
:101CD00096E05BD268814AE050E081E096E037D33D
:101CE00084E08CBBEA9A7894E5E0F1E08081816041
:101CF0008083ECE6F0E0808182608083E8E6F0E0BB
:101D0000808182608083DF91CF910895FC011186EC
:101D10001086138612860895FC01828593850895A6
:101D2000FC01808591850895FC0171836083538354
:101D30004283358324831782168211861086138688
:101D400012860895FC015187408777836683089542
:101D5000FC01718360830895FC017383628308959D
:101D6000FC01758364830895FC0126813781261B5D
:101D7000370B42855385420F531F53874287648137
:101D80007581469FC001479F900D569F900D11246D
:101D900040855185D901A41BB50B62817381A69F33
:101DA000A001A79F500DB69F500D1124840F951FC1
:101DB00060817181269FA001279F500D369F500D95
:101DC0001124840F951F64E670E0FDD4CB010895C3
:101DD0000F931F93CF93DF93EC018B01198218822D
:101DE0001B821A821D821C821F821E8220E030E02C
:101DF00040E050E060E070E0089696DF19821882BB
:101E00001B830A831D830C838AE090E09F838E836B
:101E1000DF91CF911F910F910895089693CFFC0108
:101E2000411103C09081818102C0962F872F928338
:101E3000838364837583442319F08AE090E002C0B1
:101E400081E090E0978386830895CF93DF93EC0140
:101E5000888199819B838A838C819D8199838883E2
:101E60008E819F818A3091051CF401969F838E8319
:101E7000CE01089679DF9C0148815981BA01621B25
:101E8000730BCA01820F931FDF91CF9108951F92A8
:101E90000F920FB60F9211242F933F938F939F931E
:101EA000AF93BF938091F9059091FA05A091FB053E
:101EB000B091FC053091F80523E0230F2D3720F475
:101EC0000196A11DB11D05C026E8230F0296A11D94
:101ED000B11D2093F8058093F9059093FA05A0931E
:101EE000FB05B093FC058091FD059091FE05A09146
:101EF000FF05B09100060196A11DB11D8093FD055F
:101F00009093FE05A093FF05B0930006BF91AF919B
:101F10009F918F913F912F910F900FBE0F901F9027
:101F200018952FB7F8946091F9057091FA05809192
:101F3000FB059091FC052FBF0895789484B58260CD
:101F400084BD84B5816084BD85B5826085BD85B55D
:101F5000816085BDEEE6F0E0808181608083E1E80C
:101F6000F0E0108280818260808380818160808344
:101F7000E0E8F0E0808181608083E1EBF0E0808147
:101F800084608083E0EBF0E0808181608083E1E920
:101F9000F0E0808182608083808181608083E0E9DD
:101FA000F0E0808181608083E1EAF0E080818260FE
:101FB0008083808181608083E0EAF0E080818160BD
:101FC0008083E1E2F1E080818260808380818160B2
:101FD0008083E0E2F1E0808181608083EAE7F0E0E5
:101FE0008081846080838081826080838081816041
:101FF00080838081806880831092C100089590E082
:10200000FC013197E231F10508F04BC0E757FF4F73
:102010002BC4809180008F7703C0809180008F7DDA
:1020200080938000089580918000877FF9CF84B5E8
:102030008F7702C084B58F7D84BD08958091B000F4
:102040008F7703C08091B0008F7D8093B00008959A
:10205000809190008F7707C0809190008F7D03C0A2
:1020600080919000877F8093900008958091A000D8
:102070008F7707C08091A0008F7D03C08091A00062
:10208000877F8093A0000895809120018F7707C0FB
:10209000809120018F7D03C080912001877F8093F4
:1020A000200108950F931F93CF93DF931F92CDB715
:1020B000DEB7282F30E0F901EA5CFE4F8491F90188
:1020C000E458FE4F1491F901EE53FE4F04910023A2
:1020D000C1F0882319F0698392DF6981E02FF0E075
:1020E000EE0FFF1FE85FFD4FA591B4919FB7F894E5
:1020F0008C91611103C01095812301C0812B8C93B9
:102100009FBF0F90DF91CF911F910F910895CF92B4
:10211000DF92EF92FF920F931F93CF93DF936C01A7
:102120007A01EB01E60EF71E00E010E0CE15DF05A8
:1021300061F06991D601ED91FC910190F081E02D63
:10214000C6011995080F191FF1CFC801DF91CF9172
:102150001F910F91FF90EF90DF90CF900895611540
:10216000710581F0DB010D900020E9F7AD014150D0
:102170005109461B570BDC01ED91FC910280F38164
:10218000E02D199480E090E00895E9CFDC01ED9115
:10219000FC910190F081E02D199467EA73E0DFCFA4
:1021A0000F931F93CF93DF93EC01D9DF8C01CE0106
:1021B000F4DF800F911FDF91CF911F910F91089550
:1021C0008F929F92AF92BF92CF92DF92EF92FF9247
:1021D0000F931F93CF93DF93CDB7DEB7A1970FB6C1
:1021E000F894DEBF0FBECDBF7C01C42EE52FCB011E
:1021F000D22E19A221E02D1510F02AE0D22E8E0148
:102200000F5D1F4F8D2C912CA12CB12C6C2D7E2F8E
:10221000A5019401EBD28C2DD29E8019112401507E
:1022200011098A3014F4805D01C0895CF801808353
:10223000211531054105510521F0C22EE32FCA01B8
:10224000E5CFB801C7018BDFA1960FB6F894DEBFCA
:102250000FBECDBFDF91CF911F910F91FF90EF90F7
:10226000DF90CF90BF90AF909F908F900895CF92C6
:10227000DF92EF92FF920F931F93CF93DF93EC01C6
:102280006A017B012115310579F4E881F98101901A
:10229000F081E02D642FDF91CF911F910F91FF907E
:1022A000EF90DF90CF9019942A303105D9F477FF61
:1022B00018C06DE26BDF8C0144275527BA014C1919
:1022C0005D096E097F092AE0CE017ADF800F911F38
:1022D000DF91CF911F910F91FF90EF90DF90CF9002
:1022E00008952AE0B701A601CE01DF91CF911F9199
:1022F0000F91FF90EF90DF90CF9062CF9A01AB01EA
:10230000662757FD6095762FB2CF0F931F93CF931B
:10231000DF93EC019A01AB01662757FD6095762F9C
:10232000A6DF8C01CE0139DF800F911FDF91CF91A5
:102330001F910F9108952115310541F4DC01ED91B4
:10234000FC910190F081E02D642F199439CF0F9307
:102350001F93CF93DF93EC019A01462F50E060E08A
:1023600070E0E9DF8C01CE0118DF800F911FDF9153
:10237000CF911F910F9108951F920F920FB60F9258
:1023800011240BB60F922F938F939F93EF93FF938C
:10239000E0911106F09112068081E0911706F0910C
:1023A000180682FD12C0908180911A068F5F8F738C
:1023B00020911B06821751F0E0911A06F0E0EF5FC2
:1023C000F94F958F80931A0601C08081FF91EF919C
:1023D0009F918F912F910F900BBE0F900FBE0F907A
:1023E0001F9018951F920F920FB60F9211240BB6E3
:1023F0000F922F933F934F935F936F937F938F939E
:102400009F93AF93BF93EF93FF9381E096E0D5D076
:10241000FF91EF91BF91AF919F918F917F916F91BC
:102420005F914F913F912F910F900BBE0F900FBE78
:102430000F901F90189581E096E056D021E0892BEF
:1024400009F420E0822F08951092040610920306EA
:1024500088EE93E0A0E0B0E0809305069093060636
:10246000A0930706B09308068AEB93E090930206C8
:102470008093010685EC90E090930E0680930D0604
:1024800084EC90E09093100680930F0680EC90E02F
:10249000909312068093110681EC90E090931406BD
:1024A0008093130682EC90E09093160680931506B5
:1024B00086EC90E0909318068093170610921A0607
:1024C00010921B0610921C0610921D060895089586
:1024D00034DDFDDF0E94F201C1EAD2E10E94CB02AD
:1024E0002097E1F32ED0FACFFC01818D228D90E070
:1024F000805C9F4F821B91098F7399270895FC017F
:10250000918D828D981731F0828DE80FF11D858DA8
:1025100090E008958FEF9FEF0895FC01918D828DDB
:10252000981761F0828DDF01A80FB11D5D968C9127
:10253000928D9F5F9F73928F90E008958FEF9FEF32
:1025400008958BE192E1892B39F080E090E0892BAE
:1025500019F071DF811125C080E090E0892B41F0F6
:1025600080E090E0892B21F00E94000081111CC0C6
:1025700080E090E0892B41F080E090E0892B21F011
:102580000E940000811113C080E090E0892BA1F02F
:1025900080E090E0892B81F00E94000081110AC048
:1025A00008950E940000D8CF0E940000E1CF0E9451
:1025B0000000EACF0C9400000895FC01848DDF0137
:1025C000A80FB11DA35ABF4F2C91848D90E00196A6
:1025D0008F739927848FA689B7892C93A089B18995
:1025E0008C9180648C93938D848D981306C002889F
:1025F000F389E02D80818F7D80830895CF93DF93D1
:10260000EC01888D8823C1F0EA89FB89808185FDF2
:1026100005C0A889B9898C9186FD0EC00FB607FC4C
:10262000F5CF808185FFF2CFA889B9898C9185FF8C
:10263000EDCFCE01C2DFE8CFDF91CF910895CF92E9
:10264000DF92FF920F931F93CF93DF931F92CDB72B
:10265000DEB76C0181E0D60158968C9358975B9653
:102660009C915B975C968C915C97981307C05096F1
:10267000ED91FC915197808185FD2DC0F601038D70
:1026800010E00F5F1F4F0F731127F02EF601848D9E
:10269000F81210C00FB607FCF9CFD6015096ED9195
:1026A000FC915197808185FFF1CFC601698385DF59
:1026B0006981ECCF838DE80FF11DE35AFF4F6083F2
:1026C000D6015B960C935B975296ED91FC915397D4
:1026D000808180620CC0D6015696ED91FC9157978F
:1026E00060835096ED91FC91519780818064808346
:1026F00081E090E00F90DF91CF911F910F91FF90BB
:10270000DF90CF900895BF92CF92DF92EF92FF9229
:10271000CF93DF93EC016A017B01B22EE889F9893E
:1027200082E08083411581EE58076105710599F0BB
:1027300060E079E08DE390E0A701960157D0215049
:102740003109410951095695479537952795211526
:1027500080E1380790F0E889F989108260E874E830
:102760008EE190E0A701960141D021503109410945
:1027700051095695479537952795EC85FD8530830A
:10278000EE85FF852083188EEC89FD89B082EA8969
:10279000FB89808180618083EA89FB8980818860F0
:1027A0008083EA89FB89808180688083EA89FB894C
:1027B00080818F7D8083DF91CF91FF90EF90DF90BC
:1027C000CF90BF90089597FB072E16F4009406D083
:1027D00077FD08D053D007FC05D03EF49095819545
:1027E0009F4F0895709561957F4F0895A1E21A2E2D
:1027F000AA1BBB1BFD010DC0AA1FBB1FEE1FFF1FA5
:10280000A217B307E407F50720F0A21BB30BE40BF4
:10281000F50B661F771F881F991F1A9469F760953B
:102820007095809590959B01AC01BD01CF010895F5
:10283000052E97FB16F400940FD057FD05D0D6DF78
:1028400007FC02D046F408C050954095309521957C
:102850003F4F4F4F5F4F08959095809570956195CC
:102860007F4F8F4F9F4F0895EE0FFF1F0590F491FC
:10287000E02D19940790F691E02D1994AA1BBB1B2B
:1028800051E107C0AA1FBB1FA617B70710F0A61B70
:10289000B70B881F991F5A95A9F780959095BC0191
:0828A000CD010895F894FFCF6B
:1028A80001009C00FA0190014E011C01FD00E200AC
:1028B800CD00B900AA009E001001D900B30099000C
:1028C8008A0082007D0076006F006E0043616368B5
:1028D800652066756C6C2C2074686520666F6C6C5E
:1028E8006F77696E6720436F6D6D616E6420436119
:1028F8006E742062652061646465643A00416464B2
:1029080065642074686520666F6C6C6F77696E67A4
:1029180020436F6D6D616E643A0030313233343567
:102928003637383900746861742073686F756C6461
:102938006E742062652068657265202E2E2E005404
:10294800686520466F6C6C6F77696E6720436F6DA2
:102958006D616E6420686173206265656E206578BC
:102968006563757465643A20005468652043757220
:1029780072656E7420436F6D6D616E643A2000203D
:1029880063616E7420626520636F6D706C65746539
:10299800642C2074686520717565756520697320DD
:1029A800626565696E672064656C657465642E0090
:1029B8005468652071756575656420436F6D6D6138
:1029C8006E643A200020686173206265656E206439
:1029D800656C657465642E0064656661756C740069
:1029E800436F6D6D616E6420662063616E7420684C
:1029F80061766520612076616C75652077697468F9
:102A0800207369676E2E2054686520436F6D6D6171
:102A18006E64206973206E6F742061646465642E2F
:102A280000000000005A062E0603060B061E062D9F
:102A380006463F065B4F666D7D077F6F6C6F6C00C7
:102A4800454943524120000D0A006E616E00696ECF
:102A580066006F766600000000001F13871074126E
:062A68008D127F12FE1228
:00000001FF
