:1000000013C1000042C1000040C100003FC1000018
:100010003CC100003AC1000038C1000036C10000F8
:1000200034C1000032C100004EC100002EC10000EA
:100030002CC100002AC1000028C1000026C1000018
:1000400024C1000022C1000020C100001EC1000028
:100050001CC100001AC1000018C100000C94061059
:1000600014C100000C947B120C94B1120EC100005C
:100070000CC100000AC1000008C1000006C1000058
:1000800004C1000002C1000000C10000FEC0000069
:10009000FCC00000FAC00000F8C00000D0C600009C
:1000A000F4C00000F2C00000F0C00000EEC000008C
:1000B000ECC00000EAC00000E8C00000E6C000009C
:1000C000E4C00000E2C00000E0C00000DEC00000AC
:1000D000DCC00000DAC00000D8C00000D6C00000BC
:1000E000D4C00000B702DF02E4020E03EB02FF02FD
:1000F00017033203350338036903F003F003E50304
:100100007503810391039D03A903B503C103CD03C7
:10011000D903D610D910C810CC10D2101011DD1090
:10012000E110E710EB10EF10F510F910FD101011B1
:10013000031107110B1100000A0B02090C0D0E0828
:1001400007030401000000000000000000000000A0
:10015000000000000000000000000000000000009F
:10016000000012111000000000000000000000005C
:10017000000000000000000000000000010210204C
:1001800020080810204010204080020102010804CD
:100190000201010204081020408080402010080461
:1001A00002018004020180402010080402010804BA
:1001B00002010102040810204080010204081020FE
:1001C0004080050505050705080808080202020227
:1001D0000A0A0808040404040101010101010101E3
:1001E0000303030303030303040707070C0C0C0CAE
:1001F0000C0C0C0C02020202060606060606060697
:100200000B0B0B0B0B0B0B0B000022002500280027
:100210002B002E003100340002010000050108010E
:100220000B0159027805E31211241FBECFEFD1E272
:10023000DEBFCDBF00E00CBF12E0A0E0B2E0ECE515
:10024000FEE200E00BBF02C007900D92A03AB1079A
:10025000D9F725E0A0EAB2E001C01D92AB31B207A8
:10026000E1F712E0C8E2D2E000E006C022970109FF
:10027000FE010BBF0E941417C232D10780E00807AD
:10028000A9F70E9427130C942C17BACE1F920F9235
:100290000FB60F9211240BB60F928F939F93EF938B
:1002A000FF93ECE7F3E08081918101969183808355
:1002B000FF91EF919F918F910F900BBE0F900FBE0A
:1002C0000F901F9018951F920F920FB60F92112446
:1002D0000BB60F928F939F93EF93FF93EEE7F3E0AC
:1002E00080819181019691838083FF91EF919F910D
:1002F0008F910F900BBE0F900FBE0F901F9018950F
:10030000CF92DF92EF92FF920F931F93CF93DF93E1
:1003100026E040E051EE60E070E08EE794E00E945D
:10032000421464E170E086EA92E00E94020F64E603
:1003300070E086EA92E00E94880D61E070E086EA53
:1003400092E00E94F10F00E010E028E433E440E086
:1003500050E068EC72E486EA92E00E94450F6EEB92
:1003600070E086EA92E00E94980D8AE9C82E89E939
:10037000D82EED2C8EE3F82E0DEC1CEC2CE43EE395
:1003800040E050E060E07FE386EA92E00E949E0E4B
:100390002FEF81EE94E0215080409040E1F700C0C3
:1003A00000006AE272E08EE794E00E948F1180EB19
:1003B00093E016D785EB93E068D360E070E08BE6BE
:1003C00090E0A0D3BDD3C9E1D0E067E470E088E459
:1003D00090E015D4AA2797FDA095BA2F40919403D9
:1003E000509195036091960370919703480F591FA0
:1003F0006A1F7B1F40939403509395036093960369
:10040000709397032FEF81EE94E02150804090404D
:10041000E1F700C000002197C1F66091940370914C
:100420009503809196039091970329E130E040E095
:1004300050E00E94F216209394033093950340936A
:100440009603509397038CE793E00E94530A85ED3F
:1004500092E00E94570D8FE39CE90197F1F700C0ED
:100460000000609180004AE050E08EE794E00E9436
:100470006612609181004AE050E08EE794E00E94AD
:1004800066126091A0004AE050E08EE794E00E947E
:1004900066126091A1004AE050E08EE794E0DF919F
:1004A000CF911F910F91FF90EF90DF90CF900C9420
:1004B000661280EB93E0F1D584E993E0FDD68CE7FA
:1004C00093E0A8D782E693E00E94110C81E693E0C6
:1004D0000E94E20C66E172E08DE193E00E94120C52
:1004E00062E072E089ED92E00E94120C85ED92E0EC
:1004F0000E94560D86EA92E00C94810D6091AE0246
:100500007091AF028091B0029091B1020E94731578
:1005100086EA92E00E94880D86EA92E00E94A80D89
:1005200060E081E693E00E94360DBC018DE193E02E
:100530000E94370C61E081E693E00E94360DBC0119
:1005400089ED92E00E94370C84E993E0CFD6809148
:10055000A102992787FD9095A92FB92F8A3091057F
:1005600008F092C0FC01EE58FF4F0C940E1780EB80
:1005700093E036D68CE793E00E94FE0A65E372E0D2
:100580008EE794E00E94841160917C0370917D035A
:100590004AE050E08EE794E00E943D1263E472E08E
:1005A0008EE794E00E94841160917E0370917F0336
:1005B0004AE050E08EE794E00E9444126DC060EB88
:1005C00073E08DE193E004C060EB73E089ED92E0AD
:1005D0000E94D80C61C024E933E049ED52E06DE19E
:1005E00073E08CE793E00E94070B892B09F454C059
:1005F00060E070E08CE793E00E940B0C4DC082E05D
:1006000090E0909385038093840324E933E049EDDF
:1006100052E06DE173E08CE793E0F9D784E993E071
:10062000E8D640E050E080EB93E0F2D535C0609131
:10063000A502862F90E09093890080938800109205
:100640008B0010928A009093A9008093A8001092CA
:10065000AB001092AA004AE050E08EE794E00E94BE
:1006600066121AC082E090E005C083E090E002C00C
:1006700084E090E0909381038093800368EC70E0C5
:100680008CE793E0BED708C01092A10264E572E047
:100690008EE794E00E948F112FEF81EE94E02150BD
:1006A00080409040E1F700C000008EE794E00E9497
:1006B0004C132091A2029927222309F4CCC0FC01FB
:1006C000BD97ED30F10508F08BC0E458FF4F0C9456
:1006D0000E178091000290910102919581959109E8
:1006E000909301028093000208952091A30230911B
:1006F000A4024AE0429FC001439F900D112401963D
:100700000BC02091A3023091A4024AE0429FC00195
:10071000439F900D112402969093A4028093A3020C
:1007200008952091A3023091A4024AE0429FC001A3
:10073000439F900D11240396EFCF2091A302309197
:10074000A4024AE0429FC001439F900D11240496E9
:10075000E3CF2091A3023091A4024AE0429FC0015E
:10076000439F900D11240596D7CF2091A30230917D
:10077000A4024AE0429FC001439F900D11240696B7
:10078000CBCF2091A3023091A4024AE0429FC00146
:10079000439F900D11240796BFCF2091A302309163
:1007A000A4024AE0429FC001439F900D1124089685
:1007B000B3CF2091A3023091A4024AE0429FC0012E
:1007C000439F900D11240996A7CF2091A302309149
:1007D000A4024AE0429FC001439F900D11249CCF88
:1007E0008091A0028F5F8093A00284300CF4B7C088
:1007F0008091A3029091A4022CE0289FA001299F40
:10080000500D11242091000230910102429FC0013D
:10081000439F900D529F900D1124AA2797FDA095FC
:10082000BA2F8093A0039093A103A093A203B09347
:10083000A30381E090E09093010280930002109264
:10084000A4021092A3021092A20285E08093A1025A
:100850001092A00208958236910509F463C044F510
:100860008533910509F452C08CF48233910509F463
:1008700047C024F4C19709F441C00895833391051A
:1008800009F440C0C49709F43FC008958833910526
:1008900009F442C034F486339105D1F1C797D1F100
:1008A000089589339105D1F181369105C9F10895F3
:1008B0008736910509F440C05CF484369105B1F1A6
:1008C0009CF185369105A1F18636910599F108953F
:1008D0008237910509F440C03CF48836910571F1E6
:1008E0008D36910599F108958337910521F0873769
:1008F000910541F108951092A102089581E01FC071
:1009000082E01DC083E01BC084E019C085E017C0F1
:1009100086E015C087E013C088E011C089E00FC0F1
:100920008AE00DC08BE00BC08CE009C08DE007C0F1
:100930008EE005C08FE003C080E101C081E18093BB
:10094000A10208958091A5028F5F03C08091A50246
:1009500081508093A502089581E08093A2020895BA
:100960008091E50390E02091E603821B91090895B0
:100970002091E6038091E503281750F4E22FF0E080
:10098000E951FC4F808190E02F5F2093E6030895AA
:100990008FEF9FEF0895E091E6038091E503E8175C
:1009A00030F4F0E0E951FC4F808190E008958FEF42
:1009B0009FEF08950895CF92DF92EF92FF920F93E9
:1009C0001F93CF93DF937C01CB018A012091C10358
:1009D000222389F0EB016B01C40ED51ECC15DD0579
:1009E00061F06991D701ED91FC910190F081E02DCA
:1009F000C7011995F3CF642FF9D1C801DF91CF91C9
:100A00001F910F91FF90EF90DF90CF900895CF93BB
:100A1000DF931F92CDB7DEB769832091C1032223F4
:100A2000D1F02091C203203240F021E030E0FC01FF
:100A30003383228380E090E014C08091C303E82FC9
:100A4000F0E0EC53FC4F998190838F5F8093C30358
:100A50008093C20304C061E0CE010196C7D181E05A
:100A600090E00F90DF91CF910895FC0113821282E4
:100A700048EE53E060E070E04483558366837783FB
:100A800080E692E09183808308951092E6031092AD
:100A9000E5031092C3031092C203F3C0862F4132C4
:100AA00008F040E267EE73E00AD11092E60380930B
:100AB000E5030895F3CF81E08093C1036093E403DD
:100AC0001092C3031092C2030895F5CF0F93062F1F
:100AD00021E04091C20364EC73E08091E40333D1E0
:100AE0001092C3031092C2031092C1030F91089594
:100AF00085EB93E0BACFDC01ED91FC910190F081A0
:100B0000E02D19940F931F93CF93DF938C01EB018A
:100B100069E670E085EB93E0D8DFB80185EB93E000
:100B2000EADFBE0185EB93E0E6DF61E085EB93E071
:100B3000CDDF81E090E0DF91CF911F910F9108957B
:100B400060E070E08AE090E0DDDF6FE070E08AE076
:100B500090E0D8DF60E070E08AE090E0D3DF60E40E
:100B600070E084E290E0CEDF6CE870E085E290E037
:100B7000C9DF62E070E086E290E0C4DF68E870E020
:100B800087E290E0BFDF6CE070E088E290E0BADFDF
:100B90006AE070E089E290E0B5DF61E870E08AE247
:100BA00090E0B0DF61E070E084E690E0ABDF63E00E
:100BB00070E087E690E0A6DF60E870E081E090E01A
:100BC000A1DF64E070E084E390E09CDF60E070E02F
:100BD00084E690E097DF60E070E08AE690E092DFE4
:100BE00061E070E084E690E08DDF60E270E08AE62C
:100BF00090E088DF63E170E084E390E083CF0F93BF
:100C00001F93CF93DF938C01EB0169E670E085EBD6
:100C100093E05BDFB80185EB93E06DDF60E085EB8F
:100C200093E054DF21E030E041E050E069E670E01D
:100C300085EB93E03FDF85EB93E09ADE182F69E6C2
:100C400070E085EB93E041DFBE0185EB93E053DF7D
:100C500060E085EB93E03ADF21E030E041E050E0F6
:100C600069E670E085EB93E025DF85EB93E080DEBD
:100C7000982F8827810F911DDF91CF911F910F91A0
:100C800008951092740481E08093720410927104AC
:100C900061E084E10E94111161E085E10E9411117F
:100CA000E9EBF0E080818E7F808380818D7F80837F
:100CB00088E48093B80085E48093BC0008954132B5
:100CC00008F03FC0909174049111FCCF91E0909393
:100CD0007404209372042FEF2093070410924C04A5
:100CE000240F20934B049093730490917304880F06
:100CF000892B8093730480917104813041F41092A8
:100D00007104809173048093BB0085EC01C085EE73
:100D10008093BC00809174048130E1F380914C0495
:100D2000841710F440914C042DE434E0FB01D90108
:100D30008A2F821B841718F48D918193F9CF842F09
:100D4000089580E008950F93413208F046C09091D5
:100D500074049111FCCF92E0909374040093720498
:100D60009FEF9093070410924C0440934B04FB01B7
:100D70006DE474E0DB019A2F961B941718F491919F
:100D80009D93F9CF1092730490917304880F892B6F
:100D90008093730480917104813041F41092710446
:100DA000809173048093BB0085EC01C085EE809335
:100DB000BC00222321F0809174048230E1F3809101
:100DC00007048F3F61F080910704803251F08091D9
:100DD0000704803341F483E007C081E005C080E070
:100DE00003C082E001C084E00F910895613298F45D
:100DF00020917404243089F460932904FC018BE26F
:100E000094E0DC012A2F281B261718F421912D933A
:100E1000F9CF80E0089581E0089582E0089585ED9E
:100E20008093BC008091BC0084FDFCCF10927404C0
:100E3000089585EC8093BC001092740408951F926D
:100E40000F920FB60F9211240BB60F922F933F9370
:100E50004F935F936F937F938F939F93AF93BF93C2
:100E6000EF93FF938091B900887F803609F49CC08E
:100E700068F5883209F45BC090F4803109F454C0FD
:100E800038F4882309F4F3C0883009F44DC0F2C067
:100E9000883109F44CC0803209F45DC0EBC0803465
:100EA00009F468C048F4803309F455C0883309F068
:100EB000E1C080930704A7C0803509F44FC088358E
:100EC00009F45DC0883409F0D5C0D3C0883909F46D
:100ED000C4C0A8F4883709F467C038F4883609F428
:100EE00063C0803709F460C0C5C0883809F4B5C054
:100EF000803909F45FC0803809F0BCC05BC0803B1A
:100F000009F483C038F4803A09F466C0883A09F4D9
:100F10007CC0B0C0803C09F4A4C0883C09F4A1C0E6
:100F2000883B09F487C0A6C08091730410C09091DB
:100F30004C0480914B04981770F5E0914C0481E0CB
:100F40008E0F80934C04F0E0E35BFB4F8081809335
:100F5000BB0085EC83C0809307048BC0E0914C04F8
:100F600081E08E0F80934C048091BB00F0E0E35B46
:100F7000FB4F808390914C0480914B046BC0E091B7
:100F80004C0481E08E0F80934C048091BB00F0E014
:100F9000E35BFB4F80838091720481116AC081E022
:100FA0008093710484EA5EC083E08093740410929D
:100FB0000804CFCF80910804803208F04EC0E09141
:100FC000080481E08E0F809308048091BB00F0E05C
:100FD000E75FFB4F8083BDCF80910804803230F4FF
:100FE000E0910804F0E0E75FFB4F108218DF6091AA
:100FF000080470E0E0916D04F0916E0489E094E0E3
:1010000019951092080415DF35C084E080937404AC
:1010100010922A0410922904E0916F04F091700458
:10102000199580912904811105C081E080932904DC
:1010300010922B04E0912A0481E08E0F80932A0401
:10104000F0E0E55DFB4F80818093BB0090912A0426
:1010500080912904981708F47CCF85E88093BC0020
:1010600009C085EC8093BC001092740403C01092F8
:101070000704D5DEFF91EF91BF91AF919F918F91C2
:101080007F916F915F914F913F912F910F900BBE88
:101090000F900FBE0F901F901895FC0114821382C1
:1010A00087B18C6187B90895FC0183819481813077
:1010B000910531F0029739F480818068808303C004
:1010C0008181806881834298449800000000439A9F
:1010D00000000000000000000000429A0000000034
:1010E00020E030E0439842980000000048B1808141
:1010F00090E0022E02C0959587950A94E2F78170E0
:10110000992773E0880F991F7A95E1F7482B48B922
:1011100000000000000000000000429A00000000F3
:101120002F5F3F4F28303105E9F620E030E043984B
:1011300042980000000048B1818190E0022E02C078
:10114000959587950A94E2F78170992763E0880F57
:10115000991F6A95E1F7482B48B90000000000008C
:1011600000000000429A000000002F5F3F4F28302F
:101170003105E9F620E030E0439842980000000095
:1011800048B1828190E0022E02C0959587950A941D
:10119000E2F78170992753E0880F991F5A95E1F77C
:1011A000482B48B900000000000000000000429AEF
:1011B000000000002F5F3F4F28303105E9F68BE03B
:1011C000429800000000439A000000000000000068
:1011D0000000429A00000000815091F7449A08955F
:1011E000FF920F931F93CF93DF93EC01F880098157
:1011F0001A81188219821A8257DF1C821B82F88298
:1012000009831A83DF91CF911F910F91FF90089569
:101210000F931F93CF93DF93FC0154834383683E66
:1012200083E07807DCF49B016933AFEF7A0714F4AD
:1012300029E33FEF01E010E02617370709F400E04B
:1012400037FF10C02C39BFEF3B0714F486E401C010
:1012500080E480833195219531090FC027EE33E07A
:1012600001E010E0C90164E670E00E94BD16645917
:101270007D4FDB0111968C918083CAE0D0E0C901DB
:10128000BE010E94BD169C01CB01BE010E94BD168D
:1012900084599D4FDC0111968C918183D901A45909
:1012A000BD4F11968C918283CF01FEDEC801DF9184
:1012B000CF911F910F910895FC011482158216821F
:1012C0001782108611861286138614861586168656
:1012D0001786108A118A128A138A148A158A168A26
:1012E000178A108E118E128E138E08954F925F9270
:1012F0006F927F928F929F92AF92BF92CF92DF9226
:10130000EF92FF92CF93DF93EC01488559856A8570
:101310007B854C835D836E837F8367E470E088E424
:1013200090E06DDCAC01662757FD6095762F48870D
:1013300059876A877B874C895D896E897F89488B4D
:10134000598B6A8B7B8BACD62B013C016C8B7D8BD4
:101350008E8B9F8BC884D984EA84FB848880998093
:10136000AA80BB80C701B601681979098A099B095F
:1013700024E630E040E050E00E94F216D501C401BE
:101380000596A11DB11D8C159D05AE05BF0554F038
:1013900085E0881A9108A108B108C814D904EA04A4
:1013A000FB0464F48C859D85AE85BF85820F931FF9
:1013B000A41FB51F8C879D87AE87BF874889598931
:1013C0006A897B89441A550A660A770A488E598EBB
:1013D0006A8E7B8EDF91CF91FF90EF90DF90CF9060
:1013E000BF90AF909F908F907F906F905F904F9045
:1013F0000895FC018485958523E0880F991F2A951F
:10140000E1F7608D718D0E94BD16882777FD80956C
:10141000982F0895CF93DF93EC011D821C821F82C9
:101420001E82198618863CD66A877B878C879D87A3
:101430001E861F86188A198A1A8A1B8A1D8A1C8A88
:101440001F8A1E8AE1E0F1E08081886080838081CC
:1014500080618083259A269A8FEF90E09093870091
:101460008093860032EA3093800029E12093810046
:10147000109289001092880010928B0010928A00BE
:101480009093A7008093A6003093A0002093A10022
:101490001092A9001092A8001092AB001092AA001E
:1014A000DF91CF910895E1E0F1E080818860808351
:1014B000808180618083259A269A8FEF90E09093B7
:1014C00087008093860032EA3093800029E12093E0
:1014D0008100109289001092880010928B00109267
:1014E0008A009093A7008093A6003093A0002093D9
:1014F000A1001092A9001092A8001092AB001092C7
:10150000AA000895FC018091020188608093020185
:101510008FE193E00197F1F700C000008091020194
:10152000877F809302017583648346815781248974
:101530003589240F351F86899789840F951F62305E
:101540007105D1F184F461157105E1F06130710527
:1015500009F043C0309389002093880010928B00DB
:1015600010928A0024C063307105C9F0643071059F
:10157000A1F5309389002093880010928B0010927F
:101580008A0022C0309389002093880030938B001A
:1015900020938A009093A9008093A80019C010920C
:1015A00089001092880030938B0020938A009093DA
:1015B000A9008093A8001DC0109289001092880095
:1015C00030938B0020938A001092A9001092A800FB
:1015D0009093AB008093AA00089510928900109216
:1015E000880010928B0010928A001092A90010922D
:1015F000A8001092AB001092AA00089560E070E07D
:1016000081CFFC0177836683648175817BCF8F9264
:101610009F92AF92BF92CF92DF92EF92FF920F9381
:101620001F93CF93DF93EC017901888199812A81FF
:101630003B81821B930B9C012F5F3F4F2330310571
:1016400060F02C893D89181619061CF42E5F3F4F57
:1016500002C0225031093D8B2C8B198218821B82CB
:101660001A82088519850130110509F483C024F414
:101670000115110519F1BFC00230110509F495C01B
:101680000330110509F0B7C0CE01B8DF09D50A85CE
:101690001B852C853D85601B710B820B930B0E8582
:1016A0001F8528893989601771078207930708F415
:1016B000A2C01986188681E08B8B9DC0FA01E05C80
:1016C000FF4FA080B180FB01E05CFF4F20813181A2
:1016D0008A89273E310544F1992787FD9095019627
:1016E00022E0C22ED12CB6010E94BD168A8B88241E
:1016F0008394912C9D828C8268E970E0CE0181DF19
:101700008A8997EEA916B104ECF0992787FD909588
:101710000196B6010E94BD168A8B9D828C8268E973
:1017200070E0CE016EDF69C08823D1F08130E9F42A
:1017300088EC9BEFAFEFBFEFF70184879587A68713
:10174000B78713C0882361F0813079F448EC5BEFF0
:101750006FEF7FEFF701448755876687778705C06E
:1017600088E394E0A0E0B0E0E7CF82E090E09987E2
:10177000888743C0FB01E05CFF4FE080F180FA0105
:10178000E05CFF4F0081118168E970E0CE0139DF34
:10179000F7E9EF16F1047CF10739110564F11B8AB2
:1017A0001D821C821986188626C0C70122DE61159B
:1017B000710551F41D821C8260E070E0CE0121DFD2
:1017C0001B8A01E010E019C077FF0AC083E090E0B7
:1017D0009D838C83673F7F4F54F064E970E009C0BC
:1017E00084E090E09D838C836A307105B4F368E9EE
:1017F00070E0CE0106DF00E010E0C801DF91CF917C
:101800001F910F91FF90EF90DF90CF90BF90AF901E
:101810009F908F900895FC017187608760E070E071
:1018200071CE0895FC01B89624E1DF011D922A953E
:10183000E9F7FC0115AE14AE17AE16AEE05CFF4F33
:1018400011821082329611821082DB01FC012BE49E
:1018500030E08D919D9191838083338322833496F0
:10186000275E3F4F253481E0380799F708950F939D
:101870001F93CF93DF93FC018B0124AD35ADE901BC
:101880002196D5AFC4AFC9016AE070E00E94BD16D1
:101890004496880F991F8E0F9F1FDC010D931C9398
:1018A000DF01AE5BBF4F0D931C93659724F0295069
:1018B000310935AF24AF17AE16AE20E030E040E07E
:1018C00050E0DF01A20FB31F98968D919C919997DC
:1018D000840F951F2E5F3F4F2431310511F0AC016D
:1018E000F0CF64AD75AD6B30710514F06AE070E057
:1018F0000E94BD1677AF66AF8081918186179707EA
:101900000CF448C0DF0120E030E0CD91DC9111976C
:10191000C617D707BCF114964D915C9115976417C3
:10192000750784F18E01061B170BD9011396AA0FB8
:10193000BB1FAE0FBF1F0D90BC91A02D0A9FC00111
:101940000B9F900D1A9F900D1124641B750BD901EC
:101950001196AA0FBB1FAE0FBF1F0D90BC91A02DFB
:101960006A9F90016B9F300D7A9F300D1124820F7A
:10197000931FBE01641B750B0E94BD166115710596
:1019800061F00DC014962E5F3F4F2231310509F0F2
:10199000BCCF03C066EF7FEF02C067EE73E0E05C90
:1019A000FF4F71836083DF91CF911F910F91089555
:1019B0009B01805C9F4FFC016081718141E050E0A0
:1019C000C90126CC809164008E7F80936400809151
:1019D0007A00876880937A0080917C008F7780936B
:1019E0007C0080917C00806480937C0080917C00EE
:1019F0008E7F80937C0080917C00826080937C004D
:101A000080917C008B7F80937C0080917C00877F1D
:101A100080937C0080917C008F7E80937C008091FD
:101A20007C008F7D80937C0080917B008E7F8093F3
:101A30007B0080917B008D7F80937B0080917B0079
:101A40008B7F80937B0080917A00806480937A0002
:101A500080917A0084FFFCCF80917A00806180932E
:101A60007A008091780080917900089580917C00BF
:101A7000807C80937C0080917C006F73682B6093E6
:101A80007C0080917A00806480937A0080917A0053
:101A900084FFFCCF80917A00806180937A008091EE
:101AA00078002091790090E0922B08950895CF93CB
:101AB000DF93F8945A9AC9E6D0E0888180628883DF
:101AC00067E772E08EE794E01FD468814AE050E057
:101AD0008EE794E0FBD484E08CBBEA9A7894E5E04E
:101AE000F1E0808181608083ECE6F0E080818260BB
:101AF0008083E8E6F0E0808182608083DF91CF918F
:101B0000089528EE33E0FC0135A324A316A608951A
:101B1000CF93DF93EC01882777FD8095982F0E9463
:101B2000A6156C837D838E839F83DF91CF9108956B
:101B3000CF93DF93EC01882777FD8095982F0E9443
:101B4000A6156C877D878E879F87DF91CF9108953B
:101B50004F925F926F927F928F929F92AF92BF92BD
:101B6000CF92DF92EF92FF920F931F93CF93DF9369
:101B7000CDB7DEB72C970FB6F894DEBF0FBECDBF42
:101B80008C018ED269837A838B839C83D8018D915B
:101B90009C91119729813A81281B390B94968D913C
:101BA0009C919597281739070CF4B1C014968D9025
:101BB0009D90AD90BC901797A50194011C966D91D6
:101BC0007D918D919C911F97BDD66D837E838F8370
:101BD0009887F801248D358D468D578D0E945A16B1
:101BE000D80150962D913D914D915C915397ABD674
:101BF0006B017C01F801608B718B828B938B42A40B
:101C000053A464A475A4A30192010E945616D8019E
:101C100018163CF450964D925D926D927C925397BB
:101C20001AC096968D919D910D90BC91A02D89879B
:101C30009A87AB87BC879C01AD01C701B601E7D687
:101C400087FF09C089859A85AB85BC85F801808BA3
:101C5000918BA28BB38BD80158962D913D914D91CC
:101C60005C915B976D817E818F8198850E945A1669
:101C7000F801208931894289538965D66B017C013D
:101C8000D80154962D913D914D915C915797C50186
:101C9000B40158D6F80120A131A142A153A10E945C
:101CA0005A169B01AC01C701B6014CD66B017C01F1
:101CB000D80118966D937D938D939C931B97A301E8
:101CC0009201F4D7181674F0D80196964D905D9055
:101CD0006D907C909997A3019201C701B60197D6A8
:101CE00087FF05C0F8014086518662867386D80159
:101CF00054968D929D92AD92BC92579789819A810C
:101D0000AB81BC81F80180839183A283B3832C963D
:101D10000FB6F894DEBF0FBECDBFDF91CF911F91FC
:101D20000F91FF90EF90DF90CF90BF90AF909F907A
:101D30008F907F906F905F904F9008952F923F9279
:101D40004F925F926F927F928F929F92AF92BF92CB
:101D5000CF92DF92EF92FF920F931F93CF93DF9377
:101D600000D01F92CDB7DEB71C0149835A836B8325
:101D70007C8328013901DC0194966D917C919597C3
:101D8000882777FD8095982FE1D620E030E04AE75C
:101D900054E441D64B015C0189819A81AB81BC81BD
:101DA000F101808F918FA28FB38FA5019401C301A0
:101DB000B20180D7D1015C966D937D938D939C93F6
:101DC0005F97A5019401C701B60125D6F10160A373
:101DD00071A382A393A30F900F900F900F90DF91A8
:101DE000CF911F910F91FF90EF90DF90CF90BF9018
:101DF000AF909F908F907F906F905F904F903F90AB
:101E00002F900895CF92DF92EF92FF920F931F933E
:101E1000CF93DF93EC018B01161617066CF588271C
:101E200077FD8095982F92D66B017C016CA17DA1E6
:101E3000882777FD8095982F89D69B01AC01C70133
:101E4000B601E9D56B017C019B01AC016C8D7D8DE8
:101E50008E8D9F8D2FD76C8F7D8F8E8F9F8FA7013B
:101E6000960168A179A18AA19BA1D5D568A379A380
:101E70008AA39BA31DA30CA3DF91CF911F910F9168
:101E8000FF90EF90DF90CF9008954F925F926F9206
:101E90007F928F929F92AF92BF92CF92DF92EF92FA
:101EA000FF920F931F93CF93DF93EC016A017B01A5
:101EB00048015901A9019801C701B601F7D61816C2
:101EC0000CF43EC0CEA2DFA2E8A6F9A68AA69BA685
:101ED000ACA6BDA6488459846A847B84A50194017C
:101EE000C301B201E3D618162CF488869986AA8617
:101EF000BB860BC0A7019601C301B20188D587FF3D
:101F000004C0C886D986EA86FB86488859886A88CC
:101F10007B88A5019401C301B201C8D618162CF420
:101F2000888A998AAA8ABB8A0BC0A7019601C30135
:101F3000B2016DD587FF04C0C88AD98AEA8AFB8AB4
:101F4000DF91CF911F910F91FF90EF90DF90CF9095
:101F5000BF90AF909F908F907F906F905F904F90C9
:101F600008958F929F92AF92BF92CF92DF92EF929D
:101F7000FF92CF93DF93EC018C819D81AE81BF8175
:101F80008C8B9D8BAE8BBF8BC884D984EA84FB84F9
:101F9000C88AD98AEA8AFB8A8AA49BA4ACA4BDA475
:101FA000A5019401C701B60181D618165CF08EA078
:101FB0009FA0A8A4B9A4A5019401C701B60127D583
:101FC00087FF04C0888A998AAA8ABB8ADF91CF9149
:101FD000FF90EF90DF90CF90BF90AF909F908F9049
:101FE00008951F93CF93DF93EC0111E061307105E9
:101FF00009F010E08EA591E08927181302C0CE01E8
:10200000B0DF1EA7DF91CF911F9108951F920F920D
:102010000FB60F9211242F933F938F939F93AF93FB
:10202000BF938091760490917704A0917804B09149
:1020300079043091750423E0230F2D3720F40196A5
:10204000A11DB11D05C026E8230F0296A11DB11DDB
:10205000209375048093760490937704A09378047A
:10206000B093790480917A0490917B04A0917C04D0
:10207000B0917D040196A11DB11D80937A049093C7
:102080007B04A0937C04B0937D04BF91AF919F919A
:102090008F913F912F910F900FBE0F901F90189529
:1020A0002FB7F8946091760470917704809178044A
:1020B000909179042FBF0895789484B5826084BD8F
:1020C00084B5816084BD85B5826085BD85B581603C
:1020D00085BDEEE6F0E0808181608083E1E8F0E09C
:1020E0001082808182608083808181608083E0E8CB
:1020F000F0E0808181608083E1EBF0E080818460AA
:102100008083E0EBF0E0808181608083E1E9F0E0B2
:10211000808182608083808181608083E0E9F0E05B
:10212000808181608083E1EAF0E080818260808349
:10213000808181608083E0EAF0E08081816080833B
:10214000E1E2F1E080818260808380818160808330
:10215000E0E2F1E0808181608083EAE7F0E0808165
:1021600084608083808182608083808181608083BD
:102170008081806880831092C100089590E0FC0106
:102180003197E231F10508F04BC0E757FF4F46C6E3
:10219000809180008F7703C0809180008F7D809335
:1021A0008000089580918000877FF9CF84B58F7774
:1021B00002C084B58F7D84BD08958091B0008F7773
:1021C00003C08091B0008F7D8093B000089580910E
:1021D00090008F7707C0809190008F7D03C0809121
:1021E0009000877F8093900008958091A0008F7762
:1021F00007C08091A0008F7D03C08091A000877FE1
:102200008093A0000895809120018F7707C080916E
:1022100020018F7D03C080912001877F8093200162
:1022200008950F931F93CF93DF931F92CDB7DEB71F
:10223000282F30E0F901EA5CFE4F8491F901E4585F
:10224000FE4F1491F901EE53FE4F04910023C1F0AB
:10225000882319F0698392DF6981E02FF0E0EE0FA7
:10226000FF1FE85FFD4FA591B4919FB7F8948C9143
:10227000611103C01095812301C0812B8C939FBFF6
:102280000F90DF91CF911F910F910895CF92DF9220
:10229000EF92FF920F931F93CF93DF936C017A011C
:1022A000EB01E60EF71E00E010E0CE15DF0561F051
:1022B0006991D601ED91FC910190F081E02DC6016C
:1022C0001995080F191FF1CFC801DF91CF911F9108
:1022D0000F91FF90EF90DF90CF90089561157105F9
:1022E00081F0DB010D900020E9F7AD01415051096B
:1022F000461B570BDC01ED91FC910280F381E02D30
:10230000199480E090E00895E9CFDC01ED91FC9113
:102310000190F081E02D19946EE772E0DFCF0F930A
:102320001F93CF93DF93EC01D9DF8C01CE01F4DF53
:10233000800F911FDF91CF911F910F9108958F9280
:102340009F92AF92BF92CF92DF92EF92FF920F9344
:102350001F93CF93DF93CDB7DEB7A1970FB6F89455
:10236000DEBF0FBECDBF7C01C42EE52FCB01D22E28
:1023700019A221E02D1510F02AE0D22E8E010F5D5A
:102380001F4F8D2C912CA12CB12C6C2D7E2FA501D3
:10239000940106D58C2DD29E80191124015011096B
:1023A0008A3014F4805D01C0895CF80180832115B6
:1023B00031054105510521F0C22EE32FCA01E5CFB9
:1023C000B801C7018BDFA1960FB6F894DEBF0FBE30
:1023D000CDBFDF91CF911F910F91FF90EF90DF90D4
:1023E000CF90BF90AF909F908F900895CF92DF9243
:1023F000EF92FF920F931F93CF93DF93EC016A014B
:102400007B012115310579F4E881F9810190F08192
:10241000E02D642FDF91CF911F910F91FF90EF90EE
:10242000DF90CF9019942A303105D9F477FF18C086
:102430006DE26BDF8C0144275527BA014C195D0909
:102440006E097F092AE0CE017ADF800F911FDF91AC
:10245000CF911F910F91FF90EF90DF90CF90089553
:102460002AE0B701A601CE01DF91CF911F910F9114
:10247000FF90EF90DF90CF9062CF9A01AB0166277B
:1024800057FD6095762FB2CF0F931F93CF93DF93B5
:10249000EC019A01AB01662757FD6095762FA6DF08
:1024A0008C01CE0139DF800F911FDF91CF911F91F9
:1024B0000F9108952115310541F4DC01ED91FC9156
:1024C0000190F081E02D642F199439CF0F931F9361
:1024D000CF93DF93EC019A01462F50E060E070E06B
:1024E000E9DF8C01CE0118DF800F911FDF91CF91C2
:1024F0001F910F9108951F920F920FB60F92112402
:102500000BB60F922F938F939F93EF93FF93E091CE
:102510008E04F0918F048081E0919404F0919504F1
:1025200082FD12C09081809197048F5F8F732091FC
:102530009804821751F0E0919704F0E0E258FB4FC5
:10254000958F8093970401C08081FF91EF919F91B7
:102550008F912F910F900BBE0F900FBE0F901F9079
:1025600018951F920F920FB60F9211240BB60F926F
:102570002F933F934F935F936F937F938F939F938B
:10258000AF93BF93EF93FF938EE794E0D5D0FF9185
:10259000EF91BF91AF919F918F917F916F915F91DB
:1025A0004F913F912F910F900BBE0F900FBE0F9048
:1025B0001F9018958EE794E056D021E0892B09F4FE
:1025C00020E0822F0895109281041092800488EEFA
:1025D00093E0A0E0B0E08093820490938304A09302
:1025E0008404B093850483E992E090937F04809300
:1025F0007E0485EC90E090938B0480938A0484ECB5
:1026000090E090938D0480938C0480EC90E0909304
:102610008F0480938E0481EC90E0909391048093DA
:10262000900482EC90E0909393048093920486EC63
:1026300090E09093950480939404109297041092E4
:1026400098041092990410929A040895089534DD24
:10265000FDDF0E948001C0E6D3E10E947E02209748
:10266000E1F32ED0FACFFC01818D228D90E0805CC9
:102670009F4F821B91098F7399270895FC01918DBB
:10268000828D981731F0828DE80FF11D858D90E0D5
:1026900008958FEF9FEF0895FC01918D828D98171B
:1026A00061F0828DDF01A80FB11D5D968C91928D36
:1026B0009F5F9F73928F90E008958FEF9FEF089533
:1026C0008AED92E1892B39F080E090E0892B19F0B6
:1026D00071DF811125C080E090E0892B41F080E01E
:1026E00090E0892B21F00E94000081111CC080E045
:1026F00090E0892B41F080E090E0892B21F00E944E
:102700000000811113C080E090E0892BA1F080E0EF
:1027100090E0892B81F00E94000081110AC0089589
:102720000E940000D8CF0E940000E1CF0E9400006C
:10273000EACF0C9400000895FC01848DDF01A80FFE
:10274000B11DA35ABF4F2C91848D90E001968F73D9
:102750009927848FA689B7892C93A089B1898C91F8
:1027600080648C93938D848D981306C00288F389BE
:10277000E02D80818F7D80830895CF93DF93EC01DE
:10278000888D8823C1F0EA89FB89808185FD05C099
:10279000A889B9898C9186FD0EC00FB607FCF5CFCC
:1027A000808185FFF2CFA889B9898C9185FFEDCF13
:1027B000CE01C2DFE8CFDF91CF910895CF92DF92B3
:1027C000FF920F931F93CF93DF931F92CDB7DEB786
:1027D0006C0181E0D60158968C9358975B969C913A
:1027E0005B975C968C915C97981307C05096ED911F
:1027F000FC915197808185FD2DC0F601038D10E07D
:102800000F5F1F4F0F731127F02EF601848DF81202
:1028100010C00FB607FCF9CFD6015096ED91FC9190
:102820005197808185FFF1CFC601698385DF69817A
:10283000ECCF838DE80FF11DE35AFF4F6083D60183
:102840005B960C935B975296ED91FC915397808128
:1028500080620CC0D6015696ED91FC91579760832B
:102860005096ED91FC91519780818064808381E046
:1028700090E00F90DF91CF911F910F91FF90DF902B
:10288000CF900895BF92CF92DF92EF92FF92CF93B5
:10289000DF93EC016A017B01B22EE889F98982E0BD
:1028A0008083411581EE58076105710599F060E05C
:1028B00079E08DE390E0A701960172D221503109B1
:1028C000410951095695479537952795211580E17E
:1028D000380790F0E889F989108260E874E88EE1A1
:1028E00090E0A70196015CD22150310941095109BC
:1028F0005695479537952795EC85FD853083EE8570
:10290000FF852083188EEC89FD89B082EA89FB89D6
:10291000808180618083EA89FB89808188608083EF
:10292000EA89FB89808180688083EA89FB898081CC
:102930008F7D8083DF91CF91FF90EF90DF90CF90DC
:10294000BF9008955058BB27AA270ED075C166D1F5
:1029500030F06BD120F031F49F3F11F41EF45BC1D5
:102960000EF4E095E7FB51C1E92F77D180F3BA1758
:10297000620773078407950718F071F49EF58FC1FD
:102980000EF4E0950B2EBA2FA02D0B01B90190018A
:102990000C01CA01A0011124FF27591B99F0593FCE
:1029A00050F4503E68F11A16F040A22F232F342F16
:1029B0004427585FF3CF469537952795A795F04064
:1029C0005395C9F77EF41F16BA0B620B730B840B79
:1029D000BAF09150A1F0FF0FBB1F661F771F881F31
:1029E000C2F70EC0BA0F621F731F841F48F4879589
:1029F00077956795B795F7959E3F08F0B3CF939578
:102A0000880F08F09927EE0F979587950895D9D0EC
:102A100008F481E008950CD00FC107D140F0FED03A
:102A200030F021F45F3F19F0F0C0511139C1F3C00B
:102A300014D198F39923C9F35523B1F3951B550B82
:102A4000BB27AA2762177307840738F09F5F5F4F81
:102A5000220F331F441FAA1FA9F333D00E2E3AF0C2
:102A6000E0E830D091505040E695001CCAF729D0DC
:102A7000FE2F27D0660F771F881FBB1F261737072B
:102A80004807AB07B0E809F0BB0B802DBF01FF275B
:102A900093585F4F2AF09E3F510568F0B6C000C1C1
:102AA0005F3FECF3983EDCF3869577956795B79595
:102AB000F7959F5FC9F7880F911D9695879597F9B0
:102AC0000895E1E0660F771F881FBB1F6217730729
:102AD0008407BA0720F0621B730B840BBA0BEE1F3E
:102AE00088F7E095089504D06894B111D9C008958D
:102AF000BCD088F09F5790F0B92F9927B751A0F01C
:102B0000D1F0660F771F881F991F1AF0BA95C9F781
:102B100012C0B13081F0C3D0B1E00895C0C0672FBA
:102B2000782F8827B85F39F0B93FCCF38695779531
:102B30006795B395D9F73EF490958095709561951A
:102B40007F4F8F4F9F4F0895E89409C097FB3EF445
:102B500090958095709561957F4F8F4F9F4F9923EA
:102B6000A9F0F92F96E9BB279395F6958795779568
:102B70006795B795F111F8CFFAF4BB0F11F460FF28
:102B80001BC06F5F7F4F8F4F9F4F16C0882311F080
:102B900096E911C0772321F09EE8872F762F05C094
:102BA000662371F096E8862F70E060E02AF09A952F
:102BB000660F771F881FDAF7880F9695879597F924
:102BC0000895990F0008550FAA0BE0E8FEEF1616BE
:102BD0001706E807F907C0F012161306E407F50711
:102BE00098F0621B730B840B950B39F40A2661F085
:102BF000232B242B252B21F408950A2609F4A14028
:102C0000A6958FEF811D811D089597F99F6780E834
:102C100070E060E008959FEF80EC089500240A942E
:102C20001616170618060906089500240A941216A7
:102C30001306140605060895092E0394000C11F4DA
:102C4000882352F0BB0F40F4BF2B11F460FF04C087
:102C50006F5F7F4F8F4F9F4F089557FD9058440FE0
:102C6000551F59F05F3F71F04795880F97FB991FEB
:102C700061F09F3F79F087950895121613061406A8
:102C8000551FF2CF4695F1DF08C016161706180635
:102C9000991FF1CF86957105610508940895E89410
:102CA000BB2766277727CB0197F908958ADF08F4B9
:102CB0008FEF08950BD0C0CFB1DF28F0B6DF18F04A
:102CC000952309F0A2CFA7CF1124EACFC6DFA0F346
:102CD000959FD1F3950F50E0551F629FF001729FB1
:102CE000BB27F00DB11D639FAA27F00DB11DAA1FD0
:102CF000649F6627B00DA11D661F829F2227B00D1D
:102D0000A11D621F739FB00DA11D621F839FA00DA7
:102D1000611D221F749F3327A00D611D231F849FF7
:102D2000600D211D822F762F6A2F11249F5750404E
:102D30008AF0E1F088234AF0EE0FFF1FBB1F661FE9
:102D4000771F881F91505040A9F79E3F510570F0A2
:102D50005CCFA6CF5F3FECF3983EDCF3869577958A
:102D60006795B795F795E7959F5FC1F7FE2B880F9D
:102D7000911D9695879597F9089597FB072E16F460
:102D8000009406D077FD08D053D007FC05D03EF460
:102D9000909581959F4F0895709561957F4F089507
:102DA000A1E21A2EAA1BBB1BFD010DC0AA1FBB1F4F
:102DB000EE1FFF1FA217B307E407F50720F0A21BC1
:102DC000B30BE40BF50B661F771F881F991F1A942E
:102DD00069F760957095809590959B01AC01BD0158
:102DE000CF010895052E97FB16F400940FD057FDE0
:102DF00005D0D6DF07FC02D046F408C050954095B8
:102E0000309521953F4F4F4F5F4F08959095809596
:102E1000709561957F4F8F4F9F4F0895EE0FFF1F65
:102E20000590F491E02D19940790F691E02D1994F6
:102E3000AA1BBB1B51E107C0AA1FBB1FA617B707E0
:102E400010F0A61BB70B881F991F5A95A9F78095FC
:0C2E50009095BC01CD010895F894FFCFCF
:102E5C000100FA0190014E011C01FD00E200CD00C1
:102E6C00B900AA009E001001D900B30099008A0095
:102E7C0082007D0076006F006E00303132333435C5
:102E8C003637383900696E746572727570743172C8
:102E9C003A200020202020696E746572727570745F
:102EAC00326C200064656661756C74000000000073
:102EBC000705DB04B004B804CB04DA04463F065B18
:102ECC004F666D7D077F6F454943524120000D0AC7
:102EDC00006E616E00696E66006F7666002E0000F3
:102EEC00000000DE13461133134C133E13BD1300C8
:00000001FF
