:1000000013C1000042C1000040C1000027C200002F
:100010003CC100003AC1000038C1000036C10000F8
:1000200034C1000032C1000056C200002EC10000E1
:100030002CC100002AC1000028C1000026C1000018
:1000400024C1000022C1000020C100001EC1000028
:100050001CC100001AC1000018C100000C9444101B
:1000600014C100000C94F3120C9429130EC100006B
:100070000CC100000AC1000008C1000006C1000058
:1000800004C1000002C1000000C10000FEC0000069
:10009000FCC00000FAC00000F8C000000C94DD08AD
:1000A000F4C00000F2C00000F0C00000EEC000008C
:1000B000ECC00000EAC00000E8C00000E6C000009C
:1000C000E4C00000E2C00000E0C00000DEC00000AC
:1000D000DCC00000DAC00000D8C00000D6C00000BC
:1000E000D4C000000D0419041F04510527043A056B
:1000F0005A0575057705CC050D068A068A067C0625
:10010000190624062F063A06450650065B066606C3
:1001100071061411171106110A1110114E111B113D
:100120001F11251129112D11331137113B114E11BA
:1001300041114511491100000A0B02090C0D0E086E
:1001400007030401000000000000000000000000A0
:10015000000000000000000000000000000000009F
:10016000000012111000000000000000000000005C
:10017000000000000000000000000000010210204C
:1001800020080810204010204080020102010804CD
:100190000201010204081020408080402010080461
:1001A00002018004020180402010080402010804BA
:1001B00002010102040810204080010204081020FE
:1001C0004080050505050705080808080202020227
:1001D0000A0A0808040404040101010101010101E3
:1001E0000303030303030303040707070C0C0C0CAE
:1001F0000C0C0C0C02020202060606060606060697
:100200000B0B0B0B0B0B0B0B000022002500280027
:100210002B002E003100340002010000050108010E
:100220000B018703FC075B1311241FBECFEFD1E244
:10023000DEBFCDBF00E00CBF15E0A0E0B2E0E2EA17
:10024000FAE200E00BBF02C007900D92A836B1079A
:10025000D9F728E0A8E6B5E001C01D92A034B207A6
:10026000E1F712E0C8E2D2E000E006C022970109FF
:10027000FE010BBF0E943715C232D10780E008078C
:10028000A9F70E949F130C944F15BACE7F928F92BC
:100290009F92AF92BF92CF92DF92EF92FF920F9315
:1002A0001F93CF93DF93EC018C010C591F4F7C01FE
:1002B00080E6E80EF11C6E01E2E6CE0ED11C50E2A3
:1002C000A52EB12CF80120813181121613060CF0F5
:1002D00045C0F70180819181F601408151818417E9
:1002E0009507C9F0FE01E80FF91F7080FC017096B8
:1002F000EE0FFF1FEC0FFD1F808091800196B5016E
:100300000E94E014F7019183808321503109F801A4
:100310003183208304C0812C912C86E6782E6CE2F8
:1003200072E083EA97E00E94E913672D83EA97E081
:100330000E94EA136FE574E083EA97E00E94E913F4
:100340004AE050E0B40183EA97E00E94A21461E41D
:1003500072E083EA97E00E94F413B4CFDF91CF916B
:100360001F910F91FF90EF90DF90CF90BF90AF90D3
:100370009F908F907F900895DF92EF92FF920F935E
:100380001F93CF93DF93EC01D62E8A017C0184E684
:10039000E80EF11CF701808191818097F9F464E502
:1003A00072E083EA97E00E94E9136D2D83EA97E0FB
:1003B0000E94EA136FE574E083EA97E00E94E91374
:1003C0004AE050E0B80183EA97E0DF91CF911F91B6
:1003D0000F91FF90EF90DF900C94A91465E872E004
:1003E00083EA97E00E94E9136D2D83EA97E00E946B
:1003F000EA136FE574E083EA97E00E94E9134AE0AC
:1004000050E0B80183EA97E00E94A9149E012E599A
:100410003F4FF90180819181FE01E80FF91FD082E1
:10042000FC017096EE0FFF1FEC0FFD1F1183008380
:10043000019660E270E00E94E014F90191838083EC
:10044000F70180819181019691838083DF91CF9123
:100450001F910F91FF90EF90DF9008951F920F92E0
:100460000FB60F9211240BB60F922F933F934F9319
:100470005F936F937F938F939F93AF93BF93EF930C
:10048000FF9380918E0590918F05019690938F0533
:1004900080938E052091A1063091A20682179307C2
:1004A0003CF081E08093A3068BE996E00E94800DEA
:1004B000FF91EF91BF91AF919F918F917F916F913C
:1004C0005F914F913F912F910F900BBE0F900FBEF8
:1004D0000F901F9018951F920F920FB60F92112434
:1004E0000BB60F922F933F934F935F936F937F932E
:1004F0008F939F93AF93BF93EF93FF93809190055A
:10050000909191050196909391058093900520918B
:10051000A1063091A206821793073CF081E08093F8
:10052000A3068BE996E00E94800DFF91EF91BF91A9
:10053000AF919F918F917F916F915F914F913F917B
:100540002F910F900BBE0F900FBE0F901F9018951C
:1005500062EA72E083EA97E00E94F41366EC72E0CC
:1005600083EA97E00E94F41365ED72E083EA97E076
:100570000E94F4136CEF72E083EA97E00E94F41398
:1005800069E373E083EA97E00E94F41367E773E09E
:1005900083EA97E00E94F41367EA73E083EA97E046
:1005A0000E94F41366EC73E083EA97E00C94F41372
:1005B000CF93DF9326E040E051EE60E070E083EA05
:1005C00097E00E9493122FEF81EE94E0215080403B
:1005D0009040E1F700C0000085ED96E00E94740BAA
:1005E0008AED96E0D6D460E070E08BE690E01AD712
:1005F00037D7C9E1D0E067E470E088E490E08FD7B6
:10060000AA2797FDA095BA2F4091B9065091BA0636
:100610006091BB067091BC06480F591F6A1F7B1F73
:100620004093B9065093BA066093BB067093BC061C
:100630002FEF81EE94E0215080409040E1F700C020
:1006400000002197C1F66091B9067091BA068091B9
:10065000BB069091BC0629E130E040E050E00E94EA
:1006600015152093B9063093BA064093BB065093F4
:10067000BC068BE996E00E94DD0C86E895E00E94BE
:10068000680F8FE39CE90197F1F700C0000064E672
:1006900070E08AE795E00E94A50F60E070E08AE7CD
:1006A00095E00E94AD0F60E270E08AE795E00E945D
:1006B000A90F609102027091030241E082E795E088
:1006C0000E940C1080910202909103029093B00658
:1006D0008093AF0640E050E060E070E082E795E094
:1006E0000E940A108FE39CE90197F1F700C0000017
:1006F0008FE39CE90197F1F700C000006EEF73E013
:1007000083EA97E00E94F413DF91CF9121CF85ED2A
:1007100096E047D789EB96E00E94E00B8BE996E0E4
:100720000E948E0C81E896E00E941F0E80E896E001
:100730000E94F30E10927B0610927A0610927D06AC
:1007400010927C0610927F0610927E0668E172E09D
:1007500086ED95E00E94200E64E072E082E995E06B
:100760000E94200E86E895E00E94670F60910202C9
:100770007091030282E795E00C94E50F5F926F920F
:100780007F928F929F92AF92BF92CF92DF92EF9221
:10079000FF920F931F93CF93DF9300D01F92CDB79B
:1007A000DEB760E080E896E00E94470FBC0186ED6E
:1007B00095E00E94450E61E080E896E00E94470FB8
:1007C000BC0182E995E00E94450E89EB96E00E940B
:1007D000FA0B86E895E00E94890F8C0186E895E087
:1007E0000E948D0FBC01601B710B82E795E00E9497
:1007F000221069837A838B839C8380916D0599276E
:1008000087FD9095A92FB92F8A30910508F0CAC1AC
:10081000FC01EE58FF4F0C94311585ED96E064D73E
:100820008BE996E00E94800D86E895E00E94830F98
:10083000C1C140E065ED76E086ED95E005C040E0A1
:1008400065ED76E082E995E00E94E30EB3C1809108
:100850006905882309F49DC080917A0690917B06F2
:1008600020917C0630917D068217930741F486E63D
:1008700080936C0510926B0510926A0523C0FC01F1
:10088000E65EF94F208120936C05FC01EE0FFF1FFF
:10089000E65CF94F2081318130936B0520936A0526
:1008A000019660E270E00E94E01490937B068093D2
:1008B0007A0680917E0690917F06019790937F063D
:1008C00080937E0686E895E00E94830F1092A3062F
:1008D0001092A40660E080E896E00E94470FBC01F9
:1008E00086ED95E00E94450E61E080E896E00E946A
:1008F000470FBC0182E995E00E94450E80916C058E
:100900008636D1F480916A0590916B05892B09F4A4
:1009100046C160E070E08BE996E00E94190E2091DC
:100920006A0530916B0544E6429FC001439F900DDC
:1009300011246CE270E01BC0823719F562E070E0B0
:100940008BE996E00E94190E20916A0530916B05A3
:100950004AE0429FC001439F900D11248D3D2FEF2F
:10096000920764F421E02093A4066CED7FEF0E94CF
:10097000E0147093A2066093A10609C064E270E0DF
:10098000F6CF6DE174E083EA97E00E94F4131092D1
:10099000690556E8E52E55E0F52E8E010F5F1F4FD5
:1009A00029EB36E042E955E066ED75E08BE996E02B
:1009B0000E94920D81309105E9F467E374E083EAC7
:1009C00097E00E94E91360916C0583EA97E00E942A
:1009D000EA136FE574E083EA97E00E94E9136091FF
:1009E0006A0570916B054AE050E083EA97E00E9447
:1009F000A91428C0019609F0DDC061E674E083EA1D
:100A000097E00E94E91360916C0583EA97E00E94E9
:100A1000EA136FE574E083EA97E00E94E9136091BE
:100A20006A0570916B054AE050E083EA97E00E9406
:100A3000A21467E774E083EA97E00E94F4138AE166
:100A400096E024DC81E08093690560E080E896E030
:100A50000E94470FBC0186ED95E00E94450E61E0C3
:100A600080E896E00E94470FBC0182E995E00E9471
:100A7000450EA0C082E090E09093A00680939F0670
:100A800046E8E42E45E0F42E8E010F5F1F4F29EB60
:100A900036E042E955E066ED75E08BE996E00E94AC
:100AA000920D89EB96E029D740E050E085ED96E085
:100AB00033D680C060917105862F90E090938900B5
:100AC0008093880010928B0010928A009093A90066
:100AD0008093A8001092AB001092AA004AE050E068
:100AE00083EA97E00E94CB1465C032DD58C0809144
:100AF0007E0690917F06892B31F468EA74E083EAE0
:100B000097E00E94F41300E010E030E2E32EF12CB5
:100B100080917E0690917F06081719070CF03FC060
:100B20006CEB74E083EA97E00E94E91380917A0607
:100B300090917B06800F911FB7010E94E014865EA2
:100B4000994FFC01608183EA97E00E94EA136FE508
:100B500074E083EA97E00E94E91380917A0690910D
:100B60007B06800F911FB7010E94E014880F991F28
:100B7000865C994FFC01608171814AE050E083EA14
:100B800097E00E94A21464ED74E083EA97E00E946B
:100B9000F4130F5F1F4FBCCF8AE196E077DB109212
:100BA0006D0508C010926D0560EE74E083EA97E071
:100BB0000E94F413FFEF21EE84E0F15020408040CA
:100BC000E1F700C00000DD24D39476E6C72EE8E00C
:100BD000AE2EF7E09F2EA2E7BA2EB2E08B2E19E0E0
:100BE000712E04E0602EEE24E394F12C9AE0592E4D
:100BF00083EA97E00E949D118C0180916E05112778
:100C0000882309F4D1C0F801BD97ED30F10508F053
:100C100081C0E458FF4F0C943115809100029091EF
:100C200001029195819591099093010280930002B0
:100C300003C120916F0530917005529EC001539EF3
:100C4000900D1124019661C020916F0530917005BF
:100C5000529EC001539E900D1124029656C02091C1
:100C60006F0530917005529EC001539E900D112466
:100C700003964BC020916F0530917005529EC001C4
:100C8000539E900D1124049640C020916F05309121
:100C90007005529EC001539E900D1124059635C0DB
:100CA00020916F0530917005529EC001539E900DAA
:100CB000112406962AC020916F0530917005529E2E
:100CC000C001539E900D112407961FC020916F05FF
:100CD00030917005529EC001539E900D11240896CC
:100CE00014C020916F0530917005529EC001539E33
:100CF000900D1124099609C020916F05309170055F
:100D0000529EC001539E900D1124909370058093C4
:100D10006F0592C080916F059091700518161906A5
:100D20000CF08AC020916805263679F0223709F543
:100D30002091000230910102829FA001839F500DFB
:100D4000929F500D112462E711C020910002309152
:100D500001022130310519F4AC0166E607C068EEE6
:100D600074E083EA97E00E94E91303C08AE196E009
:100D700003DBF0920102E0920002109270051092E3
:100D80006F051092680510926E050636110539F050
:100D90000237110509F050C0B092680502C0C09238
:100DA0006805D0926E0548C00636110509F440C0AA
:100DB000ACF40233110569F134F401331105E1F5A6
:100DC000D0926D0539C00336110549F1043611057D
:100DD00099F560926D05D09269052EC00337110513
:100DE000A9F05CF408361105B9F00237110521F5B8
:100DF000D0926E05B09268051FC00737110591F0BB
:100E00000A371105C9F4A0926D0516C010926D0540
:100E100013C080926D0510C090926D050DC0709248
:100E20006D050AC0809171058F5F8093710504C0C4
:100E3000D0926E05C092680580916E058111D8CE62
:100E40000F900F900F900F90DF91CF911F910F9106
:100E5000FF90EF90DF90CF90BF90AF909F908F90DA
:100E60007F906F905F90089580910A0790E02091A5
:100E70000B07821B9109089520910B0780910A07A7
:100E8000281750F4E22FF0E0E45FF84F808190E003
:100E90002F5F20930B0708958FEF9FEF0895E09148
:100EA0000B0780910A07E81730F4F0E0E45FF84F91
:100EB000808190E008958FEF9FEF08950895CF927D
:100EC000DF92EF92FF920F931F93CF93DF937C01FA
:100ED000CB018A012091E606222389F0EB016B0108
:100EE000C40ED51ECC15DD0561F06991D701ED91D9
:100EF000FC910190F081E02DC7011995F3CF642F8B
:100F000033D1C801DF91CF911F910F91FF90EF90E6
:100F1000DF90CF900895CF93DF931F92CDB7DEB7C8
:100F200069832091E6062223D1F02091E706203242
:100F300040F021E030E0FC013383228380E090E048
:100F400014C08091E806E82FF0E0E751F94F99814D
:100F500090838F5F8093E8068093E70604C061E08A
:100F6000CE01019601D181E090E00F90DF91CF9109
:100F70000895FC011382128248EE53E060E070E0B5
:100F800044835583668377838DE295E091838083E4
:100F9000089510920B0710920A071092E80610921B
:100FA000E7062DC0862F413208F040E26CE077E082
:100FB00044D010920B0780930A070895F3CF81E085
:100FC0008093E606609309071092E8061092E70600
:100FD0000895F5CF0F93062F21E04091E70669EEC3
:100FE00076E0809109076DD01092E8061092E7062E
:100FF0001092E6060F9108958AED96E0BACF10920E
:10100000990781E0809397071092960761E084E149
:101010000E944F1161E085E10E944F11E9EBF0E081
:1010200080818E7F808380818D7F808388E4809320
:10103000B80085E48093BC000895413208F03FC0B9
:10104000909199079111FCCF91E09093990720938B
:1010500097072FEF20932C0710927107240F2093EE
:1010600070079093980790919807880F892B809329
:10107000980780919607813041F4109296078091ED
:1010800098078093BB0085EC01C085EE8093BC007F
:10109000809199078130E1F380917107841710F4F2
:1010A0004091710722E737E0FB01D9018A2F821BAB
:1010B000841718F48D918193F9CF842F089580E0DF
:1010C00008950F93413208F046C09091990791110D
:1010D000FCCF92E090939907009397079FEF90932E
:1010E0002C071092710740937007FB0162E777E0CD
:1010F000DB019A2F961B941718F491919D93F9CFC9
:101100001092980790919807880F892B80939807E1
:1011100080919607813041F410929607809198074C
:101120008093BB0085EC01C085EE8093BC00222338
:1011300021F0809199078230E1F380912C078F3F55
:1011400061F080912C07803251F080912C07803320
:1011500041F483E007C081E005C080E003C082E085
:1011600001C084E00F910895613298F420919907AD
:10117000243089F460934E07FC0180E597E0DC01A0
:101180002A2F281B261718F421912D93F9CF80E0E0
:10119000089581E0089582E0089585ED8093BC0074
:1011A0008091BC0084FDFCCF10929907089585ECD6
:1011B0008093BC001092990708951F920F920FB66A
:1011C0000F9211240BB60F922F933F934F935F937F
:1011D0006F937F938F939F93AF93BF93EF93FF93FF
:1011E0008091B900887F803609F49CC068F5883208
:1011F00009F45BC090F4803109F454C038F48823BA
:1012000009F4F3C0883009F44DC0F2C0883109F404
:101210004CC0803209F45DC0EBC0803409F468C072
:1012200048F4803309F455C0883309F0E1C0809355
:101230002C07A7C0803509F44FC0883509F45DC07C
:10124000883409F0D5C0D3C0883909F4C4C0A8F4E3
:10125000883709F467C038F4883609F463C08037EA
:1012600009F460C0C5C0883809F4B5C0803909F4F4
:101270005FC0803809F0BCC05BC0803B09F483C00C
:1012800038F4803A09F466C0883A09F47CC0B0C0EA
:10129000803C09F4A4C0883C09F4A1C0883B09F44F
:1012A00087C0A6C08091980710C090917107809167
:1012B0007007981770F5E091710781E08E0F8093A9
:1012C0007107F0E0EE58F84F80818093BB0085EC09
:1012D00083C080932C078BC0E091710781E08E0F53
:1012E000809371078091BB00F0E0EE58F84F808347
:1012F00090917107809170076BC0E091710781E058
:101300008E0F809371078091BB00F0E0EE58F84F8C
:1013100080838091970781116AC081E0809396074E
:1013200084EA5EC083E08093990710922D07CFCFA7
:1013300080912D07803208F04EC0E0912D0781E0AA
:101340008E0F80932D078091BB00F0E0E25DF84F97
:101350008083BDCF80912D07803230F4E0912D073E
:10136000F0E0E25DF84F108218DF60912D0770E029
:10137000E0919207F09193078EE297E01995109211
:101380002D0715DF35C084E08093990710924F0731
:1013900010924E07E0919407F0919507199580916E
:1013A0004E07811105C081E080934E0710925007CF
:1013B000E0914F0781E08E0F80934F07F0E0E05BF4
:1013C000F84F80818093BB0090914F0780914E072A
:1013D000981708F47CCF85E88093BC0009C085ECA1
:1013E0008093BC001092990703C010922C07D5DEA1
:1013F000FF91EF91BF91AF919F918F917F916F91ED
:101400005F914F913F912F910F900BBE0F900FBEA8
:101410000F901F901895DC01ED91FC910190F081E7
:10142000E02D19940F931F93CF93DF938C01EB0161
:1014300069E670E08AED96E0CCDDB8018AED96E0D1
:10144000EADFBE018AED96E0E6DF61E08AED96E034
:10145000C1DD81E090E0DF91CF911F910F91089560
:1014600060E070E08AE090E0DDDF6FE070E08AE04D
:1014700090E0D8DF60E070E08AE090E0D3DF60E4E5
:1014800070E084E290E0CEDF6CE870E085E290E00E
:10149000C9DF62E070E086E290E0C4DF68E870E0F7
:1014A00087E290E0BFDF6CE070E088E290E0BADFB6
:1014B0006AE070E089E290E0B5DF61E870E08AE21E
:1014C00090E0B0DF61E070E084E690E0ABDF63E0E5
:1014D00070E087E690E0A6DF60E870E081E090E0F1
:1014E000A1DF64E070E084E390E09CDF60E070E006
:1014F00084E690E097DF60E070E08AE690E092DFBB
:1015000061E070E084E690E08DDF60E270E08AE602
:1015100090E088DF63E170E084E390E083CF0F9395
:101520001F93CF93DF938C01EB0169E670E08AEDA6
:1015300096E04FDDB8018AED96E06DDF60E08AED60
:1015400096E048DD21E030E041E050E069E670E0FF
:101550008AED96E033DD8AED96E08EDC182F69E6A1
:1015600070E08AED96E035DDBE018AED96E053DF4E
:1015700060E08AED96E02EDD21E030E041E050E0D1
:1015800069E670E08AED96E019DD8AED96E074DC9C
:10159000982F8827810F911DDF91CF911F910F9177
:1015A0000895FC011482138287B18C6187B9089574
:1015B000FC01838194818130910531F0029739F4E7
:1015C00080818068808303C08181806881834298A4
:1015D000449800000000439A000000000000000052
:1015E0000000429A0000000020E030E0439842985A
:1015F0000000000048B1808190E0022E02C0959565
:1016000087950A94E2F78170992773E0880F991FF4
:101610007A95E1F7482B48B900000000000000006F
:101620000000429A000000002F5F3F4F2830310534
:10163000E9F620E030E0439842980000000048B10D
:10164000818190E0022E02C0959587950A94E2F779
:101650008170992763E0880F991F6A95E1F7482BFD
:1016600048B900000000000000000000429A00009D
:1016700000002F5F3F4F28303105E9F620E030E0D1
:10168000439842980000000048B1828190E0022E09
:1016900002C0959587950A94E2F78170992753E0E7
:1016A000880F991F5A95E1F7482B48B900000000B0
:1016B000000000000000429A000000002F5F3F4F32
:1016C00028303105E9F68BE0429800000000439A8B
:1016D00000000000000000000000429A000000002E
:1016E000815091F7449A0895FF920F931F93CF93DF
:1016F000DF93EC01F88009811A81188219821A821D
:1017000057DF1C821B82F88209831A83DF91CF91F5
:101710001F910F91FF9008950F931F93CF93DF9325
:10172000FC0154834383683E83E07807DCF49B012B
:101730006933AFEF7A0714F429E33FEF01E010E0DB
:101740002617370709F400E037FF10C02C39BFEF28
:101750003B0714F486E401C080E480833195219531
:1017600031090FC027EE33E001E010E0C90164E663
:1017700070E00E94E014675C7A4FDB0111968C9157
:101780008083CAE0D0E0C901BE010E94E0149C0140
:10179000CB01BE010E94E014875C9A4FDC011196D8
:1017A0008C918183D901A75CBA4F11968C91828369
:1017B000CF01FEDEC801DF91CF911F910F910895F7
:1017C000FC011482158216821782108611861286F9
:1017D00013861486158616861786108A118A128A31
:1017E000138A148A158A168A178A108E118E128E01
:1017F000138E08954F925F926F927F928F929F9275
:10180000AF92BF92CF92DF92EF92FF92CF93DF938E
:10181000EC01488559856A857B854C835D836E83A1
:101820007F8367E470E088E490E079DEAC016627AE
:1018300057FD6095762F488759876A877B874C8943
:101840005D896E897F89488B598B6A8B7B8B66D4C7
:101850002B013C016C8B7D8B8E8B9F8BC884D98434
:10186000EA84FB8488809980AA80BB80C701B60186
:10187000681979098A099B0924E630E040E050E0C4
:101880000E941515D501C4010596A11DB11D8C1529
:101890009D05AE05BF0554F085E0881A9108A108A2
:1018A000B108C814D904EA04FB0464F48C859D854E
:1018B000AE85BF85820F931FA41FB51F8C879D87A0
:1018C000AE87BF87488959896A897B89441A550A36
:1018D000660A770A488E598E6A8E7B8EDF91CF9189
:1018E000FF90EF90DF90CF90BF90AF909F908F9040
:1018F0007F906F905F904F900895FC01848595854F
:1019000023E0880F991F2A95E1F7608D718D0E9461
:10191000E014882777FD8095982F0895CF93DF9363
:10192000EC01198218821B821A821D821C821F827E
:101930001E8218861986F2D36A877B878C879D87DB
:101940001E861F86188A198A1A8A1B8A1D8A1C8A73
:101950001F8A1E8A198E188EE1E0F1E0808188606E
:101960008083808180618083259A269A8FEF90E022
:10197000909387008093860032EA3093800029E1BB
:1019800020938100109289001092880010928B00A1
:1019900010928A009093A7008093A6003093A00035
:1019A0002093A1001092A9001092A8001092AB0001
:1019B0001092AA00DF91CF910895E1E0F1E08081DB
:1019C00088608083808180618083259A269A8FEF4A
:1019D00090E0909387008093860032EA30938000F5
:1019E00029E12093810010928900109288001092C2
:1019F0008B0010928A009093A7008093A6003093EA
:101A0000A0002093A1001092A9001092A8001092AB
:101A1000AB001092AA000895FC0180910201886039
:101A20008093020185E08A95F1F700008091020120
:101A3000877F8093020171836083228D338D848D33
:101A4000958D62307105D1F184F461157105E1F075
:101A50006130710509F043C03093890020938800FC
:101A600010928B0010928A0024C063307105C9F077
:101A700064307105A1F5309389002093880010929D
:101A80008B0010928A0022C0309389002093880036
:101A900030938B0020938A009093A9008093A80034
:101AA00019C0109289001092880030938B00209307
:101AB0008A009093A9008093A8001DC0109289000D
:101AC0001092880030938B0020938A001092A90016
:101AD0001092A8009093AB008093AA0008951092F2
:101AE00089001092880010928B0010928A00109248
:101AF000A9001092A8001092AB001092AA000895BD
:101B000060E070E089CFFB0120813181FC01338FDF
:101B1000228FFB0122813381FC01358F248F60816C
:101B200071817ACFAF92BF92CF92DF92EF92FF9204
:101B30000F931F93CF93DF93EC016B015A01B80110
:101B4000E2DF2C813D812130310509F44EC01CF4C7
:101B5000232B61F061C02230310509F450C02330DD
:101B6000310509F059C0CE01CBDF56C0F601E05C6B
:101B7000FF4FC080D180F501E05CFF4F00811181F3
:101B800081E090E099838883C701C3D17C014E81B5
:101B90005F819601200F311F37FF02C02F5F3F4F3B
:101BA00035952795C90185569109873C910588F59A
:101BB0008CE2D82ED49EC001D59E900D11240AE04F
:101BC00010E0B801FDD6FB01DE9CC001DF9C900D4A
:101BD0001124B801F5D6E61BF70B2E173F07CCF4FE
:101BE000CE018EDF8FEF9FEF19C064E475E083EACA
:101BF00097E0FAD583E090E09D838C830DC08985C2
:101C0000811103C083E090E002C084E090E09983FA
:101C10008883888590E002C080E090E0DF91CF91DA
:101C20001F910F91FF90EF90DF90CF90BF90AF90FA
:101C30000895FC017583648360E070E0EDCE089543
:101C4000FC01B89624E1DF011D922A95E9F7FC0119
:101C500015AE14AE17AE16AEE05CFF4F11821082C7
:101C6000329611821082DB01FC012BE430E08D9171
:101C70009D9191838083338322833496275E3F4FE7
:101C8000253481E0380799F708950F931F93CF9378
:101C9000DF93FC018B0124AD35ADE9012196D5AF71
:101CA000C4AFC9016AE070E08BD64496880F991FD3
:101CB0008E0F9F1FDC010D931C93DF01AE5BBF4FA6
:101CC0000D931C93659724F02950310935AF24AF4B
:101CD00017AE16AE20E030E040E050E0DF01A20F8A
:101CE000B31F98968D919C919997840F951F2E5FA5
:101CF0003F4F2431310511F0AC01F0CF64AD75AD2B
:101D00006B30710514F06AE070E05AD677AF66AFB9
:101D100080819181861797070CF447C0DF0120E08E
:101D200030E0CD91DC911197C617D707B4F1149626
:101D30004D915C911597641775077CF18E01061B18
:101D4000170BD9011396AA0FBB1FAE0FBF1F0D9023
:101D5000BC91A02D0A9FC0010B9F900D1A9F900D62
:101D60001124641B750BD9011196AA0FBB1FAE0F6E
:101D7000BF1F0D90BC91A02D6A9F90016B9F300DED
:101D80007A9F300D1124820F931FBE01641B750BC7
:101D900017D66115710561F00DC014962E5F3F4F87
:101DA0002231310509F0BDCF03C066EF7FEF02C0DD
:101DB00067EE73E0E05CFF4F71836083DF91CF914A
:101DC0001F910F910895FC01CB01442339F0E05C91
:101DD000FF4F6081718141E050E004C066AD77AD96
:101DE00040E050E099CC809164008E7F8093640045
:101DF00080917A00876880937A0080917C008F7749
:101E000080937C0080917C00806480937C00809132
:101E10007C008E7F80937C0080917C008260809328
:101E20007C0080917C008B7F80937C0080917C0083
:101E3000877F80937C0080917C008F7E80937C00E4
:101E400080917C008F7D80937C0080917B008E7FD1
:101E500080937B0080917B008D7F80937B008091BD
:101E60007B008B7F80937B0080917A0080648093DD
:101E70007A0080917A0084FFFCCF80917A008061A3
:101E800080937A0080917800809179000895809104
:101E90007C00807C80937C0080917C006F73682B39
:101EA00060937C0080917A00806480937A008091B6
:101EB0007A0084FFFCCF80917A00806180937A0061
:101EC000809178002091790090E0922B08950895F8
:101ED000F8945A9AE9E6F0E080818061808384E09A
:101EE0008CBBEA9A7894E5E0F1E0808181608083A0
:101EF000ECE6F0E0808182608083E8E6F0E08081BB
:101F0000826080830895FC011186108613861286F4
:101F10000895FC01828593850895FC018085918553
:101F20000895FC0171836083538342833583248346
:101F30001782168211861086138612860895FC0178
:101F400051874087778366830895FC01718360839E
:101F50000895FC01738362830895FC017583648393
:101F60000895FC0126813781261B370B4285538556
:101F7000420F531F5387428764817581469FC0017A
:101F8000479F900D569F900D112440855185D90192
:101F9000A41BB50B62817381A69FA001A79F500D62
:101FA000B69F500D1124840F951F60817181269F6B
:101FB000A001279F500D369F500D1124840F951FAF
:101FC00064E670E0FDD4CB0108950F931F93CF9387
:101FD000DF93EC018B01198218821B821A821D8209
:101FE0001C821F821E8220E030E040E050E060E072
:101FF00070E0089696DF198218821B830A831D837E
:102000000C838AE090E09F838E83DF91CF911F91B4
:102010000F910895089693CFFC01411103C0908160
:10202000818102C0962F872F928383836483758377
:10203000442319F08AE090E002C081E090E09783A9
:1020400086830895CF93DF93EC01888199819B83E8
:102050008A838C819D81998388838E819F818A3038
:1020600091051CF401969F838E83CE01089679DF3B
:102070009C0148815981BA01621B730BCA01820F0E
:10208000931FDF91CF9108951F920F920FB60F9279
:1020900011242F933F938F939F93AF93BF9380917E
:1020A0009B0790919C07A0919D07B0919E0730914E
:1020B0009A0723E0230F2D3720F40196A11DB11DAF
:1020C00005C026E8230F0296A11DB11D20939A0793
:1020D00080939B0790939C07A0939D07B0939E07C6
:1020E00080919F079091A007A091A107B091A207AE
:1020F0000196A11DB11D80939F079093A007A09307
:10210000A107B093A207BF91AF919F918F913F918B
:102110002F910F900FBE0F901F9018952FB7F89426
:1021200060919B0770919C0780919D0790919E07FD
:102130002FBF0895789484B5826084BD84B5816092
:1021400084BD85B5826085BD85B5816085BDEEE6BF
:10215000F0E0808181608083E1E8F0E0108280819E
:1021600082608083808181608083E0E8F0E080810C
:1021700081608083E1EBF0E0808184608083E0EB2C
:10218000F0E0808181608083E1E9F0E0808182601D
:102190008083808181608083E0E9F0E080818160DC
:1021A0008083E1EAF0E080818260808380818160C9
:1021B0008083E0EAF0E0808181608083E1E2F1E009
:1021C000808182608083808181608083E0E2F1E0B1
:1021D000808181608083EAE7F0E080818460808391
:1021E000808182608083808181608083808180683B
:1021F00080831092C100089590E0FC013197E23194
:10220000F10508F04BC0E757FF4F2BC480918000C9
:102210008F7703C0809180008F7D80938000089528
:1022200080918000877FF9CF84B58F7702C084B515
:102230008F7D84BD08958091B0008F7703C0809119
:10224000B0008F7D8093B0000895809190008F77CB
:1022500007C0809190008F7D03C080919000877FA0
:102260008093900008958091A0008F7707C080919F
:10227000A0008F7D03C08091A000877F8093A00085
:102280000895809120018F7707C0809120018F7D74
:1022900003C080912001877F8093200108950F93D0
:1022A0001F93CF93DF931F92CDB7DEB7282F30E077
:1022B000F901EA5CFE4F8491F901E458FE4F149154
:1022C000F901EE53FE4F04910023C1F0882319F069
:1022D000698392DF6981E02FF0E0EE0FFF1FE85F76
:1022E000FD4FA591B4919FB7F8948C91611103C0F3
:1022F0001095812301C0812B8C939FBF0F90DF919C
:10230000CF911F910F910895FC01818D228D90E056
:10231000805C9F4F821B91098F7399270895FC0160
:10232000918D828D981731F0828DE80FF11D858D8A
:1023300090E008958FEF9FEF0895FC01918D828DBD
:10234000981761F0828DDF01A80FB11D5D968C9109
:10235000928D9F5F9F73928F90E008958FEF9FEF14
:10236000089582E593E1892B39F080E090E0892B94
:1023700019F098D1811125C080E090E0892B41F0BF
:1023800080E090E0892B21F00E94000081111CC0A8
:1023900080E090E0892B41F080E090E0892B21F0F3
:1023A0000E940000811113C080E090E0892BA1F011
:1023B00080E090E0892B81F00E94000081110AC02A
:1023C00008950E940000D8CF0E940000E1CF0E9433
:1023D0000000EACF0C9400000895FC01848DDF0119
:1023E000A80FB11DA35ABF4F2C91848D90E0019688
:1023F0008F739927848FA689B7892C93A089B18977
:102400008C9180648C93938D848D981306C0028880
:10241000F389E02D80818F7D80830895CF93DF93B2
:10242000EC01888D8823C1F0EA89FB89808185FDD4
:1024300005C0A889B9898C9186FD0EC00FB607FC2E
:10244000F5CF808185FFF2CFA889B9898C9185FF6E
:10245000EDCFCE01C2DFE8CFDF91CF910895CF92CB
:10246000DF92FF920F931F93CF93DF931F92CDB70D
:10247000DEB76C0181E0D60158968C9358975B9635
:102480009C915B975C968C915C97981307C05096D3
:10249000ED91FC915197808185FD2DC0F601038D52
:1024A00010E00F5F1F4F0F731127F02EF601848D80
:1024B000F81210C00FB607FCF9CFD6015096ED9177
:1024C000FC915197808185FFF1CFC601698385DF3B
:1024D0006981ECCF838DE80FF11DE35AFF4F6083D4
:1024E000D6015B960C935B975296ED91FC915397B6
:1024F000808180620CC0D6015696ED91FC91579771
:1025000060835096ED91FC91519780818064808327
:1025100081E090E00F90DF91CF911F910F91FF909C
:10252000DF90CF900895BF92CF92DF92EF92FF920B
:10253000CF93DF93EC016A017B01B22EE889F98920
:1025400082E08083411581EE58076105710599F09D
:1025500060E079E08DE390E0A701960144D221503C
:102560003109410951095695479537952795211508
:1025700080E1380790F0E889F989108260E874E812
:102580008EE190E0A70196012ED221503109410938
:1025900051095695479537952795EC85FD853083EC
:1025A000EE85FF852083188EEC89FD89B082EA894B
:1025B000FB89808180618083EA89FB8980818860D2
:1025C0008083EA89FB89808180688083EA89FB892E
:1025D00080818F7D8083DF91CF91FF90EF90DF909E
:1025E000CF90BF9008951F920F920FB60F921124B3
:1025F0000BB60F922F938F939F93EF93FF93E091DE
:10260000B307F091B4078081E091B907F091BA0760
:1026100082FD12C090818091BC078F5F8F732091E3
:10262000BD07821751F0E091BC07F0E0ED55F84F7F
:10263000958F8093BC0701C08081FF91EF919F919E
:102640008F912F910F900BBE0F900FBE0F901F9088
:1026500018951F920F920FB60F9211240BB60F927E
:102660002F933F934F935F936F937F938F939F939A
:10267000AF93BF93EF93FF9383EA97E0AEDEFF91B2
:10268000EF91BF91AF919F918F917F916F915F91EA
:102690004F913F912F910F900BBE0F900FBE0F9057
:1026A0001F90189583EA97E02FDE21E0892B09F42B
:1026B00020E0822F08951092A6071092A50788EEB9
:1026C00093E0A0E0B0E08093A7079093A807A093C1
:1026D000A907B093AA078CE495E09093A407809390
:1026E000A30785EC90E09093B0078093AF0784EC4C
:1026F00090E09093B2078093B10780EC90E09093C4
:10270000B4078093B30781EC90E09093B607809371
:10271000B50782EC90E09093B8078093B70786ECFA
:1027200090E09093BA078093B9071092BC0710927B
:10273000BD071092BE071092BF0708950895FADCF6
:10274000FDDF0E94D802C1EBD1E10E94BE032097B9
:10275000E1F307DEFACFCF92DF92EF92FF920F9371
:102760001F93CF93DF936C017A01EB01E60EF71E06
:1027700000E010E0CE15DF0561F06991D601ED9122
:10278000FC910190F081E02DC6011995080F191FE9
:10279000F1CFC801DF91CF911F910F91FF90EF9082
:1027A000DF90CF9008956115710581F0DB010D90E8
:1027B0000020E9F7AD0141505109461B570BDC01E0
:1027C000ED91FC910280F381E02D199480E090E07E
:1027D0000895E9CFDC01ED91FC910190F081E02DAD
:1027E000199468E575E0DFCF0F931F93CF93DF93C4
:1027F000EC01D9DF8C01CE01F4DF800F911FDF9156
:10280000CF911F910F9108958F929F92AF92BF9297
:10281000CF92DF92EF92FF920F931F93CF93DF93AC
:10282000CDB7DEB7A1970FB6F894DEBF0FBECDBF10
:102830007C01C42EE52FCB01D22E19A221E02D154B
:1028400010F02AE0D22E8E010F5D1F4F8D2C912C9F
:10285000A12CB12C6C2D7E2FA5019401C4D08C2D00
:10286000D29E80191124015011098A3014F4805D20
:1028700001C0895CF80180832115310541055105AE
:1028800021F0C22EE32FCA01E5CFB801C7018BDFCB
:10289000A1960FB6F894DEBF0FBECDBFDF91CF91EA
:1028A0001F910F91FF90EF90DF90CF90BF90AF906E
:1028B0009F908F900895CF92DF92EF92FF920F93A7
:1028C0001F93CF93DF93EC016A017B012115310542
:1028D00079F4E881F9810190F081E02D642FDF9196
:1028E000CF911F910F91FF90EF90DF90CF901994AF
:1028F0002A303105D9F477FF18C06DE26BDF8C0107
:1029000044275527BA014C195D096E097F092AE051
:10291000CE017ADF800F911FDF91CF911F910F9130
:10292000FF90EF90DF90CF9008952AE0B701A601C5
:10293000CE01DF91CF911F910F91FF90EF90DF902B
:10294000CF9062CF9A01AB01662757FD6095762F35
:10295000B2CF0F931F93CF93DF93EC019A01AB019A
:10296000662757FD6095762FA6DF8C01CE0139DFF3
:10297000800F911FDF91CF911F910F910895211525
:10298000310541F4DC01ED91FC910190F081E02DE5
:10299000642F199439CF0F931F93CF93DF93EC01DA
:1029A0009A01462F50E060E070E0E9DF8C01CE0133
:1029B00018DF800F911FDF91CF911F910F91089524
:1029C00097FB072E16F4009406D077FD08D053D05D
:1029D00007FC05D03EF4909581959F4F0895709522
:1029E00061957F4F0895A1E21A2EAA1BBB1BFD0122
:1029F0000DC0AA1FBB1FEE1FFF1FA217B307E407DE
:102A0000F50720F0A21BB30BE40BF50B661F771F35
:102A1000881F991F1A9469F7609570958095909515
:102A20009B01AC01BD01CF010895052E97FB16F463
:102A300000940FD057FD05D0D6DF07FC02D046F436
:102A400008C050954095309521953F4F4F4F5F4FAF
:102A5000089590958095709561957F4F8F4F9F4F0A
:102A60000895EE0FFF1F0590F491E02D1994079043
:102A7000F691E02D1994AA1BBB1B51E107C0AA1FB8
:102A8000BB1FA617B70710F0A61BB70B881F991F0F
:102A90005A95A9F780959095BC01CD010895F894B9
:022AA000FFCF66
:102AA20001009C0097012201DF00BE009B0088000C
:102AB200700065005A0051006E011601D000B2008C
:102AC200940082006C005F00590050005468652039
:102AD20071756575656420436F6D6D616E643A2032
:102AE2000020686173206265656E2064656C6574A0
:102AF20065642E0043616368652066756C6C2C20EA
:102B020074686520666F6C6C6F77696E6720436FBF
:102B12006D6D616E642043616E7420626520616434
:102B22006465643A00416464656420746865206683
:102B32006F6C6C6F77696E6720436F6D6D616E6449
:102B42003A0054686520466F6C6C6F77696E672037
:102B5200496E707574732061726520617661696C6B
:102B620061626C653A0068202D3E2073686F7720A1
:102B720048656C700073202D3E2074686520426F9A
:102B8200742053746F707320616C6C206375727261
:102B9200656E7420416374696F6E730066202869E4
:102BA2006E7429202D3E2071756575657320612034
:102BB200666F727761726420636F6D6D616E6420FF
:102BC20077697468207370656369666965642074E7
:102BD20068652076616C756500722028696E7429BB
:102BE200202D3E20717565756573206120726F74AA
:102BF2006174696F6E20636F6D6D616E64207769B9
:102C020074682073706563696669656420746865B9
:102C12002076616C75650063202D3E20636C6561D2
:102C22007273207468652051756575652066726FD0
:102C32006D20616C6C2063757272656E7420436FD7
:102C42006D6D616E6473007A202D3E2073686F771C
:102C52007320616C6C2071756575657320436F6DAF
:102C62006D616E64730064202D3E2074686520429D
:102C72006F742077696C6C20737461727420746F46
:102C82002070726F67726573732074686520717546
:102C92006575656420436F6D6D616E647300546881
:102CA2006520426F74206973206E6F7720726561B0
:102CB200647920666F7220496E7075740074686161
:102CC200742073686F756C646E7420626520686529
:102CD2007265202E2E2E0054686520466F6C6C6F34
:102CE20077696E6720436F6D6D616E6420686173F2
:102CF200206265656E2065786563757465643A2047
:102D0200005468652043757272656E7420436F6D5E
:102D12006D616E643A20002063616E7420626520EA
:102D2200636F6D706C657465642C207468652071C6
:102D32007565756520697320626565696E672064D3
:102D4200656C657465642E005468652051756575FF
:102D52006520697320456D7074792E005468652072
:102D6200666F6C6C6F77696E6720436F6D6D616E15
:102D7200643A2000206973207175657565642E00C0
:102D820064656661756C7400436F6D6D616E64207D
:102D9200662063616E7420686176652061207661C9
:102DA2006C75652077697468207369676E2E20548C
:102DB200686520436F6D6D616E64206973206E6F6C
:102DC200742061646465642E00000000008B075F5C
:102DD2000734073C074F075E07463F065B4F666DA9
:102DE2007D077F6F6C6F6C00000000002F12AB1329
:102DF20084119D118F110E120D0A006E616E006911
:082E02006E66006F76660000A9
:00000001FF
