:1000000013C1000042C1000040C10000A1C10000B6
:100010003CC100003AC1000038C1000036C10000F8
:1000200034C1000032C10000B0C100002EC1000088
:100030002CC100002AC1000028C1000026C1000018
:1000400024C1000022C1000020C100001EC1000028
:100050001CC100001AC1000018C100000C94970ECA
:1000600014C100000C9405110C943B110EC100004A
:100070000CC100000AC1000008C1000006C1000058
:1000800004C1000002C1000000C10000FEC0000069
:10009000FCC00000FAC00000F8C0000000C700006B
:1000A000F4C00000F2C00000F0C00000EEC000008C
:1000B000ECC00000EAC00000E8C00000E6C000009C
:1000C000E4C00000E2C00000E0C00000DEC00000AC
:1000D000DCC00000DAC00000D8C00000D6C00000BC
:1000E000D4C0000023032F0334035D033B034E03FE
:1000F0006603810397039A03CB0352045204470417
:10010000D703E303F303FF030B04170423042F04B3
:100110003B04670F6A0F590F5D0F630FA10F6E0F3E
:10012000720F780F7C0F800F860F8A0F8E0FA10F32
:10013000940F980F9C0F00000A0B02090C0D0E087B
:1001400007030401000000000000000000000000A0
:10015000000000000000000000000000000000009F
:10016000000012111000000000000000000000005C
:10017000000000000000000000000000010210204C
:1001800020080810204010204080020102010804CD
:100190000201010204081020408080402010080461
:1001A00002018004020180402010080402010804BA
:1001B00002010102040810204080010204081020FE
:1001C0004080050505050705080808080202020227
:1001D0000A0A0808040404040101010101010101E3
:1001E0000303030303030303040707070C0C0C0CAE
:1001F0000C0C0C0C02020202060606060606060697
:100200000B0B0B0B0B0B0B0B000022002500280027
:100210002B002E003100340002010000050108010E
:100220000B01A102A8056D1111241FBECFEFD1E271
:10023000DEBFCDBF00E00CBF12E0A0E0B2E0E8E41A
:10024000FAE200E00BBF02C007900D92A43BB10799
:10025000D9F725E0A4EBB2E001C01D92AA38B2079D
:10026000E1F712E0C8E2D2E000E006C022970109FF
:10027000FE010BBF0E940A15C232D10780E00807B9
:10028000A9F70E94B1110C942215BACEBF92CF9259
:10029000DF92EF92FF920F931F93CF93DF93B62ECF
:1002A000EA018C010C591F4FF801E080F180F0E267
:1002B000EF16F10409F56DE272E08DEE94E00E9414
:1002C00015106B2D8DEE94E00E94161061E972E01E
:1002D0008DEE94E00E9415104AE050E0BE018DEED4
:1002E00094E0DF91CF911F910F91FF90EF90DF90FD
:1002F000CF90BF900C94CE106C0122E6C20ED11CA0
:10030000F60120813181FC01E20FF31F6083F901C6
:100310007096EE0FFF1FE80FF91FD183C083C9014C
:10032000019660E270E00E94B314F601918380832D
:10033000FFEFEF1AFF0AF801F182E082DF91CF911F
:100340001F910F91FF90EF90DF90CF90BF90089595
:100350001F920F920FB60F9211240BB60F928F932C
:100360009F93EF93FF93ECEDF2E0808191810196F2
:1003700091838083FF91EF919F918F910F900BBE9E
:100380000F900FBE0F901F9018951F920F920FB6EF
:100390000F9211240BB60F928F939F93EF93FF93BD
:1003A000EEEDF2E080819181019691838083FF914F
:1003B000EF919F918F910F900BBE0F900FBE0F90FA
:1003C0001F901895CF93DF9326E040E051EE60E058
:1003D00070E08DEE94E00E94CC122FEF81EE94E05D
:1003E000215080409040E1F700C000006EE572E0CF
:1003F0008DEE94E00E9420108FE194E021D784E2FA
:1004000094E073D360E070E08BE690E0ABD3C8D3A8
:10041000C9E1D0E067E470E088E490E020D4AA2746
:1004200097FDA095BA2F4091030450910404609168
:10043000050470910604480F591F6A1F7B1F4093E3
:1004400003045093040460930504709306042FEF93
:1004500081EE94E0215080409040E1F700C0000020
:100460002197C1F660910304709104048091050402
:100470009091060429E130E040E050E00E94E81449
:10048000209303043093040440930504509306041E
:1004900089EE93E00E94850A84ED92E00E946F0D40
:1004A0008FE39CE90197F1F700C0000040E050E0C5
:1004B00060E87FE382EC92E00E94CD0D4AE959E9C1
:1004C00069E97EE382EC92E00E94D30D6091030221
:1004D0007091040241E08AEB92E00E945F0E8091ED
:1004E0000302909104029093FA038093F90340E091
:1004F00050E060E070E08AEB92E00E945D0E609157
:1005000080004AE050E08DEE94E00E94F01060918F
:1005100081004AE050E08DEE94E00E94F01060917E
:10052000A0004AE050E08DEE94E00E94F01060914F
:10053000A1004AE050E08DEE94E0DF91CF910C9461
:10054000F0108FE194E0D9D583E094E0E5D689EE10
:1005500093E090D78FEC93E00E942A0C8EEC93E00E
:100560000E94FA0C1092C9031092C8031092CB0398
:100570001092CA031092CD031092CC0369E172E08D
:1005800084E293E00E942B0C65E072E080EE92E042
:100590000E942B0C84ED92E00E946E0D609103028C
:1005A000709104028AEB92E00C94290E0F931F9332
:1005B000CF93DF9300D01F92CDB7DEB760E08EEC13
:1005C00093E00E944E0DBC0184E293E00E94500C27
:1005D00061E08EEC93E00E944E0DBC0180EE92E053
:1005E0000E94500C83E094E0B1D684ED92E00E942A
:1005F0009F0D8C0184ED92E00E94A30D081B190B46
:1006000066277727601B710B8AEB92E00E94750EBC
:1006100069837A838B839C834AE050E0B8018DEE36
:1006200094E00E94CE108091B502992787FD9095A5
:10063000A92FB92F8A30910508F088C0FC01EE5827
:10064000FF4F0C9404158FE194E0FAD589EE93E006
:100650000E942A0B84ED92E00E94990D7FC06FE109
:1006600074E084E293E004C06FE174E080EE92E015
:100670000E94F00C73C023E034E040EE52E064E2EC
:1006800073E089EE93E00E94440B892B09F445C086
:1006900060E070E089EE93E0F1D73FC082E090E047
:1006A0009093EE038093ED0323E034E040EE52E0BC
:1006B00064E273E089EE93E0E7D783E094E0C9D683
:1006C00040E050E08FE194E0D3D548C06091B9029A
:1006D000862F90E0909389008093880010928B0081
:1006E00010928A009093A9008093A8001092AB000A
:1006F0001092AA004AE050E08DEE94E00E94F010C3
:100700002DC081E090E09093EA038093E903BE015D
:100710006F5F7F4F89EE93E0A0D72FEF89EF90E0D6
:10072000215080409040E1F700C0000017C083E0F6
:1007300090E002C084E090E09093EA038093E903A4
:1007400068EC70E089EE93E095D708C01092B5028E
:1007500069E672E08DEE94E00E9420102FEF81EEAA
:1007600094E0215080409040E1F700C000008DEE01
:1007700094E00E94D6112091B6029927222309F411
:10078000C3C0FC01BD97ED30F10508F08BC0E45803
:10079000FF4F0C94041580910102909102029195F3
:1007A00081959109909302028093010200C12091EA
:1007B000B7023091B8024AE0429FC001439F900DBA
:1007C000112401960BC02091B7023091B8024AE083
:1007D000429FC001439F900D112402969093B8024E
:1007E0008093B702E4C02091B7023091B8024AE08A
:1007F000429FC001439F900D11240396EFCF20919B
:10080000B7023091B8024AE0429FC001439F900D69
:1008100011240496E3CF2091B7023091B8024AE048
:10082000429FC001439F900D11240596D7CF209180
:10083000B7023091B8024AE0429FC001439F900D39
:1008400011240696CBCF2091B7023091B8024AE02E
:10085000429FC001439F900D11240796BFCF209166
:10086000B7023091B8024AE0429FC001439F900D09
:1008700011240896B3CF2091B7023091B8024AE014
:10088000429FC001439F900D11240996A7CF20914C
:10089000B7023091B8024AE0429FC001439F900DD9
:1008A00011249CCF80910002882319F0109200023D
:1008B0007EC08091B402863671F08237A1F48091B7
:1008C000B7029091B8022CE0289FA001299F500DFB
:1008D000112462E705C04091B7025091B80266E664
:1008E00088E693E0D3DC81E090E09093020280936D
:1008F00001021092B8021092B7021092B402109244
:10090000B6028093000253C087339105E1F194F45D
:100910008333910591F144F48133910561F1C297DC
:1009200009F045C082E034C08533910541F14CF5B2
:1009300084E02EC08D36910591F164F489339105E0
:1009400031F11CF18636910591F581E08093B60274
:1009500086E62BC08337910559F087379105D9F08A
:100960008237910521F581E08093B60282E71DC0B0
:100970001092B5021CC081E00BC083E009C085E085
:1009800007C086E005C087E003C088E001C089E0B9
:100990008093B5020CC08091B9028F5F03C0809133
:1009A000B90281508093B90202C08093B4020F90C3
:1009B0000F900F900F90DF91CF911F910F9108959D
:1009C0008091540490E020915504821B9109089570
:1009D0002091550480915404281750F4E22FF0E040
:1009E000EA5AFB4F808190E02F5F209355040895D1
:1009F0008FEF9FEF0895E091550480915404E8171C
:100A000030F4F0E0EA5AFB4F808190E008958FEFD8
:100A10009FEF08950895CF92DF92EF92FF920F9388
:100A20001F93CF93DF937C01CB018A012091300487
:100A3000222389F0EB016B01C40ED51ECC15DD0518
:100A400061F06991D701ED91FC910190F081E02D69
:100A5000C7011995F3CF642FF9D1C801DF91CF9168
:100A60001F910F91FF90EF90DF90CF900895CF935B
:100A7000DF931F92CDB7DEB7698320913004222324
:100A8000D1F020913104203240F021E030E0FC012F
:100A90003383228380E090E014C080913204E82FF9
:100AA000F0E0ED5CFB4F998190838F5F809332047F
:100AB0008093310404C061E0CE010196C7D181E08A
:100AC00090E00F90DF91CF910895FC011382128284
:100AD00048EE53E060E070E044835583668377839B
:100AE00085E792E0918380830895109255041092D7
:100AF00054041092320410923104F3C0862F413214
:100B000008F040E266E574E00AD110925504809343
:100B100054040895F3CF81E080933004609353042C
:100B200010923204109231040895F5CF0F93062FDE
:100B300021E04091310463E374E08091530433D1A8
:100B40001092320410923104109230040F910895E3
:100B500084E294E0BACFDC01ED91FC910190F08148
:100B6000E02D19940F931F93CF93DF938C01EB012A
:100B700069E670E084E294E0D8DFB80184E294E0B2
:100B8000EADFBE0184E294E0E6DF61E084E294E023
:100B9000CDDF81E090E0DF91CF911F910F9108951B
:100BA00060E070E08AE090E0DDDF6FE070E08AE016
:100BB00090E0D8DF60E070E08AE090E0D3DF60E4AE
:100BC00070E084E290E0CEDF6CE870E085E290E0D7
:100BD000C9DF62E070E086E290E0C4DF68E870E0C0
:100BE00087E290E0BFDF6CE070E088E290E0BADF7F
:100BF0006AE070E089E290E0B5DF61E870E08AE2E7
:100C000090E0B0DF61E070E084E690E0ABDF63E0AD
:100C100070E087E690E0A6DF60E870E081E090E0B9
:100C2000A1DF64E070E084E390E09CDF60E070E0CE
:100C300084E690E097DF60E070E08AE690E092DF83
:100C400061E070E084E690E08DDF60E270E08AE6CB
:100C500090E088DF63E170E084E390E083CF0F935E
:100C60001F93CF93DF938C01EB0169E670E084E280
:100C700094E05BDFB80184E294E06DDF60E084E241
:100C800094E054DF21E030E041E050E069E670E0BC
:100C900084E294E03FDF84E294E09ADE182F69E674
:100CA00070E084E294E041DFBE0184E294E053DF2F
:100CB00060E084E294E03ADF21E030E041E050E09F
:100CC00069E670E084E294E025DF84E294E080DE6F
:100CD000982F8827810F911DDF91CF911F910F9140
:100CE00008951092E30481E08093E1041092E004FF
:100CF00061E084E10E94A20F61E085E10E94A20F01
:100D0000E9EBF0E080818E7F808380818D7F80831E
:100D100088E48093B80085E48093BC000895413254
:100D200008F03FC09091E3049111FCCF91E09093C3
:100D3000E3042093E1042FEF209376041092BB0488
:100D4000240F2093BA049093E2049091E204880F58
:100D5000892B8093E2048091E004813041F4109269
:100D6000E0048091E2048093BB0085EC01C085EE35
:100D70008093BC008091E3048130E1F38091BB0457
:100D8000841710F44091BB042CEB34E0FB01D90133
:100D90008A2F821B841718F48D918193F9CF842FA9
:100DA000089580E008950F93413208F046C0909175
:100DB000E3049111FCCF92E09093E3040093E104EB
:100DC0009FEF909376041092BB044093BA04FB010A
:100DD0006CEB74E0DB019A2F961B941718F4919139
:100DE0009D93F9CF1092E2049091E204880F892B31
:100DF0008093E2048091E004813041F41092E00499
:100E00008091E2048093BB0085EC01C085EE809365
:100E1000BC00222321F08091E3048230E1F3809131
:100E200076048F3F61F080917604803251F080919A
:100E30007604803341F483E007C081E005C080E0A0
:100E400003C082E001C084E00F910895613298F4FC
:100E50002091E304243089F460939804FC018AE92A
:100E600094E0DC012A2F281B261718F421912D93DA
:100E7000F9CF80E0089581E0089582E0089585ED3E
:100E80008093BC008091BC0084FDFCCF1092E304F1
:100E9000089585EC8093BC001092E30408951F929E
:100EA0000F920FB60F9211240BB60F922F933F9310
:100EB0004F935F936F937F938F939F93AF93BF9362
:100EC000EF93FF938091B900887F803609F49CC02E
:100ED00068F5883209F45BC090F4803109F454C09D
:100EE00038F4882309F4F3C0883009F44DC0F2C007
:100EF000883109F44CC0803209F45DC0EBC0803405
:100F000009F468C048F4803309F455C0883309F007
:100F1000E1C080937604A7C0803509F44FC08835BE
:100F200009F45DC0883409F0D5C0D3C0883909F40C
:100F3000C4C0A8F4883709F467C038F4883609F4C7
:100F400063C0803709F460C0C5C0883809F4B5C0F3
:100F5000803909F45FC0803809F0BCC05BC0803BB9
:100F600009F483C038F4803A09F466C0883A09F479
:100F70007CC0B0C0803C09F4A4C0883C09F4A1C086
:100F8000883B09F487C0A6C08091E20410C090910C
:100F9000BB048091BA04981770F5E091BB0481E01E
:100FA0008E0F8093BB04F0E0E454FB4F808180936C
:100FB000BB0085EC83C0809376048BC0E091BB04BA
:100FC00081E08E0F8093BB048091BB00F0E0E4547D
:100FD000FB4F80839091BB048091BA046BC0E09179
:100FE000BB0481E08E0F8093BB048091BB00F0E0D6
:100FF000E454FB4F80838091E10481116AC081E059
:101000008093E00484EA5EC083E08093E30410925E
:101010007704CFCF80917704803208F04EC0E09102
:10102000770481E08E0F809377048091BB00F0E01D
:10103000E858FB4F8083BDCF80917704803230F435
:10104000E0917704F0E0E858FB4F108218DF6091E0
:10105000770470E0E091DC04F091DD0488E794E02F
:1010600019951092770415DF35C084E08093E3046E
:101070001092990410929804E091DE04F091DF043C
:10108000199580919804811105C081E0809398049E
:1010900010929A04E091990481E08E0F8093990454
:1010A000F0E0E656FB4F80818093BB00909199045D
:1010B00080919804981708F47CCF85E88093BC0051
:1010C00009C085EC8093BC001092E30403C0109229
:1010D0007604D5DEFF91EF91BF91AF919F918F91F3
:1010E0007F916F915F914F913F912F910F900BBE28
:1010F0000F900FBE0F901F901895FC011482138261
:1011000087B18C6187B90895FC0183819481813016
:10111000910531F0029739F480818068808303C0A3
:101120008181806881834298449800000000439A3E
:1011300000000000000000000000429A00000000D3
:1011400020E030E0439842980000000048B18081E0
:1011500090E0022E02C0959587950A94E2F781707F
:10116000992773E0880F991F7A95E1F7482B48B9C2
:1011700000000000000000000000429A0000000093
:101180002F5F3F4F28303105E9F620E030E04398EB
:1011900042980000000048B1818190E0022E02C018
:1011A000959587950A94E2F78170992763E0880FF7
:1011B000991F6A95E1F7482B48B90000000000002C
:1011C00000000000429A000000002F5F3F4F2830CF
:1011D0003105E9F620E030E0439842980000000035
:1011E00048B1828190E0022E02C0959587950A94BD
:1011F000E2F78170992753E0880F991F5A95E1F71C
:10120000482B48B900000000000000000000429A8E
:10121000000000002F5F3F4F28303105E9F68BE0DA
:10122000429800000000439A000000000000000007
:101230000000429A00000000815091F7449A0895FE
:10124000FF920F931F93CF93DF93EC01F8800981F6
:101250001A81188219821A8257DF1C821B82F88237
:1012600009831A83DF91CF911F910F91FF90089509
:101270000F931F93CF93DF93FC0154834383683E06
:1012800083E07807DCF49B016933AFEF7A0714F44D
:1012900029E33FEF01E010E02617370709F400E0EB
:1012A00037FF10C02C39BFEF3B0714F486E401C0B0
:1012B00080E480833195219531090FC027EE33E01A
:1012C00001E010E0C90164E670E00E94B3146F57BA
:1012D0007D4FDB0111968C918083CAE0D0E0C9017B
:1012E000BE010E94B3149C01CB01BE010E94B31445
:1012F0008F579D4FDC0111968C918183D901AF5797
:10130000BD4F11968C918283CF01FEDEC801DF9123
:10131000CF911F910F910895FC01148215821682BE
:1013200017821086118612861386148615861686F5
:101330001786108A118A128A138A148A158A168AC5
:10134000178A108E118E128E138E08954F925F920F
:101350006F927F928F929F92AF92BF92CF92DF92C5
:10136000EF92FF92CF93DF93EC01488559856A8510
:101370007B854C835D836E837F8367E470E088E4C4
:1013800090E06DDCAC01662757FD6095762F4887AD
:1013900059876A877B874C895D896E897F89488BED
:1013A000598B6A8B7B8B0DD52B013C016C8B7D8B14
:1013B0008E8B9F8BC884D984EA84FB848880998033
:1013C000AA80BB80C701B601681979098A099B09FF
:1013D00024E630E040E050E00E94E814D501C4016A
:1013E0000596A11DB11D8C159D05AE05BF0554F0D8
:1013F00085E0881A9108A108B108C814D904EA0444
:10140000FB0464F48C859D85AE85BF85820F931F98
:10141000A41FB51F8C879D87AE87BF8748895989D0
:101420006A897B89441A550A660A770A488E598E5A
:101430006A8E7B8EDF91CF91FF90EF90DF90CF90FF
:10144000BF90AF909F908F907F906F905F904F90E4
:101450000895FC018485958523E0880F991F2A95BE
:10146000E1F7608D718D0E94B314882777FD809518
:10147000982F0895CF93DF93EC01198218821B8275
:101480001A821D821C829DD46E837F8388879987F0
:101490001A861B861C861D861E861F86198A188A38
:1014A0001B8A1A8A1D8A1C8AE1E0F1E0808188602B
:1014B0008083808180618083259A269A8FEF90E0D7
:1014C000909387008093860032EA3093800029E170
:1014D00020938100109289001092880010928B0056
:1014E00010928A009093A7008093A6003093A000EA
:1014F0002093A1001092A9001092A8001092AB00B6
:101500001092AA00DF91CF910895E1E0F1E080818F
:1015100088608083808180618083259A269A8FEFFE
:1015200090E0909387008093860032EA30938000A9
:1015300029E1209381001092890010928800109276
:101540008B0010928A009093A7008093A60030939E
:10155000A0002093A1001092A9001092A800109260
:10156000AB001092AA000895FC01809102018860EE
:10157000809302018FE193E00197F1F700C0000032
:1015800080910201877F80930201718360832689A5
:101590003789808D918D62307105D1F184F46115A8
:1015A0007105E1F06130710509F043C030938900A5
:1015B0002093880010928B0010928A0024C0633020
:1015C0007105C9F064307105A1F53093890020934D
:1015D000880010928B0010928A0022C030938900FC
:1015E0002093880030938B0020938A009093A90069
:1015F0008093A80019C0109289001092880030933F
:101600008B0020938A009093A9008093A8001DC0AE
:10161000109289001092880030938B0020938A00EA
:101620001092A9001092A8009093AB008093AA009A
:101630000895109289001092880010928B001092E9
:101640008A001092A9001092A8001092AB0010928C
:10165000AA00089560E070E087CFFB01228133810A
:1016600040815181FC01578B468B318F208F6081E7
:1016700071817ACFFC016081718176CFFC01758325
:10168000648360E070E070CF8F929F92AF92BF92C0
:10169000CF92DF92EF92FF920F931F93CF93DF933E
:1016A000EC0179010C811D810130110509F482C022
:1016B00024F40115110511F1BDC00230110509F422
:1016C00093C00330110509F0B5C0C4DF7AD30E8191
:1016D0001F8128853985601B710B820B930B0A854E
:1016E0001B852C853D85601771078207930708F4D9
:1016F000A1C01D821C8281E08F879CC0FA01E05C42
:10170000FF4FA080B180FB01E05CFF4F2081318161
:101710008E85273E310544F1992787FD90950196E6
:1017200022E0C22ED12CB6010E94B3148E878824E9
:101730008394912C9982888261E070E0CE0114DF5D
:101740008E8597EEA916B104ECF0992787FD909548
:101750000196B6010E94B3148E879982888261E057
:1017600070E0CE0101DF68C08823D1F08130E9F458
:1017700088EC9BEFAFEFBFEFF70184879587A687D3
:10178000B78713C0882361F0813079F448EC5BEFB0
:101790006FEF7FEFF701448755876687778705C02E
:1017A00088E394E0A0E0B0E0E7CF82E090E09D83A2
:1017B0008C8342C0FB01E05CFF4FE080F180FA01C6
:1017C000E05CFF4F0081118168E970E053DFF7E9C9
:1017D000EF16F1047CF10739110564F11F861982B7
:1017E00018821D821C8226C0C90133DE6115710575
:1017F00051F41982188260E070E0CE01B5DE1F86D8
:1018000001E010E019C077FF0AC083E090E09983FF
:101810008883673F7F4F54F064E970E009C084E03B
:1018200090E0998388836A307105B4F368E970E0C9
:10183000CE0120DF00E010E0C801DF91CF911F91C1
:101840000F91FF90EF90DF90CF90BF90AF909F905F
:101850008F9008950895FC01B89624E1DF011D9250
:101860002A95E9F7FC0115AE14AE17AE16AEE05C92
:10187000FF4F11821082329611821082DB01FC012F
:101880002BE430E08D919D9191838083338322837B
:101890003496275E3F4F253481E0380799F7089545
:1018A0000F931F93CF93DF93FC018B0124AD35ADD4
:1018B000E9012196D5AFC4AFC9016AE070E00E948A
:1018C000B3144496880F991F8E0F9F1FDC010D9350
:1018D0001C93DF01AE5BBF4F0D931C93659724F003
:1018E0002950310935AF24AF17AE16AE20E030E0F5
:1018F00040E050E0DF01A20FB31F98968D919C91BC
:101900009997840F951F2E5F3F4F2431310511F0B9
:10191000AC01F0CF64AD75AD6B30710514F06AE0C9
:1019200070E00E94B31477AF66AF80819181861713
:1019300097070CF447C0DF0120E030E0CD91DC9147
:101940001197C617D707B4F114964D915C9115976E
:10195000641775077CF18E01061B170BD9011396CE
:10196000AA0FBB1FAE0FBF1F0D90BC91A02D0A9FE9
:10197000C0010B9F900D1A9F900D1124641B750BD5
:10198000D9011196AA0FBB1FAE0FBF1F0D90BC91BE
:10199000A02D6A9F90016B9F300D7A9F300D11240E
:1019A000820F931FBE01641B750BDDD76115710596
:1019B00061F00DC014962E5F3F4F2231310509F0C2
:1019C000BDCF03C066EF7FEF02C067EE73E0E05C5F
:1019D000FF4F71836083DF91CF911F910F91089525
:1019E0009B01805C9F4FFC016081718141E050E070
:1019F000C9013ECC809164008E7F80936400809109
:101A00007A00876880937A0080917C008F7780933A
:101A10007C0080917C00806480937C0080917C00BD
:101A20008E7F80937C0080917C00826080937C001C
:101A300080917C008B7F80937C0080917C00877FED
:101A400080937C0080917C008F7E80937C008091CD
:101A50007C008F7D80937C0080917B008E7F8093C3
:101A60007B0080917B008D7F80937B0080917B0049
:101A70008B7F80937B0080917A00806480937A00D2
:101A800080917A0084FFFCCF80917A0080618093FE
:101A90007A008091780080917900089580917C008F
:101AA000807C80937C0080917C006F73682B6093B6
:101AB0007C0080917A00806480937A0080917A0023
:101AC00084FFFCCF80917A00806180937A008091BE
:101AD00078002091790090E0922B08950895CF939B
:101AE000DF93F8945A9AC9E6D0E0888180618883B0
:101AF0006CE872E08DEE94E098D268814AE050E0A4
:101B00008DEE94E06DD384E08CBBEA9A7894E5E0A6
:101B1000F1E0808181608083ECE6F0E0808182608A
:101B20008083E8E6F0E0808182608083DF91CF915E
:101B30000895FC0111861086138612860895FC0113
:101B4000828593850895FC01808591850895CF92C3
:101B5000DF92EF92FF920F931F93FC01408351831A
:101B6000628373830483158326833783C086D1867B
:101B7000E286F3861586148617861686118A108AE1
:101B80001F910F91FF90EF90DF90CF900895FC018F
:101B900057874687758764870895FC014083518382
:101BA000628373830895FC0144835583668377833E
:101BB0000895CF92DF92EF92FF920F931F93CF93EE
:101BC000DF93EC010C851D85061B170B688979894D
:101BD000600F711F798B688B882777FD8095982F10
:101BE000D3D5288539854A855B855AD66B017C011A
:101BF0008E859F85B801681B790B882777FD8095B6
:101C0000982FC2D52C813D814E815F8149D69B01A1
:101C1000AC01C701B60121D56B017C01B801882751
:101C200077FD8095982FB0D5288139814A815B81D5
:101C300037D69B01AC01C701B6010FD572D5CB01D8
:101C4000DF91CF911F910F91FF90EF90DF90CF9098
:101C50000895AF92BF92CF92DF92EF92FF920F93CF
:101C60001F93CF93DF93EC015B01198218821B82D3
:101C70001A821D821C821F821E82C12CD12C7601E9
:101C80009701860140E050E060E07FE308965FDF67
:101C900019821882BB82AA82BD82AC828AE090E05F
:101CA0009F838E83DF91CF911F910F91FF90EF90D3
:101CB000DF90CF90BF90AF900895089668CFFC0159
:101CC000411103C09081818102C0962F872F92839A
:101CD000838364837583442319F08AE090E002C013
:101CE00081E090E0978386830895CF93DF93EC01A2
:101CF000888199819B838A838C819D819983888344
:101D00008E819F818A3091051CF401969F838E837A
:101D1000CE0108964EDF9C0148815981BA01621BB1
:101D2000730BCA01820F931FDF91CF9108951F9209
:101D30000F920FB60F9211242F933F938F939F937F
:101D4000AF93BF938091E5049091E604A091E704DE
:101D5000B091E8043091E40423E0230F2D3720F400
:101D60000196A11DB11D05C026E8230F0296A11DF5
:101D7000B11D2093E4048093E5049093E604A093BE
:101D8000E704B093E8048091E9049091EA04A091FB
:101D9000EB04B091EC040196A11DB11D8093E90400
:101DA0009093EA04A093EB04B093EC04BF91AF913D
:101DB0009F918F913F912F910F900FBE0F901F9089
:101DC00018952FB7F8946091E5047091E60480911E
:101DD000E7049091E8042FBF0895789484B5826059
:101DE00084BD84B5816084BD85B5826085BD85B5BF
:101DF000816085BDEEE6F0E0808181608083E1E86E
:101E0000F0E01082808182608083808181608083A5
:101E1000E0E8F0E0808181608083E1EBF0E08081A8
:101E200084608083E0EBF0E0808181608083E1E981
:101E3000F0E0808182608083808181608083E0E93E
:101E4000F0E0808181608083E1EAF0E0808182605F
:101E50008083808181608083E0EAF0E0808181601E
:101E60008083E1E2F1E08081826080838081816013
:101E70008083E0E2F1E0808181608083EAE7F0E046
:101E800080818460808380818260808380818160A2
:101E900080838081806880831092C100089590E0E3
:101EA000FC013197E231F10508F04BC0E757FF4FD5
:101EB000ABC5809180008F7703C0809180008F7DBB
:101EC00080938000089580918000877FF9CF84B54A
:101ED0008F7702C084B58F7D84BD08958091B00056
:101EE0008F7703C08091B0008F7D8093B0000895FC
:101EF000809190008F7707C0809190008F7D03C004
:101F000080919000877F8093900008958091A00039
:101F10008F7707C08091A0008F7D03C08091A000C3
:101F2000877F8093A0000895809120018F7707C05C
:101F3000809120018F7D03C080912001877F809355
:101F4000200108950F931F93CF93DF931F92CDB776
:101F5000DEB7282F30E0F901EA5CFE4F8491F901E9
:101F6000E458FE4F1491F901EE53FE4F0491002303
:101F7000C1F0882319F0698392DF6981E02FF0E0D6
:101F8000EE0FFF1FE85FFD4FA591B4919FB7F89446
:101F90008C91611103C01095812301C0812B8C931A
:101FA0009FBF0F90DF91CF911F910F910895CF9216
:101FB000DF92EF92FF920F931F93CF93DF936C0109
:101FC0007A01EB01E60EF71E00E010E0CE15DF050A
:101FD00061F06991D601ED91FC910190F081E02DC5
:101FE000C6011995080F191FF1CFC801DF91CF91D4
:101FF0001F910F91FF90EF90DF90CF9008956115A2
:10200000710581F0DB010D900020E9F7AD01415031
:102010005109461B570BDC01ED91FC910280F381C5
:10202000E02D199480E090E00895E9CFDC01ED9176
:10203000FC910190F081E02D199463E972E0DFCF0B
:102040000F931F93CF93DF93EC01D9DF8C01CE0167
:10205000F4DF800F911FDF91CF911F910F910895B1
:102060008F929F92AF92BF92CF92DF92EF92FF92A8
:102070000F931F93CF93DF93CDB7DEB7A1970FB622
:10208000F894DEBF0FBECDBF7C01C42EE52FCB017F
:10209000D22E19A221E02D1510F02AE0D22E8E01A9
:1020A0000F5D1F4F8D2C912CA12CB12C6C2D7E2FF0
:1020B000A50194016BD48C2DD29E8019112401505E
:1020C00011098A3014F4805D01C0895CF8018083B5
:1020D000211531054105510521F0C22EE32FCA011A
:1020E000E5CFB801C7018BDFA1960FB6F894DEBF2C
:1020F0000FBECDBFDF91CF911F910F91FF90EF9059
:10210000DF90CF90BF90AF909F908F900895CF9227
:10211000DF92EF92FF920F931F93CF93DF93EC0127
:102120006A017B012115310579F4E881F98101907B
:10213000F081E02D642FDF91CF911F910F91FF90DF
:10214000EF90DF90CF9019942A303105D9F477FFC2
:1021500018C06DE26BDF8C0144275527BA014C197A
:102160005D096E097F092AE0CE017ADF800F911F99
:10217000DF91CF911F910F91FF90EF90DF90CF9063
:1021800008952AE0B701A601CE01DF91CF911F91FA
:102190000F91FF90EF90DF90CF9062CF0F931F933E
:1021A000CF93DF93EC019A01AB01662757FD609551
:1021B000762FADDF8C01CE0140DF800F911FDF91C4
:1021C000CF911F910F9108952115310541F4DC0144
:1021D000ED91FC910190F081E02D642F199440CF96
:1021E0000F931F93CF93DF93EC019A01462F50E09A
:1021F00060E070E0E9DF8C01CE011FDF800F911FEE
:10220000DF91CF911F910F9108951F920F920FB6FA
:102210000F9211240BB60F922F938F939F93EF93EE
:10222000FF93E091FD04F091FE048081E0910305AD
:10223000F091040582FD12C09081809106058F5FA8
:102240008F7320910705821751F0E0910605F0E0A9
:10225000E351FB4F958F8093060501C08081FF916C
:10226000EF919F918F912F910F900BBE0F900FBE0A
:102270000F901F9018951F920F920FB60F92112476
:102280000BB60F922F933F934F935F936F937F9370
:102290008F939F93AF93BF93EF93FF938DEE94E053
:1022A000D5D0FF91EF91BF91AF919F918F917F9189
:1022B0006F915F914F913F912F910F900BBE0F90B7
:1022C0000FBE0F901F9018958DEE94E056D021E030
:1022D000892B09F420E0822F08951092F0041092C7
:1022E000EF0488EE93E0A0E0B0E08093F1049093D7
:1022F000F204A093F304B093F40488EA92E090937C
:10230000EE048093ED0485EC90E09093FA048093C2
:10231000F90484EC90E09093FC048093FB0480EC3F
:1023200090E09093FE048093FD0481EC90E0909304
:1023300000058093FF0482EC90E090930205809367
:10234000010586EC90E090930405809303051092BC
:1023500006051092070510920805109209050895C8
:1023600008953BDDFDDF0E94E201CAEED1E10E944B
:10237000D6022097E1F32ED0FACFFC01818D228D79
:1023800090E0805C9F4F821B91098F73992708957D
:10239000FC01918D828D981731F0828DE80FF11D2F
:1023A000858D90E008958FEF9FEF0895FC01918D4A
:1023B000828D981761F0828DDF01A80FB11D5D96A7
:1023C0008C91928D9F5F9F73928F90E008958FEF15
:1023D0009FEF089584E691E1892B39F080E090E049
:1023E000892B19F071DF811125C080E090E0892BE5
:1023F00041F080E090E0892B21F00E9400008111E3
:102400001CC080E090E0892B41F080E090E0892BB7
:1024100021F00E940000811113C080E090E0892B20
:10242000A1F080E090E0892B81F00E9400008111F2
:102430000AC008950E940000D8CF0E940000E1CF9A
:102440000E940000EACF0C9400000895FC01848DE6
:10245000DF01A80FB11DA35ABF4F2C91848D90E0CE
:1024600001968F739927848FA689B7892C93A089A9
:10247000B1898C9180648C93938D848D981306C060
:102480000288F389E02D80818F7D80830895CF932A
:10249000DF93EC01888D8823C1F0EA89FB89808174
:1024A00085FD05C0A889B9898C9186FD0EC00FB63F
:1024B00007FCF5CF808185FFF2CFA889B9898C917F
:1024C00085FFEDCFCE01C2DFE8CFDF91CF91089538
:1024D000CF92DF92FF920F931F93CF93DF931F92C0
:1024E000CDB7DEB76C0181E0D60158968C93589732
:1024F0005B969C915B975C968C915C97981307C058
:102500005096ED91FC915197808185FD2DC0F6018B
:10251000038D10E00F5F1F4F0F731127F02EF60190
:10252000848DF81210C00FB607FCF9CFD601509673
:10253000ED91FC915197808185FFF1CFC6016983B0
:1025400085DF6981ECCF838DE80FF11DE35AFF4FE2
:102550006083D6015B960C935B975296ED91FC914C
:102560005397808180620CC0D6015696ED91FC9104
:10257000579760835096ED91FC91519780818064CC
:10258000808381E090E00F90DF91CF911F910F91B8
:10259000FF90DF90CF900895BF92CF92DF92EF929D
:1025A000FF92CF93DF93EC016A017B01B22EE889A1
:1025B000F98982E08083411581EE58076105710534
:1025C00099F060E079E08DE390E0A7019601DED11B
:1025D000215031094109510956954795379527955D
:1025E000211580E1380790F0E889F989108260E8C8
:1025F00074E88EE190E0A7019601C8D1215031091D
:10260000410951095695479537952795EC85FD85E4
:102610003083EE85FF852083188EEC89FD89B0829A
:10262000EA89FB89808180618083EA89FB898081D6
:1026300088608083EA89FB89808180688083EA8959
:10264000FB8980818F7D8083DF91CF91FF90EF9018
:10265000DF90CF90BF9008955058BB27AA270ED087
:10266000E5C0D6D030F0DBD020F031F49F3F11F43C
:102670001EF4CBC00EF4E095E7FBC1C0E92FE7D014
:1026800080F3BA17620773078407950718F071F48F
:102690009EF5FFC00EF4E0950B2EBA2FA02D0B0176
:1026A000B90190010C01CA01A0011124FF27591B97
:1026B00099F0593F50F4503E68F11A16F040A22F9D
:1026C000232F342F4427585FF3CF4695379527950E
:1026D000A795F0405395C9F77EF41F16BA0B620B0D
:1026E000730B840BBAF09150A1F0FF0FBB1F661F54
:1026F000771F881FC2F70EC0BA0F621F731F841F97
:1027000048F4879577956795B795F7959E3F08F0BC
:10271000B3CF9395880F08F09927EE0F979587957B
:10272000089504D06894B111B5C0089598D088F088
:102730009F5790F0B92F9927B751A0F0D1F0660FAD
:10274000771F881F991F1AF0BA95C9F712C0B130C8
:1027500081F09FD0B1E008959CC0672F782F882723
:10276000B85F39F0B93FCCF3869577956795B39507
:10277000D9F73EF490958095709561957F4F8F4F76
:102780009F4F0895E89409C097FB3EF4909580957B
:10279000709561957F4F8F4F9F4F9923A9F0F92F27
:1027A00096E9BB279395F695879577956795B795A5
:1027B000F111F8CFFAF4BB0F11F460FF1BC06F5F8B
:1027C0007F4F8F4F9F4F16C0882311F096E911C09D
:1027D000772321F09EE8872F762F05C0662371F0BE
:1027E00096E8862F70E060E02AF09A95660F771FD2
:1027F000881FDAF7880F9695879597F9089597F9C6
:102800009F6780E870E060E008959FEF80EC089596
:1028100000240A94161617061806090608950024BF
:102820000A9412161306140605060895092E039439
:10283000000C11F4882352F0BB0F40F4BF2B11F4AD
:1028400060FF04C06F5F7F4F8F4F9F4F089557FD0C
:102850009058440F551F59F05F3F71F04795880F0E
:1028600097FB991F61F09F3F79F0879508951216A5
:1028700013061406551FF2CF4695F1DF08C0161651
:1028800017061806991FF1CF869571056105089402
:102890000895E894BB2766277727CB0197F9089519
:1028A0000BD0C4CFB5DF28F0BADF18F0952309F0BC
:1028B000A6CFABCF1124EECFCADFA0F3959FD1F303
:1028C000950F50E0551F629FF001729FBB27F00DDE
:1028D000B11D639FAA27F00DB11DAA1F649F662733
:1028E000B00DA11D661F829F2227B00DA11D621F82
:1028F000739FB00DA11D621F839FA00D611D221F3C
:10290000749F3327A00D611D231F849F600D211D1F
:10291000822F762F6A2F11249F5750408AF0E1F0C2
:1029200088234AF0EE0FFF1FBB1F661F771F881F0B
:1029300091505040A9F79E3F510570F060CFAACF4B
:102940005F3FECF3983EDCF3869577956795B795F6
:10295000F795E7959F5FC1F7FE2B880F911D969520
:10296000879597F9089597FB072E16F4009406D0E3
:1029700077FD08D053D007FC05D03EF490958195A3
:102980009F4F0895709561957F4F0895A1E21A2E8B
:10299000AA1BBB1BFD010DC0AA1FBB1FEE1FFF1F03
:1029A000A217B307E407F50720F0A21BB30BE40B53
:1029B000F50B661F771F881F991F1A9469F760959A
:1029C0007095809590959B01AC01BD01CF01089554
:1029D000052E97FB16F400940FD057FD05D0D6DFD7
:1029E00007FC02D046F408C05095409530952195DB
:1029F0003F4F4F4F5F4F089590958095709561952B
:102A00007F4F8F4F9F4F0895EE0FFF1F0590F4915A
:102A1000E02D19940790F691E02D1994AA1BBB1B89
:102A200051E107C0AA1FBB1FA617B70710F0A61BCE
:102A3000B70B881F991F5A95A9F780959095BC01EF
:082A4000CD010895F894FFCFC9
:102A48000101009C00FA0190014E011C01FD00E209
:102A580000CD00B900AA009E001001D900B300996A
:102A6800008A0082007D0076006F006E004361637B
:102A780068652066756C6C2C2074686520666F6CC0
:102A88006C6F77696E6720436F6D6D616E6420436C
:102A9800616E742062652061646465643A00303157
:102AA80032333435363738390064656661756C748D
:102AB800000000000037050B05E004E804FB040AE9
:102AC80005463F065B4F666D7D077F6F454943525C
:102AD8004120000D0A006E616E00696E66006F7617
:102AE80066002E00000000006812D70FBD11D61135
:042AF800C8114712A8
:00000001FF
