:1000000013C1000042C1000040C100003FC1000018
:100010003CC100003AC1000038C1000036C10000F8
:1000200034C1000032C100004EC100002EC10000EA
:100030002CC100002AC1000028C1000026C1000018
:1000400024C1000022C1000020C100001EC1000028
:100050001CC100001AC1000018C100000C94EA0D78
:1000600014C100000C945F100C9495100EC1000098
:100070000CC100000AC1000008C1000006C1000058
:1000800004C1000002C1000000C10000FEC0000069
:10009000FCC00000FAC00000F8C0000078C60000F4
:1000A000F4C00000F2C00000F0C00000EEC000008C
:1000B000ECC00000EAC00000E8C00000E6C000009C
:1000C000E4C00000E2C00000E0C00000DEC00000AC
:1000D000DCC00000DAC00000D8C00000D6C00000BC
:1000E000D4C000005E0286028B02B6029202A60213
:1000F000BF02DA02DD02E0021103980398038D03C8
:100100001D0329033903450351035D036903750387
:100110008103BA0EBD0EAC0EB00EB60EF40EC10EBB
:10012000C50ECB0ECF0ED30ED90EDD0EE10EF40EA2
:10013000E70EEB0EEF0E00000A0B02090C0D0E0885
:1001400007030401000000000000000000000000A0
:10015000000000000000000000000000000000009F
:10016000000012111000000000000000000000005C
:10017000000000000000000000000000010210204C
:1001800020080810204010204080020102010804CD
:100190000201010204081020408080402010080461
:1001A00002018004020180402010080402010804BA
:1001B00002010102040810204080010204081020FE
:1001C0004080050505050705080808080202020227
:1001D0000A0A0808040404040101010101010101E3
:1001E0000303030303030303040707070C0C0C0CAE
:1001F0000C0C0C0C02020202060606060606060697
:100200000B0B0B0B0B0B0B0B000022002500280027
:100210002B002E003100340002010000050108010E
:100220000B0116022005C71011241FBECFEFD1E22B
:10023000DEBFCDBF00E00CBF12E0A0E0B2E0EEEE0A
:10024000F5E200E00BBF02C007900D92A03AB107A3
:10025000D9F725E0A0EAB2E001C01D92AE30B207A6
:10026000E1F712E0C8E2D2E000E006C022970109FF
:10027000FE010BBF0E94DD12C232D10780E00807E9
:10028000A9F70E940B110C94F512BACE1F920F928F
:100290000FB60F9211240BB60F928F939F93EF938B
:1002A000FF93EDE4F3E08081918101969183808357
:1002B000FF91EF919F918F910F900BBE0F900FBE0A
:1002C0000F901F9018951F920F920FB60F92112446
:1002D0000BB60F928F939F93EF93FF93EFE4F3E0AE
:1002E00080819181019691838083FF91EF919F910D
:1002F0008F910F900BBE0F900FBE0F901F9018950F
:10030000CF93DF9326E040E051EE60E070E081E7BC
:1003100094E00E9426122FEF81EE94E0215080405D
:100320009040E1F700C000006AE272E081E794E0EB
:100330000E94730F83EA93E0FBD688EA93E04DD3E3
:1003400060E070E08BE690E085D3A2D3C9E1D0E015
:1003500067E470E088E490E0FAD3AA2797FDA095BF
:10036000BA2F40918703509188036091890370915F
:100370008A03480F591F6A1F7B1F409387035093BE
:1003800088036093890370938A032FEF81EE94E0D2
:10039000215080409040E1F700C000002197C1F655
:1003A00060918703709188038091890390918A03FB
:1003B00029E130E040E050E00E94BB122093870327
:1003C000309388034093890350938A038DE493E02C
:1003D0000E94FE0986EA92E00E94180D8FE39CE9D4
:1003E0000197F1F700C00000609180004AE050E002
:1003F00081E794E00E944A10609181004AE050E059
:1004000081E794E00E944A106091A0004AE050E029
:1004100081E794E00E944A106091A1004AE050E018
:1004200081E794E0DF91CF910C944A1083EA93E046
:10043000DCD587E893E0E8D68DE493E093D783E3B7
:1004400093E00E94D50B82E393E00E94A30C66E147
:1004500072E08EEE92E00E94D60B62E072E08AEAD1
:1004600092E00E94D60B86EA92E00C94170D60E0B1
:1004700082E393E00E94F70CBC018EEE92E00E94B2
:10048000FB0B61E082E393E00E94F70CBC018AEA77
:1004900092E00E94FB0B87E893E0D0D68091A10206
:1004A000992787FD9095A92FB92F8A30910508F0DB
:1004B00093C0FC01EE58FF4F0C94D71283EA93E0EF
:1004C00037D68DE493E00E94C80A65E372E081E7C5
:1004D00094E00E94680F60914D0370914E034AE0D2
:1004E00050E081E794E00E94211063E472E081E72C
:1004F00094E00E94680F60914F03709150034AE0AE
:1005000050E081E794E00E9428106EC063EA73E037
:100510008EEE92E004C063EA73E08AEA92E00E9401
:10052000990C62C027E833E04AEA52E06EEE72E0CE
:100530008DE493E00E94D10A892B09F455C060E054
:1005400070E08DE493E00E94CF0B4EC082E090E01B
:10055000909356038093550327E833E04AEA52E02C
:100560006EEE72E08DE493E00E94D10A87E893E09A
:10057000E8D640E050E083EA93E0F2D535C06091E0
:10058000A502862F90E090938900809388001092B6
:100590008B0010928A009093A9008093A80010927B
:1005A000AB001092AA004AE050E081E794E00E947C
:1005B0004A101AC082E090E005C083E090E002C0DB
:1005C00084E090E0909352038093510368EC70E0D4
:1005D0008DE493E0E0D708C01092A10264E572E0D8
:1005E00081E794E00E94730F2FEF81EE94E0215099
:1005F00080409040E1F700C0000081E794E00E9455
:1006000030112091A2029927222309F4CCC0FC01C9
:10061000BD97ED30F10508F08BC0E458FF4F0C9406
:10062000D7128091000290910102919581959109D4
:10063000909301028093000208952091A3023091CB
:10064000A4024AE0429FC001439F900D11240196ED
:100650000BC02091A3023091A4024AE0429FC00146
:10066000439F900D112402969093A4028093A302BD
:1006700008952091A3023091A4024AE0429FC00154
:10068000439F900D11240396EFCF2091A302309148
:10069000A4024AE0429FC001439F900D112404969A
:1006A000E3CF2091A3023091A4024AE0429FC0010F
:1006B000439F900D11240596D7CF2091A30230912E
:1006C000A4024AE0429FC001439F900D1124069668
:1006D000CBCF2091A3023091A4024AE0429FC001F7
:1006E000439F900D11240796BFCF2091A302309114
:1006F000A4024AE0429FC001439F900D1124089636
:10070000B3CF2091A3023091A4024AE0429FC001DE
:10071000439F900D11240996A7CF2091A3023091F9
:10072000A4024AE0429FC001439F900D11249CCF38
:100730008091A0028F5F8093A00284300CF4B7C038
:100740008091A3029091A4022CE0289FA001299FF0
:10075000500D11242091000230910102429FC001EE
:10076000439F900D529F900D1124AA2797FDA095AD
:10077000BA2F8093930390939403A0939503B0931F
:10078000960381E090E09093010280930002109222
:10079000A4021092A3021092A20285E08093A1020B
:1007A0001092A00208958236910509F463C044F5C1
:1007B0008533910509F452C08CF48233910509F414
:1007C00047C024F4C19709F441C0089583339105CB
:1007D00009F440C0C49709F43FC0089588339105D7
:1007E00009F442C034F486339105D1F1C797D1F1B1
:1007F000089589339105D1F181369105C9F10895A4
:100800008736910509F440C05CF484369105B1F156
:100810009CF185369105A1F18636910599F10895EF
:100820008237910509F440C03CF48836910571F196
:100830008D36910599F108958337910521F0873719
:10084000910541F108951092A102089581E01FC021
:1008500082E01DC083E01BC084E019C085E017C0A2
:1008600086E015C087E013C088E011C089E00FC0A2
:100870008AE00DC08BE00BC08CE009C08DE007C0A2
:100880008EE005C08FE003C080E101C081E180936C
:10089000A10208958091A5028F5F03C08091A502F7
:1008A00081508093A502089581E08093A20208956B
:1008B0008091D80390E02091D903821B910908957B
:1008C0002091D9038091D803281750F4E22FF0E04B
:1008D000E652FC4F808190E02F5F2093D90308956A
:1008E0008FEF9FEF0895E091D9038091D803E81727
:1008F00030F4F0E0E652FC4F808190E008958FEFF5
:100900009FEF08950895CF92DF92EF92FF920F9399
:100910001F93CF93DF937C01CB018A012091B40315
:10092000222389F0EB016B01C40ED51ECC15DD0529
:1009300061F06991D701ED91FC910190F081E02D7A
:10094000C7011995F3CF642FF9D1C801DF91CF9179
:100950001F910F91FF90EF90DF90CF900895CF936C
:10096000DF931F92CDB7DEB769832091B4032223B2
:10097000D1F02091B503203240F021E030E0FC01BD
:100980003383228380E090E014C08091B603E82F87
:10099000F0E0E954FC4F998190838F5F8093B60318
:1009A0008093B50304C061E0CE010196C7D181E018
:1009B00090E00F90DF91CF910895FC011382128295
:1009C00048EE53E060E070E04483558366837783AC
:1009D00080E692E09183808308951092D90310926B
:1009E000D8031092B6031092B503F3C0862F41329C
:1009F00008F040E26AED73E00AD11092D9038093C7
:100A0000D8030895F3CF81E08093B4036093D703B4
:100A10001092B6031092B5030895F5CF0F93062FE9
:100A200021E04091B50367EB73E08091D70333D1A8
:100A30001092B6031092B5031092B4030F9108956B
:100A400088EA93E0BACFDC01ED91FC910190F0814E
:100A5000E02D19940F931F93CF93DF938C01EB013B
:100A600069E670E088EA93E0D8DFB80188EA93E0AD
:100A7000EADFBE0188EA93E0E6DF61E088EA93E01E
:100A8000CDDF81E090E0DF91CF911F910F9108952C
:100A900060E070E08AE090E0DDDF6FE070E08AE027
:100AA00090E0D8DF60E070E08AE090E0D3DF60E4BF
:100AB00070E084E290E0CEDF6CE870E085E290E0E8
:100AC000C9DF62E070E086E290E0C4DF68E870E0D1
:100AD00087E290E0BFDF6CE070E088E290E0BADF90
:100AE0006AE070E089E290E0B5DF61E870E08AE2F8
:100AF00090E0B0DF61E070E084E690E0ABDF63E0BF
:100B000070E087E690E0A6DF60E870E081E090E0CA
:100B1000A1DF64E070E084E390E09CDF60E070E0DF
:100B200084E690E097DF60E070E08AE690E092DF94
:100B300061E070E084E690E08DDF60E270E08AE6DC
:100B400090E088DF63E170E084E390E083CF0F936F
:100B50001F93CF93DF938C01EB0169E670E088EA85
:100B600093E05BDFB80188EA93E06DDF60E088EA3C
:100B700093E054DF21E030E041E050E069E670E0CE
:100B800088EA93E03FDF88EA93E09ADE182F69E66F
:100B900070E088EA93E041DFBE0188EA93E053DF2A
:100BA00060E088EA93E03ADF21E030E041E050E0A5
:100BB00069E670E088EA93E025DF88EA93E080DE6A
:100BC000982F8827810F911DDF91CF911F910F9151
:100BD00008951092670481E0809365041092640484
:100BE00061E084E10E94F50E61E085E10E94F50E6E
:100BF000E9EBF0E080818E7F808380818D7F808330
:100C000088E48093B80085E48093BC000895413265
:100C100008F03FC0909167049111FCCF91E0909350
:100C20006704209365042FEF2093FA0310923F048A
:100C3000240F20933E049093660490916604880FDD
:100C4000892B8093660480916404813041F4109272
:100C50006404809166048093BB0085EC01C085EE3E
:100C60008093BC00809167048130E1F380913F0460
:100C7000841710F440913F0420E434E0FB01D901D3
:100C80008A2F821B841718F48D918193F9CF842FBA
:100C9000089580E008950F93413208F046C0909186
:100CA00067049111FCCF92E0909367040093650470
:100CB0009FEF9093FA0310923F0440933E04FB0190
:100CC00060E474E0DB019A2F961B941718F491915D
:100CD0009D93F9CF1092660490916604880F892B3A
:100CE0008093660480916404813041F4109264041E
:100CF000809166048093BB0085EC01C085EE8093F3
:100D0000BC00222321F0809167048230E1F38091BE
:100D1000FA038F3F61F08091FA03803251F08091A5
:100D2000FA03803341F483E007C081E005C080E02E
:100D300003C082E001C084E00F910895613298F40D
:100D400020916704243089F460931C04FC018EE137
:100D500094E0DC012A2F281B261718F421912D93EB
:100D6000F9CF80E0089581E0089582E0089585ED4F
:100D70008093BC008091BC0084FDFCCF109267047E
:100D8000089585EC8093BC001092670408951F922B
:100D90000F920FB60F9211240BB60F922F933F9321
:100DA0004F935F936F937F938F939F93AF93BF9373
:100DB000EF93FF938091B900887F803609F49CC03F
:100DC00068F5883209F45BC090F4803109F454C0AE
:100DD00038F4882309F4F3C0883009F44DC0F2C018
:100DE000883109F44CC0803209F45DC0EBC0803416
:100DF00009F468C048F4803309F455C0883309F019
:100E0000E1C08093FA03A7C0803509F44FC088354C
:100E100009F45DC0883409F0D5C0D3C0883909F41D
:100E2000C4C0A8F4883709F467C038F4883609F4D8
:100E300063C0803709F460C0C5C0883809F4B5C004
:100E4000803909F45FC0803809F0BCC05BC0803BCA
:100E500009F483C038F4803A09F466C0883A09F48A
:100E60007CC0B0C0803C09F4A4C0883C09F4A1C097
:100E7000883B09F487C0A6C08091660410C0909199
:100E80003F0480913E04981770F5E0913F0481E0A3
:100E90008E0F80933F04F0E0E05CFB4F80818093F5
:100EA000BB0085EC83C08093FA038BC0E0913F04C4
:100EB00081E08E0F80933F048091BB00F0E0E05C06
:100EC000FB4F808390913F0480913E046BC0E09182
:100ED0003F0481E08E0F80933F048091BB00F0E0DF
:100EE000E05CFB4F80838091650481116AC081E0E2
:100EF0008093640484EA5EC083E080936704109268
:100F0000FB03CFCF8091FB03803208F04EC0E0910D
:100F1000FB0381E08E0F8093FB038091BB00F0E028
:100F2000E450FC4F8083BDCF8091FB03803230F4CE
:100F3000E091FB03F0E0E450FC4F108218DF609179
:100F4000FB0370E0E0916004F09161048CEF93E0AA
:100F500019951092FB0315DF35C084E08093670478
:100F600010921D0410921C04E0916204F09163043D
:100F7000199580911C04811105C081E080931C04A7
:100F800010921E04E0911D0481E08E0F80931D04D9
:100F9000F0E0E25EFB4F80818093BB0090911D04E6
:100FA00080911C04981708F47CCF85E88093BC00DE
:100FB00009C085EC8093BC001092670403C01092B6
:100FC000FA03D5DEFF91EF91BF91AF919F918F9181
:100FD0007F916F915F914F913F912F910F900BBE39
:100FE0000F900FBE0F901F901895FC011482138272
:100FF00087B18C6187B90895FC0183819481813028
:10100000910531F0029739F480818068808303C0B4
:101010008181806881834298449800000000439A4F
:1010200000000000000000000000429A00000000E4
:1010300020E030E0439842980000000048B18081F1
:1010400090E0022E02C0959587950A94E2F7817090
:10105000992773E0880F991F7A95E1F7482B48B9D3
:1010600000000000000000000000429A00000000A4
:101070002F5F3F4F28303105E9F620E030E04398FC
:1010800042980000000048B1818190E0022E02C029
:10109000959587950A94E2F78170992763E0880F08
:1010A000991F6A95E1F7482B48B90000000000003D
:1010B00000000000429A000000002F5F3F4F2830E0
:1010C0003105E9F620E030E0439842980000000046
:1010D00048B1828190E0022E02C0959587950A94CE
:1010E000E2F78170992753E0880F991F5A95E1F72D
:1010F000482B48B900000000000000000000429AA0
:10110000000000002F5F3F4F28303105E9F68BE0EB
:10111000429800000000439A000000000000000018
:101120000000429A00000000815091F7449A08950F
:10113000FF920F931F93CF93DF93EC01F880098107
:101140001A81188219821A8257DF1C821B82F88248
:1011500009831A83DF91CF911F910F91FF9008951A
:101160000F931F93CF93DF93FC0154834383683E17
:1011700083E07807DCF49B016933AFEF7A0714F45E
:1011800029E33FEF01E010E02617370709F400E0FC
:1011900037FF10C02C39BFEF3B0714F486E401C0C1
:1011A00080E480833195219531090FC027EE33E02B
:1011B00001E010E0C90164E670E00E948612645903
:1011C0007D4FDB0111968C918083CAE0D0E0C9018C
:1011D000BE010E9486129C01CB01BE010E948612B4
:1011E00084599D4FDC0111968C918183D901A459BA
:1011F000BD4F11968C918283CF01FEDEC801DF9135
:10120000CF911F910F910895FC01148215821682CF
:101210001782108611861286138614861586168606
:101220001786108A118A128A138A148A158A168AD6
:10123000178A108E118E128E138E08954F925F9220
:101240006F927F928F929F92AF92BF92CF92DF92D6
:10125000EF92FF92CF93DF93EC01488559856A8521
:101260007B854C835D836E837F8367E470E088E4D5
:1012700090E06DDCAC01662757FD6095762F4887BE
:1012800059876A877B874C895D896E897F89488BFE
:10129000598B6A8B7B8BE8D42B013C016C8B7D8B4B
:1012A0008E8B9F8BC884D984EA84FB848880998044
:1012B000AA80BB80C701B601681979098A099B0910
:1012C00024E630E040E050E00E94BB12D501C401AA
:1012D0000596A11DB11D8C159D05AE05BF0554F0E9
:1012E00085E0881A9108A108B108C814D904EA0455
:1012F000FB0464F48C859D85AE85BF85820F931FAA
:10130000A41FB51F8C879D87AE87BF8748895989E1
:101310006A897B89441A550A660A770A488E598E6B
:101320006A8E7B8EDF91CF91FF90EF90DF90CF9010
:10133000BF90AF909F908F907F906F905F904F90F5
:101340000895FC018485958523E0880F991F2A95CF
:10135000E1F7608D718D0E948612882777FD809558
:10136000982F0895CF93DF93EC011D821C821F827A
:101370001E821986188678D46A877B878C879D871A
:101380001E861F86188A198A1A8A1B8A1D8A1C8A39
:101390001F8A1E8ACE01489675D3E1E0F1E0808174
:1013A00088608083808180618083259A269A8FEF70
:1013B00090E0909387008093860032EA309380001B
:1013C00029E12093810010928900109288001092E8
:1013D0008B0010928A009093A7008093A600309310
:1013E000A0002093A1001092A9001092A8001092D2
:1013F000AB001092AA00DF91CF9108950F931F9335
:10140000CF93DF93EC01E1E0F1E08081886080839D
:10141000808180618083259A269A8FEF90E0909357
:1014200087008093860032EA3093800029E1209380
:101430008100109289001092880010928B00109207
:101440008A009093A7008093A6003093A000209379
:10145000A1001092A9001092A8001092AB00109267
:10146000AA008E01085E1F4F20E030E040E050E00F
:1014700065E070E0C80107D345E050E062E070E04D
:10148000C80109D386E990E09FAB8EABDF91CF9185
:101490001F910F910895CF93DF93EC01809102018A
:1014A0008860809302018FE193E00197F1F700C01B
:1014B000000080910201877F809302017D836C830D
:1014C000CE01489654D3FC01408151812281338161
:1014D0008C819D8182309105B9F174F40097D1F02F
:1014E000019709F042C05093890040938800109200
:1014F0008B0010928A0023C083309105C1F00497BD
:10150000A1F5509389004093880010928B001092AF
:101510008A0022C0509389004093880050938B002A
:1015200040938A003093A9002093A80019C010921C
:1015300089001092880050938B0040938A0030936A
:10154000A9002093A8001DC0109289001092880065
:1015500050938B0040938A001092A9001092A8002B
:101560003093AB002093AA0010C010928900109213
:10157000880010928B0010928A001092A90010929D
:10158000A8001092AB001092AA00DF91CF910895AD
:1015900060E070E080CFFC017783668364817581B1
:1015A0007ACF8F929F92AF92BF92CF92DF92EF92BB
:1015B000FF920F931F93CF93DF93EC017901888102
:1015C00099812A813B81821B930B9C012F5F3F4FA6
:1015D0002330310560F02C893D89181619061CF45A
:1015E0002E5F3F4F02C0225031093D8B2C8B088566
:1015F00019850130110509F481C024F40115110584
:1016000019F1BDC00230110509F493C00330110572
:1016100009F0B5C0CE01BCDF27D30A851B852C8518
:101620003D85601B710B820B930B0E851F852889EE
:101630003989601771078207930708F4A0C01986DB
:10164000188681E08B8B9BC0FA01E05CFF4FA08085
:10165000B180FB01E05CFF4F208131818A89273E08
:10166000310534F1992787FD9095019622E0C22E2D
:10167000D12CB6014BD78A8B88248394912C9D82E0
:101680008C8268E970E0CE0186DF8A8997EEA91620
:10169000B104E4F0992787FD90950196B60136D7FD
:1016A0008A8B9D828C8268E970E0CE0174DF69C00C
:1016B0008823D1F08130E9F488EC9BEFAFEFBFEFE6
:1016C000F70184879587A687B78713C0882361F0C1
:1016D000813079F448EC5BEF6FEF7FEFF7014487DF
:1016E00055876687778705C088E394E0A0E0B0E07F
:1016F000E7CF82E090E09987888743C0FB01E05CF8
:10170000FF4FE080F180FA01E05CFF4F0081118122
:1017100068E970E0CE013FDFF7E9EF16F1047CF1F4
:101720000739110564F11B8A1D821C8219861886EF
:1017300026C0C70106DE6115710551F41D821C82A9
:1017400060E070E0CE0127DF1B8A01E010E019C0E5
:1017500077FF0AC083E090E09D838C83673F7F4FD3
:1017600054F064E970E009C084E090E09D838C83CC
:101770006A307105B4F368E970E0CE010CDF00E077
:1017800010E0C801DF91CF911F910F91FF90EF9072
:10179000DF90CF90BF90AF909F908F900895FC0105
:1017A0007187608760E070E076CE0895FC01B8969E
:1017B00024E1DF011D922A95E9F7FC0115AE14AE74
:1017C00017AE16AEE05CFF4F118210823296118286
:1017D0001082DB01FC012BE430E08D919D9191831F
:1017E0008083338322833496275E3F4F253481E004
:1017F000380799F708950F931F93CF93DF93FC0158
:101800008B0124AD35ADE9012196D5AFC4AFC90137
:101810006AE070E07BD64496880F991F8E0F9F1F59
:10182000DC010D931C93DF01AE5BBF4F0D931C9346
:10183000659724F02950310935AF24AF17AE16AEA5
:1018400020E030E040E050E0DF01A20FB31F9896A7
:101850008D919C919997840F951F2E5F3F4F243156
:10186000310511F0AC01F0CF64AD75AD6B30710591
:1018700014F06AE070E04AD677AF66AF808191815C
:10188000861797070CF447C0DF0120E030E0CD91C8
:10189000DC911197C617D707B4F114964D915C915E
:1018A0001597641775077CF18E01061B170BD9017C
:1018B0001396AA0FBB1FAE0FBF1F0D90BC91A02D9A
:1018C0000A9FC0010B9F900D1A9F900D1124641B5D
:1018D000750BD9011196AA0FBB1FAE0FBF1F0D903C
:1018E000BC91A02D6A9F90016B9F300D7A9F300DA7
:1018F0001124820F931FBE01641B750B07D661155F
:10190000710561F00DC014962E5F3F4F22313105F5
:1019100009F0BDCF03C066EF7FEF02C067EE73E052
:10192000E05CFF4F71836083DF91CF911F910F9136
:1019300008959B01805C9F4FFC016081718141E0B3
:1019400050E0C9010DCC809164008E7F80936400CB
:1019500080917A00876880937A0080917C008F77ED
:1019600080937C0080917C00806480937C008091D7
:101970007C008E7F80937C0080917C0082608093CD
:101980007C0080917C008B7F80937C0080917C0028
:10199000877F80937C0080917C008F7E80937C0089
:1019A00080917C008F7D80937C0080917B008E7F76
:1019B00080937B0080917B008D7F80937B00809162
:1019C0007B008B7F80937B0080917A008064809382
:1019D0007A0080917A0084FFFCCF80917A00806148
:1019E00080937A00809178008091790008958091A9
:1019F0007C00807C80937C0080917C006F73682BDE
:101A000060937C0080917A00806480937A0080915A
:101A10007A0084FFFCCF80917A00806180937A0005
:101A2000809178002091790090E0922B089508959C
:101A3000CF93DF93F8945A9AC9E6D0E08881806208
:101A4000888367E772E081E794E042D268814AE0E8
:101A500050E081E794E01ED384E08CBBEA9A78944E
:101A6000E5E0F1E0808181608083ECE6F0E0808158
:101A700082608083E8E6F0E0808182608083DF918D
:101A8000CF9108950895FC01758B648B578B468B1D
:101A9000318F208F0895FC01461757078CF0718B0A
:101AA000608B538B428B84819581481759071CF4B6
:101AB0005583448308958617970714F475836483C8
:101AC0000895EF92FF920F931F93CF93DF93EC0152
:101AD000CBD08B019C0188819981B801681B790B5F
:101AE000EE80FF808A819B81E81AF90AE69EC00198
:101AF000E79E900DF69E900D11244A855B85840F1C
:101B0000951F9B878A874C895D89E49EF001E59E3D
:101B1000F00DF49EF00D1124AE89BF898A9FA001BB
:101B20008B9F500D9A9F500D1124E40FF51F8E8549
:101B30009F85A701481B590BCA01E8D4488D598DD0
:101B4000649FC001659F900D749F900D1124E80F54
:101B5000F91FFD83EC83FF86EE8619830883CF018E
:101B6000DF91CF911F910F91FF90EF9008950F9308
:101B70001F93CF93DF9300D01F92CDB7DEB7FC0148
:101B800020A131A1048D158D468D578D401B510B21
:101B9000249FC001259F900D349F900D11246AE071
:101BA00070E0B4D4600F711F738F628F2A303105DB
:101BB00024F42F5F3F4F31A320A3CF0182DFCE015A
:101BC00001960F900F900F900F90DF91CF911F9182
:101BD0000F9108951F920F920FB60F9211242F9319
:101BE0003F938F939F93AF93BF938091690490919C
:101BF0006A04A0916B04B0916C043091680423E0F6
:101C0000230F2D3720F40196A11DB11D05C026E834
:101C1000230F0296A11DB11D2093680480936904CF
:101C200090936A04A0936B04B0936C0480916D044C
:101C300090916E04A0916F04B09170040196A11D63
:101C4000B11D80936D0490936E04A0936F04B093C4
:101C50007004BF91AF919F918F913F912F910F9001
:101C60000FBE0F901F9018952FB7F89460916904DC
:101C700070916A0480916B0490916C042FBF089559
:101C8000789484B5826084BD84B5816084BD85B557
:101C9000826085BD85B5816085BDEEE6F0E080811E
:101CA00081608083E1E8F0E010828081826080833F
:101CB000808181608083E0E8F0E0808181608083C2
:101CC000E1EBF0E0808184608083E0EBF0E08081F4
:101CD00081608083E1E9F0E080818260808380819F
:101CE00081608083E0E9F0E0808181608083E1EAC7
:101CF000F0E0808182608083808181608083E0EA7F
:101D0000F0E0808181608083E1E2F1E080818260A7
:101D10008083808181608083E0E2F1E08081816066
:101D20008083EAE7F0E08081846080838081826044
:101D3000808380818160808380818068808310922D
:101D4000C100089590E0FC013197E231F10508F0FF
:101D50004BC0E757FF4F2BC4809180008F7703C0A3
:101D6000809180008F7D8093800008958091800015
:101D7000877FF9CF84B58F7702C084B58F7D84BD0E
:101D800008958091B0008F7703C08091B0008F7D5F
:101D90008093B0000895809190008F7707C0809164
:101DA00090008F7D03C080919000877F809390008A
:101DB00008958091A0008F7707C08091A0008F7D4B
:101DC00003C08091A000877F8093A0000895809138
:101DD00020018F7707C0809120018F7D03C0809103
:101DE0002001877F8093200108950F931F93CF9345
:101DF000DF931F92CDB7DEB7282F30E0F901EA5C00
:101E0000FE4F8491F901E458FE4F1491F901EE530D
:101E1000FE4F04910023C1F0882319F0698392DFFB
:101E20006981E02FF0E0EE0FFF1FE85FFD4FA59105
:101E3000B4919FB7F8948C91611103C010958123E0
:101E400001C0812B8C939FBF0F90DF91CF911F9189
:101E50000F910895CF92DF92EF92FF920F931F930D
:101E6000CF93DF936C017A01EB01E60EF71E00E0E1
:101E700010E0CE15DF0561F06991D601ED91FC917E
:101E80000190F081E02DC6011995080F191FF1CFBF
:101E9000C801DF91CF911F910F91FF90EF90DF90DC
:101EA000CF9008956115710581F0DB010D90002040
:101EB000E9F7AD0141505109461B570BDC01ED918B
:101EC000FC910280F381E02D199480E090E0089568
:101ED000E9CFDC01ED91FC910190F081E02D1994A6
:101EE0006EE772E0DFCF0F931F93CF93DF93EC0188
:101EF000D9DF8C01CE01F4DF800F911FDF91CF91EC
:101F00001F910F9108958F929F92AF92BF92CF929F
:101F1000DF92EF92FF920F931F93CF93DF93CDB792
:101F2000DEB7A1970FB6F894DEBF0FBECDBF7C0120
:101F3000C42EE52FCB01D22E19A221E02D1510F0D1
:101F40002AE0D22E8E010F5D1F4F8D2C912CA12CDB
:101F5000B12C6C2D7E2FA5019401EBD28C2DD29E3D
:101F600080191124015011098A3014F4805D01C0D8
:101F7000895CF8018083211531054105510521F067
:101F8000C22EE32FCA01E5CFB801C7018BDFA196AE
:101F90000FB6F894DEBF0FBECDBFDF91CF911F917A
:101FA0000F91FF90EF90DF90CF90BF90AF909F90F8
:101FB0008F900895CF92DF92EF92FF920F931F932D
:101FC000CF93DF93EC016A017B012115310579F490
:101FD000E881F9810190F081E02D642FDF91CF91AC
:101FE0001F910F91FF90EF90DF90CF9019942A30BE
:101FF0003105D9F477FF18C06DE26BDF8C014427FF
:102000005527BA014C195D096E097F092AE0CE01F6
:102010007ADF800F911FDF91CF911F910F91FF9079
:10202000EF90DF90CF9008952AE0B701A601CE018E
:10203000DF91CF911F910F91FF90EF90DF90CF90A4
:1020400062CF9A01AB01662757FD6095762FB2CF1C
:102050000F931F93CF93DF93EC019A01AB01662797
:1020600057FD6095762FA6DF8C01CE0139DF800FFA
:10207000911FDF91CF911F910F9108952115310587
:1020800041F4DC01ED91FC910190F081E02D642F91
:10209000199439CF0F931F93CF93DF93EC019A01DB
:1020A000462F50E060E070E0E9DF8C01CE0118DFE0
:1020B000800F911FDF91CF911F910F9108951F9273
:1020C0000F920FB60F9211240BB60F922F938F938E
:1020D0009F93EF93FF93E0918104F09182048081BC
:1020E000E0918704F091880482FD12C09081809174
:1020F0008A048F5F8F7320918B04821751F0E091D7
:102100008A04F0E0EF58FB4F958F80938A0401C05A
:102110008081FF91EF919F918F912F910F900BBE36
:102120000F900FBE0F901F9018951F920F920FB631
:102130000F9211240BB60F922F933F934F935F93FF
:102140006F937F938F939F93AF93BF93EF93FF937F
:1021500081E794E0D5D0FF91EF91BF91AF919F912E
:102160008F917F916F915F914F913F912F910F9040
:102170000BBE0F900FBE0F901F90189581E794E053
:1021800056D021E0892B09F420E0822F0895109287
:1021900074041092730488EE93E0A0E0B0E08093A2
:1021A000750490937604A0937704B093780483E940
:1021B00092E0909372048093710485EC90E0909388
:1021C0007E0480937D0484EC90E09093800480935F
:1021D0007F0480EC90E0909382048093810481ECF2
:1021E00090E0909384048093830482EC90E0909339
:1021F00086048093850486EC90E090938804809315
:10220000870410928A0410928B0410928C0410920E
:102210008D040895089534DDFDDF0E948001C4E43B
:10222000D1E10E9437022097E1F32ED0FACFFC01D2
:10223000818D228D90E0805C9F4F821B91098F736E
:1022400099270895FC01918D828D981731F0828D28
:10225000E80FF11D858D90E008958FEF9FEF0895B1
:10226000FC01918D828D981761F0828DDF01A80F9E
:10227000B11D5D968C91928D9F5F9F73928F90E0C0
:1022800008958FEF9FEF08958EEB90E1892B39F041
:1022900080E090E0892B19F071DF811125C080E08A
:1022A00090E0892B41F080E090E0892B21F00E94A2
:1022B000000081111CC080E090E0892B41F080E09B
:1022C00090E0892B21F00E940000811113C080E072
:1022D00090E0892BA1F080E090E0892B81F00E94B2
:1022E000000081110AC008950E940000D8CF0E940A
:1022F0000000E1CF0E940000EACF0C940000089596
:10230000FC01848DDF01A80FB11DA35ABF4F2C9192
:10231000848D90E001968F739927848FA689B78961
:102320002C93A089B1898C9180648C93938D848D3A
:10233000981306C00288F389E02D80818F7D808309
:102340000895CF93DF93EC01888D8823C1F0EA894B
:10235000FB89808185FD05C0A889B9898C9186FD9E
:102360000EC00FB607FCF5CF808185FFF2CFA8899C
:10237000B9898C9185FFEDCFCE01C2DFE8CFDF9127
:10238000CF910895CF92DF92FF920F931F93CF9337
:10239000DF931F92CDB7DEB76C0181E0D60158966E
:1023A0008C9358975B969C915B975C968C915C970D
:1023B000981307C05096ED91FC915197808185FD4F
:1023C0002DC0F601038D10E00F5F1F4F0F73112713
:1023D000F02EF601848DF81210C00FB607FCF9CF6D
:1023E000D6015096ED91FC915197808185FFF1CFF8
:1023F000C601698385DF6981ECCF838DE80FF11D0C
:10240000E35AFF4F6083D6015B960C935B9752961D
:10241000ED91FC915397808180620CC0D601569655
:10242000ED91FC91579760835096ED91FC915197F7
:1024300080818064808381E090E00F90DF91CF9174
:102440001F910F91FF90DF90CF900895BF92CF9290
:10245000DF92EF92FF92CF93DF93EC016A017B0151
:10246000B22EE889F98982E08083411581EE580710
:102470006105710599F060E079E08DE390E0A701D6
:10248000960157D021503109410951095695479578
:1024900037952795211580E1380790F0E889F9896B
:1024A000108260E874E88EE190E0A701960141D0C7
:1024B000215031094109510956954795379527957E
:1024C000EC85FD853083EE85FF852083188EEC89B1
:1024D000FD89B082EA89FB89808180618083EA89F5
:1024E000FB89808188608083EA89FB89808180689C
:1024F0008083EA89FB8980818F7D8083DF91CF9102
:10250000FF90EF90DF90CF90BF90089597FB072E3C
:1025100016F4009406D077FD08D053D007FC05D000
:102520003EF4909581959F4F0895709561957F4FEA
:102530000895A1E21A2EAA1BBB1BFD010DC0AA1F04
:10254000BB1FEE1FFF1FA217B307E407F50720F01C
:10255000A21BB30BE40BF50B661F771F881F991F97
:102560001A9469F760957095809590959B01AC01E0
:10257000BD01CF010895052E97FB16F400940FD0EE
:1025800057FD05D0D6DF07FC02D046F408C05095B1
:102590004095309521953F4F4F4F5F4F089590954F
:1025A0008095709561957F4F8F4F9F4F0895EE0FE7
:1025B000FF1F0590F491E02D19940790F691E02DFE
:1025C0001994AA1BBB1B51E107C0AA1FBB1FA6176A
:1025D000B70710F0A61BB70B881F991F5A95A9F7CC
:0E25E00080959095BC01CD010895F894FFCF31
:1025EE000100FA0190014E011C01FD00E200CD0038
:1025FE00B900AA009E001001D900B30099008A000C
:10260E0082007D0076006F006E003031323334353B
:10261E003637383900696E7465727275707431723E
:10262E003A200020202020696E74657272757074D5
:10263E00326C200064656661756C740000000000E9
:10264E00AF0483045804600473048204463F065B9F
:10265E004F666D7D077F6F454943524120000D0A3D
:10266E00006E616E00696E66006F7666002E000069
:10267E00000000C2112A0F171130112211A11100F2
:00000001FF
