:1000000013C1000042C1000040C10000B1C10000A6
:100010003CC100003AC1000038C1000036C10000F8
:1000200034C1000032C10000E0C100002EC1000058
:100030002CC100002AC1000028C1000026C1000018
:1000400024C1000022C1000020C100001EC1000028
:100050001CC100001AC1000018C100000C94B50FAB
:1000600014C100000C942A120C9460120EC10000FE
:100070000CC100000AC1000008C1000006C1000058
:1000800004C1000002C1000000C10000FEC0000069
:10009000FCC00000FAC00000F8C000000C94E108A9
:1000A000F4C00000F2C00000F0C00000EEC000008C
:1000B000ECC00000EAC00000E8C00000E6C000009C
:1000C000E4C00000E2C00000E0C00000DEC00000AC
:1000D000DCC00000DAC00000D8C00000D6C00000BC
:1000E000D4C00000590365036B03C8047303B10453
:1000F000D104EC04020505054B05C805C805BA0581
:10010000570562056D05780583058E059905A405DB
:10011000AF058510881077107B108110BF108C10F0
:10012000901096109A109E10A410A810AC10BF103A
:10013000B210B610BA1000000A0B02090C0D0E081E
:1001400007030401000000000000000000000000A0
:10015000000000000000000000000000000000009F
:10016000000012111000000000000000000000005C
:10017000000000000000000000000000010210204C
:1001800020080810204010204080020102010804CD
:100190000201010204081020408080402010080461
:1001A00002018004020180402010080402010804BA
:1001B00002010102040810204080010204081020FE
:1001C0004080050505050705080808080202020227
:1001D0000A0A0808040404040101010101010101E3
:1001E0000303030303030303040707070C0C0C0CAE
:1001F0000C0C0C0C02020202060606060606060697
:100200000B0B0B0B0B0B0B0B000022002500280027
:100210002B002E003100340002010000050108010E
:100220000B01D4023A07921211241FBECFEFD1E284
:10023000DEBFCDBF00E00CBF13E0A0E0B2E0E4E819
:10024000F9E200E00BBF02C007900D92A83EB10793
:10025000D9F726E0A8EEB3E001C01D92A03CB2079A
:10026000E1F712E0C8E2D2E000E006C022970109FF
:10027000FE010BBF0E94A814C232D10780E008071C
:10028000A9F70E94D6120C94C014BACEDF92EF9256
:10029000FF920F931F93CF93DF93EC01D62E8A0129
:1002A0007C0184E6E80EF11CF70180819181809742
:1002B000F9F46CE272E083E296E00E9433116D2D56
:1002C00083E296E00E9434116BEA73E083E296E0E9
:1002D0000E9433114AE050E0B80183E296E0DF91DA
:1002E000CF911F910F91FF90EF90DF900C94F3113D
:1002F0006DE572E083E296E00E9433116D2D83E29A
:1003000096E00E9434116BEA73E083E296E00E946B
:1003100033114AE050E0B80183E296E00E94F31105
:100320009E012E593F4FF90180819181FE01E80F16
:10033000F91FD082FC017096EE0FFF1FEC0FFD1F1E
:1003400011830083019660E270E00E945114F9016C
:1003500091838083F70180819181019691838083CD
:10036000DF91CF911F910F91FF90EF90DF90089553
:100370001F920F920FB60F9211240BB60F922F936C
:100380003F934F935F936F937F938F939F93AF931D
:10039000BF93EF93FF9380910E0490910F04019609
:1003A00090930F0480930E04209121053091220533
:1003B000821793073CF081E0809323058BE195E061
:1003C0000E94C00CFF91EF91BF91AF919F918F91CF
:1003D0007F916F915F914F913F912F910F900BBE45
:1003E0000F900FBE0F901F9018951F920F920FB68F
:1003F0000F9211240BB60F922F933F934F935F935D
:100400006F937F938F939F93AF93BF93EF93FF93DC
:10041000809110049091110401969093110480939F
:1004200010042091210530912205821793073CF09A
:1004300081E0809323058BE195E00E94C00CFF9141
:10044000EF91BF91AF919F918F917F916F915F914C
:100450004F913F912F910F900BBE0F900FBE0F90B9
:100460001F901895CF93DF9326E040E051EE60E0B7
:1004700070E083E296E00E94F1132FEF81EE94E0AA
:10048000215080409040E1F700C000006AE772E030
:1004900083E296E00E943E1185E595E00E94B20A53
:1004A0008AE595E0B4D460E070E08BE690E0ECD4AF
:1004B00009D5C9E1D0E067E470E088E490E061D557
:1004C000AA2797FDA095BA2F4091390550913A057A
:1004D00060913B0570913C05480F591F6A1F7B1FB7
:1004E0004093390550933A0560933B0570933C0562
:1004F0002FEF81EE94E0215080409040E1F700C062
:1005000000002197C1F66091390570913A058091FC
:100510003B0590913C0529E130E040E050E00E942D
:1005200086142093390530933A0540933B05509348
:100530003C058BE195E00E941B0C86E094E00E9454
:10054000CA0E8FE39CE90197F1F700C0000064E652
:1005500070E08AEF93E00E94160F65E070E08AEF8A
:1005600093E00E941E0F60E270E08AEF93E00E9429
:100570001A0F609102027091030241E082EF93E052
:100580000E947D0F809102029091030290933005AA
:1005900080932F0540E050E060E070E082EF93E050
:1005A000DF91CF910C947B0F85E595E038D789E3F7
:1005B00095E00E941E0B8BE195E00E94CC0B81E040
:1005C00095E00E94810D80E095E00E94550E10920A
:1005D000FB041092FA041092FD041092FC04109295
:1005E000FF041092FE0468E172E086E594E00E9448
:1005F000820D64E072E082E194E00E94820D86E068
:1006000094E00E94C90E609102027091030282EF91
:1006100093E00C94560F6F927F928F929F92AF92BD
:10062000BF92CF92DF92EF92FF920F931F93CF93DF
:10063000DF9300D01F92CDB7DEB760E080E095E099
:100640000E94A90EBC0186E594E00E94A70D61E01E
:1006500080E095E00E94A90EBC0182E194E00E9436
:10066000A70D89E395E00E94380B86E094E00E9494
:10067000FA0E8C0186E094E00E94FE0EBC01601B25
:10068000710B82EF93E00E94930F69837A838B83CF
:100690009C838091ED03992787FD9095A92FB92F11
:1006A0008A30910508F0BEC1FC01EE58FF4F0C9452
:1006B000A21485E595E056D78BE195E00E94C00C29
:1006C00086E094E00E94F40EB5C140E065E575E077
:1006D00086E594E005C040E065E575E082E194E0E0
:1006E0000E94450EA7C18091E903882309F48CC0BC
:1006F0008091FA049091FB042091FC043091FD0458
:100700008217930741F486E68093EC031092EB0383
:100710001092EA0323C0FC01E656FB4F2081209390
:10072000EC03FC01EE0FFF1FE654FB4F20813181EB
:100730003093EB032093EA03019660E270E00E949D
:1007400051149093FB048093FA048091FE049091DD
:10075000FF0401979093FF048093FE0486E094E0E9
:100760000E94F40E10922305109224058091EC0350
:10077000863649F48091EA039091EB03892B31F49A
:100780001092ED0357C18237A1F036C060E070E0EF
:100790008BE195E00E947B0D2091EA033091EB0301
:1007A00044E6429FC001439F900D11246CE270E02B
:1007B00019C062E070E08BE195E00E947B0D209112
:1007C000EA033091EB034AE0429FC001439F900D42
:1007D00011248D3D2FEF920764F421E0209324052E
:1007E0006CED7FEF0E9451147093220560932105F8
:1007F00009C064E270E0F6CF65E872E083E296E05B
:100800000E943E111092E90366E0E62E64E0F62EA7
:100810008E010F5F1F4F29E335E042E154E066E5AA
:1008200074E08BE195E00E94D20C81309105E9F4EF
:100830006FE972E083E296E00E9433116091EC036D
:1008400083E296E00E9434116BEA73E083E296E063
:100850000E9433116091EA037091EB034AE050E08B
:1008600083E296E00E94F31178C0019609F0E2C09D
:1008700069EC72E083E296E00E9433116091EC0330
:1008800083E296E00E9434116BEA73E083E296E023
:100890000E9433116091EA037091EB034AE050E04B
:1008A00083E296E00E94EC116FED72E083E296E045
:1008B0000E943E1150E2E52EF12C2091FE04309171
:1008C000FF04121613060CF048C08091FA049091B0
:1008D000FB044091FC045091FD0484179507D1F06E
:1008E000FC01E656FB4FD080FC01EE0FFF1FE654E3
:1008F000FB4F008111810196B7010E945114909322
:10090000FB048093FA04215031093093FF042093B3
:10091000FE0404C000E010E086E6D82E60E173E03B
:1009200083E296E00E9433116D2D83E296E00E94EF
:1009300034116BEA73E083E296E00E9433114AE0DF
:1009400050E0B80183E296E00E94EC1165E273E0AA
:1009500083E296E00E943E11B0CF81E08093E903EC
:1009600069C082E090E09093200580931F0506E027
:10097000E02E04E0F02E8E010F5F1F4F29E335E0DB
:1009800042E154E066E574E08BE195E00E94D20C10
:1009900089E395E0F0D640E050E085E595E0FAD5B2
:1009A00049C06091F103862F90E090938900809375
:1009B000880010928B0010928A009093A900809377
:1009C000A8001092AB001092AA004AE050E083E227
:1009D00096E00E9415122EC081E090E090931C05D5
:1009E00080931B05BE016F5F7F4F8BE195E0CBD7F6
:1009F0008FEF99EF20E0815090402040E1F700C058
:100A0000000018C083E090E002C084E090E0909382
:100A10001C0580931B0568EC70E08BE195E00E945B
:100A2000770D08C01092ED0368E373E083E296E06F
:100A30000E943E118FEF91EE24E0815090402040C3
:100A4000E1F700C0000050E1A52EDD24D39462E759
:100A5000C62E71E1972EE2E08E2EF4E07F2EA6E600
:100A6000BA2EEE24E394F12C1AE0612E83E296E094
:100A70000E94FB128C018091EE031127882309F458
:100A8000D1C0F801BD97ED30F10508F081C0E45800
:100A9000FF4F0C94A2148091000290910102919555
:100AA00081959109909301028093000204C12091E5
:100AB000EF033091F003629EC001639E900D1124FC
:100AC000019661C02091EF033091F003629EC00156
:100AD000639E900D1124029656C02091EF03309131
:100AE000F003629EC001639E900D112403964BC0DB
:100AF0002091EF033091F003629EC001639E900D40
:100B00001124049640C02091EF033091F003629EBF
:100B1000C001639E900D1124059635C02091EF030E
:100B20003091F003629EC001639E900D11240696E1
:100B30002AC02091EF033091F003629EC001639EB2
:100B4000900D112407961FC02091EF033091F00300
:100B5000629EC001639E900D1124089614C02091DE
:100B6000EF033091F003629EC001639E900D11244B
:100B7000099609C02091EF033091F003629EC001F5
:100B8000639E900D11249093F0038093EF0393C024
:100B90008091EF039091F003181619060CF08BC0AA
:100BA0002091E803263679F0223709F520910002DA
:100BB00030910102829FA001839F500D929F500DA2
:100BC000112462E711C0209100023091010221300E
:100BD000310519F4AC0166E607C060E473E083E216
:100BE00096E00E94331103C08AE994E04FDBF09253
:100BF0000102E09200021092F0031092EF031092B3
:100C0000E8031092EE030636110539F0023711059C
:100C100009F051C0C092E80302C0B092E803D0923C
:100C2000EE0349C007361105C9F1ACF402331105D2
:100C300069F134F401331105F1F5D092ED033BC0B5
:100C40000436110531F106361105A9F5D092EE03EF
:100C5000B092E80330C00237110549F154F4083668
:100C60001105F9F00D36110531F58091F103815030
:100C70001BC00337110539F007371105E1F48091E6
:100C8000F1038F5F11C01092ED0315C08092ED0348
:100C900012C07092ED03D092E9030DC0A092ED0353
:100CA0000AC09092ED0307C08093F10304C0D09274
:100CB000EE03C092E8038091EE038111D7CE0F902E
:100CC0000F900F900F90DF91CF911F910F91FF9098
:100CD000EF90DF90CF90BF90AF909F908F907F90DC
:100CE0006F90089580918A0590E020918B05821B7A
:100CF0009109089520918B0580918A05281750F459
:100D0000E22FF0E0E457FA4F808190E02F5F2093CC
:100D10008B0508958FEF9FEF0895E0918B058091EB
:100D20008A05E81730F4F0E0E457FA4F808190E04C
:100D300008958FEF9FEF08950895CF92DF92EF927D
:100D4000FF920F931F93CF93DF937C01CB018A0116
:100D500020916605222389F0EB016B01C40ED51E9C
:100D6000CC15DD0561F06991D701ED91FC91019001
:100D7000F081E02DC7011995F3CF642FF9D1C80197
:100D8000DF91CF911F910F91FF90EF90DF90CF9067
:100D90000895CF93DF931F92CDB7DEB7698320917B
:100DA00066052223D1F020916705203240F021E032
:100DB00030E0FC013383228380E090E014C0809116
:100DC0006805E82FF0E0E759FA4F998190838F5F2B
:100DD000809368058093670504C061E0CE010196A9
:100DE000C7D181E090E00F90DF91CF910895FC0191
:100DF0001382128248EE53E060E070E04483558332
:100E00006683778385E893E09183808308951092C9
:100E10008B0510928A051092680510926705F3C041
:100E2000862F413208F040E26CE875E00AD110925A
:100E30008B0580938A050895F3CF81E08093660542
:100E40006093890510926805109267050895F5CFA3
:100E50000F93062F21E04091670569E675E08091C8
:100E6000890533D1109268051092670510926605C6
:100E70000F9108958AE595E0BACFDC01ED91FC91E0
:100E80000190F081E02D19940F931F93CF93DF937E
:100E90008C01EB0169E670E08AE595E0D8DFB801E6
:100EA0008AE595E0EADFBE018AE595E0E6DF61E0EC
:100EB0008AE595E0CDDF81E090E0DF91CF911F9151
:100EC0000F91089560E070E08AE090E0DDDF6FE070
:100ED00070E08AE090E0D8DF60E070E08AE090E0C7
:100EE000D3DF60E470E084E290E0CEDF6CE870E095
:100EF00085E290E0C9DF62E070E086E290E0C4DF66
:100F000068E870E087E290E0BFDF6CE070E088E2C4
:100F100090E0BADF6AE070E089E290E0B5DF61E876
:100F200070E08AE290E0B0DF61E070E084E690E09B
:100F3000ABDF63E070E087E690E0A6DF60E870E09A
:100F400081E090E0A1DF64E070E084E390E09CDF6A
:100F500060E070E084E690E097DF60E070E08AE6B1
:100F600090E092DF61E070E084E690E08DDF60E287
:100F700070E08AE690E088DF63E170E084E390E06F
:100F800083CF0F931F93CF93DF938C01EB0169E61F
:100F900070E08AE595E05BDFB8018AE595E06DDFFA
:100FA00060E08AE595E054DF21E030E041E050E088
:100FB00069E670E08AE595E03FDF8AE595E09ADE34
:100FC000182F69E670E08AE595E041DFBE018AE509
:100FD00095E053DF60E08AE595E03ADF21E030E01C
:100FE00041E050E069E670E08AE595E025DF8AE5BA
:100FF00095E080DE982F8827810F911DDF91CF919A
:101000001F910F9108951092190681E080931706A1
:101010001092160661E084E10E94C01061E085E153
:101020000E94C010E9EBF0E080818E7F8083808198
:101030008D7F808388E48093B80085E48093BC0032
:101040000895413208F03FC0909119069111FCCFEC
:1010500091E090931906209317062FEF2093AC058B
:101060001092F105240F2093F005909318069091AB
:101070001806880F892B80931806809116068130F8
:1010800041F410921606809118068093BB0085ECFF
:1010900001C085EE8093BC00809119068130E1F398
:1010A0008091F105841710F44091F10522EF35E0AD
:1010B000FB01D9018A2F821B841718F48D9181932B
:1010C000F9CF842F089580E008950F93413208F0FE
:1010D00046C0909119069111FCCF92E090931906A9
:1010E000009317069FEF9093AC051092F105409383
:1010F000F005FB0162EF75E0DB019A2F961B941758
:1011000018F491919D93F9CF1092180690911806BA
:10111000880F892B8093180680911606813041F440
:1011200010921606809118068093BB0085EC01C0D2
:1011300085EE8093BC00222321F080911906823035
:10114000E1F38091AC058F3F61F08091AC05803276
:1011500051F08091AC05803341F483E007C081E019
:1011600005C080E003C082E001C084E00F910895D3
:10117000613298F420911906243089F46093CE05E9
:10118000FC0180ED95E0DC012A2F281B261718F4BE
:1011900021912D93F9CF80E0089581E0089582E0B8
:1011A000089585ED8093BC008091BC0084FDFCCF48
:1011B00010921906089585EC8093BC0010921906D0
:1011C00008951F920F920FB60F9211240BB60F9233
:1011D0002F933F934F935F936F937F938F939F933F
:1011E000AF93BF93EF93FF938091B900887F8036D0
:1011F00009F49CC068F5883209F45BC090F4803132
:1012000009F454C038F4882309F4F3C0883009F491
:101210004DC0F2C0883109F44CC0803209F45DC081
:10122000EBC0803409F468C048F4803309F455C039
:10123000883309F0E1C08093AC05A7C0803509F47C
:101240004FC0883509F45DC0883409F0D5C0D3C0DB
:10125000883909F4C4C0A8F4883709F467C038F4A1
:10126000883609F463C0803709F460C0C5C0883887
:1012700009F4B5C0803909F45FC0803809F0BCC0FA
:101280005BC0803B09F483C038F4803A09F466C03F
:10129000883A09F47CC0B0C0803C09F4A4C0883C02
:1012A00009F4A1C0883B09F487C0A6C08091180644
:1012B00010C09091F1058091F005981770F5E091BC
:1012C000F10581E08E0F8093F105F0E0EE50FA4FCA
:1012D00080818093BB0085EC83C08093AC058BC07C
:1012E000E091F10581E08E0F8093F1058091BB00C4
:1012F000F0E0EE50FA4F80839091F1058091F00577
:101300006BC0E091F10581E08E0F8093F105809133
:10131000BB00F0E0EE50FA4F8083809117068111F8
:101320006AC081E08093160684EA5EC083E0809301
:1013300019061092AD05CFCF8091AD05803208F02F
:101340004EC0E091AD0581E08E0F8093AD05809198
:10135000BB00F0E0E255FA4F8083BDCF8091AD0530
:10136000803230F4E091AD05F0E0E255FA4F1082A2
:1013700018DF6091AD0570E0E0911206F091130660
:101380008EEA95E019951092AD0515DF35C084E021
:10139000809319061092CF051092CE05E0911406A5
:1013A000F091150619958091CE05811105C081E057
:1013B0008093CE051092D005E091CF0581E08E0F8D
:1013C0008093CF05F0E0E053FA4F80818093BB001B
:1013D0009091CF058091CE05981708F47CCF85E8D1
:1013E0008093BC0009C085EC8093BC001092190664
:1013F00003C01092AC05D5DEFF91EF91BF91AF9184
:101400009F918F917F916F915F914F913F912F911C
:101410000F900BBE0F900FBE0F901F901895FC0100
:101420001482138287B18C6187B90895FC0183818E
:1014300094818130910531F0029739F48081806880
:10144000808303C081818068818342984498000032
:101450000000439A00000000000000000000429AD3
:101460000000000020E030E04398429800000000B7
:1014700048B1808190E0022E02C0959587950A942C
:10148000E2F78170992773E0880F991F7A95E1F749
:10149000482B48B900000000000000000000429AFC
:1014A000000000002F5F3F4F28303105E9F620E0B3
:1014B00030E0439842980000000048B1818190E0FC
:1014C000022E02C0959587950A94E2F781709927BC
:1014D00063E0880F991F6A95E1F7482B48B900002F
:1014E0000000000000000000429A000000002F5F92
:1014F0003F4F28303105E9F620E030E0439842982C
:101500000000000048B1828190E0022E02C0959553
:1015100087950A94E2F78170992753E0880F991F05
:101520005A95E1F7482B48B9000000000000000080
:101530000000429A000000002F5F3F4F2830310525
:10154000E9F68BE0429800000000439A000000009A
:10155000000000000000429A00000000815091F756
:10156000449A0895FF920F931F93CF93DF93EC015A
:10157000F88009811A81188219821A8257DF1C8229
:101580001B82F88209831A83DF91CF911F910F91FB
:10159000FF9008950F931F93CF93DF93FC01548323
:1015A0004383683E83E07807DCF49B016933AFEF47
:1015B0007A0714F429E33FEF01E010E0261737071C
:1015C00009F400E037FF10C02C39BFEF3B0714F4DB
:1015D00086E401C080E480833195219531090FC0F4
:1015E00027EE33E001E010E0C90164E670E00E94FC
:1015F00051146F567C4FDB0111968C918083CAE0A9
:10160000D0E0C901BE010E9451149C01CB01BE0172
:101610000E9451148F569C4FDC0111968C9181834E
:10162000D901AF56BC4F11968C918283CF01FEDE5B
:10163000C801DF91CF911F910F910895FC01148291
:1016400015821682178210861186128613861486DA
:10165000158616861786108A118A128A138A148AAA
:10166000158A168A178A108E118E128E138E08957F
:101670004F925F926F927F928F929F92AF92BF92A2
:10168000CF92DF92EF92FF92CF93DF93EC014885E8
:1016900059856A857B854C835D836E837F8367E490
:1016A00070E088E490E06DDCAC01662757FD609542
:1016B000762F488759876A877B874C895D896E8931
:1016C0007F89488B598B6A8B7B8B99D42B013C018A
:1016D0006C8B7D8B8E8B9F8BC884D984EA84FB8432
:1016E00088809980AA80BB80C701B60168197909F2
:1016F0008A099B0924E630E040E050E00E9486140D
:10170000D501C4010596A11DB11D8C159D05AE0521
:10171000BF0554F085E0881A9108A108B108C814E3
:10172000D904EA04FB0464F48C859D85AE85BF85ED
:10173000820F931FA41FB51F8C879D87AE87BF871D
:10174000488959896A897B89441A550A660A770A41
:10175000488E598E6A8E7B8EDF91CF91FF90EF90ED
:10176000DF90CF90BF90AF909F908F907F906F90C1
:101770005F904F900895FC018485958523E0880F44
:10178000991F2A95E1F7608D718D0E945114882769
:1017900077FD8095982F0895CF93DF93EC01198200
:1017A00018821B821A821D821C821F821E8218864A
:1017B000198625D46A877B878C879D871E861F861E
:1017C000188A198A1A8A1B8A1D8A1C8A1F8A1E8AED
:1017D000198E188EE1E0F1E080818860808380813D
:1017E00080618083259A269A8FEF90E090938700FE
:1017F0008093860032EA3093800029E120938100B3
:10180000109289001092880010928B0010928A002A
:101810009093A7008093A6003093A0002093A1008E
:101820001092A9001092A8001092AB001092AA008A
:10183000DF91CF910895E1E0F1E0808188608083BD
:10184000808180618083259A269A8FEF90E0909323
:1018500087008093860032EA3093800029E120934C
:101860008100109289001092880010928B001092D3
:101870008A009093A7008093A6003093A000209345
:10188000A1001092A9001092A8001092AB00109233
:10189000AA000895FC0180910201886080930201F2
:1018A0008FE193E00197F1F700C000008091020101
:1018B000877F8093020171836083228D338D848DB5
:1018C000958D62307105D1F184F461157105E1F0F7
:1018D0006130710509F043C030938900209388007E
:1018E00010928B0010928A0024C063307105C9F0F9
:1018F00064307105A1F5309389002093880010921F
:101900008B0010928A0022C03093890020938800B7
:1019100030938B0020938A009093A9008093A800B5
:1019200019C0109289001092880030938B00209388
:101930008A009093A9008093A8001DC0109289008E
:101940001092880030938B0020938A001092A90097
:101950001092A8009093AB008093AA000895109273
:1019600089001092880010928B0010928A001092C9
:10197000A9001092A8001092AB001092AA0008953E
:1019800060E070E087CFFB0120813181FC01338F63
:10199000228FFB0122813381FC01358F248F6081EE
:1019A000718178CFAF92BF92CF92DF92EF92FF9288
:1019B0000F931F93CF93DF93EC016B015A01B80192
:1019C000E2DF2C813D812130310509F46CC01CF42B
:1019D000232B61F07FC02230310509F46EC0233023
:1019E000310509F077C0CE01CBDF74C0F601E05CB1
:1019F000FF4FC080D180F501E05CFF4F0081118175
:101A000081E090E099838883C701F4D19C01AE8086
:101A1000BF80B601600F711F77FF02C06F5F7F4FFD
:101A20007B01F594E794C70185569109873C9105A0
:101A300008F04DC04CE2429FC001439F900D11241D
:101A4000EAE0F0E0BF012DD79B014A9DC0014B9D0C
:101A5000900D1124BF0125D78B01021B130B4AE007
:101A600050E0B90183E296E0B7D46CE973E083E219
:101A700096E0F9D34AE050E0B80183E296E0ACD4B6
:101A80006DEA73E083E296E0EED34AE050E0B701FE
:101A900083E296E0A8D4E016F106CCF4CE0170DF24
:101AA0008FEF9FEF19C06EEB73E083E296E0E6D311
:101AB00083E090E09D838C830DC08985811103C0F4
:101AC00083E090E002C084E090E099838883888579
:101AD00090E002C080E090E0DF91CF911F910F91E4
:101AE000FF90EF90DF90CF90BF90AF900895FC01F2
:101AF00060817181CFCEFC017583648360E070E00A
:101B0000C9CE0895FC01B89624E1DF011D922A9503
:101B1000E9F7FC0115AE14AE17AE16AEE05CFF4F50
:101B200011821082329611821082DB01FC012BE4BB
:101B300030E08D919D91918380833383228334960D
:101B4000275E3F4F253481E0380799F708950F93BA
:101B50001F93CF93DF93FC018B0124AD35ADE901D9
:101B60002196D5AFC4AFC9016AE070E09AD6449619
:101B7000880F991F8E0F9F1FDC010D931C93DF01AF
:101B8000AE5BBF4F0D931C93659724F0295031092C
:101B900035AF24AF17AE16AE20E030E040E050E0A5
:101BA000DF01A20FB31F98968D919C919997840F96
:101BB000951F2E5F3F4F2431310511F0AC01F0CF5E
:101BC00064AD75AD6B30710514F06AE070E069D6F4
:101BD00077AF66AF80819181861797070CF447C075
:101BE000DF0120E030E0CD91DC911197C617D707D7
:101BF000B4F114964D915C911597641775077CF1BB
:101C00008E01061B170BD9011396AA0FBB1FAE0F2F
:101C1000BF1F0D90BC91A02D0A9FC0010B9F900D7E
:101C20001A9F900D1124641B750BD9011196AA0FF0
:101C3000BB1FAE0FBF1F0D90BC91A02D6A9F9001DE
:101C40006B9F300D7A9F300D1124820F931FBE01C0
:101C5000641B750B26D66115710561F00DC01496D5
:101C60002E5F3F4F2231310509F0BDCF03C066EF33
:101C70007FEF02C067EE73E0E05CFF4F718360832B
:101C8000DF91CF911F910F910895FC01CB01442367
:101C900039F0E05CFF4F6081718141E050E004C0A9
:101CA00066AD77AD40E050E075CC809164008E7FEA
:101CB0008093640080917A00876880937A00809195
:101CC0007C008F7780937C0080917C00806480937F
:101CD0007C0080917C008E7F80937C0080917C00D2
:101CE000826080937C0080917C008B7F80937C005D
:101CF00080917C00877F80937C0080917C008F7E28
:101D000080937C0080917C008F7D80937C0080910B
:101D10007B008E7F80937B0080917B008D7F809302
:101D20007B0080917B008B7F80937B0080917A0089
:101D3000806480937A0080917A0084FFFCCF809148
:101D40007A00806180937A00809178008091790098
:101D5000089580917C00807C80937C0080917C0041
:101D60006F73682B60937C0080917A00806480930D
:101D70007A0080917A0084FFFCCF80917A008061A4
:101D800080937A00809178002091790090E0922BE6
:101D900008950895CF93DF93F8945A9AC9E6D0E056
:101DA00088818061888362EC73E083E296E05BD295
:101DB00068814AE050E083E296E037D384E08CBB50
:101DC000EA9A7894E5E0F1E0808181608083ECE636
:101DD000F0E0808182608083E8E6F0E080818260CC
:101DE0008083DF91CF910895FC01118610861386C0
:101DF00012860895FC01828593850895FC018085F3
:101E000091850895FC0171836083538342833583F8
:101E100024831782168211861086138612860895EF
:101E2000FC0151874087778366830895FC017183A5
:101E300060830895FC01738362830895FC017583B8
:101E400064830895FC0126813781261B370B428568
:101E50005385420F531F5387428764817581469F84
:101E6000C001479F900D569F900D112440855185CC
:101E7000D901A41BB50B62817381A69FA001A79F06
:101E8000500DB69F500D1124840F951F60817181F4
:101E9000269FA001279F500D369F500D1124840FBF
:101EA000951F64E670E0FDD4CB0108950F931F9356
:101EB000CF93DF93EC018B01198218821B821A8267
:101EC0001D821C821F821E8220E030E040E050E034
:101ED00060E070E0089696DF198218821B830A83FF
:101EE0001D830C838AE090E09F838E83DF91CF91E6
:101EF0001F910F910895089693CFFC01411103C0E3
:101F00009081818102C0962F872F9283838364837F
:101F10007583442319F08AE090E002C081E090E0EC
:101F2000978386830895CF93DF93EC01888199810D
:101F30009B838A838C819D81998388838E819F81F5
:101F40008A3091051CF401969F838E83CE010896FA
:101F500079DF9C0148815981BA01621B730BCA0168
:101F6000820F931FDF91CF9108951F920F920FB6AA
:101F70000F9211242F933F938F939F93AF93BF930F
:101F800080911B0690911C06A0911D06B0911E0623
:101F900030911A0623E0230F2D3720F40196A11D5E
:101FA000B11D05C026E8230F0296A11DB11D209387
:101FB0001A0680931B0690931C06A0931D06B093EF
:101FC0001E0680911F0690912006A0912106B091D7
:101FD00022060196A11DB11D80931F069093200635
:101FE000A0932106B0932206BF91AF919F918F914C
:101FF0003F912F910F900FBE0F901F9018952FB704
:10200000F89460911B0670911C0680911D069091BA
:102010001E062FBF0895789484B5826084BD84B570
:10202000816084BD85B5826085BD85B5816085BDD3
:10203000EEE6F0E0808181608083E1E8F0E01082EC
:10204000808182608083808181608083E0E8F0E02D
:10205000808181608083E1EBF0E080818460808317
:10206000E0EBF0E0808181608083E1E9F0E0808155
:1020700082608083808181608083E0E9F0E08081FC
:1020800081608083E1EAF0E08081826080838081EA
:1020900081608083E0EAF0E0808181608083E1E21A
:1020A000F1E0808182608083808181608083E0E2D2
:1020B000F1E0808181608083EAE7F0E080818460E4
:1020C0008083808182608083808181608083808141
:1020D000806880831092C100089590E0FC013197E0
:1020E000E231F10508F04BC0E757FF4F2BC4809158
:1020F00080008F7703C0809180008F7D8093800067
:10210000089580918000877FF9CF84B58F7702C0D2
:1021100084B58F7D84BD08958091B0008F7703C012
:102120008091B0008F7D8093B000089580919000E1
:102130008F7707C0809190008F7D03C080919000C1
:10214000877F8093900008958091A0008F7707C0CB
:102150008091A0008F7D03C08091A000877F809335
:10216000A0000895809120018F7707C08091200101
:102170008F7D03C080912001877F80932001089587
:102180000F931F93CF93DF931F92CDB7DEB7282F06
:1021900030E0F901EA5CFE4F8491F901E458FE4F0A
:1021A0001491F901EE53FE4F04910023C1F08823EE
:1021B00019F0698392DF6981E02FF0E0EE0FFF1FD5
:1021C000E85FFD4FA591B4919FB7F8948C91611190
:1021D00003C01095812301C0812B8C939FBF0F906A
:1021E000DF91CF911F910F910895CF92DF92EF92DF
:1021F000FF920F931F93CF93DF936C017A01EB0152
:10220000E60EF71E00E010E0CE15DF0561F06991E3
:10221000D601ED91FC910190F081E02DC601199558
:10222000080F191FF1CFC801DF91CF911F910F91B6
:10223000FF90EF90DF90CF9008956115710581F0C8
:10224000DB010D900020E9F7AD0141505109461B1B
:10225000570BDC01ED91FC910280F381E02D199484
:1022600080E090E00895E9CFDC01ED91FC910190D0
:10227000F081E02D199469EC73E0DFCF0F931F9389
:10228000CF93DF93EC01D9DF8C01CE01F4DF800F17
:10229000911FDF91CF911F910F9108958F929F927F
:1022A000AF92BF92CF92DF92EF92FF920F931F9364
:1022B000CF93DF93CDB7DEB7A1970FB6F894DEBF0B
:1022C0000FBECDBF7C01C42EE52FCB01D22E19A2AB
:1022D00021E02D1510F02AE0D22E8E010F5D1F4F48
:1022E0008D2C912CA12CB12C6C2D7E2FA50194014D
:1022F000EBD28C2DD29E80191124015011098A3005
:1023000014F4805D01C0895CF801808321153105DA
:102310004105510521F0C22EE32FCA01E5CFB801D6
:10232000C7018BDFA1960FB6F894DEBF0FBECDBFFD
:10233000DF91CF911F910F91FF90EF90DF90CF90A1
:10234000BF90AF909F908F900895CF92DF92EF92C1
:10235000FF920F931F93CF93DF93EC016A017B01F0
:102360002115310579F4E881F9810190F081E02DA2
:10237000642FDF91CF911F910F91FF90EF90DF902D
:10238000CF9019942A303105D9F477FF18C06DE247
:102390006BDF8C0144275527BA014C195D096E0982
:1023A0007F092AE0CE017ADF800F911FDF91CF9164
:1023B0001F910F91FF90EF90DF90CF9008952AE04A
:1023C000B701A601CE01DF91CF911F910F91FF9030
:1023D000EF90DF90CF9062CF9A01AB01662757FD57
:1023E0006095762FB2CF0F931F93CF93DF93EC01BD
:1023F0009A01AB01662757FD6095762FA6DF8C0109
:10240000CE0139DF800F911FDF91CF911F910F9186
:1024100008952115310541F4DC01ED91FC91019005
:10242000F081E02D642F199439CF0F931F93CF9330
:10243000DF93EC019A01462F50E060E070E0E9DFA5
:102440008C01CE0118DF800F911FDF91CF911F917A
:102450000F9108951F920F920FB60F9211240BB691
:102460000F922F938F939F93EF93FF93E0913306F7
:10247000F09134068081E0913906F0913A0682FDB0
:1024800012C0908180913C068F5F8F7320913D0632
:10249000821751F0E0913C06F0E0ED5DF94F958F29
:1024A00080933C0601C08081FF91EF919F918F91B5
:1024B0002F910F900BBE0F900FBE0F901F9018958D
:1024C0001F920F920FB60F9211240BB60F922F93FB
:1024D0003F934F935F936F937F938F939F93AF93AC
:1024E000BF93EF93FF9383E296E0D5D0FF91EF91F6
:1024F000BF91AF919F918F917F916F915F914F911C
:102500003F912F910F900BBE0F900FBE0F901F9019
:10251000189583E296E056D021E0892B09F420E05B
:10252000822F0895109226061092250688EE93E0D9
:10253000A0E0B0E08093270690932806A093290698
:10254000B0932A068CED93E09093240680932306A3
:1025500085EC90E09093300680932F0684EC90E019
:10256000909332068093310680EC90E0909334068D
:102570008093330681EC90E0909336068093350685
:1025800082EC90E0909338068093370686EC90E0DA
:1025900090933A068093390610923C0610923D06BD
:1025A00010923E0610923F060895089534DDFDDF37
:1025B0000E943202CFE0D3E10E940B032097E1F3A7
:1025C0002ED0FACFFC01818D228D90E0805C9F4F50
:1025D000821B91098F7399270895FC01918D828D3B
:1025E000981731F0828DE80FF11D858D90E00895E8
:1025F0008FEF9FEF0895FC01918D828D981761F008
:10260000828DDF01A80FB11D5D968C91928D9F5F29
:102610009F73928F90E008958FEF9FEF089589E860
:1026200092E1892B39F080E090E0892B19F071DF7D
:10263000811125C080E090E0892B41F080E090E09E
:10264000892B21F00E94000081111CC080E090E0E5
:10265000892B41F080E090E0892B21F00E9400005E
:10266000811113C080E090E0892BA1F080E090E020
:10267000892B81F00E94000081110AC008950E94F8
:102680000000D8CF0E940000E1CF0E940000EACFF6
:102690000C9400000895FC01848DDF01A80FB11D8A
:1026A000A35ABF4F2C91848D90E001968F73992788
:1026B000848FA689B7892C93A089B1898C91806475
:1026C0008C93938D848D981306C00288F389E02D36
:1026D00080818F7D80830895CF93DF93EC01888D77
:1026E0008823C1F0EA89FB89808185FD05C0A8891E
:1026F000B9898C9186FD0EC00FB607FCF5CF80819D
:1027000085FFF2CFA889B9898C9185FFEDCFCE01E5
:10271000C2DFE8CFDF91CF910895CF92DF92FF9291
:102720000F931F93CF93DF931F92CDB7DEB76C014A
:1027300081E0D60158968C9358975B969C915B9755
:102740005C968C915C97981307C05096ED91FC9124
:102750005197808185FD2DC0F601038D10E00F5F3C
:102760001F4F0F731127F02EF601848DF81210C041
:102770000FB607FCF9CFD6015096ED91FC91519719
:10278000808185FFF1CFC601698385DF6981ECCF48
:10279000838DE80FF11DE35AFF4F6083D6015B96EE
:1027A0000C935B975296ED91FC91539780818062D8
:1027B0000CC0D6015696ED91FC91579760835096C8
:1027C000ED91FC91519780818064808381E090E05D
:1027D0000F90DF91CF911F910F91FF90DF90CF90DD
:1027E0000895BF92CF92DF92EF92FF92CF93DF9343
:1027F000EC016A017B01B22EE889F98982E08083CD
:10280000411581EE58076105710599F060E079E0A6
:102810008DE390E0A701960157D02150310941097D
:1028200051095695479537952795211580E1380729
:1028300090F0E889F989108260E874E88EE190E010
:10284000A701960141D021503109410951095695FE
:10285000479537952795EC85FD853083EE85FF8577
:102860002083188EEC89FD89B082EA89FB898081FA
:1028700080618083EA89FB89808188608083EA891E
:10288000FB89808180688083EA89FB8980818F7DD4
:102890008083DF91CF91FF90EF90DF90CF90BF903A
:1028A000089597FB072E16F4009406D077FD08D004
:1028B00053D007FC05D03EF4909581959F4F089525
:1028C000709561957F4F0895A1E21A2EAA1BBB1B3C
:1028D000FD010DC0AA1FBB1FEE1FFF1FA217B307EC
:1028E000E407F50720F0A21BB30BE40BF50B661F02
:1028F000771F881F991F1A9469F7609570958095C6
:1029000090959B01AC01BD01CF010895052E97FB69
:1029100016F400940FD057FD05D0D6DF07FC02D087
:1029200046F408C050954095309521953F4F4F4F44
:102930005F4F089590958095709561957F4F8F4F6B
:102940009F4F0895EE0FFF1F0590F491E02D19940D
:102950000790F691E02D1994AA1BBB1B51E107C00B
:10296000AA1FBB1FA617B70710F0A61BB70B881F1F
:10297000991F5A95A9F780959095BC01CD010895AE
:04298000F894FFCFF9
:1029840001009C0097012201DF00BE009B0088002B
:10299400700065005A0051006E011601D000B200AB
:1029A400940082006C005F0059005000436163682A
:1029B400652066756C6C2C2074686520666F6C6C81
:1029C4006F77696E6720436F6D6D616E642043613C
:1029D4006E742062652061646465643A00416464D5
:1029E40065642074686520666F6C6C6F77696E67C8
:1029F40020436F6D6D616E643A003031323334358B
:102A04003637383900746861742073686F756C6484
:102A14006E742062652068657265202E2E2E005427
:102A2400686520466F6C6C6F77696E6720436F6DC5
:102A34006D616E6420686173206265656E206578DF
:102A44006563757465643A20005468652043757243
:102A540072656E7420436F6D6D616E643A20002060
:102A640063616E7420626520636F6D706C6574655C
:102A7400642C207468652071756575652069732000
:102A8400626565696E672064656C657465642E00B3
:102A94005468652071756575656420436F6D6D615B
:102AA4006E643A200020686173206265656E20645C
:102AB400656C657465642E0064656661756C74008C
:102AC400436F6D6D616E6420662063616E7420686F
:102AD40061766520612076616C756520776974681C
:102AE400207369676E2E2054686520436F6D6D6195
:102AF4006E64206973206E6F742061646465642E53
:102B04000000000000C9069D0672067A068D069C28
:102B140006463F065B4F666D7D077F6F646973747D
:102B2400616E636544726976656E20200064697322
:102B340074616E6365546F447269766520006C6FCE
:102B44006C00454943524120000D0A006E616E003D
:102B5400696E66006F766600000000008D13F51044
:082B6400E212FB12ED126C13EA
:00000001FF
